{
  "contractName": "MockKeeper",
  "abi": [
    {
      "inputs": [
        {
          "internalType": "address",
          "name": "_provider",
          "type": "address"
        }
      ],
      "stateMutability": "nonpayable",
      "type": "constructor"
    },
    {
      "inputs": [],
      "name": "provider",
      "outputs": [
        {
          "internalType": "contract PensionServiceProvider",
          "name": "",
          "type": "address"
        }
      ],
      "stateMutability": "view",
      "type": "function"
    },
    {
      "inputs": [],
      "name": "check",
      "outputs": [
        {
          "internalType": "bool",
          "name": "",
          "type": "bool"
        }
      ],
      "stateMutability": "nonpayable",
      "type": "function"
    },
    {
      "inputs": [
        {
          "internalType": "bytes",
          "name": "data",
          "type": "bytes"
        }
      ],
      "name": "perform",
      "outputs": [
        {
          "internalType": "bool",
          "name": "",
          "type": "bool"
        }
      ],
      "stateMutability": "nonpayable",
      "type": "function"
    }
  ],
  "bytecode": "0x608060405234801561001057600080fd5b506040516108333803806108338339818101604052810190610032919061008e565b80600060026101000a81548173ffffffffffffffffffffffffffffffffffffffff021916908373ffffffffffffffffffffffffffffffffffffffff16021790555050610100565b600081519050610088816100e9565b92915050565b6000602082840312156100a057600080fd5b60006100ae84828501610079565b91505092915050565b60006100c2826100c9565b9050919050565b600073ffffffffffffffffffffffffffffffffffffffff82169050919050565b6100f2816100b7565b81146100fd57600080fd5b50565b6107248061010f6000396000f3fe608060405234801561001057600080fd5b50600436106100415760003560e01c8063085d488314610046578063919840ad14610064578063bb6ae2cb14610082575b600080fd5b61004e6100b2565b60405161005b9190610527565b60405180910390f35b61006c6100d8565b60405161007991906104e8565b60405180910390f35b61009c600480360381019061009791906103d8565b6101fd565b6040516100a991906104e8565b60405180910390f35b600060029054906101000a900473ffffffffffffffffffffffffffffffffffffffff1681565b600080600060029054906101000a900473ffffffffffffffffffffffffffffffffffffffff1673ffffffffffffffffffffffffffffffffffffffff16636e04ff0d6040518163ffffffff1660e01b815260040161013490610542565b60006040518083038186803b15801561014c57600080fd5b505afa158015610160573d6000803e3d6000fd5b505050506040513d6000823e3d601f19601f820116820180604052508101906101899190610384565b509050806101cc576040517f08c379a00000000000000000000000000000000000000000000000000000000081526004016101c390610562565b60405180910390fd5b6001600060016101000a81548160ff021916908315150217905550600060019054906101000a900460ff1691505090565b60008060029054906101000a900473ffffffffffffffffffffffffffffffffffffffff1673ffffffffffffffffffffffffffffffffffffffff16634585e33b84846040518363ffffffff1660e01b815260040161025b929190610503565b600060405180830381600087803b15801561027557600080fd5b505af1158015610289573d6000803e3d6000fd5b5050505060016000806101000a81548160ff02191690831515021790555060008054906101000a900460ff16905092915050565b60006102d06102cb846105b3565b610582565b9050828152602081018484840111156102e857600080fd5b6102f3848285610664565b509392505050565b60008151905061030a816106d7565b92915050565b60008083601f84011261032257600080fd5b8235905067ffffffffffffffff81111561033b57600080fd5b60208301915083600182028301111561035357600080fd5b9250929050565b600082601f83011261036b57600080fd5b815161037b8482602086016102bd565b91505092915050565b6000806040838503121561039757600080fd5b60006103a5858286016102fb565b925050602083015167ffffffffffffffff8111156103c257600080fd5b6103ce8582860161035a565b9150509250929050565b600080602083850312156103eb57600080fd5b600083013567ffffffffffffffff81111561040557600080fd5b61041185828601610310565b92509250509250929050565b61042681610605565b82525050565b600061043883856105e3565b9350610445838584610655565b61044e836106c6565b840190509392505050565b61046281610631565b82525050565b60006104756002836105e3565b91507f30780000000000000000000000000000000000000000000000000000000000006000830152602082019050919050565b60006104b56015836105f4565b91507f5570204b656570206e6f7420706572666f726d656400000000000000000000006000830152602082019050919050565b60006020820190506104fd600083018461041d565b92915050565b6000602082019050818103600083015261051e81848661042c565b90509392505050565b600060208201905061053c6000830184610459565b92915050565b6000602082019050818103600083015261055b81610468565b9050919050565b6000602082019050818103600083015261057b816104a8565b9050919050565b6000604051905081810181811067ffffffffffffffff821117156105a9576105a8610697565b5b8060405250919050565b600067ffffffffffffffff8211156105ce576105cd610697565b5b601f19601f8301169050602081019050919050565b600082825260208201905092915050565b600082825260208201905092915050565b60008115159050919050565b600073ffffffffffffffffffffffffffffffffffffffff82169050919050565b600061063c82610643565b9050919050565b600061064e82610611565b9050919050565b82818337600083830152505050565b60005b83811015610682578082015181840152602081019050610667565b83811115610691576000848401525b50505050565b7f4e487b7100000000000000000000000000000000000000000000000000000000600052604160045260246000fd5b6000601f19601f8301169050919050565b6106e081610605565b81146106eb57600080fd5b5056fea2646970667358221220af125b7a42a72846aed5e39b351af012f10c4df1150ebc85f08effed2bb3033364736f6c63430008000033",
  "immutableReferences": {},
  "source": "// SPDX-License-Identifier: MIT\r\npragma solidity ^0.8.0;\r\n\r\nimport \"@chainlink/contracts/src/v0.8/interfaces/KeeperCompatibleInterface.sol\";\r\nimport \"./PensionServiceProvider.sol\";\r\n\r\ncontract MockKeeper  {\r\n\r\n    bool upKeepPerformed;\r\n    bool upkeepChecked;\r\n    PensionServiceProvider public provider;\r\n\r\n\r\n    constructor(address _provider)  {\r\n        provider = PensionServiceProvider(_provider);\r\n    \r\n    }\r\n\r\n    function check() public returns(bool)  {\r\n        // chekupKeep\r\n        (bool success, ) = provider.checkUpkeep(\"0x\");\r\n        require (success, \"Up Keep not performed\");\r\n        upkeepChecked = true;\r\n\r\n        return upkeepChecked;\r\n        \r\n    }\r\n\r\n    function perform(bytes calldata data) public returns(bool) {\r\n        provider.performUpkeep(data);\r\n        // require (success, \"Up Keep not performed\");\r\n        upKeepPerformed = true;\r\n\r\n        return upKeepPerformed;\r\n        \r\n        // We don't use the performData in this example. The performData is generated by the Keeper's call to your checkUpkeep function\r\n    }\r\n}",
  "sourcePath": "/mnt/c/Users/chuks/Desktop/Project/beima_project/beima_core/contracts/MockKeeper.sol",
  "compiler": {
    "name": "solc",
    "version": "0.8.0+commit.c7dfd78e.Emscripten.clang"
  },
  "schemaVersion": "3.4.3",
  "updatedAt": "2021-12-02T23:03:04.901Z",
  "devdoc": {
    "kind": "dev",
    "methods": {},
    "version": 1
  },
  "userdoc": {
    "kind": "user",
    "methods": {},
    "version": 1
  }
}