{
  "contractName": "MockKeeper",
  "abi": [
    {
      "inputs": [
        {
          "internalType": "address",
          "name": "_provider",
          "type": "address"
        }
      ],
      "stateMutability": "nonpayable",
      "type": "constructor"
    },
    {
      "inputs": [],
      "name": "provider",
      "outputs": [
        {
          "internalType": "contract PensionServiceProvider",
          "name": "",
          "type": "address"
        }
      ],
      "stateMutability": "view",
      "type": "function"
    },
    {
      "inputs": [],
      "name": "checkUpKeep",
      "outputs": [
        {
          "internalType": "bool",
          "name": "",
          "type": "bool"
        }
      ],
      "stateMutability": "nonpayable",
      "type": "function"
    }
  ],
  "bytecode": "0x608060405234801561001057600080fd5b506040516106353803806106358339818101604052810190610032919061008e565b80600060016101000a81548173ffffffffffffffffffffffffffffffffffffffff021916908373ffffffffffffffffffffffffffffffffffffffff16021790555050610100565b600081519050610088816100e9565b92915050565b6000602082840312156100a057600080fd5b60006100ae84828501610079565b91505092915050565b60006100c2826100c9565b9050919050565b600073ffffffffffffffffffffffffffffffffffffffff82169050919050565b6100f2816100b7565b81146100fd57600080fd5b50565b6105268061010f6000396000f3fe608060405234801561001057600080fd5b50600436106100365760003560e01c8063085d48831461003b578063c8249d8a14610059575b600080fd5b610043610077565b6040516100509190610349565b60405180910390f35b61006161009d565b60405161006e919061032e565b60405180910390f35b600060019054906101000a900473ffffffffffffffffffffffffffffffffffffffff1681565b600080600060019054906101000a900473ffffffffffffffffffffffffffffffffffffffff1673ffffffffffffffffffffffffffffffffffffffff16636e04ff0d6040518163ffffffff1660e01b81526004016100f990610364565b60006040518083038186803b15801561011157600080fd5b505afa158015610125573d6000803e3d6000fd5b505050506040513d6000823e3d601f19601f8201168201806040525081019061014e919061023c565b50905080610191576040517f08c379a000000000000000000000000000000000000000000000000000000000815260040161018890610384565b60405180910390fd5b60016000806101000a81548160ff02191690831515021790555060008054906101000a900460ff1691505090565b60006101d26101cd846103d5565b6103a4565b9050828152602081018484840111156101ea57600080fd5b6101f5848285610477565b509392505050565b60008151905061020c816104d9565b92915050565b600082601f83011261022357600080fd5b81516102338482602086016101bf565b91505092915050565b6000806040838503121561024f57600080fd5b600061025d858286016101fd565b925050602083015167ffffffffffffffff81111561027a57600080fd5b61028685828601610212565b9150509250929050565b61029981610427565b82525050565b6102a881610453565b82525050565b60006102bb600283610405565b91507f30780000000000000000000000000000000000000000000000000000000000006000830152602082019050919050565b60006102fb601583610416565b91507f5570204b656570206e6f7420706572666f726d656400000000000000000000006000830152602082019050919050565b60006020820190506103436000830184610290565b92915050565b600060208201905061035e600083018461029f565b92915050565b6000602082019050818103600083015261037d816102ae565b9050919050565b6000602082019050818103600083015261039d816102ee565b9050919050565b6000604051905081810181811067ffffffffffffffff821117156103cb576103ca6104aa565b5b8060405250919050565b600067ffffffffffffffff8211156103f0576103ef6104aa565b5b601f19601f8301169050602081019050919050565b600082825260208201905092915050565b600082825260208201905092915050565b60008115159050919050565b600073ffffffffffffffffffffffffffffffffffffffff82169050919050565b600061045e82610465565b9050919050565b600061047082610433565b9050919050565b60005b8381101561049557808201518184015260208101905061047a565b838111156104a4576000848401525b50505050565b7f4e487b7100000000000000000000000000000000000000000000000000000000600052604160045260246000fd5b6104e281610427565b81146104ed57600080fd5b5056fea2646970667358221220d62b041a49288bb90e085de166f82417448c424a95c4b168c5df339930769a5c64736f6c63430008000033",
  "immutableReferences": {},
  "source": "pragma solidity ^0.8.0;\r\n\r\nimport \"@chainlink/contracts/src/v0.8/interfaces/KeeperCompatibleInterface.sol\";\r\nimport \"./PensionServiceProvider.sol\";\r\n\r\ncontract MockKeeper  {\r\n\r\n    bool upKeepPerformed;\r\n    PensionServiceProvider public provider;\r\n\r\n\r\n    constructor(address _provider)  {\r\n        provider = PensionServiceProvider(_provider);\r\n    \r\n    }\r\n\r\n    function checkUpKeep() public returns(bool)  {\r\n        // chekupKeep\r\n        (bool success, ) = provider.checkUpkeep(\"0x\");\r\n        require (success, \"Up Keep not performed\");\r\n        upKeepPerformed = true;\r\n\r\n        return upKeepPerformed;\r\n        \r\n    }\r\n\r\n    // function performUpkeep(bytes calldata /* performData */) external override {\r\n    //     lastTimeStamp = block.timestamp;\r\n    //     counter = counter + 1;\r\n    //     // We don't use the performData in this example. The performData is generated by the Keeper's call to your checkUpkeep function\r\n    // }\r\n}",
  "sourcePath": "/mnt/c/Users/chuks/Desktop/Project/beima_project/beima_core/contracts/MockKeeper.sol",
  "compiler": {
    "name": "solc",
    "version": "0.8.0+commit.c7dfd78e.Emscripten.clang"
  },
  "schemaVersion": "3.4.3",
  "updatedAt": "2021-11-29T08:46:31.804Z",
  "devdoc": {
    "kind": "dev",
    "methods": {},
    "version": 1
  },
  "userdoc": {
    "kind": "user",
    "methods": {},
    "version": 1
  }
}