{
  "contractName": "PensionServiceProvider",
  "abi": [
    {
      "inputs": [
        {
          "internalType": "address",
          "name": "_xend",
          "type": "address"
        },
        {
          "internalType": "address",
          "name": "_xendFinanceIndividual_Yearn_V1",
          "type": "address"
        },
        {
          "internalType": "address",
          "name": "_comptroller",
          "type": "address"
        },
        {
          "internalType": "address",
          "name": "_priceOracle",
          "type": "address"
        },
        {
          "internalType": "uint256",
          "name": "_upKeepInterval",
          "type": "uint256"
        }
      ],
      "stateMutability": "nonpayable",
      "type": "constructor"
    },
    {
      "anonymous": false,
      "inputs": [
        {
          "indexed": true,
          "internalType": "address",
          "name": "sender",
          "type": "address"
        },
        {
          "indexed": false,
          "internalType": "address",
          "name": "receiver",
          "type": "address"
        },
        {
          "indexed": true,
          "internalType": "uint256",
          "name": "amountSpent",
          "type": "uint256"
        }
      ],
      "name": "Deposit",
      "type": "event"
    },
    {
      "anonymous": false,
      "inputs": [
        {
          "indexed": false,
          "internalType": "address",
          "name": "user",
          "type": "address"
        },
        {
          "indexed": false,
          "internalType": "string",
          "name": "planDetails",
          "type": "string"
        },
        {
          "indexed": false,
          "internalType": "uint256",
          "name": "lockTime",
          "type": "uint256"
        }
      ],
      "name": "Plan",
      "type": "event"
    },
    {
      "anonymous": false,
      "inputs": [
        {
          "indexed": true,
          "internalType": "address",
          "name": "applicant",
          "type": "address"
        },
        {
          "indexed": true,
          "internalType": "string",
          "name": "applicantDetails",
          "type": "string"
        }
      ],
      "name": "Register",
      "type": "event"
    },
    {
      "anonymous": false,
      "inputs": [
        {
          "indexed": true,
          "internalType": "address",
          "name": "sender",
          "type": "address"
        },
        {
          "indexed": false,
          "internalType": "uint256",
          "name": "amount",
          "type": "uint256"
        },
        {
          "indexed": true,
          "internalType": "address",
          "name": "receiver",
          "type": "address"
        }
      ],
      "name": "Transfer",
      "type": "event"
    },
    {
      "anonymous": false,
      "inputs": [
        {
          "indexed": false,
          "internalType": "uint256",
          "name": "timeDuration",
          "type": "uint256"
        }
      ],
      "name": "Update",
      "type": "event"
    },
    {
      "anonymous": false,
      "inputs": [
        {
          "indexed": false,
          "internalType": "address",
          "name": "sender",
          "type": "address"
        },
        {
          "indexed": false,
          "internalType": "bool",
          "name": "upkeep",
          "type": "bool"
        }
      ],
      "name": "Upkeep",
      "type": "event"
    },
    {
      "anonymous": false,
      "inputs": [
        {
          "indexed": false,
          "internalType": "address",
          "name": "from",
          "type": "address"
        },
        {
          "indexed": false,
          "internalType": "address",
          "name": "to",
          "type": "address"
        },
        {
          "indexed": false,
          "internalType": "uint256",
          "name": "amount",
          "type": "uint256"
        }
      ],
      "name": "Withdraw",
      "type": "event"
    },
    {
      "inputs": [],
      "name": "comptroller",
      "outputs": [
        {
          "internalType": "contract ComptrollerInterface",
          "name": "",
          "type": "address"
        }
      ],
      "stateMutability": "view",
      "type": "function",
      "constant": true
    },
    {
      "inputs": [
        {
          "internalType": "address",
          "name": "",
          "type": "address"
        }
      ],
      "name": "isRegistered",
      "outputs": [
        {
          "internalType": "bool",
          "name": "",
          "type": "bool"
        }
      ],
      "stateMutability": "view",
      "type": "function",
      "constant": true
    },
    {
      "inputs": [],
      "name": "lastTimeStamp",
      "outputs": [
        {
          "internalType": "uint256",
          "name": "",
          "type": "uint256"
        }
      ],
      "stateMutability": "view",
      "type": "function",
      "constant": true
    },
    {
      "inputs": [
        {
          "internalType": "address",
          "name": "",
          "type": "address"
        }
      ],
      "name": "pensionServiceApplicant",
      "outputs": [
        {
          "internalType": "uint256",
          "name": "id",
          "type": "uint256"
        },
        {
          "internalType": "address payable",
          "name": "userAddress",
          "type": "address"
        },
        {
          "internalType": "string",
          "name": "userDetails",
          "type": "string"
        },
        {
          "components": [
            {
              "internalType": "address",
              "name": "underlyingAsset",
              "type": "address"
            },
            {
              "internalType": "uint256",
              "name": "depositedAmount",
              "type": "uint256"
            },
            {
              "internalType": "uint256",
              "name": "amountToSpend",
              "type": "uint256"
            },
            {
              "internalType": "uint256",
              "name": "approvedAmountToSpend",
              "type": "uint256"
            },
            {
              "internalType": "uint256",
              "name": "startTime",
              "type": "uint256"
            },
            {
              "internalType": "uint256",
              "name": "timeDurationOfdeposit",
              "type": "uint256"
            },
            {
              "internalType": "uint256",
              "name": "lockTime",
              "type": "uint256"
            },
            {
              "internalType": "string",
              "name": "ipfsHashOfUserPensionDetails",
              "type": "string"
            },
            {
              "internalType": "uint256",
              "name": "userLastRewardBlock",
              "type": "uint256"
            },
            {
              "internalType": "bool",
              "name": "hasPlan",
              "type": "bool"
            }
          ],
          "internalType": "struct PensionServiceProvider.Client",
          "name": "client",
          "type": "tuple"
        }
      ],
      "stateMutability": "view",
      "type": "function",
      "constant": true
    },
    {
      "inputs": [],
      "name": "priceOracle",
      "outputs": [
        {
          "internalType": "contract PriceOracleInterface",
          "name": "",
          "type": "address"
        }
      ],
      "stateMutability": "view",
      "type": "function",
      "constant": true
    },
    {
      "inputs": [],
      "name": "upKeepInterval",
      "outputs": [
        {
          "internalType": "uint256",
          "name": "",
          "type": "uint256"
        }
      ],
      "stateMutability": "view",
      "type": "function",
      "constant": true
    },
    {
      "inputs": [
        {
          "internalType": "uint256",
          "name": "",
          "type": "uint256"
        }
      ],
      "name": "users",
      "outputs": [
        {
          "internalType": "uint256",
          "name": "id",
          "type": "uint256"
        },
        {
          "internalType": "address payable",
          "name": "userAddress",
          "type": "address"
        },
        {
          "internalType": "string",
          "name": "userDetails",
          "type": "string"
        },
        {
          "components": [
            {
              "internalType": "address",
              "name": "underlyingAsset",
              "type": "address"
            },
            {
              "internalType": "uint256",
              "name": "depositedAmount",
              "type": "uint256"
            },
            {
              "internalType": "uint256",
              "name": "amountToSpend",
              "type": "uint256"
            },
            {
              "internalType": "uint256",
              "name": "approvedAmountToSpend",
              "type": "uint256"
            },
            {
              "internalType": "uint256",
              "name": "startTime",
              "type": "uint256"
            },
            {
              "internalType": "uint256",
              "name": "timeDurationOfdeposit",
              "type": "uint256"
            },
            {
              "internalType": "uint256",
              "name": "lockTime",
              "type": "uint256"
            },
            {
              "internalType": "string",
              "name": "ipfsHashOfUserPensionDetails",
              "type": "string"
            },
            {
              "internalType": "uint256",
              "name": "userLastRewardBlock",
              "type": "uint256"
            },
            {
              "internalType": "bool",
              "name": "hasPlan",
              "type": "bool"
            }
          ],
          "internalType": "struct PensionServiceProvider.Client",
          "name": "client",
          "type": "tuple"
        }
      ],
      "stateMutability": "view",
      "type": "function",
      "constant": true
    },
    {
      "inputs": [],
      "name": "xend",
      "outputs": [
        {
          "internalType": "contract IERC20",
          "name": "",
          "type": "address"
        }
      ],
      "stateMutability": "view",
      "type": "function",
      "constant": true
    },
    {
      "inputs": [],
      "name": "xendFinance",
      "outputs": [
        {
          "internalType": "contract XendFinanceInterface",
          "name": "",
          "type": "address"
        }
      ],
      "stateMutability": "view",
      "type": "function",
      "constant": true
    },
    {
      "inputs": [
        {
          "internalType": "string",
          "name": "_userDetails",
          "type": "string"
        }
      ],
      "name": "register",
      "outputs": [],
      "stateMutability": "nonpayable",
      "type": "function"
    },
    {
      "inputs": [
        {
          "internalType": "address",
          "name": "_asset",
          "type": "address"
        },
        {
          "internalType": "uint256",
          "name": "_amount",
          "type": "uint256"
        }
      ],
      "name": "deposit",
      "outputs": [],
      "stateMutability": "payable",
      "type": "function",
      "payable": true
    },
    {
      "inputs": [],
      "name": "withdraw",
      "outputs": [],
      "stateMutability": "nonpayable",
      "type": "function"
    },
    {
      "inputs": [],
      "name": "updateTimeDurationOfDeposit",
      "outputs": [],
      "stateMutability": "nonpayable",
      "type": "function"
    },
    {
      "inputs": [
        {
          "internalType": "address",
          "name": "_underlyingAsset",
          "type": "address"
        },
        {
          "internalType": "string",
          "name": "_ipfsHashOfUserPensionDetails",
          "type": "string"
        },
        {
          "internalType": "uint256",
          "name": "_approvedAmountToSpend",
          "type": "uint256"
        },
        {
          "internalType": "uint256",
          "name": "_amountToSpend",
          "type": "uint256"
        },
        {
          "internalType": "uint256",
          "name": "_timeDurationOfDeposit",
          "type": "uint256"
        },
        {
          "internalType": "uint256",
          "name": "_lockTime",
          "type": "uint256"
        }
      ],
      "name": "setPlan",
      "outputs": [],
      "stateMutability": "nonpayable",
      "type": "function"
    },
    {
      "inputs": [
        {
          "internalType": "address",
          "name": "_user",
          "type": "address"
        }
      ],
      "name": "getXendPendingRewards",
      "outputs": [
        {
          "internalType": "uint256",
          "name": "",
          "type": "uint256"
        }
      ],
      "stateMutability": "view",
      "type": "function",
      "constant": true
    },
    {
      "inputs": [
        {
          "internalType": "uint256",
          "name": "_amount",
          "type": "uint256"
        }
      ],
      "name": "depositToXendFinance",
      "outputs": [],
      "stateMutability": "nonpayable",
      "type": "function"
    },
    {
      "inputs": [],
      "name": "withdrawFromXendFinance",
      "outputs": [],
      "stateMutability": "nonpayable",
      "type": "function"
    },
    {
      "inputs": [],
      "name": "getAccruedInterest",
      "outputs": [
        {
          "internalType": "uint256",
          "name": "",
          "type": "uint256"
        }
      ],
      "stateMutability": "view",
      "type": "function",
      "constant": true
    }
  ],
  "bytecode": "0x60806040523480156200001157600080fd5b5060405162004c7138038062004c718339818101604052810190620000379190620001ef565b84600660006101000a81548173ffffffffffffffffffffffffffffffffffffffff021916908373ffffffffffffffffffffffffffffffffffffffff160217905550826000806101000a81548173ffffffffffffffffffffffffffffffffffffffff021916908373ffffffffffffffffffffffffffffffffffffffff16021790555081600160006101000a81548173ffffffffffffffffffffffffffffffffffffffff021916908373ffffffffffffffffffffffffffffffffffffffff16021790555083600560006101000a81548173ffffffffffffffffffffffffffffffffffffffff021916908373ffffffffffffffffffffffffffffffffffffffff1602179055506200015d600a6729a2241af62c00006200019360201b620031ef1790919060201c565b6004819055504260078190555080600881905550620001886002620001ab60201b620032051760201c565b50505050506200034a565b60008183620001a3919062000271565b905092915050565b6001816000016000828254019250508190555050565b600081519050620001d28162000316565b92915050565b600081519050620001e98162000330565b92915050565b600080600080600060a086880312156200020857600080fd5b60006200021888828901620001c1565b95505060206200022b88828901620001c1565b94505060406200023e88828901620001c1565b93505060606200025188828901620001c1565b92505060806200026488828901620001d8565b9150509295509295909350565b60006200027e82620002dd565b91506200028b83620002dd565b9250826200029e576200029d620002e7565b5b828204905092915050565b6000620002b682620002bd565b9050919050565b600073ffffffffffffffffffffffffffffffffffffffff82169050919050565b6000819050919050565b7f4e487b7100000000000000000000000000000000000000000000000000000000600052601260045260246000fd5b6200032181620002a9565b81146200032d57600080fd5b50565b6200033b81620002dd565b81146200034757600080fd5b50565b614917806200035a6000396000f3fe6080604052600436106101095760003560e01c80635909833011610095578063c3c5a54711610064578063c3c5a5471461031a578063c742ee0514610357578063de15f0da14610394578063f2c298be146103bd578063f5dd6065146103e657610109565b8063590983301461026f5780635bc9d2bf146102865780635daa4bfa146102c65780635fe3b567146102ef57610109565b80633ccfd60b116100dc5780633ccfd60b146101cf5780633f3b3b27146101e657806347e7ef2414610211578063564afa3a1461022d57806356dc5d8e1461025857610109565b80631a15687b1461010e5780632630c12f146101395780633245f22814610164578063365b98b21461018f575b600080fd5b34801561011a57600080fd5b50610123610411565b604051610130919061440a565b60405180910390f35b34801561014557600080fd5b5061014e610417565b60405161015b91906141d4565b60405180910390f35b34801561017057600080fd5b5061017961043d565b60405161018691906141b9565b60405180910390f35b34801561019b57600080fd5b506101b660048036038101906101b191906138c9565b610463565b6040516101c69493929190614425565b60405180910390f35b3480156101db57600080fd5b506101e461069f565b005b3480156101f257600080fd5b506101fb610f26565b604051610208919061440a565b60405180910390f35b61022b60048036038101906102269190613823565b610f2c565b005b34801561023957600080fd5b50610242611314565b60405161024f919061440a565b60405180910390f35b34801561026457600080fd5b5061026d611725565b005b34801561027b57600080fd5b50610284611aa4565b005b34801561029257600080fd5b506102ad60048036038101906102a89190613730565b61204f565b6040516102bd9493929190614425565b60405180910390f35b3480156102d257600080fd5b506102ed60048036038101906102e891906138c9565b61227b565b005b3480156102fb57600080fd5b50610304612640565b604051610311919061419e565b60405180910390f35b34801561032657600080fd5b50610341600480360381019061033c9190613730565b612664565b60405161034e9190614183565b60405180910390f35b34801561036357600080fd5b5061037e60048036038101906103799190613730565b612684565b60405161038b919061440a565b60405180910390f35b3480156103a057600080fd5b506103bb60048036038101906103b69190613782565b612a12565b005b3480156103c957600080fd5b506103e460048036038101906103df9190613888565b612cc5565b005b3480156103f257600080fd5b506103fb6131c9565b60405161040891906141ef565b60405180910390f35b60085481565b600160009054906101000a900473ffffffffffffffffffffffffffffffffffffffff1681565b600660009054906101000a900473ffffffffffffffffffffffffffffffffffffffff1681565b600b818154811061047357600080fd5b90600052602060002090600d02016000915090508060000154908060010160009054906101000a900473ffffffffffffffffffffffffffffffffffffffff16908060020180546104c29061479d565b80601f01602080910402602001604051908101604052809291908181526020018280546104ee9061479d565b801561053b5780601f106105105761010080835404028352916020019161053b565b820191906000526020600020905b81548152906001019060200180831161051e57829003601f168201915b50505050509080600301604051806101400160405290816000820160009054906101000a900473ffffffffffffffffffffffffffffffffffffffff1673ffffffffffffffffffffffffffffffffffffffff1673ffffffffffffffffffffffffffffffffffffffff1681526020016001820154815260200160028201548152602001600382015481526020016004820154815260200160058201548152602001600682015481526020016007820180546105f39061479d565b80601f016020809104026020016040519081016040528092919081815260200182805461061f9061479d565b801561066c5780601f106106415761010080835404028352916020019161066c565b820191906000526020600020905b81548152906001019060200180831161064f57829003601f168201915b50505050508152602001600882015481526020016009820160009054906101000a900460ff161515151581525050905084565b600a60003373ffffffffffffffffffffffffffffffffffffffff1673ffffffffffffffffffffffffffffffffffffffff16815260200190815260200160002060009054906101000a900460ff1661072b576040517f08c379a00000000000000000000000000000000000000000000000000000000081526004016107229061434a565b60405180910390fd5b6000600960003373ffffffffffffffffffffffffffffffffffffffff1673ffffffffffffffffffffffffffffffffffffffff168152602001908152602001600020604051806080016040529081600082015481526020016001820160009054906101000a900473ffffffffffffffffffffffffffffffffffffffff1673ffffffffffffffffffffffffffffffffffffffff1673ffffffffffffffffffffffffffffffffffffffff1681526020016002820180546107e79061479d565b80601f01602080910402602001604051908101604052809291908181526020018280546108139061479d565b80156108605780601f1061083557610100808354040283529160200191610860565b820191906000526020600020905b81548152906001019060200180831161084357829003601f168201915b5050505050815260200160038201604051806101400160405290816000820160009054906101000a900473ffffffffffffffffffffffffffffffffffffffff1673ffffffffffffffffffffffffffffffffffffffff1673ffffffffffffffffffffffffffffffffffffffff16815260200160018201548152602001600282015481526020016003820154815260200160048201548152602001600582015481526020016006820154815260200160078201805461091c9061479d565b80601f01602080910402602001604051908101604052809291908181526020018280546109489061479d565b80156109955780601f1061096a57610100808354040283529160200191610995565b820191906000526020600020905b81548152906001019060200180831161097857829003601f168201915b50505050508152602001600882015481526020016009820160009054906101000a900460ff161515151581525050815250509050806060015160c00151421015610c9e576000816060015160000151905060008173ffffffffffffffffffffffffffffffffffffffff16636f307dc36040518163ffffffff1660e01b815260040160206040518083038186803b158015610a2e57600080fd5b505afa158015610a42573d6000803e3d6000fd5b505050506040513d601f19601f82011682018060405250810190610a669190613759565b9050610a8283606001516000015184606001516020015161321b565b60008173ffffffffffffffffffffffffffffffffffffffff166370a08231306040518263ffffffff1660e01b8152600401610abd91906140a1565b60206040518083038186803b158015610ad557600080fd5b505afa158015610ae9573d6000803e3d6000fd5b505050506040513d601f19601f82011682018060405250810190610b0d91906138f2565b90508360600151602001518114610b59576040517f08c379a0000000000000000000000000000000000000000000000000000000008152600401610b509061420a565b60405180910390fd5b6000610b7760028660600151602001516131ef90919063ffffffff16565b90508273ffffffffffffffffffffffffffffffffffffffff1663a9059cbb8660200151836040518363ffffffff1660e01b8152600401610bb89291906140bc565b602060405180830381600087803b158015610bd257600080fd5b505af1158015610be6573d6000803e3d6000fd5b505050506040513d601f19601f82011682018060405250810190610c0a919061385f565b50600085606001516020018181525050438560600151610100018181525050610c546305f5e100610c464360045461333b90919063ffffffff16565b6131ef90919063ffffffff16565b6004819055507f9b1bfa7fa9ee420a16e124f794c35ac9f90472acc99140eb2f6447c714cad8eb303383604051610c8d939291906140e5565b60405180910390a150505050610f23565b6000816060015160000151905060008173ffffffffffffffffffffffffffffffffffffffff16636f307dc36040518163ffffffff1660e01b815260040160206040518083038186803b158015610cf357600080fd5b505afa158015610d07573d6000803e3d6000fd5b505050506040513d601f19601f82011682018060405250810190610d2b9190613759565b9050610d4783606001516000015184606001516020015161321b565b60008173ffffffffffffffffffffffffffffffffffffffff166370a08231306040518263ffffffff1660e01b8152600401610d8291906140a1565b60206040518083038186803b158015610d9a57600080fd5b505afa158015610dae573d6000803e3d6000fd5b505050506040513d601f19601f82011682018060405250810190610dd291906138f2565b90508360600151602001518114610e1e576040517f08c379a0000000000000000000000000000000000000000000000000000000008152600401610e159061420a565b60405180910390fd5b600084606001516020015190508273ffffffffffffffffffffffffffffffffffffffff1663a9059cbb86602001518760600151602001516040518363ffffffff1660e01b8152600401610e729291906140bc565b602060405180830381600087803b158015610e8c57600080fd5b505af1158015610ea0573d6000803e3d6000fd5b505050506040513d601f19601f82011682018060405250810190610ec4919061385f565b506000856060015160200181815250504385606001516101000181815250507f9b1bfa7fa9ee420a16e124f794c35ac9f90472acc99140eb2f6447c714cad8eb303383604051610f16939291906140e5565b60405180910390a1505050505b50565b60075481565b600a60003373ffffffffffffffffffffffffffffffffffffffff1673ffffffffffffffffffffffffffffffffffffffff16815260200190815260200160002060009054906101000a900460ff16610fb8576040517f08c379a0000000000000000000000000000000000000000000000000000000008152600401610faf9061422a565b60405180910390fd5b6000600960003373ffffffffffffffffffffffffffffffffffffffff1673ffffffffffffffffffffffffffffffffffffffff1681526020019081526020016000209050600083905060008173ffffffffffffffffffffffffffffffffffffffff16636f307dc36040518163ffffffff1660e01b815260040160206040518083038186803b15801561104857600080fd5b505afa15801561105c573d6000803e3d6000fd5b505050506040513d601f19601f820116820180604052508101906110809190613759565b90508073ffffffffffffffffffffffffffffffffffffffff166323b872dd3330876040518463ffffffff1660e01b81526004016110bf939291906140e5565b602060405180830381600087803b1580156110d957600080fd5b505af11580156110ed573d6000803e3d6000fd5b505050506040513d601f19601f82011682018060405250810190611111919061385f565b5060008173ffffffffffffffffffffffffffffffffffffffff166370a08231306040518263ffffffff1660e01b815260040161114d91906140a1565b60206040518083038186803b15801561116557600080fd5b505afa158015611179573d6000803e3d6000fd5b505050506040513d601f19601f8201168201806040525081019061119d91906138f2565b9050848110156111e2576040517f08c379a00000000000000000000000000000000000000000000000000000000081526004016111d99061424a565b60405180910390fd5b60008460030160000160009054906101000a900473ffffffffffffffffffffffffffffffffffffffff16905061122886866003016001015461333b90919063ffffffff16565b85600301600101819055506112548560030160020154866003016003015461335190919063ffffffff16565b856003016003018190555042856003016004018190555061128543866003016008015461333b90919063ffffffff16565b85600301600801819055506112a54360045461336790919063ffffffff16565b600481905550426007819055506112bc878761337d565b853073ffffffffffffffffffffffffffffffffffffffff167f5548c837ab068cf56a2c2479df0882a4922fd203edb7517321831d95078c5f628560405161130391906140a1565b60405180910390a350505050505050565b600080600960003373ffffffffffffffffffffffffffffffffffffffff1673ffffffffffffffffffffffffffffffffffffffff168152602001908152602001600020604051806080016040529081600082015481526020016001820160009054906101000a900473ffffffffffffffffffffffffffffffffffffffff1673ffffffffffffffffffffffffffffffffffffffff1673ffffffffffffffffffffffffffffffffffffffff1681526020016002820180546113d19061479d565b80601f01602080910402602001604051908101604052809291908181526020018280546113fd9061479d565b801561144a5780601f1061141f5761010080835404028352916020019161144a565b820191906000526020600020905b81548152906001019060200180831161142d57829003601f168201915b5050505050815260200160038201604051806101400160405290816000820160009054906101000a900473ffffffffffffffffffffffffffffffffffffffff1673ffffffffffffffffffffffffffffffffffffffff1673ffffffffffffffffffffffffffffffffffffffff1681526020016001820154815260200160028201548152602001600382015481526020016004820154815260200160058201548152602001600682015481526020016007820180546115069061479d565b80601f01602080910402602001604051908101604052809291908181526020018280546115329061479d565b801561157f5780601f106115545761010080835404028352916020019161157f565b820191906000526020600020905b81548152906001019060200180831161156257829003601f168201915b50505050508152602001600882015481526020016009820160009054906101000a900460ff161515151581525050815250509050600a6000826020015173ffffffffffffffffffffffffffffffffffffffff1673ffffffffffffffffffffffffffffffffffffffff16815260200190815260200160002060009054906101000a900460ff16611643576040517f08c379a000000000000000000000000000000000000000000000000000000000815260040161163a9061434a565b60405180910390fd5b6000816060015160000151905060008173ffffffffffffffffffffffffffffffffffffffff1663ae9d70b06040518163ffffffff1660e01b815260040160206040518083038186803b15801561169857600080fd5b505afa1580156116ac573d6000803e3d6000fd5b505050506040513d601f19601f820116820180604052508101906116d091906138f2565b905060006117196305f5e10061170b6004546116fd8689606001516020015161336790919063ffffffff16565b6131ef90919063ffffffff16565b6131ef90919063ffffffff16565b90508094505050505090565b6000600960003373ffffffffffffffffffffffffffffffffffffffff1673ffffffffffffffffffffffffffffffffffffffff168152602001908152602001600020604051806080016040529081600082015481526020016001820160009054906101000a900473ffffffffffffffffffffffffffffffffffffffff1673ffffffffffffffffffffffffffffffffffffffff1673ffffffffffffffffffffffffffffffffffffffff1681526020016002820180546117e19061479d565b80601f016020809104026020016040519081016040528092919081815260200182805461180d9061479d565b801561185a5780601f1061182f5761010080835404028352916020019161185a565b820191906000526020600020905b81548152906001019060200180831161183d57829003601f168201915b5050505050815260200160038201604051806101400160405290816000820160009054906101000a900473ffffffffffffffffffffffffffffffffffffffff1673ffffffffffffffffffffffffffffffffffffffff1673ffffffffffffffffffffffffffffffffffffffff1681526020016001820154815260200160028201548152602001600382015481526020016004820154815260200160058201548152602001600682015481526020016007820180546119169061479d565b80601f01602080910402602001604051908101604052809291908181526020018280546119429061479d565b801561198f5780601f106119645761010080835404028352916020019161198f565b820191906000526020600020905b81548152906001019060200180831161197257829003601f168201915b50505050508152602001600882015481526020016009820160009054906101000a900460ff161515151581525050815250509050600a6000826020015173ffffffffffffffffffffffffffffffffffffffff1673ffffffffffffffffffffffffffffffffffffffff16815260200190815260200160002060009054906101000a900460ff16611a53576040517f08c379a0000000000000000000000000000000000000000000000000000000008152600401611a4a9061428a565b60405180910390fd5b6000816060015160a00181815250507f164f7b2ab803097dab5e39f06d2e4f3c3ddc5d4171abbdcc3e76443b8359c7f5816060015160a00151604051611a99919061440a565b60405180910390a150565b600a60003373ffffffffffffffffffffffffffffffffffffffff1673ffffffffffffffffffffffffffffffffffffffff16815260200190815260200160002060009054906101000a900460ff16611b30576040517f08c379a0000000000000000000000000000000000000000000000000000000008152600401611b279061426a565b60405180910390fd5b6000600960003373ffffffffffffffffffffffffffffffffffffffff1673ffffffffffffffffffffffffffffffffffffffff168152602001908152602001600020604051806080016040529081600082015481526020016001820160009054906101000a900473ffffffffffffffffffffffffffffffffffffffff1673ffffffffffffffffffffffffffffffffffffffff1673ffffffffffffffffffffffffffffffffffffffff168152602001600282018054611bec9061479d565b80601f0160208091040260200160405190810160405280929190818152602001828054611c189061479d565b8015611c655780601f10611c3a57610100808354040283529160200191611c65565b820191906000526020600020905b815481529060010190602001808311611c4857829003601f168201915b5050505050815260200160038201604051806101400160405290816000820160009054906101000a900473ffffffffffffffffffffffffffffffffffffffff1673ffffffffffffffffffffffffffffffffffffffff1673ffffffffffffffffffffffffffffffffffffffff168152602001600182015481526020016002820154815260200160038201548152602001600482015481526020016005820154815260200160068201548152602001600782018054611d219061479d565b80601f0160208091040260200160405190810160405280929190818152602001828054611d4d9061479d565b8015611d9a5780601f10611d6f57610100808354040283529160200191611d9a565b820191906000526020600020905b815481529060010190602001808311611d7d57829003601f168201915b50505050508152602001600882015481526020016009820160009054906101000a900460ff161515151581525050815250509050600560009054906101000a900473ffffffffffffffffffffffffffffffffffffffff1673ffffffffffffffffffffffffffffffffffffffff16632e1a7d4d8260600151602001516040518263ffffffff1660e01b8152600401611e31919061440a565b600060405180830381600087803b158015611e4b57600080fd5b505af1158015611e5f573d6000803e3d6000fd5b505050506000600660009054906101000a900473ffffffffffffffffffffffffffffffffffffffff1673ffffffffffffffffffffffffffffffffffffffff166370a08231306040518263ffffffff1660e01b8152600401611ec091906140a1565b60206040518083038186803b158015611ed857600080fd5b505afa158015611eec573d6000803e3d6000fd5b505050506040513d601f19601f82011682018060405250810190611f1091906138f2565b90508160600151602001518111611f5c576040517f08c379a0000000000000000000000000000000000000000000000000000000008152600401611f539061432a565b60405180910390fd5b806003819055506000611f986305f5e100611f8a60035486606001516020015161336790919063ffffffff16565b6131ef90919063ffffffff16565b9050600660009054906101000a900473ffffffffffffffffffffffffffffffffffffffff1673ffffffffffffffffffffffffffffffffffffffff1663a9059cbb33836040518363ffffffff1660e01b8152600401611ff792919061415a565b602060405180830381600087803b15801561201157600080fd5b505af1158015612025573d6000803e3d6000fd5b505050506040513d601f19601f82011682018060405250810190612049919061385f565b50505050565b60096020528060005260406000206000915090508060000154908060010160009054906101000a900473ffffffffffffffffffffffffffffffffffffffff169080600201805461209e9061479d565b80601f01602080910402602001604051908101604052809291908181526020018280546120ca9061479d565b80156121175780601f106120ec57610100808354040283529160200191612117565b820191906000526020600020905b8154815290600101906020018083116120fa57829003601f168201915b50505050509080600301604051806101400160405290816000820160009054906101000a900473ffffffffffffffffffffffffffffffffffffffff1673ffffffffffffffffffffffffffffffffffffffff1673ffffffffffffffffffffffffffffffffffffffff1681526020016001820154815260200160028201548152602001600382015481526020016004820154815260200160058201548152602001600682015481526020016007820180546121cf9061479d565b80601f01602080910402602001604051908101604052809291908181526020018280546121fb9061479d565b80156122485780601f1061221d57610100808354040283529160200191612248565b820191906000526020600020905b81548152906001019060200180831161222b57829003601f168201915b50505050508152602001600882015481526020016009820160009054906101000a900460ff161515151581525050905084565b6000600960003373ffffffffffffffffffffffffffffffffffffffff1673ffffffffffffffffffffffffffffffffffffffff168152602001908152602001600020604051806080016040529081600082015481526020016001820160009054906101000a900473ffffffffffffffffffffffffffffffffffffffff1673ffffffffffffffffffffffffffffffffffffffff1673ffffffffffffffffffffffffffffffffffffffff1681526020016002820180546123379061479d565b80601f01602080910402602001604051908101604052809291908181526020018280546123639061479d565b80156123b05780601f10612385576101008083540402835291602001916123b0565b820191906000526020600020905b81548152906001019060200180831161239357829003601f168201915b5050505050815260200160038201604051806101400160405290816000820160009054906101000a900473ffffffffffffffffffffffffffffffffffffffff1673ffffffffffffffffffffffffffffffffffffffff1673ffffffffffffffffffffffffffffffffffffffff16815260200160018201548152602001600282015481526020016003820154815260200160048201548152602001600582015481526020016006820154815260200160078201805461246c9061479d565b80601f01602080910402602001604051908101604052809291908181526020018280546124989061479d565b80156124e55780601f106124ba576101008083540402835291602001916124e5565b820191906000526020600020905b8154815290600101906020018083116124c857829003601f168201915b50505050508152602001600882015481526020016009820160009054906101000a900460ff161515151581525050815250509050600560009054906101000a900473ffffffffffffffffffffffffffffffffffffffff1673ffffffffffffffffffffffffffffffffffffffff1663d0e30db06040518163ffffffff1660e01b8152600401600060405180830381600087803b15801561258357600080fd5b505af1158015612597573d6000803e3d6000fd5b505050506125b68282606001516020015161333b90919063ffffffff16565b816060015160200181815250508060600151602001513373ffffffffffffffffffffffffffffffffffffffff167f5548c837ab068cf56a2c2479df0882a4922fd203edb7517321831d95078c5f62600660009054906101000a900473ffffffffffffffffffffffffffffffffffffffff1660405161263491906140a1565b60405180910390a35050565b60008054906101000a900473ffffffffffffffffffffffffffffffffffffffff1681565b600a6020528060005260406000206000915054906101000a900460ff1681565b600080600960008473ffffffffffffffffffffffffffffffffffffffff1673ffffffffffffffffffffffffffffffffffffffff168152602001908152602001600020604051806080016040529081600082015481526020016001820160009054906101000a900473ffffffffffffffffffffffffffffffffffffffff1673ffffffffffffffffffffffffffffffffffffffff1673ffffffffffffffffffffffffffffffffffffffff1681526020016002820180546127419061479d565b80601f016020809104026020016040519081016040528092919081815260200182805461276d9061479d565b80156127ba5780601f1061278f576101008083540402835291602001916127ba565b820191906000526020600020905b81548152906001019060200180831161279d57829003601f168201915b5050505050815260200160038201604051806101400160405290816000820160009054906101000a900473ffffffffffffffffffffffffffffffffffffffff1673ffffffffffffffffffffffffffffffffffffffff1673ffffffffffffffffffffffffffffffffffffffff1681526020016001820154815260200160028201548152602001600382015481526020016004820154815260200160058201548152602001600682015481526020016007820180546128769061479d565b80601f01602080910402602001604051908101604052809291908181526020018280546128a29061479d565b80156128ef5780601f106128c4576101008083540402835291602001916128ef565b820191906000526020600020905b8154815290600101906020018083116128d257829003601f168201915b50505050508152602001600882015481526020016009820160009054906101000a900460ff1615151515815250508152505090506000600560009054906101000a900473ffffffffffffffffffffffffffffffffffffffff1673ffffffffffffffffffffffffffffffffffffffff1663eec562c3306040518263ffffffff1660e01b815260040161298091906140a1565b60206040518083038186803b15801561299857600080fd5b505afa1580156129ac573d6000803e3d6000fd5b505050506040513d601f19601f820116820180604052508101906129d091906138f2565b90506000612a056305f5e1006129f78486606001516020015161336790919063ffffffff16565b6131ef90919063ffffffff16565b9050809350505050919050565b828411612a54576040517f08c379a0000000000000000000000000000000000000000000000000000000008152600401612a4b906143ea565b60405180910390fd5b60008311612a97576040517f08c379a0000000000000000000000000000000000000000000000000000000008152600401612a8e906143aa565b60405180910390fd5b600a60003373ffffffffffffffffffffffffffffffffffffffff1673ffffffffffffffffffffffffffffffffffffffff16815260200190815260200160002060009054906101000a900460ff16612b23576040517f08c379a0000000000000000000000000000000000000000000000000000000008152600401612b1a9061436a565b60405180910390fd5b6000600960003373ffffffffffffffffffffffffffffffffffffffff1673ffffffffffffffffffffffffffffffffffffffff16815260200190815260200160002090506000816003016006015414612bb0576040517f08c379a0000000000000000000000000000000000000000000000000000000008152600401612ba79061430a565b60405180910390fd5b868160030160000160006101000a81548173ffffffffffffffffffffffffffffffffffffffff021916908373ffffffffffffffffffffffffffffffffffffffff160217905550818160030160060181905550612c15834261333b90919063ffffffff16565b816003016005018190555085816003016007019080519060200190612c3b9291906135bc565b5084816003016003018190555083816003016002018190555060018160030160090160006101000a81548160ff0219169083151502179055507f0a342f2e207c3c328a10158ad0b71a9e64a10e319c5d635be24f8c7e418ea6e433826003016007018360030160060154604051612cb49392919061411c565b60405180910390a150505050505050565b600a60003373ffffffffffffffffffffffffffffffffffffffff1673ffffffffffffffffffffffffffffffffffffffff16815260200190815260200160002060009054906101000a900460ff1615612d52576040517f08c379a0000000000000000000000000000000000000000000000000000000008152600401612d49906142ea565b60405180910390fd5b6000604051806101400160405280600073ffffffffffffffffffffffffffffffffffffffff168152602001600081526020016000815260200160008152602001428152602001600081526020016000815260200160405180602001604052806000815250815260200143815260200160001515815250905060006040518060800160405280612de160026135ae565b81526020013373ffffffffffffffffffffffffffffffffffffffff16815260200184815260200183815250905080600960003373ffffffffffffffffffffffffffffffffffffffff1673ffffffffffffffffffffffffffffffffffffffff1681526020019081526020016000206000820151816000015560208201518160010160006101000a81548173ffffffffffffffffffffffffffffffffffffffff021916908373ffffffffffffffffffffffffffffffffffffffff1602179055506040820151816002019080519060200190612ebb9291906135bc565b5060608201518160030160008201518160000160006101000a81548173ffffffffffffffffffffffffffffffffffffffff021916908373ffffffffffffffffffffffffffffffffffffffff1602179055506020820151816001015560408201518160020155606082015181600301556080820151816004015560a0820151816005015560c0820151816006015560e0820151816007019080519060200190612f649291906135bc565b5061010082015181600801556101208201518160090160006101000a81548160ff0219169083151502179055505050905050600b8190806001815401808255809150506001900390600052602060002090600d02016000909190919091506000820151816000015560208201518160010160006101000a81548173ffffffffffffffffffffffffffffffffffffffff021916908373ffffffffffffffffffffffffffffffffffffffff160217905550604082015181600201908051906020019061302f9291906135bc565b5060608201518160030160008201518160000160006101000a81548173ffffffffffffffffffffffffffffffffffffffff021916908373ffffffffffffffffffffffffffffffffffffffff1602179055506020820151816001015560408201518160020155606082015181600301556080820151816004015560a0820151816005015560c0820151816006015560e08201518160070190805190602001906130d89291906135bc565b5061010082015181600801556101208201518160090160006101000a81548160ff021916908315150217905550505050506001600a60003373ffffffffffffffffffffffffffffffffffffffff1673ffffffffffffffffffffffffffffffffffffffff16815260200190815260200160002060006101000a81548160ff02191690831515021790555061316b6002613205565b82604051613179919061408a565b60405180910390203373ffffffffffffffffffffffffffffffffffffffff167f6ba0831d2f62ae5cbf7214bcc1d79c5da1d705f12811efda0beaa840006f874e60405160405180910390a3505050565b600560009054906101000a900473ffffffffffffffffffffffffffffffffffffffff1681565b600081836131fd919061457c565b905092915050565b6001816000016000828254019250508190555050565b6000811161325e576040517f08c379a00000000000000000000000000000000000000000000000000000000081526004016132559061438a565b60405180910390fd5b600082905060008173ffffffffffffffffffffffffffffffffffffffff1663852a12e3846040518263ffffffff1660e01b815260040161329e919061440a565b602060405180830381600087803b1580156132b857600080fd5b505af11580156132cc573d6000803e3d6000fd5b505050506040513d601f19601f820116820180604052508101906132f091906138f2565b905060008114613335576040517f08c379a000000000000000000000000000000000000000000000000000000000815260040161332c906143ca565b60405180910390fd5b50505050565b600081836133499190614526565b905092915050565b6000818361335f9190614607565b905092915050565b6000818361337591906145ad565b905092915050565b600081116133c0576040517f08c379a00000000000000000000000000000000000000000000000000000000081526004016133b7906142ca565b60405180910390fd5b600082905060008173ffffffffffffffffffffffffffffffffffffffff16636f307dc36040518163ffffffff1660e01b815260040160206040518083038186803b15801561340d57600080fd5b505afa158015613421573d6000803e3d6000fd5b505050506040513d601f19601f820116820180604052508101906134459190613759565b90508073ffffffffffffffffffffffffffffffffffffffff1663095ea7b385856040518363ffffffff1660e01b815260040161348292919061415a565b602060405180830381600087803b15801561349c57600080fd5b505af11580156134b0573d6000803e3d6000fd5b505050506040513d601f19601f820116820180604052508101906134d4919061385f565b5060008273ffffffffffffffffffffffffffffffffffffffff1663a0712d68856040518263ffffffff1660e01b8152600401613510919061440a565b602060405180830381600087803b15801561352a57600080fd5b505af115801561353e573d6000803e3d6000fd5b505050506040513d601f19601f8201168201806040525081019061356291906138f2565b9050600081146135a7576040517f08c379a000000000000000000000000000000000000000000000000000000000815260040161359e906142aa565b60405180910390fd5b5050505050565b600081600001549050919050565b8280546135c89061479d565b90600052602060002090601f0160209004810192826135ea5760008555613631565b82601f1061360357805160ff1916838001178555613631565b82800160010185558215613631579182015b82811115613630578251825591602001919060010190613615565b5b50905061363e9190613642565b5090565b5b8082111561365b576000816000905550600101613643565b5090565b600061367261366d846144a9565b614478565b90508281526020810184848401111561368a57600080fd5b61369584828561475b565b509392505050565b6000813590506136ac8161489c565b92915050565b6000815190506136c18161489c565b92915050565b6000815190506136d6816148b3565b92915050565b600082601f8301126136ed57600080fd5b81356136fd84826020860161365f565b91505092915050565b600081359050613715816148ca565b92915050565b60008151905061372a816148ca565b92915050565b60006020828403121561374257600080fd5b60006137508482850161369d565b91505092915050565b60006020828403121561376b57600080fd5b6000613779848285016136b2565b91505092915050565b60008060008060008060c0878903121561379b57600080fd5b60006137a989828a0161369d565b965050602087013567ffffffffffffffff8111156137c657600080fd5b6137d289828a016136dc565b95505060406137e389828a01613706565b94505060606137f489828a01613706565b935050608061380589828a01613706565b92505060a061381689828a01613706565b9150509295509295509295565b6000806040838503121561383657600080fd5b60006138448582860161369d565b925050602061385585828601613706565b9150509250929050565b60006020828403121561387157600080fd5b600061387f848285016136c7565b91505092915050565b60006020828403121561389a57600080fd5b600082013567ffffffffffffffff8111156138b457600080fd5b6138c0848285016136dc565b91505092915050565b6000602082840312156138db57600080fd5b60006138e984828501613706565b91505092915050565b60006020828403121561390457600080fd5b60006139128482850161371b565b91505092915050565b61392481614695565b82525050565b6139338161464d565b82525050565b6139428161463b565b82525050565b6139518161463b565b82525050565b6139608161465f565b82525050565b61396f8161465f565b82525050565b61397e816146a7565b82525050565b61398d816146cb565b82525050565b61399c816146ef565b82525050565b6139ab81614713565b82525050565b60006139bc826144ee565b6139c681856144f9565b93506139d681856020860161476a565b6139df8161488b565b840191505092915050565b60006139f5826144ee565b6139ff818561450a565b9350613a0f81856020860161476a565b613a188161488b565b840191505092915050565b6000613a2e826144ee565b613a38818561451b565b9350613a4881856020860161476a565b80840191505092915050565b60008154613a618161479d565b613a6b818661450a565b94506001821660008114613a865760018114613a9857613acb565b60ff1983168652602086019350613acb565b613aa1856144d9565b60005b83811015613ac357815481890152600182019150602081019050613aa4565b808801955050505b50505092915050565b6000613ae1600f8361450a565b91507f42616c616e636520746f6f206c6f7700000000000000000000000000000000006000830152602082019050919050565b6000613b2160188361450a565b91507f43616c6c6572206973206e6f74205265676973746572656400000000000000006000830152602082019050919050565b6000613b61600f8361450a565b91507f5472616e73666572206661696c656400000000000000000000000000000000006000830152602082019050919050565b6000613ba160158361450a565b91507f43616c6c6572206e6f74205265676973746572656400000000000000000000006000830152602082019050919050565b6000613be160188361450a565b91507f43616c6c6572206973206e6f74207265676973746572656400000000000000006000830152602082019050919050565b6000613c2160348361450a565b91507f63546f6b656e236d696e742829206661696c65642e2073656520436f6d706f7560008301527f6e64204572726f725265706f727465722e736f6c0000000000000000000000006020830152604082019050919050565b6000613c8760128361450a565b91507f416d6f756e742043616e6e6f74206265203000000000000000000000000000006000830152602082019050919050565b6000613cc7601d8361450a565b91507f43616c6c6572206164647265737320616c7265616479206578697374730000006000830152602082019050919050565b6000613d0760228361450a565b91507f43616c6c657220616c7265616479206861732061206c6f636b2054696d65205360008301527f65740000000000000000000000000000000000000000000000000000000000006020830152604082019050919050565b6000613d6d60238361450a565b91507f5769746864726177696e67206d6f7265207468616e20796f75206465706f736960008301527f74656400000000000000000000000000000000000000000000000000000000006020830152604082019050919050565b6000613dd360158361450a565b91507f43616c6c6572206e6f74207265676973746572656400000000000000000000006000830152602082019050919050565b6000613e13601b8361450a565b91507f43616c6c65722068617320746f206265205265676973746572656400000000006000830152602082019050919050565b6000613e5360128361450a565b91507f416d6f756e742063616e6e6f74206265203000000000000000000000000000006000830152602082019050919050565b6000613e9360208361450a565b91507f617070726f766520616e20616d6f756e742067726561746572207468616e20306000830152602082019050919050565b6000613ed360368361450a565b91507f63546f6b656e2372656465656d2829206661696c65642e2073656520436f6d7060008301527f6f756e64204572726f725265706f727465722e736f6c000000000000000000006020830152604082019050919050565b6000613f39602f8361450a565b91507f53657420616e20616d6f756e742067726561746572207468616e20746865207260008301527f6563757272696e6720616d6f756e7400000000000000000000000000000000006020830152604082019050919050565b600061014083016000830151613fab6000860182613939565b506020830151613fbe602086018261406c565b506040830151613fd1604086018261406c565b506060830151613fe4606086018261406c565b506080830151613ff7608086018261406c565b5060a083015161400a60a086018261406c565b5060c083015161401d60c086018261406c565b5060e083015184820360e086015261403582826139b1565b91505061010083015161404c61010086018261406c565b50610120830151614061610120860182613957565b508091505092915050565b6140758161468b565b82525050565b6140848161468b565b82525050565b60006140968284613a23565b915081905092915050565b60006020820190506140b66000830184613948565b92915050565b60006040820190506140d1600083018561391b565b6140de602083018461407b565b9392505050565b60006060820190506140fa6000830186613948565b6141076020830185613948565b614114604083018461407b565b949350505050565b60006060820190506141316000830186613948565b81810360208301526141438185613a54565b9050614152604083018461407b565b949350505050565b600060408201905061416f6000830185613948565b61417c602083018461407b565b9392505050565b60006020820190506141986000830184613966565b92915050565b60006020820190506141b36000830184613975565b92915050565b60006020820190506141ce6000830184613984565b92915050565b60006020820190506141e96000830184613993565b92915050565b600060208201905061420460008301846139a2565b92915050565b6000602082019050818103600083015261422381613ad4565b9050919050565b6000602082019050818103600083015261424381613b14565b9050919050565b6000602082019050818103600083015261426381613b54565b9050919050565b6000602082019050818103600083015261428381613b94565b9050919050565b600060208201905081810360008301526142a381613bd4565b9050919050565b600060208201905081810360008301526142c381613c14565b9050919050565b600060208201905081810360008301526142e381613c7a565b9050919050565b6000602082019050818103600083015261430381613cba565b9050919050565b6000602082019050818103600083015261432381613cfa565b9050919050565b6000602082019050818103600083015261434381613d60565b9050919050565b6000602082019050818103600083015261436381613dc6565b9050919050565b6000602082019050818103600083015261438381613e06565b9050919050565b600060208201905081810360008301526143a381613e46565b9050919050565b600060208201905081810360008301526143c381613e86565b9050919050565b600060208201905081810360008301526143e381613ec6565b9050919050565b6000602082019050818103600083015261440381613f2c565b9050919050565b600060208201905061441f600083018461407b565b92915050565b600060808201905061443a600083018761407b565b614447602083018661392a565b818103604083015261445981856139ea565b9050818103606083015261446d8184613f92565b905095945050505050565b6000604051905081810181811067ffffffffffffffff8211171561449f5761449e61485c565b5b8060405250919050565b600067ffffffffffffffff8211156144c4576144c361485c565b5b601f19601f8301169050602081019050919050565b60008190508160005260206000209050919050565b600081519050919050565b600082825260208201905092915050565b600082825260208201905092915050565b600081905092915050565b60006145318261468b565b915061453c8361468b565b9250827fffffffffffffffffffffffffffffffffffffffffffffffffffffffffffffffff03821115614571576145706147cf565b5b828201905092915050565b60006145878261468b565b91506145928361468b565b9250826145a2576145a16147fe565b5b828204905092915050565b60006145b88261468b565b91506145c38361468b565b9250817fffffffffffffffffffffffffffffffffffffffffffffffffffffffffffffffff04831182151516156145fc576145fb6147cf565b5b828202905092915050565b60006146128261468b565b915061461d8361468b565b9250828210156146305761462f6147cf565b5b828203905092915050565b60006146468261466b565b9050919050565b60006146588261466b565b9050919050565b60008115159050919050565b600073ffffffffffffffffffffffffffffffffffffffff82169050919050565b6000819050919050565b60006146a082614737565b9050919050565b60006146b2826146b9565b9050919050565b60006146c48261466b565b9050919050565b60006146d6826146dd565b9050919050565b60006146e88261466b565b9050919050565b60006146fa82614701565b9050919050565b600061470c8261466b565b9050919050565b600061471e82614725565b9050919050565b60006147308261466b565b9050919050565b600061474282614749565b9050919050565b60006147548261466b565b9050919050565b82818337600083830152505050565b60005b8381101561478857808201518184015260208101905061476d565b83811115614797576000848401525b50505050565b600060028204905060018216806147b557607f821691505b602082108114156147c9576147c861482d565b5b50919050565b7f4e487b7100000000000000000000000000000000000000000000000000000000600052601160045260246000fd5b7f4e487b7100000000000000000000000000000000000000000000000000000000600052601260045260246000fd5b7f4e487b7100000000000000000000000000000000000000000000000000000000600052602260045260246000fd5b7f4e487b7100000000000000000000000000000000000000000000000000000000600052604160045260246000fd5b6000601f19601f8301169050919050565b6148a58161463b565b81146148b057600080fd5b50565b6148bc8161465f565b81146148c757600080fd5b50565b6148d38161468b565b81146148de57600080fd5b5056fea264697066735822122090aa99bb09028dc893cba1ce9d5e1a28f88838f5d55c133905571057f8c95d4664736f6c63430008000033",
  "immutableReferences": {},
  "source": "//SPDX-License-Identifier: Unlicense\r\npragma solidity ^0.8.0;\r\n\r\nimport \"@openzeppelin/contracts/utils/math/SafeMath.sol\";\r\nimport \"@openzeppelin/contracts/security/Pausable.sol\";\r\nimport \"@openzeppelin/contracts/security/ReentrancyGuard.sol\";\r\nimport \"@openzeppelin/contracts/access/Ownable.sol\";\r\nimport \"@openzeppelin/contracts/utils/Counters.sol\";\r\nimport '@openzeppelin/contracts/token/ERC20/IERC20.sol';\r\nimport \"@chainlink/contracts/src/v0.8/interfaces/KeeperCompatibleInterface.sol\";\r\nimport './CTokenInterface.sol';\r\nimport './ComptrollerInterface.sol';\r\nimport './PriceOracleInterface.sol';\r\nimport \"./XendFinanceInterface.sol\";\r\n\r\n\r\n// approve the user's underlying asset to be able to use the chainklink keepers\r\n\r\ncontract PensionServiceProvider {\r\n    using SafeMath for uint;\r\n    using Counters for Counters.Counter;\r\n\r\n    // variables\r\n    ComptrollerInterface public comptroller;\r\n\tPriceOracleInterface public priceOracle;\r\n    Counters.Counter private id;\r\n\r\n    uint accXendTokens;\r\n    uint256 ccInterest;\r\n    XendFinanceInterface public xendFinance;\r\n    IERC20 public xend;\r\n\r\n    uint public lastTimeStamp;\r\n    uint public upKeepInterval;\r\n\r\n\r\n\r\n    \r\n\r\n\r\n\r\n    struct Client {\r\n        address underlyingAsset;\r\n        uint256 depositedAmount;\r\n        uint256 amountToSpend;\r\n        uint256 approvedAmountToSpend;\r\n        uint256 startTime;\r\n        uint256 timeDurationOfdeposit;\r\n        uint256 lockTime;\r\n        string ipfsHashOfUserPensionDetails;\r\n        uint256 userLastRewardBlock;\r\n        bool hasPlan;\r\n    }\r\n\r\n\r\n    // A user Object\r\n    struct User {\r\n        uint256 id;\r\n        address payable userAddress;\r\n        string  userDetails;\r\n        Client client;\r\n\r\n    }\r\n\r\n\r\n\r\n    \r\n\r\n    \r\n\r\n\r\n    event Register(address indexed applicant, string indexed applicantDetails);\r\n    event Withdraw(address from, address to, uint amount);\r\n    event Deposit(address indexed sender, address receiver, uint indexed amountSpent);\r\n    event Upkeep(address sender, bool upkeep);\r\n    event Plan(address user, string planDetails, uint lockTime);\r\n    event Update(uint256 timeDuration);\r\n    event Transfer(address indexed sender, uint amount, address indexed receiver);\r\n\r\n    mapping(address => User) public pensionServiceApplicant;\r\n\r\n    // keep track of registered users\r\n    mapping(address => bool) public isRegistered;\r\n\r\n    User[] public users;\r\n\r\n\r\n    constructor(address _xend, address _xendFinanceIndividual_Yearn_V1,  address _comptroller, address _priceOracle, uint _upKeepInterval)  {\r\n        xend = IERC20(_xend);\r\n        comptroller = ComptrollerInterface(_comptroller);\r\n\t\tpriceOracle = PriceOracleInterface(_priceOracle);\r\n        xendFinance = XendFinanceInterface(_xendFinanceIndividual_Yearn_V1);\r\n        ccInterest = uint256(3 ether).div(10); // .3% \r\n        lastTimeStamp = block.timestamp;\r\n        upKeepInterval = _upKeepInterval;\r\n\r\n        id.increment();\r\n        \r\n    }\r\n\r\n    function register(\r\n        string memory _userDetails\r\n        ) \r\n        public  {\r\n        require(!isRegistered[msg.sender], \"Caller address already exists\");\r\n\r\n        Client memory client = Client({\r\n            underlyingAsset: address(0),\r\n            depositedAmount: 0,\r\n            amountToSpend: 0,\r\n            approvedAmountToSpend: 0,\r\n            startTime: block.timestamp,\r\n            timeDurationOfdeposit: 0,\r\n            lockTime: 0,\r\n            ipfsHashOfUserPensionDetails: \"\",\r\n            userLastRewardBlock: block.number,\r\n            hasPlan: false\r\n        });\r\n\r\n        User memory user = User({\r\n            id: id.current(),\r\n            userAddress: payable(msg.sender),\r\n            userDetails: _userDetails,\r\n            client: client\r\n        });\r\n\r\n       \r\n\r\n        pensionServiceApplicant[msg.sender] = user;\r\n        users.push(user);\r\n        isRegistered[msg.sender] = true;\r\n\r\n        id.increment();\r\n\r\n        emit Register(msg.sender, _userDetails);\r\n    }\r\n\r\n\r\n\r\n    function deposit(address _asset ,uint256 _amount) public payable {\r\n        require(isRegistered[msg.sender], \"Caller is not Registered\");\r\n        User storage user = pensionServiceApplicant[msg.sender];\r\n        CTokenInterface cToken = CTokenInterface(_asset);\r\n\t\taddress underlyingAsset = cToken.underlying();\r\n        IERC20(underlyingAsset).transferFrom(msg.sender, address(this), _amount);\r\n        uint balance = IERC20(underlyingAsset).balanceOf(address(this));\r\n        require(balance >= _amount, \"Transfer failed\");\r\n        address cTokenaddress = user.client.underlyingAsset;\r\n        user.client.depositedAmount = user.client.depositedAmount.add(_amount);\r\n        user.client.approvedAmountToSpend = user.client.approvedAmountToSpend.sub(user.client.amountToSpend);\r\n        user.client.startTime = block.timestamp;\r\n        user.client.userLastRewardBlock = user.client.userLastRewardBlock.add(block.number);\r\n        ccInterest = ccInterest.mul(block.number);\r\n        lastTimeStamp = block.timestamp;\r\n        _supply(_asset, _amount);\r\n        // user.client.depositedAmount = user.client.depositedAmount.add(_amount);\r\n        emit Deposit(address(this), underlyingAsset, _amount);\r\n\r\n    }\r\n\r\n\r\n\r\n//     function _enterMarket(address _cTokenaddress) internal {\r\n// \t\taddress[] memory markets = new address[](1);\r\n// \t\tmarkets[0] = _cTokenaddress;\r\n// \t\tuint[] memory results = comptroller.enterMarkets(markets);\r\n// \t\trequire( results[0] == 0, 'comptroller#enterMarkets() failed. see Compound ErrorReporter.sol');\r\n// \t}\r\n\r\n\r\n\r\n\r\n\r\n\r\n    function _supply(address cTokenaddress, uint underlyingAmount) internal {\r\n        require(underlyingAmount > 0, \"Amount Cannot be 0\");\r\n        // _enterMarket(cTokenaddress);\r\n\t\tCTokenInterface cToken = CTokenInterface(cTokenaddress);\r\n\t\taddress underlyingAddress = cToken.underlying();\r\n\t\tIERC20(underlyingAddress).approve(cTokenaddress, underlyingAmount);\r\n\r\n\t\tuint result = cToken.mint(underlyingAmount);\r\n\t\trequire(result == 0, 'cToken#mint() failed. see Compound ErrorReporter.sol');\r\n\t}\r\n\r\n\r\n//     // chainlink keeper function call\r\n    // function checkUpkeep(bytes calldata /* checkData */) external view override returns(bool, bytes memory)   {\r\n        \r\n    //     return (block.timestamp.sub(lastTimeStamp) > upKeepInterval, bytes(abi.encode(users)));\r\n    //     // (block.timestamp.sub(lastTimeStamp) > upKeepInterval);\r\n        \r\n    // }\r\n\r\n\r\n\r\n\r\n    // function performUpkeep(bytes calldata performData ) external override  {\r\n    //     // User[] memory usersArray = abi.decode(performData, (User[]));\r\n    //     // for(uint256 i = 0; i < usersArray.length - 1; i++ ) {\r\n    //             User memory  user = pensionServiceApplicant[msg.sender];\r\n    //             require(isRegistered[user.userAddress], \"Address not registered\");\r\n    //             require(user.client.approvedAmountToSpend > 0, \"Insufficient balance cannot perform upkeep\");\r\n    //             require(user.client.hasPlan, \"Client has no plan\");\r\n    //              CTokenInterface cToken = CTokenInterface(user.client.underlyingAsset);\r\n\r\n    //             uint amountToDeposit = user.client.amountToSpend;\r\n    //             address underlyingAsset = cToken.underlying();\r\n    //             user.client.depositedAmount = user.client.depositedAmount.add(amountToDeposit);\r\n    //             IERC20(underlyingAsset).transferFrom(user.userAddress, address(this),  amountToDeposit);\r\n    //             uint balance = IERC20(underlyingAsset).balanceOf(address(this));\r\n    //             require(balance == amountToDeposit, \"Transfer failed\");\r\n    //             _deposit(user.client.underlyingAsset, balance);\r\n    //             // address cLink = 0xFAce851a4921ce59e912d19329929CE6da6EB0c7;\r\n    //             // emit Transfer(user.userAddress, user.client.depositedAmount, address(this));\r\n    //             // _supply(user.client.underlyingAsset, user.client.amountToSpend);\r\n    //             user.client.depositedAmount = user.client.depositedAmount.add(amountToDeposit);\r\n    //             user.client.approvedAmountToSpend = user.client.approvedAmountToSpend.sub(user.client.amountToSpend);\r\n    //             user.client.startTime = block.timestamp;\r\n    //             user.client.userLastRewardBlock = user.client.userLastRewardBlock.add(block.number);\r\n    //             ccInterest = ccInterest.mul(block.number);\r\n    //             lastTimeStamp = block.timestamp;\r\n\r\n    //             emit Deposit(user.userAddress, address(this), user.client.depositedAmount);\r\n    //     // }\r\n            \r\n    //     // emit Update(pensionServiceApplicant[msg.sender].depositedAmount);\r\n\r\n    // }\r\n\r\n\r\n\r\n    function withdraw() public {\r\n        require(isRegistered[msg.sender], \"Caller not registered\");\r\n\r\n        // Point to the User in memory\r\n        User memory user = pensionServiceApplicant[msg.sender];\r\n        // require(user.client.depositedAmount > 0, \"Insufficient Balance\");\r\n        // require(user.client.hasPlan, \"Caller has no plan\");\r\n\r\n        if(block.timestamp < user.client.lockTime) {\r\n            // require(user.client.depositedAmount > 0, \"insufficient balance\");\r\n            CTokenInterface cToken = CTokenInterface(user.client.underlyingAsset);\r\n            address underlyingAsset = cToken.underlying();\r\n            _redeem(user.client.underlyingAsset, user.client.depositedAmount);\r\n            uint balance = IERC20(underlyingAsset).balanceOf(address(this));\r\n            require(balance == user.client.depositedAmount, 'Balance too low');\r\n            // isRegistered[msg.sender] = false;\r\n            uint amountToSend = user.client.depositedAmount.div(2);\r\n            IERC20(underlyingAsset).transfer(user.userAddress, amountToSend);\r\n            user.client.depositedAmount = 0;\r\n            user.client.userLastRewardBlock = block.number;\r\n            ccInterest = ccInterest.add(block.number).div(1e8);\r\n            emit Withdraw(address(this), msg.sender, amountToSend);\r\n        } else {\r\n            CTokenInterface cToken = CTokenInterface(user.client.underlyingAsset);\r\n            address underlyingAsset = cToken.underlying();\r\n            _redeem(user.client.underlyingAsset, user.client.depositedAmount);\r\n            uint balance = IERC20(underlyingAsset).balanceOf(address(this));\r\n            require(balance == user.client.depositedAmount, 'Balance too low');\r\n            // isRegistered[msg.sender] = false;\r\n            uint amountToSend = user.client.depositedAmount;\r\n            IERC20(underlyingAsset).transfer(user.userAddress, user.client.depositedAmount);\r\n            user.client.depositedAmount = 0;\r\n            user.client.userLastRewardBlock = block.number;\r\n\r\n            emit Withdraw(address(this), msg.sender, amountToSend);\r\n        }\r\n\r\n//         // require(block.timestamp > user.lockTime, \"Early withdrawal will cost you 50% of your initial deposit\");\r\n\r\n\r\n}\r\n\r\n\r\n    function _redeem(address cTokenaddress, uint tokenAmount) internal {\r\n        require(tokenAmount > 0, 'Amount cannot be 0');\r\n\t\tCTokenInterface cToken = CTokenInterface(cTokenaddress);\r\n\t\tuint result = cToken.redeemUnderlying(tokenAmount);\r\n\t\trequire(result == 0, 'cToken#redeem() failed. see Compound ErrorReporter.sol');\r\n\t}\r\n\r\n    // helper function for testing keepers\r\n    function updateTimeDurationOfDeposit() public  {\r\n        User memory user = pensionServiceApplicant[msg.sender];\r\n        require(isRegistered[user.userAddress], \"Caller is not registered\");\r\n        user.client.timeDurationOfdeposit = 0;\r\n        emit Update(user.client.timeDurationOfdeposit);\r\n    } \r\n\r\n    function setPlan(\r\n        address _underlyingAsset, \r\n        string memory _ipfsHashOfUserPensionDetails, \r\n        uint _approvedAmountToSpend, \r\n        uint _amountToSpend, \r\n        uint _timeDurationOfDeposit, \r\n        uint _lockTime) \r\n        public {\r\n        require(_approvedAmountToSpend > _amountToSpend, \"Set an amount greater than the recurring amount\");\r\n        require(_amountToSpend > 0, \"approve an amount greater than 0\");\r\n        require(isRegistered[msg.sender], \"Caller has to be Registered\");\r\n        User storage user = pensionServiceApplicant[msg.sender];\r\n        require(user.client.lockTime == 0, \"Caller already has a lock Time Set\");\r\n        user.client.underlyingAsset = _underlyingAsset;\r\n        user.client.lockTime = _lockTime;\r\n        user.client.timeDurationOfdeposit = block.timestamp.add(_timeDurationOfDeposit);\r\n        user.client.ipfsHashOfUserPensionDetails = _ipfsHashOfUserPensionDetails;\r\n        user.client.approvedAmountToSpend = _approvedAmountToSpend;\r\n        user.client.amountToSpend = _amountToSpend;\r\n        user.client.hasPlan = true;\r\n\r\n        emit Plan(msg.sender, user.client.ipfsHashOfUserPensionDetails, user.client.lockTime);\r\n    }\r\n\r\n\r\n\r\n//     // for Xend\r\n\r\n    function getXendPendingRewards(address _user) public view returns(uint) {\r\n        User memory user = pensionServiceApplicant[_user];\r\n        uint256 accXendRewards = xendFinance.GetMemberXendTokenReward(address(this));\r\n        uint256 userPendingRewards = user.client.depositedAmount.mul(accXendRewards).div(1e8);\r\n\r\n        return userPendingRewards;\r\n    }\r\n\r\n\r\n\r\n    function depositToXendFinance(uint _amount) public  {\r\n        // require(isRegistered[msg.sender], \"Caller not Registered\");\r\n        User memory user = pensionServiceApplicant[msg.sender];\r\n        xendFinance.deposit();\r\n        user.client.depositedAmount = user.client.depositedAmount.add(_amount);\r\n\r\n        emit Deposit(msg.sender, address(xend), user.client.depositedAmount);\r\n        \r\n    }\r\n\r\n\r\n\r\n    function withdrawFromXendFinance() public {\r\n        require(isRegistered[msg.sender], \"Caller not Registered\");\r\n        User memory user = pensionServiceApplicant[msg.sender];\r\n        xendFinance.withdraw(user.client.depositedAmount);\r\n        uint256 xendBalance = xend.balanceOf(address(this));\r\n        require(xendBalance > user.client.depositedAmount, \"Withdrawing more than you deposited\");\r\n        accXendTokens = xendBalance;\r\n        uint256 accXendTokensforUser = user.client.depositedAmount.mul(accXendTokens).div(1e8);\r\n        xend.transfer(msg.sender, accXendTokensforUser);\r\n\r\n    }\r\n\r\n    function getAccruedInterest() public view returns(uint) {\r\n        User memory user = pensionServiceApplicant[msg.sender];\r\n        require(isRegistered[user.userAddress], \"Caller not registered\");\r\n        CTokenInterface ctoken = CTokenInterface(user.client.underlyingAsset);\r\n        uint supplyRatePerBlock = ctoken.supplyRatePerBlock();\r\n        uint accInterest = user.client.depositedAmount.mul(supplyRatePerBlock).div(ccInterest).div(1e8);\r\n        return accInterest;\r\n    }\r\n}",
  "sourcePath": "/mnt/c/Users/chuks/Desktop/Project/beima_project/beima_core/contracts/PensionServiceProvider.sol",
  "compiler": {
    "name": "solc",
    "version": "0.8.0+commit.c7dfd78e.Emscripten.clang"
  },
  "schemaVersion": "3.3.4",
  "updatedAt": "2021-12-05T19:21:03.036Z",
  "networkType": "ethereum",
  "devdoc": {
    "kind": "dev",
    "methods": {},
    "version": 1
  },
  "userdoc": {
    "kind": "user",
    "methods": {},
    "version": 1
  }
}