{
  "contractName": "PensionServiceProvider",
  "abi": [
    {
      "inputs": [
        {
          "internalType": "address",
          "name": "_xend",
          "type": "address"
        },
        {
          "internalType": "address",
          "name": "_xendFinanceIndividual_Yearn_V1",
          "type": "address"
        },
        {
          "internalType": "address",
          "name": "_comptroller",
          "type": "address"
        },
        {
          "internalType": "address",
          "name": "_priceOracle",
          "type": "address"
        },
        {
          "internalType": "uint256",
          "name": "_upKeepInterval",
          "type": "uint256"
        }
      ],
      "stateMutability": "nonpayable",
      "type": "constructor"
    },
    {
      "anonymous": false,
      "inputs": [
        {
          "indexed": true,
          "internalType": "address",
          "name": "sender",
          "type": "address"
        },
        {
          "indexed": false,
          "internalType": "address",
          "name": "receiver",
          "type": "address"
        },
        {
          "indexed": true,
          "internalType": "uint256",
          "name": "amountSpent",
          "type": "uint256"
        }
      ],
      "name": "Deposit",
      "type": "event"
    },
    {
      "anonymous": false,
      "inputs": [
        {
          "indexed": false,
          "internalType": "string",
          "name": "",
          "type": "string"
        },
        {
          "indexed": false,
          "internalType": "uint256",
          "name": "",
          "type": "uint256"
        }
      ],
      "name": "MyLog",
      "type": "event"
    },
    {
      "anonymous": false,
      "inputs": [
        {
          "indexed": true,
          "internalType": "address",
          "name": "previousOwner",
          "type": "address"
        },
        {
          "indexed": true,
          "internalType": "address",
          "name": "newOwner",
          "type": "address"
        }
      ],
      "name": "OwnershipTransferred",
      "type": "event"
    },
    {
      "anonymous": false,
      "inputs": [
        {
          "indexed": false,
          "internalType": "address",
          "name": "account",
          "type": "address"
        }
      ],
      "name": "Paused",
      "type": "event"
    },
    {
      "anonymous": false,
      "inputs": [
        {
          "indexed": false,
          "internalType": "address",
          "name": "user",
          "type": "address"
        },
        {
          "indexed": false,
          "internalType": "string",
          "name": "planDetails",
          "type": "string"
        },
        {
          "indexed": false,
          "internalType": "uint256",
          "name": "lockTime",
          "type": "uint256"
        }
      ],
      "name": "Plan",
      "type": "event"
    },
    {
      "anonymous": false,
      "inputs": [
        {
          "indexed": true,
          "internalType": "address",
          "name": "applicant",
          "type": "address"
        },
        {
          "indexed": true,
          "internalType": "string",
          "name": "applicantDetails",
          "type": "string"
        }
      ],
      "name": "Register",
      "type": "event"
    },
    {
      "anonymous": false,
      "inputs": [
        {
          "indexed": true,
          "internalType": "address",
          "name": "sender",
          "type": "address"
        },
        {
          "indexed": false,
          "internalType": "uint256",
          "name": "amount",
          "type": "uint256"
        },
        {
          "indexed": true,
          "internalType": "address",
          "name": "receiver",
          "type": "address"
        }
      ],
      "name": "Transfer",
      "type": "event"
    },
    {
      "anonymous": false,
      "inputs": [
        {
          "indexed": false,
          "internalType": "address",
          "name": "account",
          "type": "address"
        }
      ],
      "name": "Unpaused",
      "type": "event"
    },
    {
      "anonymous": false,
      "inputs": [
        {
          "indexed": false,
          "internalType": "uint256",
          "name": "timeDuration",
          "type": "uint256"
        }
      ],
      "name": "Update",
      "type": "event"
    },
    {
      "anonymous": false,
      "inputs": [
        {
          "indexed": false,
          "internalType": "address",
          "name": "sender",
          "type": "address"
        },
        {
          "indexed": false,
          "internalType": "bool",
          "name": "upkeep",
          "type": "bool"
        }
      ],
      "name": "Upkeep",
      "type": "event"
    },
    {
      "anonymous": false,
      "inputs": [
        {
          "indexed": false,
          "internalType": "address",
          "name": "from",
          "type": "address"
        },
        {
          "indexed": false,
          "internalType": "address",
          "name": "to",
          "type": "address"
        },
        {
          "indexed": false,
          "internalType": "uint256",
          "name": "amount",
          "type": "uint256"
        }
      ],
      "name": "Withdraw",
      "type": "event"
    },
    {
      "inputs": [
        {
          "internalType": "address",
          "name": "",
          "type": "address"
        },
        {
          "internalType": "address",
          "name": "",
          "type": "address"
        }
      ],
      "name": "assets",
      "outputs": [
        {
          "internalType": "uint256",
          "name": "",
          "type": "uint256"
        }
      ],
      "stateMutability": "view",
      "type": "function"
    },
    {
      "inputs": [],
      "name": "busd",
      "outputs": [
        {
          "internalType": "contract IERC20",
          "name": "",
          "type": "address"
        }
      ],
      "stateMutability": "view",
      "type": "function"
    },
    {
      "inputs": [],
      "name": "comptroller",
      "outputs": [
        {
          "internalType": "contract ComptrollerInterface",
          "name": "",
          "type": "address"
        }
      ],
      "stateMutability": "view",
      "type": "function"
    },
    {
      "inputs": [
        {
          "internalType": "address",
          "name": "",
          "type": "address"
        }
      ],
      "name": "isRegistered",
      "outputs": [
        {
          "internalType": "bool",
          "name": "",
          "type": "bool"
        }
      ],
      "stateMutability": "view",
      "type": "function"
    },
    {
      "inputs": [],
      "name": "lastTimeStamp",
      "outputs": [
        {
          "internalType": "uint256",
          "name": "",
          "type": "uint256"
        }
      ],
      "stateMutability": "view",
      "type": "function"
    },
    {
      "inputs": [],
      "name": "owner",
      "outputs": [
        {
          "internalType": "address",
          "name": "",
          "type": "address"
        }
      ],
      "stateMutability": "view",
      "type": "function"
    },
    {
      "inputs": [],
      "name": "paused",
      "outputs": [
        {
          "internalType": "bool",
          "name": "",
          "type": "bool"
        }
      ],
      "stateMutability": "view",
      "type": "function"
    },
    {
      "inputs": [
        {
          "internalType": "address",
          "name": "",
          "type": "address"
        }
      ],
      "name": "pensionServiceApplicant",
      "outputs": [
        {
          "internalType": "uint256",
          "name": "id",
          "type": "uint256"
        },
        {
          "internalType": "address payable",
          "name": "userAddress",
          "type": "address"
        },
        {
          "internalType": "string",
          "name": "userDetails",
          "type": "string"
        },
        {
          "components": [
            {
              "internalType": "address",
              "name": "underlyingAsset",
              "type": "address"
            },
            {
              "internalType": "uint256",
              "name": "depositedAmount",
              "type": "uint256"
            },
            {
              "internalType": "uint256",
              "name": "amountToSpend",
              "type": "uint256"
            },
            {
              "internalType": "uint256",
              "name": "approvedAmountToSpend",
              "type": "uint256"
            },
            {
              "internalType": "uint256",
              "name": "startTime",
              "type": "uint256"
            },
            {
              "internalType": "uint256",
              "name": "timeDurationOfdeposit",
              "type": "uint256"
            },
            {
              "internalType": "uint256",
              "name": "lockTime",
              "type": "uint256"
            },
            {
              "internalType": "string",
              "name": "ipfsHashOfUserPensionDetails",
              "type": "string"
            },
            {
              "internalType": "uint256",
              "name": "userLastRewardBlock",
              "type": "uint256"
            },
            {
              "internalType": "bool",
              "name": "hasPlan",
              "type": "bool"
            }
          ],
          "internalType": "struct PensionServiceProvider.Client",
          "name": "client",
          "type": "tuple"
        }
      ],
      "stateMutability": "view",
      "type": "function"
    },
    {
      "inputs": [],
      "name": "priceOracle",
      "outputs": [
        {
          "internalType": "contract PriceOracleInterface",
          "name": "",
          "type": "address"
        }
      ],
      "stateMutability": "view",
      "type": "function"
    },
    {
      "inputs": [],
      "name": "renounceOwnership",
      "outputs": [],
      "stateMutability": "nonpayable",
      "type": "function"
    },
    {
      "inputs": [
        {
          "internalType": "address",
          "name": "newOwner",
          "type": "address"
        }
      ],
      "name": "transferOwnership",
      "outputs": [],
      "stateMutability": "nonpayable",
      "type": "function"
    },
    {
      "inputs": [],
      "name": "upKeepInterval",
      "outputs": [
        {
          "internalType": "uint256",
          "name": "",
          "type": "uint256"
        }
      ],
      "stateMutability": "view",
      "type": "function"
    },
    {
      "inputs": [
        {
          "internalType": "uint256",
          "name": "",
          "type": "uint256"
        }
      ],
      "name": "users",
      "outputs": [
        {
          "internalType": "uint256",
          "name": "id",
          "type": "uint256"
        },
        {
          "internalType": "address payable",
          "name": "userAddress",
          "type": "address"
        },
        {
          "internalType": "string",
          "name": "userDetails",
          "type": "string"
        },
        {
          "components": [
            {
              "internalType": "address",
              "name": "underlyingAsset",
              "type": "address"
            },
            {
              "internalType": "uint256",
              "name": "depositedAmount",
              "type": "uint256"
            },
            {
              "internalType": "uint256",
              "name": "amountToSpend",
              "type": "uint256"
            },
            {
              "internalType": "uint256",
              "name": "approvedAmountToSpend",
              "type": "uint256"
            },
            {
              "internalType": "uint256",
              "name": "startTime",
              "type": "uint256"
            },
            {
              "internalType": "uint256",
              "name": "timeDurationOfdeposit",
              "type": "uint256"
            },
            {
              "internalType": "uint256",
              "name": "lockTime",
              "type": "uint256"
            },
            {
              "internalType": "string",
              "name": "ipfsHashOfUserPensionDetails",
              "type": "string"
            },
            {
              "internalType": "uint256",
              "name": "userLastRewardBlock",
              "type": "uint256"
            },
            {
              "internalType": "bool",
              "name": "hasPlan",
              "type": "bool"
            }
          ],
          "internalType": "struct PensionServiceProvider.Client",
          "name": "client",
          "type": "tuple"
        }
      ],
      "stateMutability": "view",
      "type": "function"
    },
    {
      "inputs": [],
      "name": "xend",
      "outputs": [
        {
          "internalType": "contract IERC20",
          "name": "",
          "type": "address"
        }
      ],
      "stateMutability": "view",
      "type": "function"
    },
    {
      "inputs": [],
      "name": "xendFinance",
      "outputs": [
        {
          "internalType": "contract XendFinanceInterface",
          "name": "",
          "type": "address"
        }
      ],
      "stateMutability": "view",
      "type": "function"
    },
    {
      "stateMutability": "payable",
      "type": "receive"
    },
    {
      "inputs": [
        {
          "internalType": "string",
          "name": "_userDetails",
          "type": "string"
        }
      ],
      "name": "register",
      "outputs": [],
      "stateMutability": "nonpayable",
      "type": "function"
    },
    {
      "inputs": [
        {
          "internalType": "address",
          "name": "_asset",
          "type": "address"
        },
        {
          "internalType": "uint256",
          "name": "_amount",
          "type": "uint256"
        }
      ],
      "name": "depositToken",
      "outputs": [],
      "stateMutability": "nonpayable",
      "type": "function"
    },
    {
      "inputs": [
        {
          "internalType": "address",
          "name": "cTokenaddress",
          "type": "address"
        },
        {
          "internalType": "uint256",
          "name": "underlyingAmount",
          "type": "uint256"
        }
      ],
      "name": "supply",
      "outputs": [
        {
          "internalType": "uint256",
          "name": "",
          "type": "uint256"
        }
      ],
      "stateMutability": "nonpayable",
      "type": "function"
    },
    {
      "inputs": [],
      "name": "withdraw",
      "outputs": [],
      "stateMutability": "nonpayable",
      "type": "function"
    },
    {
      "inputs": [
        {
          "internalType": "uint256",
          "name": "amount",
          "type": "uint256"
        },
        {
          "internalType": "bool",
          "name": "redeemType",
          "type": "bool"
        },
        {
          "internalType": "address",
          "name": "_cErc20Contract",
          "type": "address"
        }
      ],
      "name": "redeemCErc20Tokens",
      "outputs": [
        {
          "internalType": "bool",
          "name": "",
          "type": "bool"
        }
      ],
      "stateMutability": "nonpayable",
      "type": "function"
    },
    {
      "inputs": [],
      "name": "updateTimeDurationOfDeposit",
      "outputs": [],
      "stateMutability": "nonpayable",
      "type": "function"
    },
    {
      "inputs": [
        {
          "internalType": "address",
          "name": "_underlyingAsset",
          "type": "address"
        },
        {
          "internalType": "string",
          "name": "_ipfsHashOfUserPensionDetails",
          "type": "string"
        },
        {
          "internalType": "uint256",
          "name": "_approvedAmountToSpend",
          "type": "uint256"
        },
        {
          "internalType": "uint256",
          "name": "_amountToSpend",
          "type": "uint256"
        },
        {
          "internalType": "uint256",
          "name": "_timeDurationOfDeposit",
          "type": "uint256"
        },
        {
          "internalType": "uint256",
          "name": "_lockTime",
          "type": "uint256"
        }
      ],
      "name": "setPlan",
      "outputs": [],
      "stateMutability": "nonpayable",
      "type": "function"
    },
    {
      "inputs": [
        {
          "internalType": "address",
          "name": "_user",
          "type": "address"
        }
      ],
      "name": "getXendPendingRewards",
      "outputs": [
        {
          "internalType": "uint256",
          "name": "",
          "type": "uint256"
        }
      ],
      "stateMutability": "view",
      "type": "function"
    },
    {
      "inputs": [
        {
          "internalType": "uint256",
          "name": "_amount",
          "type": "uint256"
        }
      ],
      "name": "depositToXendFinance",
      "outputs": [],
      "stateMutability": "nonpayable",
      "type": "function"
    },
    {
      "inputs": [],
      "name": "withdrawFromXendFinance",
      "outputs": [],
      "stateMutability": "nonpayable",
      "type": "function"
    },
    {
      "inputs": [],
      "name": "getAccruedInterest",
      "outputs": [
        {
          "internalType": "uint256",
          "name": "",
          "type": "uint256"
        }
      ],
      "stateMutability": "view",
      "type": "function"
    }
  ],
  "bytecode": "0x60806040523480156200001157600080fd5b5060405162004bb138038062004bb18339818101604052810190620000379190620002fe565b60016000819055506000600160006101000a81548160ff0219169083151502179055506200007a6200006e620001d760201b60201c565b620001df60201b60201c565b84600960006101000a81548173ffffffffffffffffffffffffffffffffffffffff021916908373ffffffffffffffffffffffffffffffffffffffff16021790555082600260006101000a81548173ffffffffffffffffffffffffffffffffffffffff021916908373ffffffffffffffffffffffffffffffffffffffff16021790555081600360006101000a81548173ffffffffffffffffffffffffffffffffffffffff021916908373ffffffffffffffffffffffffffffffffffffffff16021790555083600860006101000a81548173ffffffffffffffffffffffffffffffffffffffff021916908373ffffffffffffffffffffffffffffffffffffffff160217905550620001a1600a6729a2241af62c0000620002a260201b620032ea1790919060201c565b60078190555042600b8190555080600c81905550620001cc6004620002ba60201b620033001760201c565b505050505062000459565b600033905090565b600060018054906101000a900473ffffffffffffffffffffffffffffffffffffffff169050816001806101000a81548173ffffffffffffffffffffffffffffffffffffffff021916908373ffffffffffffffffffffffffffffffffffffffff1602179055508173ffffffffffffffffffffffffffffffffffffffff168173ffffffffffffffffffffffffffffffffffffffff167f8be0079c531659141344cd1fd0a4f28419497f9722a3daafe3b4186f6b6457e060405160405180910390a35050565b60008183620002b2919062000380565b905092915050565b6001816000016000828254019250508190555050565b600081519050620002e18162000425565b92915050565b600081519050620002f8816200043f565b92915050565b600080600080600060a086880312156200031757600080fd5b60006200032788828901620002d0565b95505060206200033a88828901620002d0565b94505060406200034d88828901620002d0565b93505060606200036088828901620002d0565b92505060806200037388828901620002e7565b9150509295509295909350565b60006200038d82620003ec565b91506200039a83620003ec565b925082620003ad57620003ac620003f6565b5b828204905092915050565b6000620003c582620003cc565b9050919050565b600073ffffffffffffffffffffffffffffffffffffffff82169050919050565b6000819050919050565b7f4e487b7100000000000000000000000000000000000000000000000000000000600052601260045260246000fd5b6200043081620003b8565b81146200043c57600080fd5b50565b6200044a81620003ec565b81146200045657600080fd5b50565b61474880620004696000396000f3fe6080604052600436106101855760003560e01c80635c975abb116100d1578063c742ee051161008a578063f2b9fdb811610064578063f2b9fdb814610566578063f2c298be146105a3578063f2fde38b146105cc578063f5dd6065146105f557610193565b8063c742ee05146104c3578063d0ace48e14610500578063de15f0da1461053d57610193565b80635c975abb146103c55780635daa4bfa146103f05780635fe3b56714610419578063715018a6146104445780638da5cb5b1461045b578063c3c5a5471461048657610193565b80633ca5b2341161013e578063564afa3a11610118578063564afa3a1461032c57806356dc5d8e14610357578063590983301461036e5780635bc9d2bf1461038557610193565b80633ca5b234146102bf5780633ccfd60b146102ea5780633f3b3b271461030157610193565b80631a15687b146101985780632108234d146101c35780632630c12f146102005780633245f2281461022b578063338b5dea14610256578063365b98b21461027f57610193565b366101935734600581905550005b600080fd5b3480156101a457600080fd5b506101ad610620565b6040516101ba91906142a5565b60405180910390f35b3480156101cf57600080fd5b506101ea60048036038101906101e591906135f6565b610626565b6040516101f791906142a5565b60405180910390f35b34801561020c57600080fd5b5061021561064b565b6040516102229190614081565b60405180910390f35b34801561023757600080fd5b50610240610671565b60405161024d9190614066565b60405180910390f35b34801561026257600080fd5b5061027d600480360381019061027891906136d3565b610697565b005b34801561028b57600080fd5b506102a660048036038101906102a19190613779565b610947565b6040516102b694939291906142c0565b60405180910390f35b3480156102cb57600080fd5b506102d4610b83565b6040516102e19190614066565b60405180910390f35b3480156102f657600080fd5b506102ff610ba9565b005b34801561030d57600080fd5b50610316610ea1565b60405161032391906142a5565b60405180910390f35b34801561033857600080fd5b50610341610ea7565b60405161034e91906142a5565b60405180910390f35b34801561036357600080fd5b5061036c6112b8565b005b34801561037a57600080fd5b506103836116b3565b005b34801561039157600080fd5b506103ac60048036038101906103a791906135a4565b611cb4565b6040516103bc94939291906142c0565b60405180910390f35b3480156103d157600080fd5b506103da611ee0565b6040516103e79190614030565b60405180910390f35b3480156103fc57600080fd5b5061041760048036038101906104129190613779565b611ef7565b005b34801561042557600080fd5b5061042e6121e1565b60405161043b919061404b565b60405180910390f35b34801561045057600080fd5b50610459612207565b005b34801561046757600080fd5b5061047061228f565b60405161047d9190613f77565b60405180910390f35b34801561049257600080fd5b506104ad60048036038101906104a891906135a4565b6122b7565b6040516104ba9190614030565b60405180910390f35b3480156104cf57600080fd5b506104ea60048036038101906104e591906135a4565b6122d7565b6040516104f791906142a5565b60405180910390f35b34801561050c57600080fd5b50610527600480360381019061052291906137cb565b612665565b6040516105349190614030565b60405180910390f35b34801561054957600080fd5b50610564600480360381019061055f9190613632565b6127de565b005b34801561057257600080fd5b5061058d600480360381019061058891906136d3565b612a91565b60405161059a91906142a5565b60405180910390f35b3480156105af57600080fd5b506105ca60048036038101906105c59190613738565b612cc8565b005b3480156105d857600080fd5b506105f360048036038101906105ee91906135a4565b6131cc565b005b34801561060157600080fd5b5061060a6132c4565b604051610617919061409c565b60405180910390f35b600c5481565b600e602052816000526040600020602052806000526040600020600091509150505481565b600360009054906101000a900473ffffffffffffffffffffffffffffffffffffffff1681565b600960009054906101000a900473ffffffffffffffffffffffffffffffffffffffff1681565b600073ffffffffffffffffffffffffffffffffffffffff168273ffffffffffffffffffffffffffffffffffffffff1614156106d157600080fd5b8173ffffffffffffffffffffffffffffffffffffffff166323b872dd3330846040518463ffffffff1660e01b815260040161070e93929190613f92565b602060405180830381600087803b15801561072857600080fd5b505af115801561073c573d6000803e3d6000fd5b505050506040513d601f19601f82011682018060405250810190610760919061370f565b61076957600080fd5b6107f881600e60008573ffffffffffffffffffffffffffffffffffffffff1673ffffffffffffffffffffffffffffffffffffffff16815260200190815260200160002060003373ffffffffffffffffffffffffffffffffffffffff1673ffffffffffffffffffffffffffffffffffffffff1681526020019081526020016000205461331690919063ffffffff16565b600e60008473ffffffffffffffffffffffffffffffffffffffff1673ffffffffffffffffffffffffffffffffffffffff16815260200190815260200160002060003373ffffffffffffffffffffffffffffffffffffffff1673ffffffffffffffffffffffffffffffffffffffff16815260200190815260200160002081905550600e60008373ffffffffffffffffffffffffffffffffffffffff1673ffffffffffffffffffffffffffffffffffffffff16815260200190815260200160002060003373ffffffffffffffffffffffffffffffffffffffff1673ffffffffffffffffffffffffffffffffffffffff168152602001908152602001600020543373ffffffffffffffffffffffffffffffffffffffff167f5548c837ab068cf56a2c2479df0882a4922fd203edb7517321831d95078c5f628460405161093b9190613f77565b60405180910390a35050565b6010818154811061095757600080fd5b90600052602060002090600d02016000915090508060000154908060010160009054906101000a900473ffffffffffffffffffffffffffffffffffffffff16908060020180546109a6906145ce565b80601f01602080910402602001604051908101604052809291908181526020018280546109d2906145ce565b8015610a1f5780601f106109f457610100808354040283529160200191610a1f565b820191906000526020600020905b815481529060010190602001808311610a0257829003601f168201915b50505050509080600301604051806101400160405290816000820160009054906101000a900473ffffffffffffffffffffffffffffffffffffffff1673ffffffffffffffffffffffffffffffffffffffff1673ffffffffffffffffffffffffffffffffffffffff168152602001600182015481526020016002820154815260200160038201548152602001600482015481526020016005820154815260200160068201548152602001600782018054610ad7906145ce565b80601f0160208091040260200160405190810160405280929190818152602001828054610b03906145ce565b8015610b505780601f10610b2557610100808354040283529160200191610b50565b820191906000526020600020905b815481529060010190602001808311610b3357829003601f168201915b50505050508152602001600882015481526020016009820160009054906101000a900460ff161515151581525050905084565b600a60009054906101000a900473ffffffffffffffffffffffffffffffffffffffff1681565b60026000541415610bef576040517f08c379a0000000000000000000000000000000000000000000000000000000008152600401610be690614285565b60405180910390fd5b6002600081905550600f60003373ffffffffffffffffffffffffffffffffffffffff1673ffffffffffffffffffffffffffffffffffffffff16815260200190815260200160002060009054906101000a900460ff16610c83576040517f08c379a0000000000000000000000000000000000000000000000000000000008152600401610c7a906141e5565b60405180910390fd5b6000600d60003373ffffffffffffffffffffffffffffffffffffffff1673ffffffffffffffffffffffffffffffffffffffff168152602001908152602001600020905060008160030160010154905060008260030160000160009054906101000a900473ffffffffffffffffffffffffffffffffffffffff16905060008173ffffffffffffffffffffffffffffffffffffffff16636f307dc36040518163ffffffff1660e01b815260040160206040518083038186803b158015610d4657600080fd5b505afa158015610d5a573d6000803e3d6000fd5b505050506040513d601f19601f82011682018060405250810190610d7e91906135cd565b90508073ffffffffffffffffffffffffffffffffffffffff1663a9059cbb33856040518363ffffffff1660e01b8152600401610dbb929190614007565b602060405180830381600087803b158015610dd557600080fd5b505af1158015610de9573d6000803e3d6000fd5b505050506040513d601f19601f82011682018060405250810190610e0d919061370f565b5060008460030160010181905550438460030160080181905550610e526305f5e100610e444360075461331690919063ffffffff16565b6132ea90919063ffffffff16565b6007819055507f9b1bfa7fa9ee420a16e124f794c35ac9f90472acc99140eb2f6447c714cad8eb303385604051610e8b93929190613f92565b60405180910390a1505050506001600081905550565b600b5481565b600080600d60003373ffffffffffffffffffffffffffffffffffffffff1673ffffffffffffffffffffffffffffffffffffffff168152602001908152602001600020604051806080016040529081600082015481526020016001820160009054906101000a900473ffffffffffffffffffffffffffffffffffffffff1673ffffffffffffffffffffffffffffffffffffffff1673ffffffffffffffffffffffffffffffffffffffff168152602001600282018054610f64906145ce565b80601f0160208091040260200160405190810160405280929190818152602001828054610f90906145ce565b8015610fdd5780601f10610fb257610100808354040283529160200191610fdd565b820191906000526020600020905b815481529060010190602001808311610fc057829003601f168201915b5050505050815260200160038201604051806101400160405290816000820160009054906101000a900473ffffffffffffffffffffffffffffffffffffffff1673ffffffffffffffffffffffffffffffffffffffff1673ffffffffffffffffffffffffffffffffffffffff168152602001600182015481526020016002820154815260200160038201548152602001600482015481526020016005820154815260200160068201548152602001600782018054611099906145ce565b80601f01602080910402602001604051908101604052809291908181526020018280546110c5906145ce565b80156111125780601f106110e757610100808354040283529160200191611112565b820191906000526020600020905b8154815290600101906020018083116110f557829003601f168201915b50505050508152602001600882015481526020016009820160009054906101000a900460ff161515151581525050815250509050600f6000826020015173ffffffffffffffffffffffffffffffffffffffff1673ffffffffffffffffffffffffffffffffffffffff16815260200190815260200160002060009054906101000a900460ff166111d6576040517f08c379a00000000000000000000000000000000000000000000000000000000081526004016111cd906141e5565b60405180910390fd5b6000816060015160000151905060008173ffffffffffffffffffffffffffffffffffffffff1663ae9d70b06040518163ffffffff1660e01b815260040160206040518083038186803b15801561122b57600080fd5b505afa15801561123f573d6000803e3d6000fd5b505050506040513d601f19601f8201168201806040525081019061126391906137a2565b905060006112ac6305f5e10061129e6007546112908689606001516020015161332c90919063ffffffff16565b6132ea90919063ffffffff16565b6132ea90919063ffffffff16565b90508094505050505090565b6112c0613342565b73ffffffffffffffffffffffffffffffffffffffff166112de61228f565b73ffffffffffffffffffffffffffffffffffffffff1614611334576040517f08c379a000000000000000000000000000000000000000000000000000000000815260040161132b90614225565b60405180910390fd5b6000600d60003373ffffffffffffffffffffffffffffffffffffffff1673ffffffffffffffffffffffffffffffffffffffff168152602001908152602001600020604051806080016040529081600082015481526020016001820160009054906101000a900473ffffffffffffffffffffffffffffffffffffffff1673ffffffffffffffffffffffffffffffffffffffff1673ffffffffffffffffffffffffffffffffffffffff1681526020016002820180546113f0906145ce565b80601f016020809104026020016040519081016040528092919081815260200182805461141c906145ce565b80156114695780601f1061143e57610100808354040283529160200191611469565b820191906000526020600020905b81548152906001019060200180831161144c57829003601f168201915b5050505050815260200160038201604051806101400160405290816000820160009054906101000a900473ffffffffffffffffffffffffffffffffffffffff1673ffffffffffffffffffffffffffffffffffffffff1673ffffffffffffffffffffffffffffffffffffffff168152602001600182015481526020016002820154815260200160038201548152602001600482015481526020016005820154815260200160068201548152602001600782018054611525906145ce565b80601f0160208091040260200160405190810160405280929190818152602001828054611551906145ce565b801561159e5780601f106115735761010080835404028352916020019161159e565b820191906000526020600020905b81548152906001019060200180831161158157829003601f168201915b50505050508152602001600882015481526020016009820160009054906101000a900460ff161515151581525050815250509050600f6000826020015173ffffffffffffffffffffffffffffffffffffffff1673ffffffffffffffffffffffffffffffffffffffff16815260200190815260200160002060009054906101000a900460ff16611662576040517f08c379a0000000000000000000000000000000000000000000000000000000008152600401611659906140f7565b60405180910390fd5b6000816060015160a00181815250507f164f7b2ab803097dab5e39f06d2e4f3c3ddc5d4171abbdcc3e76443b8359c7f5816060015160a001516040516116a891906142a5565b60405180910390a150565b600260005414156116f9576040517f08c379a00000000000000000000000000000000000000000000000000000000081526004016116f090614285565b60405180910390fd5b6002600081905550600f60003373ffffffffffffffffffffffffffffffffffffffff1673ffffffffffffffffffffffffffffffffffffffff16815260200190815260200160002060009054906101000a900460ff1661178d576040517f08c379a0000000000000000000000000000000000000000000000000000000008152600401611784906140d7565b60405180910390fd5b6000600d60003373ffffffffffffffffffffffffffffffffffffffff1673ffffffffffffffffffffffffffffffffffffffff168152602001908152602001600020604051806080016040529081600082015481526020016001820160009054906101000a900473ffffffffffffffffffffffffffffffffffffffff1673ffffffffffffffffffffffffffffffffffffffff1673ffffffffffffffffffffffffffffffffffffffff168152602001600282018054611849906145ce565b80601f0160208091040260200160405190810160405280929190818152602001828054611875906145ce565b80156118c25780601f10611897576101008083540402835291602001916118c2565b820191906000526020600020905b8154815290600101906020018083116118a557829003601f168201915b5050505050815260200160038201604051806101400160405290816000820160009054906101000a900473ffffffffffffffffffffffffffffffffffffffff1673ffffffffffffffffffffffffffffffffffffffff1673ffffffffffffffffffffffffffffffffffffffff16815260200160018201548152602001600282015481526020016003820154815260200160048201548152602001600582015481526020016006820154815260200160078201805461197e906145ce565b80601f01602080910402602001604051908101604052809291908181526020018280546119aa906145ce565b80156119f75780601f106119cc576101008083540402835291602001916119f7565b820191906000526020600020905b8154815290600101906020018083116119da57829003601f168201915b50505050508152602001600882015481526020016009820160009054906101000a900460ff161515151581525050815250509050600860009054906101000a900473ffffffffffffffffffffffffffffffffffffffff1673ffffffffffffffffffffffffffffffffffffffff16632e1a7d4d8260600151602001516040518263ffffffff1660e01b8152600401611a8e91906142a5565b600060405180830381600087803b158015611aa857600080fd5b505af1158015611abc573d6000803e3d6000fd5b505050506000600960009054906101000a900473ffffffffffffffffffffffffffffffffffffffff1673ffffffffffffffffffffffffffffffffffffffff166370a08231306040518263ffffffff1660e01b8152600401611b1d9190613f77565b60206040518083038186803b158015611b3557600080fd5b505afa158015611b49573d6000803e3d6000fd5b505050506040513d601f19601f82011682018060405250810190611b6d91906137a2565b90508160600151602001518111611bb9576040517f08c379a0000000000000000000000000000000000000000000000000000000008152600401611bb0906141c5565b60405180910390fd5b806006819055506000611bf56305f5e100611be760065486606001516020015161332c90919063ffffffff16565b6132ea90919063ffffffff16565b9050600960009054906101000a900473ffffffffffffffffffffffffffffffffffffffff1673ffffffffffffffffffffffffffffffffffffffff1663a9059cbb33836040518363ffffffff1660e01b8152600401611c54929190614007565b602060405180830381600087803b158015611c6e57600080fd5b505af1158015611c82573d6000803e3d6000fd5b505050506040513d601f19601f82011682018060405250810190611ca6919061370f565b505050506001600081905550565b600d6020528060005260406000206000915090508060000154908060010160009054906101000a900473ffffffffffffffffffffffffffffffffffffffff1690806002018054611d03906145ce565b80601f0160208091040260200160405190810160405280929190818152602001828054611d2f906145ce565b8015611d7c5780601f10611d5157610100808354040283529160200191611d7c565b820191906000526020600020905b815481529060010190602001808311611d5f57829003601f168201915b50505050509080600301604051806101400160405290816000820160009054906101000a900473ffffffffffffffffffffffffffffffffffffffff1673ffffffffffffffffffffffffffffffffffffffff1673ffffffffffffffffffffffffffffffffffffffff168152602001600182015481526020016002820154815260200160038201548152602001600482015481526020016005820154815260200160068201548152602001600782018054611e34906145ce565b80601f0160208091040260200160405190810160405280929190818152602001828054611e60906145ce565b8015611ead5780601f10611e8257610100808354040283529160200191611ead565b820191906000526020600020905b815481529060010190602001808311611e9057829003601f168201915b50505050508152602001600882015481526020016009820160009054906101000a900460ff161515151581525050905084565b6000600160009054906101000a900460ff16905090565b6000600d60003373ffffffffffffffffffffffffffffffffffffffff1673ffffffffffffffffffffffffffffffffffffffff1681526020019081526020016000209050600a60009054906101000a900473ffffffffffffffffffffffffffffffffffffffff1673ffffffffffffffffffffffffffffffffffffffff166323b872dd3330856040518463ffffffff1660e01b8152600401611f9993929190613f92565b602060405180830381600087803b158015611fb357600080fd5b505af1158015611fc7573d6000803e3d6000fd5b505050506040513d601f19601f82011682018060405250810190611feb919061370f565b50600a60009054906101000a900473ffffffffffffffffffffffffffffffffffffffff1673ffffffffffffffffffffffffffffffffffffffff1663095ea7b3600860009054906101000a900473ffffffffffffffffffffffffffffffffffffffff16846040518363ffffffff1660e01b815260040161206b929190614007565b602060405180830381600087803b15801561208557600080fd5b505af1158015612099573d6000803e3d6000fd5b505050506040513d601f19601f820116820180604052508101906120bd919061370f565b50600860009054906101000a900473ffffffffffffffffffffffffffffffffffffffff1673ffffffffffffffffffffffffffffffffffffffff1663d0e30db06040518163ffffffff1660e01b8152600401600060405180830381600087803b15801561212857600080fd5b505af115801561213c573d6000803e3d6000fd5b5050505061215a82826003016001015461331690919063ffffffff16565b816003016001018190555080600301600101543373ffffffffffffffffffffffffffffffffffffffff167f5548c837ab068cf56a2c2479df0882a4922fd203edb7517321831d95078c5f62600960009054906101000a900473ffffffffffffffffffffffffffffffffffffffff166040516121d59190613f77565b60405180910390a35050565b600260009054906101000a900473ffffffffffffffffffffffffffffffffffffffff1681565b61220f613342565b73ffffffffffffffffffffffffffffffffffffffff1661222d61228f565b73ffffffffffffffffffffffffffffffffffffffff1614612283576040517f08c379a000000000000000000000000000000000000000000000000000000000815260040161227a90614225565b60405180910390fd5b61228d600061334a565b565b600060018054906101000a900473ffffffffffffffffffffffffffffffffffffffff16905090565b600f6020528060005260406000206000915054906101000a900460ff1681565b600080600d60008473ffffffffffffffffffffffffffffffffffffffff1673ffffffffffffffffffffffffffffffffffffffff168152602001908152602001600020604051806080016040529081600082015481526020016001820160009054906101000a900473ffffffffffffffffffffffffffffffffffffffff1673ffffffffffffffffffffffffffffffffffffffff1673ffffffffffffffffffffffffffffffffffffffff168152602001600282018054612394906145ce565b80601f01602080910402602001604051908101604052809291908181526020018280546123c0906145ce565b801561240d5780601f106123e25761010080835404028352916020019161240d565b820191906000526020600020905b8154815290600101906020018083116123f057829003601f168201915b5050505050815260200160038201604051806101400160405290816000820160009054906101000a900473ffffffffffffffffffffffffffffffffffffffff1673ffffffffffffffffffffffffffffffffffffffff1673ffffffffffffffffffffffffffffffffffffffff1681526020016001820154815260200160028201548152602001600382015481526020016004820154815260200160058201548152602001600682015481526020016007820180546124c9906145ce565b80601f01602080910402602001604051908101604052809291908181526020018280546124f5906145ce565b80156125425780601f1061251757610100808354040283529160200191612542565b820191906000526020600020905b81548152906001019060200180831161252557829003601f168201915b50505050508152602001600882015481526020016009820160009054906101000a900460ff1615151515815250508152505090506000600860009054906101000a900473ffffffffffffffffffffffffffffffffffffffff1673ffffffffffffffffffffffffffffffffffffffff1663eec562c3306040518263ffffffff1660e01b81526004016125d39190613f77565b60206040518083038186803b1580156125eb57600080fd5b505afa1580156125ff573d6000803e3d6000fd5b505050506040513d601f19601f8201168201806040525081019061262391906137a2565b905060006126586305f5e10061264a8486606001516020015161332c90919063ffffffff16565b6132ea90919063ffffffff16565b9050809350505050919050565b600080829050600060011515851515141561270c578173ffffffffffffffffffffffffffffffffffffffff1663db006a75876040518263ffffffff1660e01b81526004016126b391906142a5565b602060405180830381600087803b1580156126cd57600080fd5b505af11580156126e1573d6000803e3d6000fd5b505050506040513d601f19601f8201168201806040525081019061270591906137a2565b905061279a565b8173ffffffffffffffffffffffffffffffffffffffff1663852a12e3876040518263ffffffff1660e01b815260040161274591906142a5565b602060405180830381600087803b15801561275f57600080fd5b505af1158015612773573d6000803e3d6000fd5b505050506040513d601f19601f8201168201806040525081019061279791906137a2565b90505b7f8d1cced004452bd270777a8c670f9f7e7c4fdde56f2db331fe289d39dc2624ad816040516127c99190614117565b60405180910390a16001925050509392505050565b828411612820576040517f08c379a000000000000000000000000000000000000000000000000000000000815260040161281790614265565b60405180910390fd5b60008311612863576040517f08c379a000000000000000000000000000000000000000000000000000000000815260040161285a90614245565b60405180910390fd5b600f60003373ffffffffffffffffffffffffffffffffffffffff1673ffffffffffffffffffffffffffffffffffffffff16815260200190815260200160002060009054906101000a900460ff166128ef576040517f08c379a00000000000000000000000000000000000000000000000000000000081526004016128e690614205565b60405180910390fd5b6000600d60003373ffffffffffffffffffffffffffffffffffffffff1673ffffffffffffffffffffffffffffffffffffffff1681526020019081526020016000209050600081600301600601541461297c576040517f08c379a0000000000000000000000000000000000000000000000000000000008152600401612973906141a5565b60405180910390fd5b868160030160000160006101000a81548173ffffffffffffffffffffffffffffffffffffffff021916908373ffffffffffffffffffffffffffffffffffffffff1602179055508181600301600601819055506129e1834261331690919063ffffffff16565b816003016005018190555085816003016007019080519060200190612a0792919061341b565b5084816003016003018190555083816003016002018190555060018160030160090160006101000a81548160ff0219169083151502179055507f0a342f2e207c3c328a10158ad0b71a9e64a10e319c5d635be24f8c7e418ea6e433826003016007018360030160060154604051612a8093929190613fc9565b60405180910390a150505050505050565b6000808211612ad5576040517f08c379a0000000000000000000000000000000000000000000000000000000008152600401612acc90614165565b60405180910390fd5b600083905060008173ffffffffffffffffffffffffffffffffffffffff16636f307dc36040518163ffffffff1660e01b815260040160206040518083038186803b158015612b2257600080fd5b505afa158015612b36573d6000803e3d6000fd5b505050506040513d601f19601f82011682018060405250810190612b5a91906135cd565b90508073ffffffffffffffffffffffffffffffffffffffff1663095ea7b386866040518363ffffffff1660e01b8152600401612b97929190614007565b602060405180830381600087803b158015612bb157600080fd5b505af1158015612bc5573d6000803e3d6000fd5b505050506040513d601f19601f82011682018060405250810190612be9919061370f565b5060008273ffffffffffffffffffffffffffffffffffffffff1663a0712d68866040518263ffffffff1660e01b8152600401612c2591906142a5565b602060405180830381600087803b158015612c3f57600080fd5b505af1158015612c53573d6000803e3d6000fd5b505050506040513d601f19601f82011682018060405250810190612c7791906137a2565b905060008114612cbc576040517f08c379a0000000000000000000000000000000000000000000000000000000008152600401612cb390614145565b60405180910390fd5b80935050505092915050565b600f60003373ffffffffffffffffffffffffffffffffffffffff1673ffffffffffffffffffffffffffffffffffffffff16815260200190815260200160002060009054906101000a900460ff1615612d55576040517f08c379a0000000000000000000000000000000000000000000000000000000008152600401612d4c90614185565b60405180910390fd5b6000604051806101400160405280600073ffffffffffffffffffffffffffffffffffffffff168152602001600081526020016000815260200160008152602001428152602001600081526020016000815260200160405180602001604052806000815250815260200143815260200160001515815250905060006040518060800160405280612de4600461340d565b81526020013373ffffffffffffffffffffffffffffffffffffffff16815260200184815260200183815250905080600d60003373ffffffffffffffffffffffffffffffffffffffff1673ffffffffffffffffffffffffffffffffffffffff1681526020019081526020016000206000820151816000015560208201518160010160006101000a81548173ffffffffffffffffffffffffffffffffffffffff021916908373ffffffffffffffffffffffffffffffffffffffff1602179055506040820151816002019080519060200190612ebe92919061341b565b5060608201518160030160008201518160000160006101000a81548173ffffffffffffffffffffffffffffffffffffffff021916908373ffffffffffffffffffffffffffffffffffffffff1602179055506020820151816001015560408201518160020155606082015181600301556080820151816004015560a0820151816005015560c0820151816006015560e0820151816007019080519060200190612f6792919061341b565b5061010082015181600801556101208201518160090160006101000a81548160ff021916908315150217905550505090505060108190806001815401808255809150506001900390600052602060002090600d02016000909190919091506000820151816000015560208201518160010160006101000a81548173ffffffffffffffffffffffffffffffffffffffff021916908373ffffffffffffffffffffffffffffffffffffffff160217905550604082015181600201908051906020019061303292919061341b565b5060608201518160030160008201518160000160006101000a81548173ffffffffffffffffffffffffffffffffffffffff021916908373ffffffffffffffffffffffffffffffffffffffff1602179055506020820151816001015560408201518160020155606082015181600301556080820151816004015560a0820151816005015560c0820151816006015560e08201518160070190805190602001906130db92919061341b565b5061010082015181600801556101208201518160090160006101000a81548160ff021916908315150217905550505050506001600f60003373ffffffffffffffffffffffffffffffffffffffff1673ffffffffffffffffffffffffffffffffffffffff16815260200190815260200160002060006101000a81548160ff02191690831515021790555061316e6004613300565b8260405161317c9190613f60565b60405180910390203373ffffffffffffffffffffffffffffffffffffffff167f6ba0831d2f62ae5cbf7214bcc1d79c5da1d705f12811efda0beaa840006f874e60405160405180910390a3505050565b6131d4613342565b73ffffffffffffffffffffffffffffffffffffffff166131f261228f565b73ffffffffffffffffffffffffffffffffffffffff1614613248576040517f08c379a000000000000000000000000000000000000000000000000000000000815260040161323f90614225565b60405180910390fd5b600073ffffffffffffffffffffffffffffffffffffffff168173ffffffffffffffffffffffffffffffffffffffff1614156132b8576040517f08c379a00000000000000000000000000000000000000000000000000000000081526004016132af906140b7565b60405180910390fd5b6132c18161334a565b50565b600860009054906101000a900473ffffffffffffffffffffffffffffffffffffffff1681565b600081836132f89190614417565b905092915050565b6001816000016000828254019250508190555050565b6000818361332491906143c1565b905092915050565b6000818361333a9190614448565b905092915050565b600033905090565b600060018054906101000a900473ffffffffffffffffffffffffffffffffffffffff169050816001806101000a81548173ffffffffffffffffffffffffffffffffffffffff021916908373ffffffffffffffffffffffffffffffffffffffff1602179055508173ffffffffffffffffffffffffffffffffffffffff168173ffffffffffffffffffffffffffffffffffffffff167f8be0079c531659141344cd1fd0a4f28419497f9722a3daafe3b4186f6b6457e060405160405180910390a35050565b600081600001549050919050565b828054613427906145ce565b90600052602060002090601f0160209004810192826134495760008555613490565b82601f1061346257805160ff1916838001178555613490565b82800160010185558215613490579182015b8281111561348f578251825591602001919060010190613474565b5b50905061349d91906134a1565b5090565b5b808211156134ba5760008160009055506001016134a2565b5090565b60006134d16134cc84614344565b614313565b9050828152602081018484840111156134e957600080fd5b6134f484828561458c565b509392505050565b60008135905061350b816146cd565b92915050565b600081519050613520816146cd565b92915050565b600081359050613535816146e4565b92915050565b60008151905061354a816146e4565b92915050565b600082601f83011261356157600080fd5b81356135718482602086016134be565b91505092915050565b600081359050613589816146fb565b92915050565b60008151905061359e816146fb565b92915050565b6000602082840312156135b657600080fd5b60006135c4848285016134fc565b91505092915050565b6000602082840312156135df57600080fd5b60006135ed84828501613511565b91505092915050565b6000806040838503121561360957600080fd5b6000613617858286016134fc565b9250506020613628858286016134fc565b9150509250929050565b60008060008060008060c0878903121561364b57600080fd5b600061365989828a016134fc565b965050602087013567ffffffffffffffff81111561367657600080fd5b61368289828a01613550565b955050604061369389828a0161357a565b94505060606136a489828a0161357a565b93505060806136b589828a0161357a565b92505060a06136c689828a0161357a565b9150509295509295509295565b600080604083850312156136e657600080fd5b60006136f4858286016134fc565b92505060206137058582860161357a565b9150509250929050565b60006020828403121561372157600080fd5b600061372f8482850161353b565b91505092915050565b60006020828403121561374a57600080fd5b600082013567ffffffffffffffff81111561376457600080fd5b61377084828501613550565b91505092915050565b60006020828403121561378b57600080fd5b60006137998482850161357a565b91505092915050565b6000602082840312156137b457600080fd5b60006137c28482850161358f565b91505092915050565b6000806000606084860312156137e057600080fd5b60006137ee8682870161357a565b93505060206137ff86828701613526565b9250506040613810868287016134fc565b9150509250925092565b613823816144b4565b82525050565b613832816144a2565b82525050565b613841816144a2565b82525050565b613850816144c6565b82525050565b61385f816144c6565b82525050565b61386e816144fc565b82525050565b61387d81614520565b82525050565b61388c81614544565b82525050565b61389b81614568565b82525050565b60006138ac82614389565b6138b68185614394565b93506138c681856020860161459b565b6138cf816146bc565b840191505092915050565b60006138e582614389565b6138ef81856143a5565b93506138ff81856020860161459b565b613908816146bc565b840191505092915050565b600061391e82614389565b61392881856143b6565b935061393881856020860161459b565b80840191505092915050565b60008154613951816145ce565b61395b81866143a5565b945060018216600081146139765760018114613988576139bb565b60ff19831686526020860193506139bb565b61399185614374565b60005b838110156139b357815481890152600182019150602081019050613994565b808801955050505b50505092915050565b60006139d16026836143a5565b91507f4f776e61626c653a206e6577206f776e657220697320746865207a65726f206160008301527f64647265737300000000000000000000000000000000000000000000000000006020830152604082019050919050565b6000613a376015836143a5565b91507f43616c6c6572206e6f74205265676973746572656400000000000000000000006000830152602082019050919050565b6000613a776018836143a5565b91507f43616c6c6572206973206e6f74207265676973746572656400000000000000006000830152602082019050919050565b6000613ab76024836143a5565b91507f49662074686973206973206e6f7420302c2074686572652077617320616e206560008301527f72726f72000000000000000000000000000000000000000000000000000000006020830152604082019050919050565b6000613b1d6034836143a5565b91507f63546f6b656e236d696e742829206661696c65642e2073656520436f6d706f7560008301527f6e64204572726f725265706f727465722e736f6c0000000000000000000000006020830152604082019050919050565b6000613b836012836143a5565b91507f416d6f756e742043616e6e6f74206265203000000000000000000000000000006000830152602082019050919050565b6000613bc3601d836143a5565b91507f43616c6c6572206164647265737320616c7265616479206578697374730000006000830152602082019050919050565b6000613c036022836143a5565b91507f43616c6c657220616c7265616479206861732061206c6f636b2054696d65205360008301527f65740000000000000000000000000000000000000000000000000000000000006020830152604082019050919050565b6000613c696023836143a5565b91507f5769746864726177696e67206d6f7265207468616e20796f75206465706f736960008301527f74656400000000000000000000000000000000000000000000000000000000006020830152604082019050919050565b6000613ccf6015836143a5565b91507f43616c6c6572206e6f74207265676973746572656400000000000000000000006000830152602082019050919050565b6000613d0f601b836143a5565b91507f43616c6c65722068617320746f206265205265676973746572656400000000006000830152602082019050919050565b6000613d4f6020836143a5565b91507f4f776e61626c653a2063616c6c6572206973206e6f7420746865206f776e65726000830152602082019050919050565b6000613d8f6020836143a5565b91507f617070726f766520616e20616d6f756e742067726561746572207468616e20306000830152602082019050919050565b6000613dcf602f836143a5565b91507f53657420616e20616d6f756e742067726561746572207468616e20746865207260008301527f6563757272696e6720616d6f756e7400000000000000000000000000000000006020830152604082019050919050565b6000613e35601f836143a5565b91507f5265656e7472616e637947756172643a207265656e7472616e742063616c6c006000830152602082019050919050565b600061014083016000830151613e816000860182613829565b506020830151613e946020860182613f42565b506040830151613ea76040860182613f42565b506060830151613eba6060860182613f42565b506080830151613ecd6080860182613f42565b5060a0830151613ee060a0860182613f42565b5060c0830151613ef360c0860182613f42565b5060e083015184820360e0860152613f0b82826138a1565b915050610100830151613f22610100860182613f42565b50610120830151613f37610120860182613847565b508091505092915050565b613f4b816144f2565b82525050565b613f5a816144f2565b82525050565b6000613f6c8284613913565b915081905092915050565b6000602082019050613f8c6000830184613838565b92915050565b6000606082019050613fa76000830186613838565b613fb46020830185613838565b613fc16040830184613f51565b949350505050565b6000606082019050613fde6000830186613838565b8181036020830152613ff08185613944565b9050613fff6040830184613f51565b949350505050565b600060408201905061401c6000830185613838565b6140296020830184613f51565b9392505050565b60006020820190506140456000830184613856565b92915050565b60006020820190506140606000830184613865565b92915050565b600060208201905061407b6000830184613874565b92915050565b60006020820190506140966000830184613883565b92915050565b60006020820190506140b16000830184613892565b92915050565b600060208201905081810360008301526140d0816139c4565b9050919050565b600060208201905081810360008301526140f081613a2a565b9050919050565b6000602082019050818103600083015261411081613a6a565b9050919050565b6000604082019050818103600083015261413081613aaa565b905061413f6020830184613f51565b92915050565b6000602082019050818103600083015261415e81613b10565b9050919050565b6000602082019050818103600083015261417e81613b76565b9050919050565b6000602082019050818103600083015261419e81613bb6565b9050919050565b600060208201905081810360008301526141be81613bf6565b9050919050565b600060208201905081810360008301526141de81613c5c565b9050919050565b600060208201905081810360008301526141fe81613cc2565b9050919050565b6000602082019050818103600083015261421e81613d02565b9050919050565b6000602082019050818103600083015261423e81613d42565b9050919050565b6000602082019050818103600083015261425e81613d82565b9050919050565b6000602082019050818103600083015261427e81613dc2565b9050919050565b6000602082019050818103600083015261429e81613e28565b9050919050565b60006020820190506142ba6000830184613f51565b92915050565b60006080820190506142d56000830187613f51565b6142e2602083018661381a565b81810360408301526142f481856138da565b905081810360608301526143088184613e68565b905095945050505050565b6000604051905081810181811067ffffffffffffffff8211171561433a5761433961468d565b5b8060405250919050565b600067ffffffffffffffff82111561435f5761435e61468d565b5b601f19601f8301169050602081019050919050565b60008190508160005260206000209050919050565b600081519050919050565b600082825260208201905092915050565b600082825260208201905092915050565b600081905092915050565b60006143cc826144f2565b91506143d7836144f2565b9250827fffffffffffffffffffffffffffffffffffffffffffffffffffffffffffffffff0382111561440c5761440b614600565b5b828201905092915050565b6000614422826144f2565b915061442d836144f2565b92508261443d5761443c61462f565b5b828204905092915050565b6000614453826144f2565b915061445e836144f2565b9250817fffffffffffffffffffffffffffffffffffffffffffffffffffffffffffffffff048311821515161561449757614496614600565b5b828202905092915050565b60006144ad826144d2565b9050919050565b60006144bf826144d2565b9050919050565b60008115159050919050565b600073ffffffffffffffffffffffffffffffffffffffff82169050919050565b6000819050919050565b60006145078261450e565b9050919050565b6000614519826144d2565b9050919050565b600061452b82614532565b9050919050565b600061453d826144d2565b9050919050565b600061454f82614556565b9050919050565b6000614561826144d2565b9050919050565b60006145738261457a565b9050919050565b6000614585826144d2565b9050919050565b82818337600083830152505050565b60005b838110156145b957808201518184015260208101905061459e565b838111156145c8576000848401525b50505050565b600060028204905060018216806145e657607f821691505b602082108114156145fa576145f961465e565b5b50919050565b7f4e487b7100000000000000000000000000000000000000000000000000000000600052601160045260246000fd5b7f4e487b7100000000000000000000000000000000000000000000000000000000600052601260045260246000fd5b7f4e487b7100000000000000000000000000000000000000000000000000000000600052602260045260246000fd5b7f4e487b7100000000000000000000000000000000000000000000000000000000600052604160045260246000fd5b6000601f19601f8301169050919050565b6146d6816144a2565b81146146e157600080fd5b50565b6146ed816144c6565b81146146f857600080fd5b50565b614704816144f2565b811461470f57600080fd5b5056fea26469706673582212203a228542053ae7422a5ede9645ad52dfe81b25261dccfe6170a130fafebf9d7564736f6c63430008000033",
  "immutableReferences": {},
  "source": "//SPDX-License-Identifier: Unlicense\r\npragma solidity ^0.8.0;\r\n\r\nimport \"@openzeppelin/contracts/utils/math/SafeMath.sol\";\r\nimport \"@openzeppelin/contracts/security/Pausable.sol\";\r\nimport \"@openzeppelin/contracts/security/ReentrancyGuard.sol\";\r\nimport \"@openzeppelin/contracts/access/Ownable.sol\";\r\nimport \"@openzeppelin/contracts/utils/Counters.sol\";\r\nimport '@openzeppelin/contracts/token/ERC20/IERC20.sol';\r\nimport \"@chainlink/contracts/src/v0.8/interfaces/KeeperCompatibleInterface.sol\";\r\nimport './CTokenInterface.sol';\r\nimport './ComptrollerInterface.sol';\r\nimport './PriceOracleInterface.sol';\r\nimport \"./XendFinanceInterface.sol\";\r\n\r\n\r\n// approve the user's underlying asset to be able to use the chainklink keepers\r\n\r\ncontract PensionServiceProvider is ReentrancyGuard, Pausable, Ownable {\r\n    using SafeMath for uint;\r\n    using Counters for Counters.Counter;\r\n\r\n    // variables\r\n    ComptrollerInterface public comptroller;\r\n\tPriceOracleInterface public priceOracle;\r\n    Counters.Counter private id;\r\n    uint balance;\r\n\r\n    uint accXendTokens;\r\n    uint256 ccInterest;\r\n    XendFinanceInterface public xendFinance;\r\n    IERC20 public xend;\r\n    IERC20 public busd;\r\n\r\n    uint public lastTimeStamp;\r\n    uint public upKeepInterval;\r\n\r\n\r\n\r\n    \r\n\r\n\r\n\r\n    struct Client {\r\n        address underlyingAsset;\r\n        uint256 depositedAmount;\r\n        uint256 amountToSpend;\r\n        uint256 approvedAmountToSpend;\r\n        uint256 startTime;\r\n        uint256 timeDurationOfdeposit;\r\n        uint256 lockTime;\r\n        string ipfsHashOfUserPensionDetails;\r\n        uint256 userLastRewardBlock;\r\n        bool hasPlan;\r\n    }\r\n\r\n\r\n    // A user Object\r\n    struct User {\r\n        uint256 id;\r\n        address payable userAddress;\r\n        string  userDetails;\r\n        Client client;\r\n\r\n    }\r\n\r\n\r\n\r\n    \r\n\r\n    \r\n\r\n\r\n    event Register(address indexed applicant, string indexed applicantDetails);\r\n    event Withdraw(address from, address to, uint amount);\r\n    event Deposit(address indexed sender, address receiver, uint indexed amountSpent);\r\n    event Upkeep(address sender, bool upkeep);\r\n    event Plan(address user, string planDetails, uint lockTime);\r\n    event Update(uint256 timeDuration);\r\n    event Transfer(address indexed sender, uint amount, address indexed receiver);\r\n    event MyLog(string, uint256);\r\n\r\n    mapping(address => User) public pensionServiceApplicant;\r\n    address constant ETHER = address(0); // Stores ether in the tokens mapping\r\n\tmapping(address => mapping(address => uint256)) public assets;\r\n\r\n    // keep track of registered users\r\n    mapping(address => bool) public isRegistered;\r\n\r\n    User[] public users;\r\n\r\n\r\n    constructor(address _xend, address _xendFinanceIndividual_Yearn_V1,  address _comptroller, address _priceOracle, uint _upKeepInterval)  {\r\n        xend = IERC20(_xend);\r\n        comptroller = ComptrollerInterface(_comptroller);\r\n\t\tpriceOracle = PriceOracleInterface(_priceOracle);\r\n        xendFinance = XendFinanceInterface(_xendFinanceIndividual_Yearn_V1);\r\n        ccInterest = uint256(3 ether).div(10); // .3% \r\n        lastTimeStamp = block.timestamp;\r\n        upKeepInterval = _upKeepInterval;\r\n\r\n        id.increment();\r\n        \r\n    }\r\n\r\n\r\n    receive() external payable {\r\n        balance = msg.value;\r\n    }\r\n\r\n    function register(\r\n        string memory _userDetails\r\n        ) \r\n        public  {\r\n        require(!isRegistered[msg.sender], \"Caller address already exists\");\r\n\r\n        Client memory client = Client({\r\n            underlyingAsset: address(0),\r\n            depositedAmount: 0,\r\n            amountToSpend: 0,\r\n            approvedAmountToSpend: 0,\r\n            startTime: block.timestamp,\r\n            timeDurationOfdeposit: 0,\r\n            lockTime: 0,\r\n            ipfsHashOfUserPensionDetails: \"\",\r\n            userLastRewardBlock: block.number,\r\n            hasPlan: false\r\n        });\r\n\r\n        User memory user = User({\r\n            id: id.current(),\r\n            userAddress: payable(msg.sender),\r\n            userDetails: _userDetails,\r\n            client: client\r\n        });\r\n\r\n       \r\n\r\n        pensionServiceApplicant[msg.sender] = user;\r\n        users.push(user);\r\n        isRegistered[msg.sender] = true;\r\n\r\n        id.increment();\r\n\r\n        emit Register(msg.sender, _userDetails);\r\n    }\r\n\r\n\r\n\r\n    // function depositToBeima(address _asset ,uint256 _amount) external payable nonReentrant()  {\r\n    //     IERC20(_asset).transfer(address(this), _amount);\r\n    //     require(isRegistered[msg.sender], \"Caller is not Registered\");\r\n    //     // require(_amount > 0, \"Amount cannot be 0\");\r\n    //     User storage user = pensionServiceApplicant[msg.sender];\r\n    //     // require(IERC20(cToken.underlying()).balanceOf(address(this)) >= _amount, \"Transfer failed\");\r\n    //     user.client.depositedAmount = user.client.depositedAmount.add(_amount);\r\n    //     user.client.approvedAmountToSpend = user.client.approvedAmountToSpend.sub(user.client.amountToSpend);\r\n    //     user.client.startTime = block.timestamp;\r\n    //     user.client.userLastRewardBlock = user.client.userLastRewardBlock.add(block.number);\r\n    //     lastTimeStamp = block.timestamp;\r\n    //     // _supply(_asset, _amount);\r\n    //     emit Deposit(address(this), _asset, _amount);\r\n\r\n    // }\r\n\r\n    function depositToken (address _asset, uint _amount)public{\r\n\t\trequire(_asset != ETHER);\r\n\t\trequire(IERC20(_asset).transferFrom(msg.sender, address(this), _amount));\r\n\t\tassets[_asset][msg.sender] = assets[_asset][msg.sender].add(_amount);\r\n\t\temit Deposit (msg.sender, _asset, assets[_asset][msg.sender]);\r\n\t}\r\n\r\n\r\n\r\n//     function _enterMarket(address _cTokenaddress) internal {\r\n// \t\taddress[] memory markets = new address[](1);\r\n// \t\tmarkets[0] = _cTokenaddress;\r\n// \t\tuint[] memory results = comptroller.enterMarkets(markets);\r\n// \t\trequire( results[0] == 0, 'comptroller#enterMarkets() failed. see Compound ErrorReporter.sol');\r\n// \t}\r\n\r\n\r\n\r\n\r\n\r\n\r\n    function supply(address cTokenaddress, uint underlyingAmount) external returns(uint) {\r\n        require(underlyingAmount > 0, \"Amount Cannot be 0\");\r\n        // _enterMarket(cTokenaddress);\r\n\t\tCTokenInterface cToken = CTokenInterface(cTokenaddress);\r\n\t\taddress underlyingAddress = cToken.underlying();\r\n\t\tIERC20(underlyingAddress).approve(cTokenaddress, underlyingAmount);\r\n\r\n\t\tuint result = cToken.mint(underlyingAmount);\r\n\t\trequire(result == 0, 'cToken#mint() failed. see Compound ErrorReporter.sol');\r\n        return result;\r\n\t}\r\n\r\n\r\n//     // chainlink keeper function call\r\n    // function checkUpkeep(bytes calldata /* checkData */) external view override returns(bool, bytes memory)   {\r\n        \r\n    //     return (block.timestamp.sub(lastTimeStamp) > upKeepInterval, bytes(abi.encode(users)));\r\n    //     // (block.timestamp.sub(lastTimeStamp) > upKeepInterval);\r\n        \r\n    // }\r\n\r\n\r\n\r\n\r\n    // function performUpkeep(bytes calldata performData ) external override  {\r\n    //     // User[] memory usersArray = abi.decode(performData, (User[]));\r\n    //     // for(uint256 i = 0; i < usersArray.length - 1; i++ ) {\r\n    //             User memory  user = pensionServiceApplicant[msg.sender];\r\n    //             require(isRegistered[user.userAddress], \"Address not registered\");\r\n    //             require(user.client.approvedAmountToSpend > 0, \"Insufficient balance cannot perform upkeep\");\r\n    //             require(user.client.hasPlan, \"Client has no plan\");\r\n    //              CTokenInterface cToken = CTokenInterface(user.client.underlyingAsset);\r\n\r\n    //             uint amountToDeposit = user.client.amountToSpend;\r\n    //             address underlyingAsset = cToken.underlying();\r\n    //             user.client.depositedAmount = user.client.depositedAmount.add(amountToDeposit);\r\n    //             IERC20(underlyingAsset).transferFrom(user.userAddress, address(this),  amountToDeposit);\r\n    //             uint balance = IERC20(underlyingAsset).balanceOf(address(this));\r\n    //             require(balance == amountToDeposit, \"Transfer failed\");\r\n    //             _deposit(user.client.underlyingAsset, balance);\r\n    //             // address cLink = 0xFAce851a4921ce59e912d19329929CE6da6EB0c7;\r\n    //             // emit Transfer(user.userAddress, user.client.depositedAmount, address(this));\r\n    //             // _supply(user.client.underlyingAsset, user.client.amountToSpend);\r\n    //             user.client.depositedAmount = user.client.depositedAmount.add(amountToDeposit);\r\n    //             user.client.approvedAmountToSpend = user.client.approvedAmountToSpend.sub(user.client.amountToSpend);\r\n    //             user.client.startTime = block.timestamp;\r\n    //             user.client.userLastRewardBlock = user.client.userLastRewardBlock.add(block.number);\r\n    //             ccInterest = ccInterest.mul(block.number);\r\n    //             lastTimeStamp = block.timestamp;\r\n\r\n    //             emit Deposit(user.userAddress, address(this), user.client.depositedAmount);\r\n    //     // }\r\n            \r\n    //     // emit Update(pensionServiceApplicant[msg.sender].depositedAmount);\r\n\r\n    // }\r\n\r\n\r\n\r\n    function withdraw() public nonReentrant() {\r\n        require(isRegistered[msg.sender], \"Caller not registered\");\r\n        User storage user = pensionServiceApplicant[msg.sender];\r\n        uint amountToSend = user.client.depositedAmount;\r\n        CTokenInterface cToken = CTokenInterface(user.client.underlyingAsset);\r\n        address underlyingAsset = cToken.underlying();\r\n        IERC20(underlyingAsset).transfer(msg.sender, amountToSend);\r\n        user.client.depositedAmount = 0;\r\n        user.client.userLastRewardBlock = block.number;\r\n        ccInterest = ccInterest.add(block.number).div(1e8);\r\n        emit Withdraw(address(this), msg.sender, amountToSend);\r\n\r\n\r\n    }\r\n\r\n\r\n    function redeemCErc20Tokens(\r\n        uint256 amount,\r\n        bool redeemType,\r\n        address _cErc20Contract\r\n    ) public returns (bool) {\r\n        // Create a reference to the corresponding cToken contract, like cDAI\r\n        CTokenInterface cToken = CTokenInterface(_cErc20Contract);\r\n\r\n        // `amount` is scaled up, see decimal table here:\r\n        // https://compound.finance/docs#protocol-math\r\n\r\n        uint256 redeemResult;\r\n\r\n        if (redeemType == true) {\r\n            // Retrieve your asset based on a cToken amount\r\n            redeemResult = cToken.redeem(amount);\r\n        } else {\r\n            // Retrieve your asset based on an amount of the asset\r\n            redeemResult = cToken.redeemUnderlying(amount);\r\n        }\r\n\r\n        // Error codes are listed here:\r\n        // https://compound.finance/docs/ctokens#error-codes\r\n        emit MyLog(\"If this is not 0, there was an error\", redeemResult);\r\n\r\n        return true;\r\n    }\r\n\r\n    // helper function for testing keepers\r\n    function updateTimeDurationOfDeposit() public onlyOwner()  {\r\n        User memory user = pensionServiceApplicant[msg.sender];\r\n        require(isRegistered[user.userAddress], \"Caller is not registered\");\r\n        user.client.timeDurationOfdeposit = 0;\r\n        emit Update(user.client.timeDurationOfdeposit);\r\n    } \r\n\r\n    function setPlan(\r\n        address _underlyingAsset, \r\n        string memory _ipfsHashOfUserPensionDetails, \r\n        uint _approvedAmountToSpend, \r\n        uint _amountToSpend, \r\n        uint _timeDurationOfDeposit, \r\n        uint _lockTime) \r\n        public {\r\n        require(_approvedAmountToSpend > _amountToSpend, \"Set an amount greater than the recurring amount\");\r\n        require(_amountToSpend > 0, \"approve an amount greater than 0\");\r\n        require(isRegistered[msg.sender], \"Caller has to be Registered\");\r\n        User storage user = pensionServiceApplicant[msg.sender];\r\n        require(user.client.lockTime == 0, \"Caller already has a lock Time Set\");\r\n        user.client.underlyingAsset = _underlyingAsset;\r\n        user.client.lockTime = _lockTime;\r\n        user.client.timeDurationOfdeposit = block.timestamp.add(_timeDurationOfDeposit);\r\n        user.client.ipfsHashOfUserPensionDetails = _ipfsHashOfUserPensionDetails;\r\n        user.client.approvedAmountToSpend = _approvedAmountToSpend;\r\n        user.client.amountToSpend = _amountToSpend;\r\n        user.client.hasPlan = true;\r\n\r\n        emit Plan(msg.sender, user.client.ipfsHashOfUserPensionDetails, user.client.lockTime);\r\n    }\r\n\r\n\r\n\r\n//     // for Xend\r\n\r\n    function getXendPendingRewards(address _user) public view returns(uint) {\r\n        User memory user = pensionServiceApplicant[_user];\r\n        uint256 accXendRewards = xendFinance.GetMemberXendTokenReward(address(this));\r\n        uint256 userPendingRewards = user.client.depositedAmount.mul(accXendRewards).div(1e8);\r\n\r\n        return userPendingRewards;\r\n    }\r\n\r\n\r\n\r\n    function depositToXendFinance(uint _amount) public  {\r\n        // require(isRegistered[msg.sender], \"Caller not Registered\");\r\n        User storage user = pensionServiceApplicant[msg.sender];\r\n        busd.transferFrom(msg.sender, address(this), _amount);\r\n        busd.approve(address(xendFinance), _amount);\r\n        xendFinance.deposit();\r\n        user.client.depositedAmount = user.client.depositedAmount.add(_amount);\r\n\r\n        emit Deposit(msg.sender, address(xend), user.client.depositedAmount);\r\n        \r\n    }\r\n\r\n\r\n\r\n    function withdrawFromXendFinance() public nonReentrant() {\r\n        require(isRegistered[msg.sender], \"Caller not Registered\");\r\n        User memory user = pensionServiceApplicant[msg.sender];\r\n        xendFinance.withdraw(user.client.depositedAmount);\r\n        uint256 xendBalance = xend.balanceOf(address(this));\r\n        require(xendBalance > user.client.depositedAmount, \"Withdrawing more than you deposited\");\r\n        accXendTokens = xendBalance;\r\n        uint256 accXendTokensforUser = user.client.depositedAmount.mul(accXendTokens).div(1e8);\r\n        xend.transfer(msg.sender, accXendTokensforUser);\r\n\r\n    }\r\n\r\n    function getAccruedInterest() public view returns(uint) {\r\n        User memory user = pensionServiceApplicant[msg.sender];\r\n        require(isRegistered[user.userAddress], \"Caller not registered\");\r\n        CTokenInterface ctoken = CTokenInterface(user.client.underlyingAsset);\r\n        uint supplyRatePerBlock = ctoken.supplyRatePerBlock();\r\n        uint accInterest = user.client.depositedAmount.mul(supplyRatePerBlock).div(ccInterest).div(1e8);\r\n        return accInterest;\r\n    }\r\n}",
  "sourcePath": "/mnt/c/Users/chuks/Desktop/Project/beima_project/beima_core/contracts/PensionServiceProvider.sol",
  "compiler": {
    "name": "solc",
    "version": "0.8.0+commit.c7dfd78e.Emscripten.clang"
  },
  "schemaVersion": "3.4.3",
  "updatedAt": "2021-12-07T11:24:57.632Z",
  "devdoc": {
    "kind": "dev",
    "methods": {
      "owner()": {
        "details": "Returns the address of the current owner."
      },
      "paused()": {
        "details": "Returns true if the contract is paused, and false otherwise."
      },
      "renounceOwnership()": {
        "details": "Leaves the contract without owner. It will not be possible to call `onlyOwner` functions anymore. Can only be called by the current owner. NOTE: Renouncing ownership will leave the contract without an owner, thereby removing any functionality that is only available to the owner."
      },
      "transferOwnership(address)": {
        "details": "Transfers ownership of the contract to a new account (`newOwner`). Can only be called by the current owner."
      }
    },
    "version": 1
  },
  "userdoc": {
    "kind": "user",
    "methods": {},
    "version": 1
  }
}