{
  "contractName": "PensionServiceProvider",
  "abi": [
    {
      "inputs": [
        {
          "internalType": "address",
          "name": "_xend",
          "type": "address"
        },
        {
          "internalType": "address",
          "name": "_xendFinanceIndividual_Yearn_V1",
          "type": "address"
        },
        {
          "internalType": "address",
          "name": "_comptroller",
          "type": "address"
        },
        {
          "internalType": "address",
          "name": "_priceOracle",
          "type": "address"
        },
        {
          "internalType": "uint256",
          "name": "_upKeepInterval",
          "type": "uint256"
        }
      ],
      "stateMutability": "nonpayable",
      "type": "constructor"
    },
    {
      "anonymous": false,
      "inputs": [
        {
          "indexed": false,
          "internalType": "address",
          "name": "user",
          "type": "address"
        },
        {
          "indexed": false,
          "internalType": "uint256",
          "name": "amount",
          "type": "uint256"
        }
      ],
      "name": "Deposit",
      "type": "event"
    },
    {
      "anonymous": false,
      "inputs": [
        {
          "indexed": true,
          "internalType": "address",
          "name": "applicant",
          "type": "address"
        },
        {
          "indexed": true,
          "internalType": "string",
          "name": "applicantDetails",
          "type": "string"
        }
      ],
      "name": "Register",
      "type": "event"
    },
    {
      "anonymous": false,
      "inputs": [
        {
          "indexed": false,
          "internalType": "uint256",
          "name": "timeDuration",
          "type": "uint256"
        }
      ],
      "name": "Update",
      "type": "event"
    },
    {
      "anonymous": false,
      "inputs": [
        {
          "indexed": false,
          "internalType": "address",
          "name": "sender",
          "type": "address"
        },
        {
          "indexed": false,
          "internalType": "bool",
          "name": "upkeep",
          "type": "bool"
        }
      ],
      "name": "Upkeep",
      "type": "event"
    },
    {
      "anonymous": false,
      "inputs": [
        {
          "indexed": false,
          "internalType": "address",
          "name": "from",
          "type": "address"
        },
        {
          "indexed": false,
          "internalType": "address",
          "name": "to",
          "type": "address"
        },
        {
          "indexed": false,
          "internalType": "uint256",
          "name": "amount",
          "type": "uint256"
        }
      ],
      "name": "Withdraw",
      "type": "event"
    },
    {
      "inputs": [],
      "name": "comptroller",
      "outputs": [
        {
          "internalType": "contract ComptrollerInterface",
          "name": "",
          "type": "address"
        }
      ],
      "stateMutability": "view",
      "type": "function",
      "constant": true
    },
    {
      "inputs": [
        {
          "internalType": "address",
          "name": "",
          "type": "address"
        }
      ],
      "name": "isRegistered",
      "outputs": [
        {
          "internalType": "bool",
          "name": "",
          "type": "bool"
        }
      ],
      "stateMutability": "view",
      "type": "function",
      "constant": true
    },
    {
      "inputs": [],
      "name": "lastTimeStamp",
      "outputs": [
        {
          "internalType": "uint256",
          "name": "",
          "type": "uint256"
        }
      ],
      "stateMutability": "view",
      "type": "function",
      "constant": true
    },
    {
      "inputs": [
        {
          "internalType": "address",
          "name": "",
          "type": "address"
        }
      ],
      "name": "pensionServiceApplicant",
      "outputs": [
        {
          "internalType": "uint256",
          "name": "id",
          "type": "uint256"
        },
        {
          "internalType": "address payable",
          "name": "userAddress",
          "type": "address"
        },
        {
          "internalType": "string",
          "name": "userDetails",
          "type": "string"
        },
        {
          "internalType": "string",
          "name": "nextOfKinDetails",
          "type": "string"
        },
        {
          "components": [
            {
              "internalType": "address",
              "name": "underlyingAsset",
              "type": "address"
            },
            {
              "internalType": "uint256",
              "name": "depositedAmount",
              "type": "uint256"
            },
            {
              "internalType": "uint256",
              "name": "amountToSpend",
              "type": "uint256"
            },
            {
              "internalType": "uint256",
              "name": "approvedAmountToSpend",
              "type": "uint256"
            },
            {
              "internalType": "uint256",
              "name": "startTime",
              "type": "uint256"
            },
            {
              "internalType": "uint256",
              "name": "timeDurationOfdeposit",
              "type": "uint256"
            },
            {
              "internalType": "uint256",
              "name": "lockTime",
              "type": "uint256"
            },
            {
              "internalType": "string",
              "name": "ipfsHashOfUserPensionDetails",
              "type": "string"
            },
            {
              "internalType": "uint256",
              "name": "userLastRewardBlock",
              "type": "uint256"
            },
            {
              "internalType": "bool",
              "name": "hasPlan",
              "type": "bool"
            }
          ],
          "internalType": "struct PensionServiceProvider.Client",
          "name": "client",
          "type": "tuple"
        }
      ],
      "stateMutability": "view",
      "type": "function",
      "constant": true
    },
    {
      "inputs": [],
      "name": "priceOracle",
      "outputs": [
        {
          "internalType": "contract PriceOracleInterface",
          "name": "",
          "type": "address"
        }
      ],
      "stateMutability": "view",
      "type": "function",
      "constant": true
    },
    {
      "inputs": [],
      "name": "upKeepInterval",
      "outputs": [
        {
          "internalType": "uint256",
          "name": "",
          "type": "uint256"
        }
      ],
      "stateMutability": "view",
      "type": "function",
      "constant": true
    },
    {
      "inputs": [
        {
          "internalType": "uint256",
          "name": "",
          "type": "uint256"
        }
      ],
      "name": "users",
      "outputs": [
        {
          "internalType": "uint256",
          "name": "id",
          "type": "uint256"
        },
        {
          "internalType": "address payable",
          "name": "userAddress",
          "type": "address"
        },
        {
          "internalType": "string",
          "name": "userDetails",
          "type": "string"
        },
        {
          "internalType": "string",
          "name": "nextOfKinDetails",
          "type": "string"
        },
        {
          "components": [
            {
              "internalType": "address",
              "name": "underlyingAsset",
              "type": "address"
            },
            {
              "internalType": "uint256",
              "name": "depositedAmount",
              "type": "uint256"
            },
            {
              "internalType": "uint256",
              "name": "amountToSpend",
              "type": "uint256"
            },
            {
              "internalType": "uint256",
              "name": "approvedAmountToSpend",
              "type": "uint256"
            },
            {
              "internalType": "uint256",
              "name": "startTime",
              "type": "uint256"
            },
            {
              "internalType": "uint256",
              "name": "timeDurationOfdeposit",
              "type": "uint256"
            },
            {
              "internalType": "uint256",
              "name": "lockTime",
              "type": "uint256"
            },
            {
              "internalType": "string",
              "name": "ipfsHashOfUserPensionDetails",
              "type": "string"
            },
            {
              "internalType": "uint256",
              "name": "userLastRewardBlock",
              "type": "uint256"
            },
            {
              "internalType": "bool",
              "name": "hasPlan",
              "type": "bool"
            }
          ],
          "internalType": "struct PensionServiceProvider.Client",
          "name": "client",
          "type": "tuple"
        }
      ],
      "stateMutability": "view",
      "type": "function",
      "constant": true
    },
    {
      "inputs": [],
      "name": "xend",
      "outputs": [
        {
          "internalType": "contract IERC20",
          "name": "",
          "type": "address"
        }
      ],
      "stateMutability": "view",
      "type": "function",
      "constant": true
    },
    {
      "inputs": [],
      "name": "xendFinance",
      "outputs": [
        {
          "internalType": "contract XendFinanceInterface",
          "name": "",
          "type": "address"
        }
      ],
      "stateMutability": "view",
      "type": "function",
      "constant": true
    },
    {
      "inputs": [
        {
          "internalType": "string",
          "name": "_userDetails",
          "type": "string"
        },
        {
          "internalType": "string",
          "name": "_NextOfKinDetails",
          "type": "string"
        }
      ],
      "name": "register",
      "outputs": [],
      "stateMutability": "nonpayable",
      "type": "function"
    },
    {
      "inputs": [
        {
          "internalType": "uint256",
          "name": "_amount",
          "type": "uint256"
        }
      ],
      "name": "deposit",
      "outputs": [],
      "stateMutability": "payable",
      "type": "function",
      "payable": true
    },
    {
      "inputs": [
        {
          "internalType": "bytes",
          "name": "",
          "type": "bytes"
        }
      ],
      "name": "checkUpkeep",
      "outputs": [
        {
          "internalType": "bool",
          "name": "upKeepNeeded",
          "type": "bool"
        },
        {
          "internalType": "bytes",
          "name": "performData",
          "type": "bytes"
        }
      ],
      "stateMutability": "view",
      "type": "function",
      "constant": true
    },
    {
      "inputs": [
        {
          "internalType": "bytes",
          "name": "performData",
          "type": "bytes"
        }
      ],
      "name": "performUpkeep",
      "outputs": [],
      "stateMutability": "nonpayable",
      "type": "function"
    },
    {
      "inputs": [],
      "name": "withdraw",
      "outputs": [],
      "stateMutability": "nonpayable",
      "type": "function"
    },
    {
      "inputs": [],
      "name": "updateTimeDurationOfDeposit",
      "outputs": [],
      "stateMutability": "nonpayable",
      "type": "function"
    },
    {
      "inputs": [
        {
          "internalType": "address",
          "name": "_underlyingAsset",
          "type": "address"
        },
        {
          "internalType": "string",
          "name": "_ipfsHashOfUserPensionDetails",
          "type": "string"
        },
        {
          "internalType": "uint256",
          "name": "_approvedAmountToSpend",
          "type": "uint256"
        },
        {
          "internalType": "uint256",
          "name": "_amountToSpend",
          "type": "uint256"
        },
        {
          "internalType": "uint256",
          "name": "_timeDurationOfDeposit",
          "type": "uint256"
        },
        {
          "internalType": "uint256",
          "name": "_lockTime",
          "type": "uint256"
        }
      ],
      "name": "setPlan",
      "outputs": [],
      "stateMutability": "nonpayable",
      "type": "function"
    },
    {
      "inputs": [
        {
          "internalType": "address",
          "name": "_user",
          "type": "address"
        }
      ],
      "name": "getXendPendingRewards",
      "outputs": [
        {
          "internalType": "uint256",
          "name": "",
          "type": "uint256"
        }
      ],
      "stateMutability": "view",
      "type": "function",
      "constant": true
    },
    {
      "inputs": [
        {
          "internalType": "uint256",
          "name": "_amount",
          "type": "uint256"
        }
      ],
      "name": "depositToXendFinance",
      "outputs": [],
      "stateMutability": "nonpayable",
      "type": "function"
    },
    {
      "inputs": [],
      "name": "withdrawFromXendFinance",
      "outputs": [],
      "stateMutability": "nonpayable",
      "type": "function"
    },
    {
      "inputs": [],
      "name": "getAccruedInterest",
      "outputs": [
        {
          "internalType": "uint256",
          "name": "",
          "type": "uint256"
        }
      ],
      "stateMutability": "view",
      "type": "function",
      "constant": true
    }
  ],
  "bytecode": "0x60806040523480156200001157600080fd5b5060405162004bdf38038062004bdf8339818101604052810190620000379190620001ef565b84600660006101000a81548173ffffffffffffffffffffffffffffffffffffffff021916908373ffffffffffffffffffffffffffffffffffffffff160217905550826000806101000a81548173ffffffffffffffffffffffffffffffffffffffff021916908373ffffffffffffffffffffffffffffffffffffffff16021790555081600160006101000a81548173ffffffffffffffffffffffffffffffffffffffff021916908373ffffffffffffffffffffffffffffffffffffffff16021790555083600560006101000a81548173ffffffffffffffffffffffffffffffffffffffff021916908373ffffffffffffffffffffffffffffffffffffffff1602179055506200015d600a6729a2241af62c00006200019360201b62002a751790919060201c565b6004819055504260078190555080600881905550620001886002620001ab60201b62002a8b1760201c565b50505050506200034a565b60008183620001a3919062000271565b905092915050565b6001816000016000828254019250508190555050565b600081519050620001d28162000316565b92915050565b600081519050620001e98162000330565b92915050565b600080600080600060a086880312156200020857600080fd5b60006200021888828901620001c1565b95505060206200022b88828901620001c1565b94505060406200023e88828901620001c1565b93505060606200025188828901620001c1565b92505060806200026488828901620001d8565b9150509295509295909350565b60006200027e82620002dd565b91506200028b83620002dd565b9250826200029e576200029d620002e7565b5b828204905092915050565b6000620002b682620002bd565b9050919050565b600073ffffffffffffffffffffffffffffffffffffffff82169050919050565b6000819050919050565b7f4e487b7100000000000000000000000000000000000000000000000000000000600052601260045260246000fd5b6200032181620002a9565b81146200032d57600080fd5b50565b6200033b81620002dd565b81146200034757600080fd5b50565b614885806200035a6000396000f3fe60806040526004361061011f5760003560e01c806359098330116100a0578063b6b55f2511610064578063b6b55f25146103a6578063c3c5a547146103c2578063c742ee05146103ff578063de15f0da1461043c578063f5dd6065146104655761011f565b806359098330146102bc5780635bc9d2bf146102d35780635daa4bfa146103145780635fe3b5671461033d5780636e04ff0d146103685761011f565b80633f3b3b27116100e75780633f3b3b27146101fd5780633ffbd47f146102285780634585e33b14610251578063564afa3a1461027a57806356dc5d8e146102a55761011f565b80631a15687b146101245780632630c12f1461014f5780633245f2281461017a578063365b98b2146101a55780633ccfd60b146101e6575b600080fd5b34801561013057600080fd5b50610139610490565b604051610146919061421b565b60405180910390f35b34801561015b57600080fd5b50610164610496565b6040516101719190613f83565b60405180910390f35b34801561018657600080fd5b5061018f6104bc565b60405161019c9190613f68565b60405180910390f35b3480156101b157600080fd5b506101cc60048036038101906101c7919061338c565b6104e2565b6040516101dd959493929190614236565b60405180910390f35b3480156101f257600080fd5b506101fb6107ac565b005b34801561020957600080fd5b50610212610e7b565b60405161021f919061421b565b60405180910390f35b34801561023457600080fd5b5061024f600480360381019061024a91906132df565b610e81565b005b34801561025d57600080fd5b506102786004803603810190610273919061329a565b6113ca565b005b34801561028657600080fd5b5061028f611868565b60405161029c919061421b565b60405180910390f35b3480156102b157600080fd5b506102ba611a5c565b005b3480156102c857600080fd5b506102d1611b9d565b005b3480156102df57600080fd5b506102fa60048036038101906102f5919061317e565b611eea565b60405161030b959493929190614236565b60405180910390f35b34801561032057600080fd5b5061033b6004803603810190610336919061338c565b6121a4565b005b34801561034957600080fd5b506103526122d2565b60405161035f9190613f4d565b60405180910390f35b34801561037457600080fd5b5061038f600480360381019061038a919061329a565b6122f6565b60405161039d929190613f1d565b60405180910390f35b6103c060048036038101906103bb919061338c565b6123d8565b005b3480156103ce57600080fd5b506103e960048036038101906103e4919061317e565b612687565b6040516103f69190613f02565b60405180910390f35b34801561040b57600080fd5b506104266004803603810190610421919061317e565b6126a7565b604051610433919061421b565b60405180910390f35b34801561044857600080fd5b50610463600480360381019061045e91906131d0565b6127d9565b005b34801561047157600080fd5b5061047a612a4f565b6040516104879190613f9e565b60405180910390f35b60085481565b600160009054906101000a900473ffffffffffffffffffffffffffffffffffffffff1681565b600660009054906101000a900473ffffffffffffffffffffffffffffffffffffffff1681565b600b81815481106104f257600080fd5b90600052602060002090600e02016000915090508060000154908060010160009054906101000a900473ffffffffffffffffffffffffffffffffffffffff169080600201805461054190614636565b80601f016020809104026020016040519081016040528092919081815260200182805461056d90614636565b80156105ba5780601f1061058f576101008083540402835291602001916105ba565b820191906000526020600020905b81548152906001019060200180831161059d57829003601f168201915b5050505050908060030180546105cf90614636565b80601f01602080910402602001604051908101604052809291908181526020018280546105fb90614636565b80156106485780601f1061061d57610100808354040283529160200191610648565b820191906000526020600020905b81548152906001019060200180831161062b57829003601f168201915b50505050509080600401604051806101400160405290816000820160009054906101000a900473ffffffffffffffffffffffffffffffffffffffff1673ffffffffffffffffffffffffffffffffffffffff1673ffffffffffffffffffffffffffffffffffffffff16815260200160018201548152602001600282015481526020016003820154815260200160048201548152602001600582015481526020016006820154815260200160078201805461070090614636565b80601f016020809104026020016040519081016040528092919081815260200182805461072c90614636565b80156107795780601f1061074e57610100808354040283529160200191610779565b820191906000526020600020905b81548152906001019060200180831161075c57829003601f168201915b50505050508152602001600882015481526020016009820160009054906101000a900460ff161515151581525050905085565b600a60003373ffffffffffffffffffffffffffffffffffffffff1673ffffffffffffffffffffffffffffffffffffffff16815260200190815260200160002060009054906101000a900460ff16610838576040517f08c379a000000000000000000000000000000000000000000000000000000000815260040161082f906140f9565b60405180910390fd5b6000600960003373ffffffffffffffffffffffffffffffffffffffff1673ffffffffffffffffffffffffffffffffffffffff16815260200190815260200160002060040160010154116108c0576040517f08c379a00000000000000000000000000000000000000000000000000000000081526004016108b790614179565b60405180910390fd5b600960003373ffffffffffffffffffffffffffffffffffffffff1673ffffffffffffffffffffffffffffffffffffffff16815260200190815260200160002060040160090160009054906101000a900460ff16610952576040517f08c379a000000000000000000000000000000000000000000000000000000000815260040161094990614079565b60405180910390fd5b6000600960003373ffffffffffffffffffffffffffffffffffffffff1673ffffffffffffffffffffffffffffffffffffffff16815260200190815260200160002090508060040160060154421015610c325760008160040160010154116109ee576040517f08c379a00000000000000000000000000000000000000000000000000000000081526004016109e590614139565b60405180910390fd5b610a268160040160000160009054906101000a900473ffffffffffffffffffffffffffffffffffffffff168260040160010154612aa1565b6000610a4360028360040160010154612a7590919063ffffffff16565b905060008260040160000160009054906101000a900473ffffffffffffffffffffffffffffffffffffffff16905060008173ffffffffffffffffffffffffffffffffffffffff16636f307dc36040518163ffffffff1660e01b815260040160206040518083038186803b158015610ab957600080fd5b505afa158015610acd573d6000803e3d6000fd5b505050506040513d601f19601f82011682018060405250810190610af191906131a7565b90508073ffffffffffffffffffffffffffffffffffffffff1663a9059cbb8560010160009054906101000a900473ffffffffffffffffffffffffffffffffffffffff16856040518363ffffffff1660e01b8152600401610b52929190613e79565b602060405180830381600087803b158015610b6c57600080fd5b505af1158015610b80573d6000803e3d6000fd5b505050506040513d601f19601f82011682018060405250810190610ba49190613271565b5060008460040160010181905550438460040160080181905550610be96305f5e100610bdb43600454612b7e90919063ffffffff16565b612a7590919063ffffffff16565b6004819055507f9b1bfa7fa9ee420a16e124f794c35ac9f90472acc99140eb2f6447c714cad8eb303385604051610c2293929190613ea2565b60405180910390a1505050610e78565b6000816004016001015411610c7c576040517f08c379a0000000000000000000000000000000000000000000000000000000008152600401610c7390614139565b60405180910390fd5b610cb48160040160000160009054906101000a900473ffffffffffffffffffffffffffffffffffffffff168260040160010154612aa1565b60008160040160010154905060008260040160000160009054906101000a900473ffffffffffffffffffffffffffffffffffffffff16905060008173ffffffffffffffffffffffffffffffffffffffff16636f307dc36040518163ffffffff1660e01b815260040160206040518083038186803b158015610d3457600080fd5b505afa158015610d48573d6000803e3d6000fd5b505050506040513d601f19601f82011682018060405250810190610d6c91906131a7565b90508073ffffffffffffffffffffffffffffffffffffffff1663a9059cbb8560010160009054906101000a900473ffffffffffffffffffffffffffffffffffffffff16856040518363ffffffff1660e01b8152600401610dcd929190613e79565b602060405180830381600087803b158015610de757600080fd5b505af1158015610dfb573d6000803e3d6000fd5b505050506040513d601f19601f82011682018060405250810190610e1f9190613271565b50600084600401600101819055504384600401600801819055507f9b1bfa7fa9ee420a16e124f794c35ac9f90472acc99140eb2f6447c714cad8eb303385604051610e6c93929190613ea2565b60405180910390a15050505b50565b60075481565b600a60003373ffffffffffffffffffffffffffffffffffffffff1673ffffffffffffffffffffffffffffffffffffffff16815260200190815260200160002060009054906101000a900460ff1615610f0e576040517f08c379a0000000000000000000000000000000000000000000000000000000008152600401610f0590614039565b60405180910390fd5b6000604051806101400160405280600073ffffffffffffffffffffffffffffffffffffffff168152602001600081526020016000815260200160008152602001428152602001600081526020016000815260200160405180602001604052806000815250815260200143815260200160001515815250905060006040518060a00160405280610f9d6002612b94565b81526020013373ffffffffffffffffffffffffffffffffffffffff16815260200185815260200184815260200183815250905080600960003373ffffffffffffffffffffffffffffffffffffffff1673ffffffffffffffffffffffffffffffffffffffff1681526020019081526020016000206000820151816000015560208201518160010160006101000a81548173ffffffffffffffffffffffffffffffffffffffff021916908373ffffffffffffffffffffffffffffffffffffffff160217905550604082015181600201908051906020019061107d929190612dbc565b50606082015181600301908051906020019061109a929190612dbc565b5060808201518160040160008201518160000160006101000a81548173ffffffffffffffffffffffffffffffffffffffff021916908373ffffffffffffffffffffffffffffffffffffffff1602179055506020820151816001015560408201518160020155606082015181600301556080820151816004015560a0820151816005015560c0820151816006015560e0820151816007019080519060200190611143929190612dbc565b5061010082015181600801556101208201518160090160006101000a81548160ff0219169083151502179055505050905050600b8190806001815401808255809150506001900390600052602060002090600e02016000909190919091506000820151816000015560208201518160010160006101000a81548173ffffffffffffffffffffffffffffffffffffffff021916908373ffffffffffffffffffffffffffffffffffffffff160217905550604082015181600201908051906020019061120e929190612dbc565b50606082015181600301908051906020019061122b929190612dbc565b5060808201518160040160008201518160000160006101000a81548173ffffffffffffffffffffffffffffffffffffffff021916908373ffffffffffffffffffffffffffffffffffffffff1602179055506020820151816001015560408201518160020155606082015181600301556080820151816004015560a0820151816005015560c0820151816006015560e08201518160070190805190602001906112d4929190612dbc565b5061010082015181600801556101208201518160090160006101000a81548160ff021916908315150217905550505050506001600a60003373ffffffffffffffffffffffffffffffffffffffff1673ffffffffffffffffffffffffffffffffffffffff16815260200190815260200160002060006101000a81548160ff0219169083151502179055506113676002612a8b565b80604001516040516113799190613e10565b60405180910390203373ffffffffffffffffffffffffffffffffffffffff167f6ba0831d2f62ae5cbf7214bcc1d79c5da1d705f12811efda0beaa840006f874e60405160405180910390a350505050565b600082828101906113db919061334b565b9050600060096000836020015173ffffffffffffffffffffffffffffffffffffffff1673ffffffffffffffffffffffffffffffffffffffff16815260200190815260200160002090508060040160050154611446826004016004015442612ba290919063ffffffff16565b111561186257600a60008260010160009054906101000a900473ffffffffffffffffffffffffffffffffffffffff1673ffffffffffffffffffffffffffffffffffffffff1673ffffffffffffffffffffffffffffffffffffffff16815260200190815260200160002060009054906101000a900460ff166114fc576040517f08c379a00000000000000000000000000000000000000000000000000000000081526004016114f3906141b9565b60405180910390fd5b6000816004016003015411611546576040517f08c379a000000000000000000000000000000000000000000000000000000000815260040161153d90614059565b60405180910390fd5b8060040160090160009054906101000a900460ff1661159a576040517f08c379a000000000000000000000000000000000000000000000000000000000815260040161159190614099565b60405180910390fd5b60008160040160000160009054906101000a900473ffffffffffffffffffffffffffffffffffffffff16905060008260040160020154905060008273ffffffffffffffffffffffffffffffffffffffff16636f307dc36040518163ffffffff1660e01b815260040160206040518083038186803b15801561161a57600080fd5b505afa15801561162e573d6000803e3d6000fd5b505050506040513d601f19601f8201168201806040525081019061165291906131a7565b90508073ffffffffffffffffffffffffffffffffffffffff166323b872dd8560010160009054906101000a900473ffffffffffffffffffffffffffffffffffffffff1630856040518463ffffffff1660e01b81526004016116b593929190613e42565b602060405180830381600087803b1580156116cf57600080fd5b505af11580156116e3573d6000803e3d6000fd5b505050506040513d601f19601f820116820180604052508101906117079190613271565b506117408460040160000160009054906101000a900473ffffffffffffffffffffffffffffffffffffffff168560040160020154612bb8565b61175a828560040160010154612b7e90919063ffffffff16565b846004016001018190555061178684600401600201548560040160030154612ba290919063ffffffff16565b84600401600301819055504284600401600401819055506117b7438560040160080154612b7e90919063ffffffff16565b84600401600801819055506117ed6305f5e1006117df43600454612da690919063ffffffff16565b612a7590919063ffffffff16565b600481905550426007819055507fe1fffcc4923d04b559f4d29a8bfc6cda04eb5b0d3c460751c2402c5c5cc9109c8460010160009054906101000a900473ffffffffffffffffffffffffffffffffffffffff168560040160020154604051611856929190613e79565b60405180910390a15050505b50505050565b600080600960003373ffffffffffffffffffffffffffffffffffffffff1673ffffffffffffffffffffffffffffffffffffffff1681526020019081526020016000209050600a60008260010160009054906101000a900473ffffffffffffffffffffffffffffffffffffffff1673ffffffffffffffffffffffffffffffffffffffff1673ffffffffffffffffffffffffffffffffffffffff16815260200190815260200160002060009054906101000a900460ff1661195c576040517f08c379a0000000000000000000000000000000000000000000000000000000008152600401611953906140f9565b60405180910390fd5b60008160040160000160009054906101000a900473ffffffffffffffffffffffffffffffffffffffff16905060008173ffffffffffffffffffffffffffffffffffffffff1663ae9d70b06040518163ffffffff1660e01b815260040160206040518083038186803b1580156119d057600080fd5b505afa1580156119e4573d6000803e3d6000fd5b505050506040513d601f19601f82011682018060405250810190611a0891906133b5565b90506000611a506305f5e100611a42600454611a34868960040160010154612da690919063ffffffff16565b612a7590919063ffffffff16565b612a7590919063ffffffff16565b90508094505050505090565b6000600960003373ffffffffffffffffffffffffffffffffffffffff1673ffffffffffffffffffffffffffffffffffffffff1681526020019081526020016000209050600a60008260010160009054906101000a900473ffffffffffffffffffffffffffffffffffffffff1673ffffffffffffffffffffffffffffffffffffffff1673ffffffffffffffffffffffffffffffffffffffff16815260200190815260200160002060009054906101000a900460ff16611b4f576040517f08c379a0000000000000000000000000000000000000000000000000000000008152600401611b4690613ff9565b60405180910390fd5b600581600401600501819055507f164f7b2ab803097dab5e39f06d2e4f3c3ddc5d4171abbdcc3e76443b8359c7f58160040160050154604051611b92919061421b565b60405180910390a150565b600a60003373ffffffffffffffffffffffffffffffffffffffff1673ffffffffffffffffffffffffffffffffffffffff16815260200190815260200160002060009054906101000a900460ff16611c29576040517f08c379a0000000000000000000000000000000000000000000000000000000008152600401611c2090613fd9565b60405180910390fd5b6000600960003373ffffffffffffffffffffffffffffffffffffffff1673ffffffffffffffffffffffffffffffffffffffff1681526020019081526020016000209050600560009054906101000a900473ffffffffffffffffffffffffffffffffffffffff1673ffffffffffffffffffffffffffffffffffffffff16632e1a7d4d82600401600101546040518263ffffffff1660e01b8152600401611cce919061421b565b600060405180830381600087803b158015611ce857600080fd5b505af1158015611cfc573d6000803e3d6000fd5b505050506000600660009054906101000a900473ffffffffffffffffffffffffffffffffffffffff1673ffffffffffffffffffffffffffffffffffffffff166370a08231306040518263ffffffff1660e01b8152600401611d5d9190613e27565b60206040518083038186803b158015611d7557600080fd5b505afa158015611d89573d6000803e3d6000fd5b505050506040513d601f19601f82011682018060405250810190611dad91906133b5565b905081600401600101548111611df8576040517f08c379a0000000000000000000000000000000000000000000000000000000008152600401611def906140d9565b60405180910390fd5b806003819055506000611e336305f5e100611e256003548660040160010154612da690919063ffffffff16565b612a7590919063ffffffff16565b9050600660009054906101000a900473ffffffffffffffffffffffffffffffffffffffff1673ffffffffffffffffffffffffffffffffffffffff1663a9059cbb33836040518363ffffffff1660e01b8152600401611e92929190613ed9565b602060405180830381600087803b158015611eac57600080fd5b505af1158015611ec0573d6000803e3d6000fd5b505050506040513d601f19601f82011682018060405250810190611ee49190613271565b50505050565b60096020528060005260406000206000915090508060000154908060010160009054906101000a900473ffffffffffffffffffffffffffffffffffffffff1690806002018054611f3990614636565b80601f0160208091040260200160405190810160405280929190818152602001828054611f6590614636565b8015611fb25780601f10611f8757610100808354040283529160200191611fb2565b820191906000526020600020905b815481529060010190602001808311611f9557829003601f168201915b505050505090806003018054611fc790614636565b80601f0160208091040260200160405190810160405280929190818152602001828054611ff390614636565b80156120405780601f1061201557610100808354040283529160200191612040565b820191906000526020600020905b81548152906001019060200180831161202357829003601f168201915b50505050509080600401604051806101400160405290816000820160009054906101000a900473ffffffffffffffffffffffffffffffffffffffff1673ffffffffffffffffffffffffffffffffffffffff1673ffffffffffffffffffffffffffffffffffffffff1681526020016001820154815260200160028201548152602001600382015481526020016004820154815260200160058201548152602001600682015481526020016007820180546120f890614636565b80601f016020809104026020016040519081016040528092919081815260200182805461212490614636565b80156121715780601f1061214657610100808354040283529160200191612171565b820191906000526020600020905b81548152906001019060200180831161215457829003601f168201915b50505050508152602001600882015481526020016009820160009054906101000a900460ff161515151581525050905085565b6000600960003373ffffffffffffffffffffffffffffffffffffffff1673ffffffffffffffffffffffffffffffffffffffff1681526020019081526020016000209050600560009054906101000a900473ffffffffffffffffffffffffffffffffffffffff1673ffffffffffffffffffffffffffffffffffffffff1663d0e30db06040518163ffffffff1660e01b8152600401600060405180830381600087803b15801561225157600080fd5b505af1158015612265573d6000803e3d6000fd5b50505050612283828260040160010154612b7e90919063ffffffff16565b81600401600101819055507fe1fffcc4923d04b559f4d29a8bfc6cda04eb5b0d3c460751c2402c5c5cc9109c3382600401600101546040516122c6929190613ed9565b60405180910390a15050565b60008054906101000a900473ffffffffffffffffffffffffffffffffffffffff1681565b6000606060085461231260075442612ba290919063ffffffff16565b11915060005b600b805490508110156123d0576000600b8281548110612361577f4e487b7100000000000000000000000000000000000000000000000000000000600052603260045260246000fd5b90600052602060002090600e020190508060040160050154612393826004016004015442612ba290919063ffffffff16565b11156123bc57806040516020016123aa91906141f9565b60405160208183030381529060405292505b5080806123c8906146d0565b915050612318565b509250929050565b600a60003373ffffffffffffffffffffffffffffffffffffffff1673ffffffffffffffffffffffffffffffffffffffff16815260200190815260200160002060009054906101000a900460ff16612464576040517f08c379a000000000000000000000000000000000000000000000000000000000815260040161245b90613fb9565b60405180910390fd5b6000600960003373ffffffffffffffffffffffffffffffffffffffff1673ffffffffffffffffffffffffffffffffffffffff168152602001908152602001600020905060008160040160000160009054906101000a900473ffffffffffffffffffffffffffffffffffffffff16905060008173ffffffffffffffffffffffffffffffffffffffff16636f307dc36040518163ffffffff1660e01b815260040160206040518083038186803b15801561251b57600080fd5b505afa15801561252f573d6000803e3d6000fd5b505050506040513d601f19601f8201168201806040525081019061255391906131a7565b90508073ffffffffffffffffffffffffffffffffffffffff166323b872dd3330876040518463ffffffff1660e01b815260040161259293929190613ea2565b602060405180830381600087803b1580156125ac57600080fd5b505af11580156125c0573d6000803e3d6000fd5b505050506040513d601f19601f820116820180604052508101906125e49190613271565b5060008360040160000160009054906101000a900473ffffffffffffffffffffffffffffffffffffffff16905061261b8186612bb8565b612635858560040160010154612b7e90919063ffffffff16565b84600401600101819055507fe1fffcc4923d04b559f4d29a8bfc6cda04eb5b0d3c460751c2402c5c5cc9109c338560040160010154604051612678929190613ed9565b60405180910390a15050505050565b600a6020528060005260406000206000915054906101000a900460ff1681565b600080600960008473ffffffffffffffffffffffffffffffffffffffff1673ffffffffffffffffffffffffffffffffffffffff16815260200190815260200160002090506000600560009054906101000a900473ffffffffffffffffffffffffffffffffffffffff1673ffffffffffffffffffffffffffffffffffffffff1663eec562c3306040518263ffffffff1660e01b81526004016127489190613e27565b60206040518083038186803b15801561276057600080fd5b505afa158015612774573d6000803e3d6000fd5b505050506040513d601f19601f8201168201806040525081019061279891906133b5565b905060006127cc6305f5e1006127be848660040160010154612da690919063ffffffff16565b612a7590919063ffffffff16565b9050809350505050919050565b82841161281b576040517f08c379a0000000000000000000000000000000000000000000000000000000008152600401612812906141d9565b60405180910390fd5b6000831161285e576040517f08c379a000000000000000000000000000000000000000000000000000000000815260040161285590614159565b60405180910390fd5b600a60003373ffffffffffffffffffffffffffffffffffffffff1673ffffffffffffffffffffffffffffffffffffffff16815260200190815260200160002060009054906101000a900460ff166128ea576040517f08c379a00000000000000000000000000000000000000000000000000000000081526004016128e190614119565b60405180910390fd5b6000600960003373ffffffffffffffffffffffffffffffffffffffff1673ffffffffffffffffffffffffffffffffffffffff16815260200190815260200160002090506000816004016006015414612977576040517f08c379a000000000000000000000000000000000000000000000000000000000815260040161296e906140b9565b60405180910390fd5b868160040160000160006101000a81548173ffffffffffffffffffffffffffffffffffffffff021916908373ffffffffffffffffffffffffffffffffffffffff16021790555081426129c99190614368565b81600401600601819055506129e78342612b7e90919063ffffffff16565b816004016005018190555085816004016007019080519060200190612a0d929190612dbc565b5084816004016003018190555083816004016002018190555060018160040160090160006101000a81548160ff02191690831515021790555050505050505050565b600560009054906101000a900473ffffffffffffffffffffffffffffffffffffffff1681565b60008183612a8391906143be565b905092915050565b6001816000016000828254019250508190555050565b600082905060008173ffffffffffffffffffffffffffffffffffffffff1663852a12e3846040518263ffffffff1660e01b8152600401612ae1919061421b565b602060405180830381600087803b158015612afb57600080fd5b505af1158015612b0f573d6000803e3d6000fd5b505050506040513d601f19601f82011682018060405250810190612b3391906133b5565b905060008114612b78576040517f08c379a0000000000000000000000000000000000000000000000000000000008152600401612b6f90614199565b60405180910390fd5b50505050565b60008183612b8c9190614368565b905092915050565b600081600001549050919050565b60008183612bb09190614449565b905092915050565b600082905060008173ffffffffffffffffffffffffffffffffffffffff16636f307dc36040518163ffffffff1660e01b815260040160206040518083038186803b158015612c0557600080fd5b505afa158015612c19573d6000803e3d6000fd5b505050506040513d601f19601f82011682018060405250810190612c3d91906131a7565b90508073ffffffffffffffffffffffffffffffffffffffff1663095ea7b385856040518363ffffffff1660e01b8152600401612c7a929190613ed9565b602060405180830381600087803b158015612c9457600080fd5b505af1158015612ca8573d6000803e3d6000fd5b505050506040513d601f19601f82011682018060405250810190612ccc9190613271565b5060008273ffffffffffffffffffffffffffffffffffffffff1663a0712d68856040518263ffffffff1660e01b8152600401612d08919061421b565b602060405180830381600087803b158015612d2257600080fd5b505af1158015612d36573d6000803e3d6000fd5b505050506040513d601f19601f82011682018060405250810190612d5a91906133b5565b905060008114612d9f576040517f08c379a0000000000000000000000000000000000000000000000000000000008152600401612d9690614019565b60405180910390fd5b5050505050565b60008183612db491906143ef565b905092915050565b828054612dc890614636565b90600052602060002090601f016020900481019282612dea5760008555612e31565b82601f10612e0357805160ff1916838001178555612e31565b82800160010185558215612e31579182015b82811115612e30578251825591602001919060010190612e15565b5b509050612e3e9190612e42565b5090565b5b80821115612e5b576000816000905550600101612e43565b5090565b6000612e72612e6d846142cf565b61429e565b905082815260208101848484011115612e8a57600080fd5b612e958482856145f4565b509392505050565b600081359050612eac816147f3565b92915050565b600081519050612ec1816147f3565b92915050565b600081359050612ed68161480a565b92915050565b600081359050612eeb81614821565b92915050565b600081519050612f0081614821565b92915050565b60008083601f840112612f1857600080fd5b8235905067ffffffffffffffff811115612f3157600080fd5b602083019150836001820283011115612f4957600080fd5b9250929050565b600082601f830112612f6157600080fd5b8135612f71848260208601612e5f565b91505092915050565b60006101408284031215612f8d57600080fd5b612f9861014061429e565b90506000612fa884828501612e9d565b6000830152506020612fbc84828501613154565b6020830152506040612fd084828501613154565b6040830152506060612fe484828501613154565b6060830152506080612ff884828501613154565b60808301525060a061300c84828501613154565b60a08301525060c061302084828501613154565b60c08301525060e082013567ffffffffffffffff81111561304057600080fd5b61304c84828501612f50565b60e08301525061010061306184828501613154565b6101008301525061012061307784828501612edc565b6101208301525092915050565b600060a0828403121561309657600080fd5b6130a060a061429e565b905060006130b084828501613154565b60008301525060206130c484828501612ec7565b602083015250604082013567ffffffffffffffff8111156130e457600080fd5b6130f084828501612f50565b604083015250606082013567ffffffffffffffff81111561311057600080fd5b61311c84828501612f50565b606083015250608082013567ffffffffffffffff81111561313c57600080fd5b61314884828501612f7a565b60808301525092915050565b60008135905061316381614838565b92915050565b60008151905061317881614838565b92915050565b60006020828403121561319057600080fd5b600061319e84828501612e9d565b91505092915050565b6000602082840312156131b957600080fd5b60006131c784828501612eb2565b91505092915050565b60008060008060008060c087890312156131e957600080fd5b60006131f789828a01612e9d565b965050602087013567ffffffffffffffff81111561321457600080fd5b61322089828a01612f50565b955050604061323189828a01613154565b945050606061324289828a01613154565b935050608061325389828a01613154565b92505060a061326489828a01613154565b9150509295509295509295565b60006020828403121561328357600080fd5b600061329184828501612ef1565b91505092915050565b600080602083850312156132ad57600080fd5b600083013567ffffffffffffffff8111156132c757600080fd5b6132d385828601612f06565b92509250509250929050565b600080604083850312156132f257600080fd5b600083013567ffffffffffffffff81111561330c57600080fd5b61331885828601612f50565b925050602083013567ffffffffffffffff81111561333557600080fd5b61334185828601612f50565b9150509250929050565b60006020828403121561335d57600080fd5b600082013567ffffffffffffffff81111561337757600080fd5b61338384828501613084565b91505092915050565b60006020828403121561339e57600080fd5b60006133ac84828501613154565b91505092915050565b6000602082840312156133c757600080fd5b60006133d584828501613169565b91505092915050565b6133e78161452e565b82525050565b6133f6816144e6565b82525050565b613405816144e6565b82525050565b613414816144d4565b82525050565b613423816144d4565b82525050565b613432816144f8565b82525050565b613441816144f8565b82525050565b600061345282614314565b61345c818561432a565b935061346c818560208601614603565b613475816147d5565b840191505092915050565b61348981614540565b82525050565b61349881614564565b82525050565b6134a781614588565b82525050565b6134b6816145ac565b82525050565b60006134c78261431f565b6134d1818561433b565b93506134e1818560208601614603565b6134ea816147d5565b840191505092915050565b60006135008261431f565b61350a818561434c565b935061351a818560208601614603565b613523816147d5565b840191505092915050565b60006135398261431f565b613543818561435d565b9350613553818560208601614603565b80840191505092915050565b6000815461356c81614636565b613576818661433b565b9450600182166000811461359157600181146135a3576135d6565b60ff19831686526020860193506135d6565b6135ac856142ff565b60005b838110156135ce578154818901526001820191506020810190506135af565b808801955050505b50505092915050565b60006135ec60188361434c565b91507f43616c6c6572206973206e6f74205265676973746572656400000000000000006000830152602082019050919050565b600061362c60158361434c565b91507f43616c6c6572206e6f74205265676973746572656400000000000000000000006000830152602082019050919050565b600061366c60188361434c565b91507f43616c6c6572206973206e6f74207265676973746572656400000000000000006000830152602082019050919050565b60006136ac60348361434c565b91507f63546f6b656e236d696e742829206661696c65642e2073656520436f6d706f7560008301527f6e64204572726f725265706f727465722e736f6c0000000000000000000000006020830152604082019050919050565b6000613712601d8361434c565b91507f43616c6c6572206164647265737320616c7265616479206578697374730000006000830152602082019050919050565b6000613752602a8361434c565b91507f496e73756666696369656e742062616c616e63652063616e6e6f74207065726660008301527f6f726d2075706b656570000000000000000000000000000000000000000000006020830152604082019050919050565b60006137b860128361434c565b91507f43616c6c657220686173206e6f20706c616e00000000000000000000000000006000830152602082019050919050565b60006137f860128361434c565b91507f436c69656e7420686173206e6f20706c616e00000000000000000000000000006000830152602082019050919050565b600061383860228361434c565b91507f43616c6c657220616c7265616479206861732061206c6f636b2054696d65205360008301527f65740000000000000000000000000000000000000000000000000000000000006020830152604082019050919050565b600061389e60238361434c565b91507f5769746864726177696e67206d6f7265207468616e20796f75206465706f736960008301527f74656400000000000000000000000000000000000000000000000000000000006020830152604082019050919050565b600061390460158361434c565b91507f43616c6c6572206e6f74207265676973746572656400000000000000000000006000830152602082019050919050565b6000613944601b8361434c565b91507f43616c6c65722068617320746f206265205265676973746572656400000000006000830152602082019050919050565b600061398460148361434c565b91507f696e73756666696369656e742062616c616e63650000000000000000000000006000830152602082019050919050565b60006139c460208361434c565b91507f617070726f766520616e20616d6f756e742067726561746572207468616e20306000830152602082019050919050565b6000613a0460148361434c565b91507f496e73756666696369656e742042616c616e63650000000000000000000000006000830152602082019050919050565b6000613a4460368361434c565b91507f63546f6b656e2372656465656d2829206661696c65642e2073656520436f6d7060008301527f6f756e64204572726f725265706f727465722e736f6c000000000000000000006020830152604082019050919050565b6000613aaa60168361434c565b91507f41646472657373206e6f742072656769737465726564000000000000000000006000830152602082019050919050565b6000613aea602f8361434c565b91507f53657420616e20616d6f756e742067726561746572207468616e20746865207260008301527f6563757272696e6720616d6f756e7400000000000000000000000000000000006020830152604082019050919050565b600061014083016000830151613b5c600086018261340b565b506020830151613b6f6020860182613df2565b506040830151613b826040860182613df2565b506060830151613b956060860182613df2565b506080830151613ba86080860182613df2565b5060a0830151613bbb60a0860182613df2565b5060c0830151613bce60c0860182613df2565b5060e083015184820360e0860152613be682826134bc565b915050610100830151613bfd610100860182613df2565b50610120830151613c12610120860182613429565b508091505092915050565b600061014083016000808401549050613c3581614668565b613c42600087018261340b565b5060018401549050613c53816146b6565b613c606020870182613df2565b5060028401549050613c71816146b6565b613c7e6040870182613df2565b5060038401549050613c8f816146b6565b613c9c6060870182613df2565b5060048401549050613cad816146b6565b613cba6080870182613df2565b5060058401549050613ccb816146b6565b613cd860a0870182613df2565b5060068401549050613ce9816146b6565b613cf660c0870182613df2565b506007840185830360e0870152613d0d838261355f565b92505060088401549050613d20816146b6565b613d2e610100870182613df2565b5060098401549050613d3f8161469c565b613d4d610120870182613429565b50819250505092915050565b600060a083016000808401549050613d70816146b6565b613d7d6000870182613df2565b5060018401549050613d8e81614682565b613d9b60208701826133ed565b50600284018583036040870152613db2838261355f565b925050600384018583036060870152613dcb838261355f565b925050600484018583036080870152613de48382613c1d565b925050819250505092915050565b613dfb81614524565b82525050565b613e0a81614524565b82525050565b6000613e1c828461352e565b915081905092915050565b6000602082019050613e3c600083018461341a565b92915050565b6000606082019050613e5760008301866133de565b613e64602083018561341a565b613e716040830184613e01565b949350505050565b6000604082019050613e8e60008301856133de565b613e9b6020830184613e01565b9392505050565b6000606082019050613eb7600083018661341a565b613ec4602083018561341a565b613ed16040830184613e01565b949350505050565b6000604082019050613eee600083018561341a565b613efb6020830184613e01565b9392505050565b6000602082019050613f176000830184613438565b92915050565b6000604082019050613f326000830185613438565b8181036020830152613f448184613447565b90509392505050565b6000602082019050613f626000830184613480565b92915050565b6000602082019050613f7d600083018461348f565b92915050565b6000602082019050613f98600083018461349e565b92915050565b6000602082019050613fb360008301846134ad565b92915050565b60006020820190508181036000830152613fd2816135df565b9050919050565b60006020820190508181036000830152613ff28161361f565b9050919050565b600060208201905081810360008301526140128161365f565b9050919050565b600060208201905081810360008301526140328161369f565b9050919050565b6000602082019050818103600083015261405281613705565b9050919050565b6000602082019050818103600083015261407281613745565b9050919050565b60006020820190508181036000830152614092816137ab565b9050919050565b600060208201905081810360008301526140b2816137eb565b9050919050565b600060208201905081810360008301526140d28161382b565b9050919050565b600060208201905081810360008301526140f281613891565b9050919050565b60006020820190508181036000830152614112816138f7565b9050919050565b6000602082019050818103600083015261413281613937565b9050919050565b6000602082019050818103600083015261415281613977565b9050919050565b60006020820190508181036000830152614172816139b7565b9050919050565b60006020820190508181036000830152614192816139f7565b9050919050565b600060208201905081810360008301526141b281613a37565b9050919050565b600060208201905081810360008301526141d281613a9d565b9050919050565b600060208201905081810360008301526141f281613add565b9050919050565b600060208201905081810360008301526142138184613d59565b905092915050565b60006020820190506142306000830184613e01565b92915050565b600060a08201905061424b6000830188613e01565b61425860208301876133fc565b818103604083015261426a81866134f5565b9050818103606083015261427e81856134f5565b905081810360808301526142928184613b43565b90509695505050505050565b6000604051905081810181811067ffffffffffffffff821117156142c5576142c46147a6565b5b8060405250919050565b600067ffffffffffffffff8211156142ea576142e96147a6565b5b601f19601f8301169050602081019050919050565b60008190508160005260206000209050919050565b600081519050919050565b600081519050919050565b600082825260208201905092915050565b600082825260208201905092915050565b600082825260208201905092915050565b600081905092915050565b600061437382614524565b915061437e83614524565b9250827fffffffffffffffffffffffffffffffffffffffffffffffffffffffffffffffff038211156143b3576143b2614719565b5b828201905092915050565b60006143c982614524565b91506143d483614524565b9250826143e4576143e3614748565b5b828204905092915050565b60006143fa82614524565b915061440583614524565b9250817fffffffffffffffffffffffffffffffffffffffffffffffffffffffffffffffff048311821515161561443e5761443d614719565b5b828202905092915050565b600061445482614524565b915061445f83614524565b92508282101561447257614471614719565b5b828203905092915050565b600073ffffffffffffffffffffffffffffffffffffffff82169050919050565b600073ffffffffffffffffffffffffffffffffffffffff82169050919050565b600060ff82169050919050565b6000819050919050565b60006144df82614504565b9050919050565b60006144f182614504565b9050919050565b60008115159050919050565b600073ffffffffffffffffffffffffffffffffffffffff82169050919050565b6000819050919050565b6000614539826145d0565b9050919050565b600061454b82614552565b9050919050565b600061455d82614504565b9050919050565b600061456f82614576565b9050919050565b600061458182614504565b9050919050565b60006145938261459a565b9050919050565b60006145a582614504565b9050919050565b60006145b7826145be565b9050919050565b60006145c982614504565b9050919050565b60006145db826145e2565b9050919050565b60006145ed82614504565b9050919050565b82818337600083830152505050565b60005b83811015614621578082015181840152602081019050614606565b83811115614630576000848401525b50505050565b6000600282049050600182168061464e57607f821691505b6020821081141561466257614661614777565b5b50919050565b600061467b614676836147e6565b61447d565b9050919050565b6000614695614690836147e6565b61449d565b9050919050565b60006146af6146aa836147e6565b6144bd565b9050919050565b60006146c96146c4836147e6565b6144ca565b9050919050565b60006146db82614524565b91507fffffffffffffffffffffffffffffffffffffffffffffffffffffffffffffffff82141561470e5761470d614719565b5b600182019050919050565b7f4e487b7100000000000000000000000000000000000000000000000000000000600052601160045260246000fd5b7f4e487b7100000000000000000000000000000000000000000000000000000000600052601260045260246000fd5b7f4e487b7100000000000000000000000000000000000000000000000000000000600052602260045260246000fd5b7f4e487b7100000000000000000000000000000000000000000000000000000000600052604160045260246000fd5b6000601f19601f8301169050919050565b60008160001c9050919050565b6147fc816144d4565b811461480757600080fd5b50565b614813816144e6565b811461481e57600080fd5b50565b61482a816144f8565b811461483557600080fd5b50565b61484181614524565b811461484c57600080fd5b5056fea264697066735822122083115686592fc863cdc6957ddd4b4623441f8230dd01e7e750cd2069d39a0bda64736f6c63430008000033",
  "immutableReferences": {},
  "source": "//SPDX-License-Identifier: Unlicense\r\npragma solidity ^0.8.0;\r\n\r\nimport \"@openzeppelin/contracts/utils/math/SafeMath.sol\";\r\nimport \"@openzeppelin/contracts/security/Pausable.sol\";\r\nimport \"@openzeppelin/contracts/security/ReentrancyGuard.sol\";\r\nimport \"@openzeppelin/contracts/access/Ownable.sol\";\r\nimport \"@openzeppelin/contracts/utils/Counters.sol\";\r\nimport '@openzeppelin/contracts/token/ERC20/IERC20.sol';\r\nimport \"@chainlink/contracts/src/v0.8/interfaces/KeeperCompatibleInterface.sol\";\r\nimport './CTokenInterface.sol';\r\nimport './ComptrollerInterface.sol';\r\nimport './PriceOracleInterface.sol';\r\nimport \"./XendFinanceInterface.sol\";\r\n\r\n\r\n// approve the user's underlying asset to be able to use the chainklink keepers\r\n\r\ncontract PensionServiceProvider is KeeperCompatibleInterface {\r\n    using SafeMath for uint;\r\n    using Counters for Counters.Counter;\r\n\r\n    // variables\r\n    ComptrollerInterface public comptroller;\r\n\tPriceOracleInterface public priceOracle;\r\n    Counters.Counter private id;\r\n\r\n    uint accXendTokens;\r\n    uint256 ccInterest;\r\n    XendFinanceInterface public xendFinance;\r\n    IERC20 public xend;\r\n\r\n    uint public lastTimeStamp;\r\n    uint public upKeepInterval;\r\n\r\n\r\n\r\n    \r\n\r\n\r\n\r\n    struct Client {\r\n        address underlyingAsset;\r\n        uint256 depositedAmount;\r\n        uint256 amountToSpend;\r\n        uint256 approvedAmountToSpend;\r\n        uint256 startTime;\r\n        uint256 timeDurationOfdeposit;\r\n        uint256 lockTime;\r\n        string ipfsHashOfUserPensionDetails;\r\n        uint256 userLastRewardBlock;\r\n        bool hasPlan;\r\n    }\r\n\r\n\r\n    // A user Object\r\n    struct User {\r\n        uint256 id;\r\n        address payable userAddress;\r\n        string  userDetails;\r\n        string  nextOfKinDetails;\r\n        Client client;\r\n\r\n    }\r\n\r\n\r\n\r\n    \r\n\r\n    \r\n\r\n\r\n    event Register(address indexed applicant, string indexed applicantDetails);\r\n    event Withdraw(address from, address to, uint amount);\r\n    event Deposit(address user, uint amount);\r\n    event Upkeep(address sender, bool upkeep);\r\n    // event MyLog(string, uint256);\r\n    event Update(uint256 timeDuration);\r\n\r\n    mapping(address => User) public pensionServiceApplicant;\r\n\r\n    // keep track of registered users\r\n    mapping(address => bool) public isRegistered;\r\n\r\n    User[] public users;\r\n\r\n\r\n    constructor(address _xend, address _xendFinanceIndividual_Yearn_V1,  address _comptroller, address _priceOracle, uint _upKeepInterval)  {\r\n        xend = IERC20(_xend);\r\n        comptroller = ComptrollerInterface(_comptroller);\r\n\t\tpriceOracle = PriceOracleInterface(_priceOracle);\r\n        xendFinance = XendFinanceInterface(_xendFinanceIndividual_Yearn_V1);\r\n        ccInterest = uint256(3 ether).div(10); // .3% \r\n        lastTimeStamp = block.timestamp;\r\n        upKeepInterval = _upKeepInterval;\r\n\r\n        id.increment();\r\n        \r\n    }\r\n\r\n    function register(\r\n        string memory _userDetails, \r\n        string memory _NextOfKinDetails\r\n        ) \r\n        public  {\r\n        require(!isRegistered[msg.sender], \"Caller address already exists\");\r\n\r\n        Client memory client = Client({\r\n            underlyingAsset: address(0),\r\n            depositedAmount: 0,\r\n            amountToSpend: 0,\r\n            approvedAmountToSpend: 0,\r\n            startTime: block.timestamp,\r\n            timeDurationOfdeposit: 0,\r\n            lockTime: 0,\r\n            ipfsHashOfUserPensionDetails: \"\",\r\n            userLastRewardBlock: block.number,\r\n            hasPlan: false\r\n        });\r\n\r\n        User memory user = User({\r\n            id: id.current(),\r\n            userAddress: payable(msg.sender),\r\n            userDetails: _userDetails,\r\n            nextOfKinDetails: _NextOfKinDetails,\r\n            client: client\r\n        });\r\n\r\n       \r\n\r\n        pensionServiceApplicant[msg.sender] = user;\r\n        users.push(user);\r\n        isRegistered[msg.sender] = true;\r\n\r\n        id.increment();\r\n\r\n        emit Register(msg.sender, user.userDetails);\r\n    }\r\n\r\n\r\n\r\n    function deposit(uint256 _amount) public payable  {\r\n        require(isRegistered[msg.sender], \"Caller is not Registered\");\r\n        User storage user = pensionServiceApplicant[msg.sender];\r\n        CTokenInterface cToken = CTokenInterface(user.client.underlyingAsset);\r\n\t\taddress underlyingAsset = cToken.underlying();\r\n        IERC20(underlyingAsset).transferFrom(msg.sender, address(this), _amount);\r\n        address cTokenaddress = user.client.underlyingAsset;\r\n        _supply(cTokenaddress, _amount);\r\n        user.client.depositedAmount = user.client.depositedAmount.add(_amount);\r\n        emit Deposit(msg.sender, user.client.depositedAmount);\r\n\r\n    }\r\n\r\n\r\n\r\n//     function _enterMarket(address _cTokenaddress) internal {\r\n// \t\taddress[] memory markets = new address[](1);\r\n// \t\tmarkets[0] = _cTokenaddress;\r\n// \t\tuint[] memory results = comptroller.enterMarkets(markets);\r\n// \t\trequire( results[0] == 0, 'comptroller#enterMarkets() failed. see Compound ErrorReporter.sol');\r\n// \t}\r\n\r\n\r\n\r\n\r\n\r\n\r\n    function _supply(address cTokenaddress, uint underlyingAmount) internal {\r\n        // require(isRegistered[msg.sender], \"caller is not registered\");\r\n        // _enterMarket(cTokenaddress);\r\n\t\tCTokenInterface cToken = CTokenInterface(cTokenaddress);\r\n\t\taddress underlyingAddress = cToken.underlying();\r\n\t\tIERC20(underlyingAddress).approve(cTokenaddress, underlyingAmount);\r\n\r\n\t\tuint result = cToken.mint(underlyingAmount);\r\n\t\trequire(result == 0, 'cToken#mint() failed. see Compound ErrorReporter.sol');\r\n\t}\r\n\r\n\r\n//     // chainlink keeper function call\r\n    function checkUpkeep(bytes calldata /* checkData */) external view override returns(bool upKeepNeeded, bytes memory performData)   {\r\n        upKeepNeeded = (block.timestamp.sub(lastTimeStamp) > upKeepInterval);\r\n        for(uint256 i = 0; i < users.length; i++ ) {\r\n            User storage user = users[i];\r\n            if(block.timestamp.sub(user.client.startTime) > user.client.timeDurationOfdeposit) {\r\n                performData = abi.encode(user);            \r\n                // return (upKeepNeeded, performData);\r\n            }\r\n        }\r\n\r\n    }\r\n\r\n\r\n\r\n\r\n        function performUpkeep(bytes calldata performData) external override  {\r\n        (User memory userData) = abi.decode(performData, (User));\r\n\r\n        User storage user = pensionServiceApplicant[userData.userAddress];\r\n        if(block.timestamp.sub(user.client.startTime) > user.client.timeDurationOfdeposit) {\r\n            // do something with the user's funds\r\n            require(isRegistered[user.userAddress], \"Address not registered\");\r\n            require(user.client.approvedAmountToSpend > 0, \"Insufficient balance cannot perform upkeep\");\r\n            require(user.client.hasPlan, \"Client has no plan\");\r\n            // isRegistered[user.userAddress] = false;\r\n            CTokenInterface cToken = CTokenInterface(user.client.underlyingAsset);\r\n\r\n            uint amountToDeposit = user.client.amountToSpend;\r\n            address underlyingAsset = cToken.underlying();\r\n            IERC20(underlyingAsset).transferFrom(user.userAddress, address(this),  amountToDeposit);\r\n            // address cLink = 0xFAce851a4921ce59e912d19329929CE6da6EB0c7;\r\n            _supply(user.client.underlyingAsset, user.client.amountToSpend);\r\n            user.client.depositedAmount = user.client.depositedAmount.add(amountToDeposit);\r\n            user.client.approvedAmountToSpend = user.client.approvedAmountToSpend.sub(user.client.amountToSpend);\r\n            user.client.startTime = block.timestamp;\r\n            user.client.userLastRewardBlock = user.client.userLastRewardBlock.add(block.number);\r\n            ccInterest = ccInterest.mul(block.number).div(1e8);\r\n            lastTimeStamp = block.timestamp;\r\n\r\n            emit Deposit(user.userAddress, user.client.amountToSpend);\r\n\r\n        }\r\n\r\n    }\r\n\r\n\r\n\r\n    function withdraw() public {\r\n        require(isRegistered[msg.sender], \"Caller not registered\");\r\n        require(pensionServiceApplicant[msg.sender].client.depositedAmount > 0, \"Insufficient Balance\");\r\n        require(pensionServiceApplicant[msg.sender].client.hasPlan, \"Caller has no plan\");\r\n\r\n        // Point to the User in Storage\r\n        User storage user = pensionServiceApplicant[msg.sender];\r\n\r\n        if(block.timestamp < user.client.lockTime) {\r\n            require(user.client.depositedAmount > 0, \"insufficient balance\");\r\n            _redeem(user.client.underlyingAsset, user.client.depositedAmount);\r\n            // isRegistered[msg.sender] = false;\r\n            uint amountToSend = user.client.depositedAmount.div(2);\r\n            CTokenInterface cToken = CTokenInterface(user.client.underlyingAsset);\r\n            address underlyingAsset = cToken.underlying();\r\n            IERC20(underlyingAsset).transfer(user.userAddress, amountToSend);\r\n            user.client.depositedAmount = 0;\r\n            user.client.userLastRewardBlock = block.number;\r\n            ccInterest = ccInterest.add(block.number).div(1e8);\r\n            emit Withdraw(address(this), msg.sender, amountToSend);\r\n        } else {\r\n            require(user.client.depositedAmount > 0, \"insufficient balance\");\r\n            _redeem(user.client.underlyingAsset, user.client.depositedAmount);\r\n            // isRegistered[msg.sender] = false;\r\n            uint amountToSend = user.client.depositedAmount;\r\n            CTokenInterface cToken = CTokenInterface(user.client.underlyingAsset);\r\n            address underlyingAsset = cToken.underlying();\r\n            IERC20(underlyingAsset).transfer(user.userAddress, amountToSend);\r\n            user.client.depositedAmount = 0;\r\n            user.client.userLastRewardBlock = block.number;\r\n\r\n            emit Withdraw(address(this), msg.sender, amountToSend);\r\n        }\r\n\r\n//         // require(block.timestamp > user.lockTime, \"Early withdrawal will cost you 50% of your initial deposit\");\r\n\r\n\r\n}\r\n\r\n\r\n    function _redeem(address cTokenaddress, uint tokenAmount) internal {\r\n\t\tCTokenInterface cToken = CTokenInterface(cTokenaddress);\r\n\t\tuint result = cToken.redeemUnderlying(tokenAmount);\r\n\t\trequire(result == 0, 'cToken#redeem() failed. see Compound ErrorReporter.sol');\r\n\t}\r\n\r\n    // helper function for testing keepers\r\n    function updateTimeDurationOfDeposit() public  {\r\n        User storage user = pensionServiceApplicant[msg.sender];\r\n        require(isRegistered[user.userAddress], \"Caller is not registered\");\r\n        user.client.timeDurationOfdeposit = 5;\r\n        emit Update(user.client.timeDurationOfdeposit);\r\n    } \r\n\r\n    function setPlan(address _underlyingAsset, string memory _ipfsHashOfUserPensionDetails, uint _approvedAmountToSpend, uint _amountToSpend, uint _timeDurationOfDeposit, uint _lockTime) public {\r\n        require(_approvedAmountToSpend > _amountToSpend, \"Set an amount greater than the recurring amount\");\r\n        require(_amountToSpend > 0, \"approve an amount greater than 0\");\r\n        require(isRegistered[msg.sender], \"Caller has to be Registered\");\r\n        User storage user = pensionServiceApplicant[msg.sender];\r\n        require(user.client.lockTime == 0, \"Caller already has a lock Time Set\");\r\n        user.client.underlyingAsset = _underlyingAsset;\r\n        user.client.lockTime = block.timestamp + _lockTime;\r\n        user.client.timeDurationOfdeposit = block.timestamp.add(_timeDurationOfDeposit);\r\n        user.client.ipfsHashOfUserPensionDetails = _ipfsHashOfUserPensionDetails;\r\n        user.client.approvedAmountToSpend = _approvedAmountToSpend;\r\n        user.client.amountToSpend = _amountToSpend;\r\n        user.client.hasPlan = true;\r\n    }\r\n\r\n\r\n\r\n//     // for Xend\r\n\r\n    function getXendPendingRewards(address _user) public view returns(uint) {\r\n        User storage user = pensionServiceApplicant[_user];\r\n        uint256 accXendRewards = xendFinance.GetMemberXendTokenReward(address(this));\r\n        uint256 userPendingRewards = user.client.depositedAmount.mul(accXendRewards).div(1e8);\r\n\r\n        return userPendingRewards;\r\n    }\r\n\r\n\r\n\r\n    function depositToXendFinance(uint _amount) public  {\r\n        // require(isRegistered[msg.sender], \"Caller not Registered\");\r\n        User storage user = pensionServiceApplicant[msg.sender];\r\n        xendFinance.deposit();\r\n        user.client.depositedAmount = user.client.depositedAmount.add(_amount);\r\n\r\n        emit Deposit(msg.sender, user.client.depositedAmount);\r\n        \r\n    }\r\n\r\n\r\n\r\n    function withdrawFromXendFinance() public {\r\n        require(isRegistered[msg.sender], \"Caller not Registered\");\r\n        User storage user = pensionServiceApplicant[msg.sender];\r\n        xendFinance.withdraw(user.client.depositedAmount);\r\n        uint256 xendBalance = xend.balanceOf(address(this));\r\n        require(xendBalance > user.client.depositedAmount, \"Withdrawing more than you deposited\");\r\n        accXendTokens = xendBalance;\r\n        uint256 accXendTokensforUser = user.client.depositedAmount.mul(accXendTokens).div(1e8);\r\n        xend.transfer(msg.sender, accXendTokensforUser);\r\n\r\n    }\r\n\r\n    function getAccruedInterest() public view returns(uint) {\r\n        User storage user = pensionServiceApplicant[msg.sender];\r\n        require(isRegistered[user.userAddress], \"Caller not registered\");\r\n        CTokenInterface ctoken = CTokenInterface(user.client.underlyingAsset);\r\n        uint supplyRatePerBlock = ctoken.supplyRatePerBlock();\r\n        uint accInterest = user.client.depositedAmount.mul(supplyRatePerBlock).div(ccInterest).div(1e8);\r\n        return accInterest;\r\n    }\r\n}",
  "sourcePath": "/mnt/c/Users/chuks/Desktop/Project/beima_project/beima_core/contracts/PensionServiceProvider.sol",
  "compiler": {
    "name": "solc",
    "version": "0.8.0+commit.c7dfd78e.Emscripten.clang"
  },
  "schemaVersion": "3.4.3",
  "updatedAt": "2021-12-02T09:20:17.813Z",
  "networkType": "ethereum",
  "devdoc": {
    "kind": "dev",
    "methods": {
      "performUpkeep(bytes)": {
        "params": {
          "performData": "is the data which was passed back from the checkData simulation."
        }
      }
    },
    "version": 1
  },
  "userdoc": {
    "kind": "user",
    "methods": {
      "performUpkeep(bytes)": {
        "notice": "Performs work on the contract. Executed by the keepers, via the registry."
      }
    },
    "version": 1
  }
}