{
  "contractName": "PensionServiceProvider",
  "abi": [
    {
      "inputs": [
        {
          "internalType": "address",
          "name": "_xend",
          "type": "address"
        },
        {
          "internalType": "address",
          "name": "_xendFinanceIndividual_Yearn_V1",
          "type": "address"
        },
        {
          "internalType": "address",
          "name": "_comptroller",
          "type": "address"
        },
        {
          "internalType": "address",
          "name": "_priceOracle",
          "type": "address"
        },
        {
          "internalType": "uint256",
          "name": "_upKeepInterval",
          "type": "uint256"
        }
      ],
      "stateMutability": "nonpayable",
      "type": "constructor"
    },
    {
      "anonymous": false,
      "inputs": [
        {
          "indexed": true,
          "internalType": "address",
          "name": "sender",
          "type": "address"
        },
        {
          "indexed": false,
          "internalType": "address",
          "name": "receiver",
          "type": "address"
        },
        {
          "indexed": true,
          "internalType": "uint256",
          "name": "amountSpent",
          "type": "uint256"
        }
      ],
      "name": "Deposit",
      "type": "event"
    },
    {
      "anonymous": false,
      "inputs": [
        {
          "indexed": false,
          "internalType": "address",
          "name": "user",
          "type": "address"
        },
        {
          "indexed": false,
          "internalType": "string",
          "name": "planDetails",
          "type": "string"
        },
        {
          "indexed": false,
          "internalType": "uint256",
          "name": "lockTime",
          "type": "uint256"
        }
      ],
      "name": "Plan",
      "type": "event"
    },
    {
      "anonymous": false,
      "inputs": [
        {
          "indexed": true,
          "internalType": "address",
          "name": "applicant",
          "type": "address"
        },
        {
          "indexed": true,
          "internalType": "string",
          "name": "applicantDetails",
          "type": "string"
        }
      ],
      "name": "Register",
      "type": "event"
    },
    {
      "anonymous": false,
      "inputs": [
        {
          "indexed": true,
          "internalType": "address",
          "name": "sender",
          "type": "address"
        },
        {
          "indexed": false,
          "internalType": "uint256",
          "name": "amount",
          "type": "uint256"
        },
        {
          "indexed": true,
          "internalType": "address",
          "name": "receiver",
          "type": "address"
        }
      ],
      "name": "Transfer",
      "type": "event"
    },
    {
      "anonymous": false,
      "inputs": [
        {
          "indexed": false,
          "internalType": "uint256",
          "name": "timeDuration",
          "type": "uint256"
        }
      ],
      "name": "Update",
      "type": "event"
    },
    {
      "anonymous": false,
      "inputs": [
        {
          "indexed": false,
          "internalType": "address",
          "name": "sender",
          "type": "address"
        },
        {
          "indexed": false,
          "internalType": "bool",
          "name": "upkeep",
          "type": "bool"
        }
      ],
      "name": "Upkeep",
      "type": "event"
    },
    {
      "anonymous": false,
      "inputs": [
        {
          "indexed": false,
          "internalType": "address",
          "name": "from",
          "type": "address"
        },
        {
          "indexed": false,
          "internalType": "address",
          "name": "to",
          "type": "address"
        },
        {
          "indexed": false,
          "internalType": "uint256",
          "name": "amount",
          "type": "uint256"
        }
      ],
      "name": "Withdraw",
      "type": "event"
    },
    {
      "inputs": [],
      "name": "comptroller",
      "outputs": [
        {
          "internalType": "contract ComptrollerInterface",
          "name": "",
          "type": "address"
        }
      ],
      "stateMutability": "view",
      "type": "function"
    },
    {
      "inputs": [
        {
          "internalType": "address",
          "name": "",
          "type": "address"
        }
      ],
      "name": "isRegistered",
      "outputs": [
        {
          "internalType": "bool",
          "name": "",
          "type": "bool"
        }
      ],
      "stateMutability": "view",
      "type": "function"
    },
    {
      "inputs": [],
      "name": "lastTimeStamp",
      "outputs": [
        {
          "internalType": "uint256",
          "name": "",
          "type": "uint256"
        }
      ],
      "stateMutability": "view",
      "type": "function"
    },
    {
      "inputs": [
        {
          "internalType": "address",
          "name": "",
          "type": "address"
        }
      ],
      "name": "pensionServiceApplicant",
      "outputs": [
        {
          "internalType": "uint256",
          "name": "id",
          "type": "uint256"
        },
        {
          "internalType": "address payable",
          "name": "userAddress",
          "type": "address"
        },
        {
          "internalType": "string",
          "name": "userDetails",
          "type": "string"
        },
        {
          "components": [
            {
              "internalType": "address",
              "name": "underlyingAsset",
              "type": "address"
            },
            {
              "internalType": "uint256",
              "name": "depositedAmount",
              "type": "uint256"
            },
            {
              "internalType": "uint256",
              "name": "amountToSpend",
              "type": "uint256"
            },
            {
              "internalType": "uint256",
              "name": "approvedAmountToSpend",
              "type": "uint256"
            },
            {
              "internalType": "uint256",
              "name": "startTime",
              "type": "uint256"
            },
            {
              "internalType": "uint256",
              "name": "timeDurationOfdeposit",
              "type": "uint256"
            },
            {
              "internalType": "uint256",
              "name": "lockTime",
              "type": "uint256"
            },
            {
              "internalType": "string",
              "name": "ipfsHashOfUserPensionDetails",
              "type": "string"
            },
            {
              "internalType": "uint256",
              "name": "userLastRewardBlock",
              "type": "uint256"
            },
            {
              "internalType": "bool",
              "name": "hasPlan",
              "type": "bool"
            }
          ],
          "internalType": "struct PensionServiceProvider.Client",
          "name": "client",
          "type": "tuple"
        }
      ],
      "stateMutability": "view",
      "type": "function"
    },
    {
      "inputs": [],
      "name": "priceOracle",
      "outputs": [
        {
          "internalType": "contract PriceOracleInterface",
          "name": "",
          "type": "address"
        }
      ],
      "stateMutability": "view",
      "type": "function"
    },
    {
      "inputs": [],
      "name": "upKeepInterval",
      "outputs": [
        {
          "internalType": "uint256",
          "name": "",
          "type": "uint256"
        }
      ],
      "stateMutability": "view",
      "type": "function"
    },
    {
      "inputs": [
        {
          "internalType": "uint256",
          "name": "",
          "type": "uint256"
        }
      ],
      "name": "users",
      "outputs": [
        {
          "internalType": "uint256",
          "name": "id",
          "type": "uint256"
        },
        {
          "internalType": "address payable",
          "name": "userAddress",
          "type": "address"
        },
        {
          "internalType": "string",
          "name": "userDetails",
          "type": "string"
        },
        {
          "components": [
            {
              "internalType": "address",
              "name": "underlyingAsset",
              "type": "address"
            },
            {
              "internalType": "uint256",
              "name": "depositedAmount",
              "type": "uint256"
            },
            {
              "internalType": "uint256",
              "name": "amountToSpend",
              "type": "uint256"
            },
            {
              "internalType": "uint256",
              "name": "approvedAmountToSpend",
              "type": "uint256"
            },
            {
              "internalType": "uint256",
              "name": "startTime",
              "type": "uint256"
            },
            {
              "internalType": "uint256",
              "name": "timeDurationOfdeposit",
              "type": "uint256"
            },
            {
              "internalType": "uint256",
              "name": "lockTime",
              "type": "uint256"
            },
            {
              "internalType": "string",
              "name": "ipfsHashOfUserPensionDetails",
              "type": "string"
            },
            {
              "internalType": "uint256",
              "name": "userLastRewardBlock",
              "type": "uint256"
            },
            {
              "internalType": "bool",
              "name": "hasPlan",
              "type": "bool"
            }
          ],
          "internalType": "struct PensionServiceProvider.Client",
          "name": "client",
          "type": "tuple"
        }
      ],
      "stateMutability": "view",
      "type": "function"
    },
    {
      "inputs": [],
      "name": "xend",
      "outputs": [
        {
          "internalType": "contract IERC20",
          "name": "",
          "type": "address"
        }
      ],
      "stateMutability": "view",
      "type": "function"
    },
    {
      "inputs": [],
      "name": "xendFinance",
      "outputs": [
        {
          "internalType": "contract XendFinanceInterface",
          "name": "",
          "type": "address"
        }
      ],
      "stateMutability": "view",
      "type": "function"
    },
    {
      "inputs": [
        {
          "internalType": "string",
          "name": "_userDetails",
          "type": "string"
        }
      ],
      "name": "register",
      "outputs": [],
      "stateMutability": "nonpayable",
      "type": "function"
    },
    {
      "inputs": [
        {
          "internalType": "bytes",
          "name": "",
          "type": "bytes"
        }
      ],
      "name": "checkUpkeep",
      "outputs": [
        {
          "internalType": "bool",
          "name": "",
          "type": "bool"
        },
        {
          "internalType": "bytes",
          "name": "",
          "type": "bytes"
        }
      ],
      "stateMutability": "view",
      "type": "function"
    },
    {
      "inputs": [
        {
          "internalType": "bytes",
          "name": "performData",
          "type": "bytes"
        }
      ],
      "name": "performUpkeep",
      "outputs": [],
      "stateMutability": "nonpayable",
      "type": "function"
    },
    {
      "inputs": [],
      "name": "withdraw",
      "outputs": [],
      "stateMutability": "nonpayable",
      "type": "function"
    },
    {
      "inputs": [],
      "name": "updateTimeDurationOfDeposit",
      "outputs": [],
      "stateMutability": "nonpayable",
      "type": "function"
    },
    {
      "inputs": [
        {
          "internalType": "address",
          "name": "_underlyingAsset",
          "type": "address"
        },
        {
          "internalType": "string",
          "name": "_ipfsHashOfUserPensionDetails",
          "type": "string"
        },
        {
          "internalType": "uint256",
          "name": "_approvedAmountToSpend",
          "type": "uint256"
        },
        {
          "internalType": "uint256",
          "name": "_amountToSpend",
          "type": "uint256"
        },
        {
          "internalType": "uint256",
          "name": "_timeDurationOfDeposit",
          "type": "uint256"
        },
        {
          "internalType": "uint256",
          "name": "_lockTime",
          "type": "uint256"
        }
      ],
      "name": "setPlan",
      "outputs": [],
      "stateMutability": "nonpayable",
      "type": "function"
    },
    {
      "inputs": [
        {
          "internalType": "address",
          "name": "_user",
          "type": "address"
        }
      ],
      "name": "getXendPendingRewards",
      "outputs": [
        {
          "internalType": "uint256",
          "name": "",
          "type": "uint256"
        }
      ],
      "stateMutability": "view",
      "type": "function"
    },
    {
      "inputs": [
        {
          "internalType": "uint256",
          "name": "_amount",
          "type": "uint256"
        }
      ],
      "name": "depositToXendFinance",
      "outputs": [],
      "stateMutability": "nonpayable",
      "type": "function"
    },
    {
      "inputs": [],
      "name": "withdrawFromXendFinance",
      "outputs": [],
      "stateMutability": "nonpayable",
      "type": "function"
    },
    {
      "inputs": [],
      "name": "getAccruedInterest",
      "outputs": [
        {
          "internalType": "uint256",
          "name": "",
          "type": "uint256"
        }
      ],
      "stateMutability": "view",
      "type": "function"
    }
  ],
  "bytecode": "0x60806040523480156200001157600080fd5b506040516200449b3803806200449b8339818101604052810190620000379190620001ef565b84600660006101000a81548173ffffffffffffffffffffffffffffffffffffffff021916908373ffffffffffffffffffffffffffffffffffffffff160217905550826000806101000a81548173ffffffffffffffffffffffffffffffffffffffff021916908373ffffffffffffffffffffffffffffffffffffffff16021790555081600160006101000a81548173ffffffffffffffffffffffffffffffffffffffff021916908373ffffffffffffffffffffffffffffffffffffffff16021790555083600560006101000a81548173ffffffffffffffffffffffffffffffffffffffff021916908373ffffffffffffffffffffffffffffffffffffffff1602179055506200015d600a6729a2241af62c00006200019360201b620026f51790919060201c565b6004819055504260078190555080600881905550620001886002620001ab60201b6200270b1760201c565b50505050506200034a565b60008183620001a3919062000271565b905092915050565b6001816000016000828254019250508190555050565b600081519050620001d28162000316565b92915050565b600081519050620001e98162000330565b92915050565b600080600080600060a086880312156200020857600080fd5b60006200021888828901620001c1565b95505060206200022b88828901620001c1565b94505060406200023e88828901620001c1565b93505060606200025188828901620001c1565b92505060806200026488828901620001d8565b9150509295509295909350565b60006200027e82620002dd565b91506200028b83620002dd565b9250826200029e576200029d620002e7565b5b828204905092915050565b6000620002b682620002bd565b9050919050565b600073ffffffffffffffffffffffffffffffffffffffff82169050919050565b6000819050919050565b7f4e487b7100000000000000000000000000000000000000000000000000000000600052601260045260246000fd5b6200032181620002a9565b81146200032d57600080fd5b50565b6200033b81620002dd565b81146200034757600080fd5b50565b614141806200035a6000396000f3fe608060405234801561001057600080fd5b50600436106101215760003560e01c806359098330116100ad578063c3c5a54711610071578063c3c5a547146102c7578063c742ee05146102f7578063de15f0da14610327578063f2c298be14610343578063f5dd60651461035f57610121565b8063590983301461021f5780635bc9d2bf146102295780635daa4bfa1461025c5780635fe3b567146102785780636e04ff0d1461029657610121565b80633ccfd60b116100f45780633ccfd60b146101b35780633f3b3b27146101bd5780634585e33b146101db578063564afa3a146101f757806356dc5d8e1461021557610121565b80631a15687b146101265780632630c12f146101445780633245f22814610162578063365b98b214610180575b600080fd5b61012e61037d565b60405161013b9190613bcf565b60405180910390f35b61014c610383565b6040516101599190613959565b60405180910390f35b61016a6103a9565b604051610177919061393e565b60405180910390f35b61019a60048036038101906101959190612f08565b6103cf565b6040516101aa9493929190613bea565b60405180910390f35b6101bb61060b565b005b6101c5610cda565b6040516101d29190613bcf565b60405180910390f35b6101f560048036038101906101f09190612e82565b610ce0565b005b6101ff611347565b60405161020c9190613bcf565b60405180910390f35b61021d61153b565b005b61022761167c565b005b610243600480360381019061023e9190612d66565b6119c9565b6040516102539493929190613bea565b60405180910390f35b61027660048036038101906102719190612f08565b611bf5565b005b610280611d5b565b60405161028d9190613923565b60405180910390f35b6102b060048036038101906102ab9190612e82565b611d7f565b6040516102be9291906138f3565b60405180910390f35b6102e160048036038101906102dc9190612d66565b611db7565b6040516102ee91906138d8565b60405180910390f35b610311600480360381019061030c9190612d66565b611dd7565b60405161031e9190613bcf565b60405180910390f35b610341600480360381019061033c9190612db8565b611f09565b005b61035d60048036038101906103589190612ec7565b6121c7565b005b6103676126cf565b6040516103749190613974565b60405180910390f35b60085481565b600160009054906101000a900473ffffffffffffffffffffffffffffffffffffffff1681565b600660009054906101000a900473ffffffffffffffffffffffffffffffffffffffff1681565b600b81815481106103df57600080fd5b90600052602060002090600d02016000915090508060000154908060010160009054906101000a900473ffffffffffffffffffffffffffffffffffffffff169080600201805461042e90613f7e565b80601f016020809104026020016040519081016040528092919081815260200182805461045a90613f7e565b80156104a75780601f1061047c576101008083540402835291602001916104a7565b820191906000526020600020905b81548152906001019060200180831161048a57829003601f168201915b50505050509080600301604051806101400160405290816000820160009054906101000a900473ffffffffffffffffffffffffffffffffffffffff1673ffffffffffffffffffffffffffffffffffffffff1673ffffffffffffffffffffffffffffffffffffffff16815260200160018201548152602001600282015481526020016003820154815260200160048201548152602001600582015481526020016006820154815260200160078201805461055f90613f7e565b80601f016020809104026020016040519081016040528092919081815260200182805461058b90613f7e565b80156105d85780601f106105ad576101008083540402835291602001916105d8565b820191906000526020600020905b8154815290600101906020018083116105bb57829003601f168201915b50505050508152602001600882015481526020016009820160009054906101000a900460ff161515151581525050905084565b600a60003373ffffffffffffffffffffffffffffffffffffffff1673ffffffffffffffffffffffffffffffffffffffff16815260200190815260200160002060009054906101000a900460ff16610697576040517f08c379a000000000000000000000000000000000000000000000000000000000815260040161068e90613b0f565b60405180910390fd5b6000600960003373ffffffffffffffffffffffffffffffffffffffff1673ffffffffffffffffffffffffffffffffffffffff16815260200190815260200160002090508060030160060154421015610a045760008160030160000160009054906101000a900473ffffffffffffffffffffffffffffffffffffffff16905060008173ffffffffffffffffffffffffffffffffffffffff16636f307dc36040518163ffffffff1660e01b815260040160206040518083038186803b15801561075d57600080fd5b505afa158015610771573d6000803e3d6000fd5b505050506040513d601f19601f820116820180604052508101906107959190612d8f565b90506107cf8360030160000160009054906101000a900473ffffffffffffffffffffffffffffffffffffffff168460030160010154612721565b60008173ffffffffffffffffffffffffffffffffffffffff166370a08231306040518263ffffffff1660e01b815260040161080a91906137bf565b60206040518083038186803b15801561082257600080fd5b505afa158015610836573d6000803e3d6000fd5b505050506040513d601f19601f8201168201806040525081019061085a9190612f31565b9050836003016001015481146108a5576040517f08c379a000000000000000000000000000000000000000000000000000000000815260040161089c9061398f565b60405180910390fd5b60006108c2600286600301600101546126f590919063ffffffff16565b90508273ffffffffffffffffffffffffffffffffffffffff1663a9059cbb8660010160009054906101000a900473ffffffffffffffffffffffffffffffffffffffff16836040518363ffffffff1660e01b8152600401610923929190613811565b602060405180830381600087803b15801561093d57600080fd5b505af1158015610951573d6000803e3d6000fd5b505050506040513d601f19601f820116820180604052508101906109759190612e59565b50600085600301600101819055504385600301600801819055506109ba6305f5e1006109ac4360045461284190919063ffffffff16565b6126f590919063ffffffff16565b6004819055507f9b1bfa7fa9ee420a16e124f794c35ac9f90472acc99140eb2f6447c714cad8eb3033836040516109f39392919061383a565b60405180910390a150505050610cd7565b60008160030160000160009054906101000a900473ffffffffffffffffffffffffffffffffffffffff16905060008173ffffffffffffffffffffffffffffffffffffffff16636f307dc36040518163ffffffff1660e01b815260040160206040518083038186803b158015610a7857600080fd5b505afa158015610a8c573d6000803e3d6000fd5b505050506040513d601f19601f82011682018060405250810190610ab09190612d8f565b9050610aea8360030160000160009054906101000a900473ffffffffffffffffffffffffffffffffffffffff168460030160010154612721565b60008173ffffffffffffffffffffffffffffffffffffffff166370a08231306040518263ffffffff1660e01b8152600401610b2591906137bf565b60206040518083038186803b158015610b3d57600080fd5b505afa158015610b51573d6000803e3d6000fd5b505050506040513d601f19601f82011682018060405250810190610b759190612f31565b905083600301600101548114610bc0576040517f08c379a0000000000000000000000000000000000000000000000000000000008152600401610bb79061398f565b60405180910390fd5b6000846003016001015490508273ffffffffffffffffffffffffffffffffffffffff1663a9059cbb8660010160009054906101000a900473ffffffffffffffffffffffffffffffffffffffff16836040518363ffffffff1660e01b8152600401610c2b929190613811565b602060405180830381600087803b158015610c4557600080fd5b505af1158015610c59573d6000803e3d6000fd5b505050506040513d601f19601f82011682018060405250810190610c7d9190612e59565b50600085600301600101819055504385600301600801819055507f9b1bfa7fa9ee420a16e124f794c35ac9f90472acc99140eb2f6447c714cad8eb303383604051610cca9392919061383a565b60405180910390a1505050505b50565b60075481565b60005b6001600b80549050610cf59190613de8565b81101561134257600060096000600b8481548110610d3c577f4e487b7100000000000000000000000000000000000000000000000000000000600052603260045260246000fd5b90600052602060002090600d020160010160009054906101000a900473ffffffffffffffffffffffffffffffffffffffff1673ffffffffffffffffffffffffffffffffffffffff1673ffffffffffffffffffffffffffffffffffffffff1681526020019081526020016000209050600a60008260010160009054906101000a900473ffffffffffffffffffffffffffffffffffffffff1673ffffffffffffffffffffffffffffffffffffffff1673ffffffffffffffffffffffffffffffffffffffff16815260200190815260200160002060009054906101000a900460ff16610e5a576040517f08c379a0000000000000000000000000000000000000000000000000000000008152600401610e5190613b8f565b60405180910390fd5b6000816003016003015411610ea4576040517f08c379a0000000000000000000000000000000000000000000000000000000008152600401610e9b90613a6f565b60405180910390fd5b8060030160090160009054906101000a900460ff16610ef8576040517f08c379a0000000000000000000000000000000000000000000000000000000008152600401610eef90613a8f565b60405180910390fd5b60008160030160000160009054906101000a900473ffffffffffffffffffffffffffffffffffffffff16905060008260030160020154905060008273ffffffffffffffffffffffffffffffffffffffff16636f307dc36040518163ffffffff1660e01b815260040160206040518083038186803b158015610f7857600080fd5b505afa158015610f8c573d6000803e3d6000fd5b505050506040513d601f19601f82011682018060405250810190610fb09190612d8f565b90508073ffffffffffffffffffffffffffffffffffffffff166323b872dd8560010160009054906101000a900473ffffffffffffffffffffffffffffffffffffffff1630856040518463ffffffff1660e01b8152600401611013939291906137da565b602060405180830381600087803b15801561102d57600080fd5b505af1158015611041573d6000803e3d6000fd5b505050506040513d601f19601f820116820180604052508101906110659190612e59565b5060008173ffffffffffffffffffffffffffffffffffffffff166370a08231306040518263ffffffff1660e01b81526004016110a191906137bf565b60206040518083038186803b1580156110b957600080fd5b505afa1580156110cd573d6000803e3d6000fd5b505050506040513d601f19601f820116820180604052508101906110f19190612f31565b9050828114611135576040517f08c379a000000000000000000000000000000000000000000000000000000000815260040161112c906139af565b60405180910390fd5b6111668560030160000160009054906101000a900473ffffffffffffffffffffffffffffffffffffffff1682612857565b3073ffffffffffffffffffffffffffffffffffffffff168560010160009054906101000a900473ffffffffffffffffffffffffffffffffffffffff1673ffffffffffffffffffffffffffffffffffffffff167f138dbc8474f748db86063dcef24cef1495bc73385a946f8d691128085e5ebec287600301600101546040516111ee9190613bcf565b60405180910390a361121083866003016001015461284190919063ffffffff16565b856003016001018190555061123c8560030160020154866003016003015461293d90919063ffffffff16565b856003016003018190555042856003016004018190555061126d43866003016008015461284190919063ffffffff16565b85600301600801819055506112a36305f5e1006112954360045461295390919063ffffffff16565b6126f590919063ffffffff16565b6004819055504260078190555084600301600101548560010160009054906101000a900473ffffffffffffffffffffffffffffffffffffffff1673ffffffffffffffffffffffffffffffffffffffff167f5548c837ab068cf56a2c2479df0882a4922fd203edb7517321831d95078c5f623060405161132291906137bf565b60405180910390a35050505050808061133a90613fb0565b915050610ce3565b505050565b600080600960003373ffffffffffffffffffffffffffffffffffffffff1673ffffffffffffffffffffffffffffffffffffffff1681526020019081526020016000209050600a60008260010160009054906101000a900473ffffffffffffffffffffffffffffffffffffffff1673ffffffffffffffffffffffffffffffffffffffff1673ffffffffffffffffffffffffffffffffffffffff16815260200190815260200160002060009054906101000a900460ff1661143b576040517f08c379a000000000000000000000000000000000000000000000000000000000815260040161143290613b0f565b60405180910390fd5b60008160030160000160009054906101000a900473ffffffffffffffffffffffffffffffffffffffff16905060008173ffffffffffffffffffffffffffffffffffffffff1663ae9d70b06040518163ffffffff1660e01b815260040160206040518083038186803b1580156114af57600080fd5b505afa1580156114c3573d6000803e3d6000fd5b505050506040513d601f19601f820116820180604052508101906114e79190612f31565b9050600061152f6305f5e10061152160045461151386896003016001015461295390919063ffffffff16565b6126f590919063ffffffff16565b6126f590919063ffffffff16565b90508094505050505090565b6000600960003373ffffffffffffffffffffffffffffffffffffffff1673ffffffffffffffffffffffffffffffffffffffff1681526020019081526020016000209050600a60008260010160009054906101000a900473ffffffffffffffffffffffffffffffffffffffff1673ffffffffffffffffffffffffffffffffffffffff1673ffffffffffffffffffffffffffffffffffffffff16815260200190815260200160002060009054906101000a900460ff1661162e576040517f08c379a0000000000000000000000000000000000000000000000000000000008152600401611625906139ef565b60405180910390fd5b600081600301600501819055507f164f7b2ab803097dab5e39f06d2e4f3c3ddc5d4171abbdcc3e76443b8359c7f581600301600501546040516116719190613bcf565b60405180910390a150565b600a60003373ffffffffffffffffffffffffffffffffffffffff1673ffffffffffffffffffffffffffffffffffffffff16815260200190815260200160002060009054906101000a900460ff16611708576040517f08c379a00000000000000000000000000000000000000000000000000000000081526004016116ff906139cf565b60405180910390fd5b6000600960003373ffffffffffffffffffffffffffffffffffffffff1673ffffffffffffffffffffffffffffffffffffffff1681526020019081526020016000209050600560009054906101000a900473ffffffffffffffffffffffffffffffffffffffff1673ffffffffffffffffffffffffffffffffffffffff16632e1a7d4d82600301600101546040518263ffffffff1660e01b81526004016117ad9190613bcf565b600060405180830381600087803b1580156117c757600080fd5b505af11580156117db573d6000803e3d6000fd5b505050506000600660009054906101000a900473ffffffffffffffffffffffffffffffffffffffff1673ffffffffffffffffffffffffffffffffffffffff166370a08231306040518263ffffffff1660e01b815260040161183c91906137bf565b60206040518083038186803b15801561185457600080fd5b505afa158015611868573d6000803e3d6000fd5b505050506040513d601f19601f8201168201806040525081019061188c9190612f31565b9050816003016001015481116118d7576040517f08c379a00000000000000000000000000000000000000000000000000000000081526004016118ce90613acf565b60405180910390fd5b8060038190555060006119126305f5e100611904600354866003016001015461295390919063ffffffff16565b6126f590919063ffffffff16565b9050600660009054906101000a900473ffffffffffffffffffffffffffffffffffffffff1673ffffffffffffffffffffffffffffffffffffffff1663a9059cbb33836040518363ffffffff1660e01b81526004016119719291906138af565b602060405180830381600087803b15801561198b57600080fd5b505af115801561199f573d6000803e3d6000fd5b505050506040513d601f19601f820116820180604052508101906119c39190612e59565b50505050565b60096020528060005260406000206000915090508060000154908060010160009054906101000a900473ffffffffffffffffffffffffffffffffffffffff1690806002018054611a1890613f7e565b80601f0160208091040260200160405190810160405280929190818152602001828054611a4490613f7e565b8015611a915780601f10611a6657610100808354040283529160200191611a91565b820191906000526020600020905b815481529060010190602001808311611a7457829003601f168201915b50505050509080600301604051806101400160405290816000820160009054906101000a900473ffffffffffffffffffffffffffffffffffffffff1673ffffffffffffffffffffffffffffffffffffffff1673ffffffffffffffffffffffffffffffffffffffff168152602001600182015481526020016002820154815260200160038201548152602001600482015481526020016005820154815260200160068201548152602001600782018054611b4990613f7e565b80601f0160208091040260200160405190810160405280929190818152602001828054611b7590613f7e565b8015611bc25780601f10611b9757610100808354040283529160200191611bc2565b820191906000526020600020905b815481529060010190602001808311611ba557829003601f168201915b50505050508152602001600882015481526020016009820160009054906101000a900460ff161515151581525050905084565b6000600960003373ffffffffffffffffffffffffffffffffffffffff1673ffffffffffffffffffffffffffffffffffffffff1681526020019081526020016000209050600560009054906101000a900473ffffffffffffffffffffffffffffffffffffffff1673ffffffffffffffffffffffffffffffffffffffff1663d0e30db06040518163ffffffff1660e01b8152600401600060405180830381600087803b158015611ca257600080fd5b505af1158015611cb6573d6000803e3d6000fd5b50505050611cd482826003016001015461284190919063ffffffff16565b816003016001018190555080600301600101543373ffffffffffffffffffffffffffffffffffffffff167f5548c837ab068cf56a2c2479df0882a4922fd203edb7517321831d95078c5f62600660009054906101000a900473ffffffffffffffffffffffffffffffffffffffff16604051611d4f91906137bf565b60405180910390a35050565b60008054906101000a900473ffffffffffffffffffffffffffffffffffffffff1681565b60006060600854611d9b6007544261293d90919063ffffffff16565b1160405180602001604052806000815250915091509250929050565b600a6020528060005260406000206000915054906101000a900460ff1681565b600080600960008473ffffffffffffffffffffffffffffffffffffffff1673ffffffffffffffffffffffffffffffffffffffff16815260200190815260200160002090506000600560009054906101000a900473ffffffffffffffffffffffffffffffffffffffff1673ffffffffffffffffffffffffffffffffffffffff1663eec562c3306040518263ffffffff1660e01b8152600401611e7891906137bf565b60206040518083038186803b158015611e9057600080fd5b505afa158015611ea4573d6000803e3d6000fd5b505050506040513d601f19601f82011682018060405250810190611ec89190612f31565b90506000611efc6305f5e100611eee84866003016001015461295390919063ffffffff16565b6126f590919063ffffffff16565b9050809350505050919050565b828411611f4b576040517f08c379a0000000000000000000000000000000000000000000000000000000008152600401611f4290613baf565b60405180910390fd5b60008311611f8e576040517f08c379a0000000000000000000000000000000000000000000000000000000008152600401611f8590613b4f565b60405180910390fd5b600a60003373ffffffffffffffffffffffffffffffffffffffff1673ffffffffffffffffffffffffffffffffffffffff16815260200190815260200160002060009054906101000a900460ff1661201a576040517f08c379a000000000000000000000000000000000000000000000000000000000815260040161201190613b2f565b60405180910390fd5b6000600960003373ffffffffffffffffffffffffffffffffffffffff1673ffffffffffffffffffffffffffffffffffffffff168152602001908152602001600020905060008160030160060154146120a7576040517f08c379a000000000000000000000000000000000000000000000000000000000815260040161209e90613aaf565b60405180910390fd5b868160030160000160006101000a81548173ffffffffffffffffffffffffffffffffffffffff021916908373ffffffffffffffffffffffffffffffffffffffff16021790555081426120f99190613d07565b8160030160060181905550612117834261284190919063ffffffff16565b81600301600501819055508581600301600701908051906020019061213d929190612ba8565b5084816003016003018190555083816003016002018190555060018160030160090160006101000a81548160ff0219169083151502179055507f0a342f2e207c3c328a10158ad0b71a9e64a10e319c5d635be24f8c7e418ea6e4338260030160070183600301600601546040516121b693929190613871565b60405180910390a150505050505050565b600a60003373ffffffffffffffffffffffffffffffffffffffff1673ffffffffffffffffffffffffffffffffffffffff16815260200190815260200160002060009054906101000a900460ff1615612254576040517f08c379a000000000000000000000000000000000000000000000000000000000815260040161224b90613a4f565b60405180910390fd5b6000604051806101400160405280600073ffffffffffffffffffffffffffffffffffffffff1681526020016000815260200160008152602001600081526020014281526020016000815260200160008152602001604051806020016040528060008152508152602001438152602001600015158152509050600060405180608001604052806122e36002612969565b81526020013373ffffffffffffffffffffffffffffffffffffffff16815260200184815260200183815250905080600960003373ffffffffffffffffffffffffffffffffffffffff1673ffffffffffffffffffffffffffffffffffffffff1681526020019081526020016000206000820151816000015560208201518160010160006101000a81548173ffffffffffffffffffffffffffffffffffffffff021916908373ffffffffffffffffffffffffffffffffffffffff16021790555060408201518160020190805190602001906123bd929190612ba8565b5060608201518160030160008201518160000160006101000a81548173ffffffffffffffffffffffffffffffffffffffff021916908373ffffffffffffffffffffffffffffffffffffffff1602179055506020820151816001015560408201518160020155606082015181600301556080820151816004015560a0820151816005015560c0820151816006015560e0820151816007019080519060200190612466929190612ba8565b5061010082015181600801556101208201518160090160006101000a81548160ff0219169083151502179055505050905050600b8190806001815401808255809150506001900390600052602060002090600d02016000909190919091506000820151816000015560208201518160010160006101000a81548173ffffffffffffffffffffffffffffffffffffffff021916908373ffffffffffffffffffffffffffffffffffffffff1602179055506040820151816002019080519060200190612531929190612ba8565b5060608201518160030160008201518160000160006101000a81548173ffffffffffffffffffffffffffffffffffffffff021916908373ffffffffffffffffffffffffffffffffffffffff1602179055506020820151816001015560408201518160020155606082015181600301556080820151816004015560a0820151816005015560c0820151816006015560e08201518160070190805190602001906125da929190612ba8565b5061010082015181600801556101208201518160090160006101000a81548160ff021916908315150217905550505050506001600a60003373ffffffffffffffffffffffffffffffffffffffff1673ffffffffffffffffffffffffffffffffffffffff16815260200190815260200160002060006101000a81548160ff02191690831515021790555061266d600261270b565b806040015160405161267f91906137a8565b60405180910390203373ffffffffffffffffffffffffffffffffffffffff167f6ba0831d2f62ae5cbf7214bcc1d79c5da1d705f12811efda0beaa840006f874e60405160405180910390a3505050565b600560009054906101000a900473ffffffffffffffffffffffffffffffffffffffff1681565b600081836127039190613d5d565b905092915050565b6001816000016000828254019250508190555050565b60008111612764576040517f08c379a000000000000000000000000000000000000000000000000000000000815260040161275b90613aef565b60405180910390fd5b600082905060008173ffffffffffffffffffffffffffffffffffffffff1663852a12e3846040518263ffffffff1660e01b81526004016127a49190613bcf565b602060405180830381600087803b1580156127be57600080fd5b505af11580156127d2573d6000803e3d6000fd5b505050506040513d601f19601f820116820180604052508101906127f69190612f31565b90506000811461283b576040517f08c379a000000000000000000000000000000000000000000000000000000000815260040161283290613b6f565b60405180910390fd5b50505050565b6000818361284f9190613d07565b905092915050565b600082905060008173ffffffffffffffffffffffffffffffffffffffff16636f307dc36040518163ffffffff1660e01b815260040160206040518083038186803b1580156128a457600080fd5b505afa1580156128b8573d6000803e3d6000fd5b505050506040513d601f19601f820116820180604052508101906128dc9190612d8f565b90506128e88484612977565b823073ffffffffffffffffffffffffffffffffffffffff167f5548c837ab068cf56a2c2479df0882a4922fd203edb7517321831d95078c5f628660405161292f91906137bf565b60405180910390a350505050565b6000818361294b9190613de8565b905092915050565b600081836129619190613d8e565b905092915050565b600081600001549050919050565b600081116129ba576040517f08c379a00000000000000000000000000000000000000000000000000000000081526004016129b190613a2f565b60405180910390fd5b600082905060008173ffffffffffffffffffffffffffffffffffffffff16636f307dc36040518163ffffffff1660e01b815260040160206040518083038186803b158015612a0757600080fd5b505afa158015612a1b573d6000803e3d6000fd5b505050506040513d601f19601f82011682018060405250810190612a3f9190612d8f565b90508073ffffffffffffffffffffffffffffffffffffffff1663095ea7b385856040518363ffffffff1660e01b8152600401612a7c9291906138af565b602060405180830381600087803b158015612a9657600080fd5b505af1158015612aaa573d6000803e3d6000fd5b505050506040513d601f19601f82011682018060405250810190612ace9190612e59565b5060008273ffffffffffffffffffffffffffffffffffffffff1663a0712d68856040518263ffffffff1660e01b8152600401612b0a9190613bcf565b602060405180830381600087803b158015612b2457600080fd5b505af1158015612b38573d6000803e3d6000fd5b505050506040513d601f19601f82011682018060405250810190612b5c9190612f31565b905060008114612ba1576040517f08c379a0000000000000000000000000000000000000000000000000000000008152600401612b9890613a0f565b60405180910390fd5b5050505050565b828054612bb490613f7e565b90600052602060002090601f016020900481019282612bd65760008555612c1d565b82601f10612bef57805160ff1916838001178555612c1d565b82800160010185558215612c1d579182015b82811115612c1c578251825591602001919060010190612c01565b5b509050612c2a9190612c2e565b5090565b5b80821115612c47576000816000905550600101612c2f565b5090565b6000612c5e612c5984613c6e565b613c3d565b905082815260208101848484011115612c7657600080fd5b612c81848285613f3c565b509392505050565b600081359050612c98816140c6565b92915050565b600081519050612cad816140c6565b92915050565b600081519050612cc2816140dd565b92915050565b60008083601f840112612cda57600080fd5b8235905067ffffffffffffffff811115612cf357600080fd5b602083019150836001820283011115612d0b57600080fd5b9250929050565b600082601f830112612d2357600080fd5b8135612d33848260208601612c4b565b91505092915050565b600081359050612d4b816140f4565b92915050565b600081519050612d60816140f4565b92915050565b600060208284031215612d7857600080fd5b6000612d8684828501612c89565b91505092915050565b600060208284031215612da157600080fd5b6000612daf84828501612c9e565b91505092915050565b60008060008060008060c08789031215612dd157600080fd5b6000612ddf89828a01612c89565b965050602087013567ffffffffffffffff811115612dfc57600080fd5b612e0889828a01612d12565b9550506040612e1989828a01612d3c565b9450506060612e2a89828a01612d3c565b9350506080612e3b89828a01612d3c565b92505060a0612e4c89828a01612d3c565b9150509295509295509295565b600060208284031215612e6b57600080fd5b6000612e7984828501612cb3565b91505092915050565b60008060208385031215612e9557600080fd5b600083013567ffffffffffffffff811115612eaf57600080fd5b612ebb85828601612cc8565b92509250509250929050565b600060208284031215612ed957600080fd5b600082013567ffffffffffffffff811115612ef357600080fd5b612eff84828501612d12565b91505092915050565b600060208284031215612f1a57600080fd5b6000612f2884828501612d3c565b91505092915050565b600060208284031215612f4357600080fd5b6000612f5184828501612d51565b91505092915050565b612f6381613e76565b82525050565b612f7281613e2e565b82525050565b612f8181613e1c565b82525050565b612f9081613e1c565b82525050565b612f9f81613e40565b82525050565b612fae81613e40565b82525050565b6000612fbf82613cb3565b612fc98185613cc9565b9350612fd9818560208601613f4b565b612fe2816140b5565b840191505092915050565b612ff681613e88565b82525050565b61300581613eac565b82525050565b61301481613ed0565b82525050565b61302381613ef4565b82525050565b600061303482613cbe565b61303e8185613cda565b935061304e818560208601613f4b565b613057816140b5565b840191505092915050565b600061306d82613cbe565b6130778185613ceb565b9350613087818560208601613f4b565b613090816140b5565b840191505092915050565b60006130a682613cbe565b6130b08185613cfc565b93506130c0818560208601613f4b565b80840191505092915050565b600081546130d981613f7e565b6130e38186613ceb565b945060018216600081146130fe576001811461311057613143565b60ff1983168652602086019350613143565b61311985613c9e565b60005b8381101561313b5781548189015260018201915060208101905061311c565b808801955050505b50505092915050565b6000613159600f83613ceb565b91507f42616c616e636520746f6f206c6f7700000000000000000000000000000000006000830152602082019050919050565b6000613199600f83613ceb565b91507f5472616e73666572206661696c656400000000000000000000000000000000006000830152602082019050919050565b60006131d9601583613ceb565b91507f43616c6c6572206e6f74205265676973746572656400000000000000000000006000830152602082019050919050565b6000613219601883613ceb565b91507f43616c6c6572206973206e6f74207265676973746572656400000000000000006000830152602082019050919050565b6000613259603483613ceb565b91507f63546f6b656e236d696e742829206661696c65642e2073656520436f6d706f7560008301527f6e64204572726f725265706f727465722e736f6c0000000000000000000000006020830152604082019050919050565b60006132bf601283613ceb565b91507f416d6f756e742043616e6e6f74206265203000000000000000000000000000006000830152602082019050919050565b60006132ff601d83613ceb565b91507f43616c6c6572206164647265737320616c7265616479206578697374730000006000830152602082019050919050565b600061333f602a83613ceb565b91507f496e73756666696369656e742062616c616e63652063616e6e6f74207065726660008301527f6f726d2075706b656570000000000000000000000000000000000000000000006020830152604082019050919050565b60006133a5601283613ceb565b91507f436c69656e7420686173206e6f20706c616e00000000000000000000000000006000830152602082019050919050565b60006133e5602283613ceb565b91507f43616c6c657220616c7265616479206861732061206c6f636b2054696d65205360008301527f65740000000000000000000000000000000000000000000000000000000000006020830152604082019050919050565b600061344b602383613ceb565b91507f5769746864726177696e67206d6f7265207468616e20796f75206465706f736960008301527f74656400000000000000000000000000000000000000000000000000000000006020830152604082019050919050565b60006134b1601383613ceb565b91507f4163636f756e742063616e6e6f742062652030000000000000000000000000006000830152602082019050919050565b60006134f1601583613ceb565b91507f43616c6c6572206e6f74207265676973746572656400000000000000000000006000830152602082019050919050565b6000613531601b83613ceb565b91507f43616c6c65722068617320746f206265205265676973746572656400000000006000830152602082019050919050565b6000613571602083613ceb565b91507f617070726f766520616e20616d6f756e742067726561746572207468616e20306000830152602082019050919050565b60006135b1603683613ceb565b91507f63546f6b656e2372656465656d2829206661696c65642e2073656520436f6d7060008301527f6f756e64204572726f725265706f727465722e736f6c000000000000000000006020830152604082019050919050565b6000613617601683613ceb565b91507f41646472657373206e6f742072656769737465726564000000000000000000006000830152602082019050919050565b6000613657602f83613ceb565b91507f53657420616e20616d6f756e742067726561746572207468616e20746865207260008301527f6563757272696e6720616d6f756e7400000000000000000000000000000000006020830152604082019050919050565b6000610140830160008301516136c96000860182612f78565b5060208301516136dc602086018261378a565b5060408301516136ef604086018261378a565b506060830151613702606086018261378a565b506080830151613715608086018261378a565b5060a083015161372860a086018261378a565b5060c083015161373b60c086018261378a565b5060e083015184820360e08601526137538282613029565b91505061010083015161376a61010086018261378a565b5061012083015161377f610120860182612f96565b508091505092915050565b61379381613e6c565b82525050565b6137a281613e6c565b82525050565b60006137b4828461309b565b915081905092915050565b60006020820190506137d46000830184612f87565b92915050565b60006060820190506137ef6000830186612f5a565b6137fc6020830185612f87565b6138096040830184613799565b949350505050565b60006040820190506138266000830185612f5a565b6138336020830184613799565b9392505050565b600060608201905061384f6000830186612f87565b61385c6020830185612f87565b6138696040830184613799565b949350505050565b60006060820190506138866000830186612f87565b818103602083015261389881856130cc565b90506138a76040830184613799565b949350505050565b60006040820190506138c46000830185612f87565b6138d16020830184613799565b9392505050565b60006020820190506138ed6000830184612fa5565b92915050565b60006040820190506139086000830185612fa5565b818103602083015261391a8184612fb4565b90509392505050565b60006020820190506139386000830184612fed565b92915050565b60006020820190506139536000830184612ffc565b92915050565b600060208201905061396e600083018461300b565b92915050565b6000602082019050613989600083018461301a565b92915050565b600060208201905081810360008301526139a88161314c565b9050919050565b600060208201905081810360008301526139c88161318c565b9050919050565b600060208201905081810360008301526139e8816131cc565b9050919050565b60006020820190508181036000830152613a088161320c565b9050919050565b60006020820190508181036000830152613a288161324c565b9050919050565b60006020820190508181036000830152613a48816132b2565b9050919050565b60006020820190508181036000830152613a68816132f2565b9050919050565b60006020820190508181036000830152613a8881613332565b9050919050565b60006020820190508181036000830152613aa881613398565b9050919050565b60006020820190508181036000830152613ac8816133d8565b9050919050565b60006020820190508181036000830152613ae88161343e565b9050919050565b60006020820190508181036000830152613b08816134a4565b9050919050565b60006020820190508181036000830152613b28816134e4565b9050919050565b60006020820190508181036000830152613b4881613524565b9050919050565b60006020820190508181036000830152613b6881613564565b9050919050565b60006020820190508181036000830152613b88816135a4565b9050919050565b60006020820190508181036000830152613ba88161360a565b9050919050565b60006020820190508181036000830152613bc88161364a565b9050919050565b6000602082019050613be46000830184613799565b92915050565b6000608082019050613bff6000830187613799565b613c0c6020830186612f69565b8181036040830152613c1e8185613062565b90508181036060830152613c3281846136b0565b905095945050505050565b6000604051905081810181811067ffffffffffffffff82111715613c6457613c63614086565b5b8060405250919050565b600067ffffffffffffffff821115613c8957613c88614086565b5b601f19601f8301169050602081019050919050565b60008190508160005260206000209050919050565b600081519050919050565b600081519050919050565b600082825260208201905092915050565b600082825260208201905092915050565b600082825260208201905092915050565b600081905092915050565b6000613d1282613e6c565b9150613d1d83613e6c565b9250827fffffffffffffffffffffffffffffffffffffffffffffffffffffffffffffffff03821115613d5257613d51613ff9565b5b828201905092915050565b6000613d6882613e6c565b9150613d7383613e6c565b925082613d8357613d82614028565b5b828204905092915050565b6000613d9982613e6c565b9150613da483613e6c565b9250817fffffffffffffffffffffffffffffffffffffffffffffffffffffffffffffffff0483118215151615613ddd57613ddc613ff9565b5b828202905092915050565b6000613df382613e6c565b9150613dfe83613e6c565b925082821015613e1157613e10613ff9565b5b828203905092915050565b6000613e2782613e4c565b9050919050565b6000613e3982613e4c565b9050919050565b60008115159050919050565b600073ffffffffffffffffffffffffffffffffffffffff82169050919050565b6000819050919050565b6000613e8182613f18565b9050919050565b6000613e9382613e9a565b9050919050565b6000613ea582613e4c565b9050919050565b6000613eb782613ebe565b9050919050565b6000613ec982613e4c565b9050919050565b6000613edb82613ee2565b9050919050565b6000613eed82613e4c565b9050919050565b6000613eff82613f06565b9050919050565b6000613f1182613e4c565b9050919050565b6000613f2382613f2a565b9050919050565b6000613f3582613e4c565b9050919050565b82818337600083830152505050565b60005b83811015613f69578082015181840152602081019050613f4e565b83811115613f78576000848401525b50505050565b60006002820490506001821680613f9657607f821691505b60208210811415613faa57613fa9614057565b5b50919050565b6000613fbb82613e6c565b91507fffffffffffffffffffffffffffffffffffffffffffffffffffffffffffffffff821415613fee57613fed613ff9565b5b600182019050919050565b7f4e487b7100000000000000000000000000000000000000000000000000000000600052601160045260246000fd5b7f4e487b7100000000000000000000000000000000000000000000000000000000600052601260045260246000fd5b7f4e487b7100000000000000000000000000000000000000000000000000000000600052602260045260246000fd5b7f4e487b7100000000000000000000000000000000000000000000000000000000600052604160045260246000fd5b6000601f19601f8301169050919050565b6140cf81613e1c565b81146140da57600080fd5b50565b6140e681613e40565b81146140f157600080fd5b50565b6140fd81613e6c565b811461410857600080fd5b5056fea2646970667358221220d3ac4108302628926ca74b84eb4a6e37d9240711502d66a25396b26ded94fc9864736f6c63430008000033",
  "immutableReferences": {},
  "source": "//SPDX-License-Identifier: Unlicense\r\npragma solidity ^0.8.0;\r\n\r\nimport \"@openzeppelin/contracts/utils/math/SafeMath.sol\";\r\nimport \"@openzeppelin/contracts/security/Pausable.sol\";\r\nimport \"@openzeppelin/contracts/security/ReentrancyGuard.sol\";\r\nimport \"@openzeppelin/contracts/access/Ownable.sol\";\r\nimport \"@openzeppelin/contracts/utils/Counters.sol\";\r\nimport '@openzeppelin/contracts/token/ERC20/IERC20.sol';\r\nimport \"@chainlink/contracts/src/v0.8/interfaces/KeeperCompatibleInterface.sol\";\r\nimport './CTokenInterface.sol';\r\nimport './ComptrollerInterface.sol';\r\nimport './PriceOracleInterface.sol';\r\nimport \"./XendFinanceInterface.sol\";\r\n\r\n\r\n// approve the user's underlying asset to be able to use the chainklink keepers\r\n\r\ncontract PensionServiceProvider is KeeperCompatibleInterface {\r\n    using SafeMath for uint;\r\n    using Counters for Counters.Counter;\r\n\r\n    // variables\r\n    ComptrollerInterface public comptroller;\r\n\tPriceOracleInterface public priceOracle;\r\n    Counters.Counter private id;\r\n\r\n    uint accXendTokens;\r\n    uint256 ccInterest;\r\n    XendFinanceInterface public xendFinance;\r\n    IERC20 public xend;\r\n\r\n    uint public lastTimeStamp;\r\n    uint public upKeepInterval;\r\n\r\n\r\n\r\n    \r\n\r\n\r\n\r\n    struct Client {\r\n        address underlyingAsset;\r\n        uint256 depositedAmount;\r\n        uint256 amountToSpend;\r\n        uint256 approvedAmountToSpend;\r\n        uint256 startTime;\r\n        uint256 timeDurationOfdeposit;\r\n        uint256 lockTime;\r\n        string ipfsHashOfUserPensionDetails;\r\n        uint256 userLastRewardBlock;\r\n        bool hasPlan;\r\n    }\r\n\r\n\r\n    // A user Object\r\n    struct User {\r\n        uint256 id;\r\n        address payable userAddress;\r\n        string  userDetails;\r\n        Client client;\r\n\r\n    }\r\n\r\n\r\n\r\n    \r\n\r\n    \r\n\r\n\r\n    event Register(address indexed applicant, string indexed applicantDetails);\r\n    event Withdraw(address from, address to, uint amount);\r\n    event Deposit(address indexed sender, address receiver, uint indexed amountSpent);\r\n    event Upkeep(address sender, bool upkeep);\r\n    event Plan(address user, string planDetails, uint lockTime);\r\n    event Update(uint256 timeDuration);\r\n    event Transfer(address indexed sender, uint amount, address indexed receiver);\r\n\r\n    mapping(address => User) public pensionServiceApplicant;\r\n\r\n    // keep track of registered users\r\n    mapping(address => bool) public isRegistered;\r\n\r\n    User[] public users;\r\n\r\n\r\n    constructor(address _xend, address _xendFinanceIndividual_Yearn_V1,  address _comptroller, address _priceOracle, uint _upKeepInterval)  {\r\n        xend = IERC20(_xend);\r\n        comptroller = ComptrollerInterface(_comptroller);\r\n\t\tpriceOracle = PriceOracleInterface(_priceOracle);\r\n        xendFinance = XendFinanceInterface(_xendFinanceIndividual_Yearn_V1);\r\n        ccInterest = uint256(3 ether).div(10); // .3% \r\n        lastTimeStamp = block.timestamp;\r\n        upKeepInterval = _upKeepInterval;\r\n\r\n        id.increment();\r\n        \r\n    }\r\n\r\n    function register(\r\n        string memory _userDetails\r\n        ) \r\n        public  {\r\n        require(!isRegistered[msg.sender], \"Caller address already exists\");\r\n\r\n        Client memory client = Client({\r\n            underlyingAsset: address(0),\r\n            depositedAmount: 0,\r\n            amountToSpend: 0,\r\n            approvedAmountToSpend: 0,\r\n            startTime: block.timestamp,\r\n            timeDurationOfdeposit: 0,\r\n            lockTime: 0,\r\n            ipfsHashOfUserPensionDetails: \"\",\r\n            userLastRewardBlock: block.number,\r\n            hasPlan: false\r\n        });\r\n\r\n        User memory user = User({\r\n            id: id.current(),\r\n            userAddress: payable(msg.sender),\r\n            userDetails: _userDetails,\r\n            client: client\r\n        });\r\n\r\n       \r\n\r\n        pensionServiceApplicant[msg.sender] = user;\r\n        users.push(user);\r\n        isRegistered[msg.sender] = true;\r\n\r\n        id.increment();\r\n\r\n        emit Register(msg.sender, user.userDetails);\r\n    }\r\n\r\n\r\n\r\n    function _deposit(address _asset ,uint256 _amount) internal  {\r\n        // require(isRegistered[msg.sender], \"Caller is not Registered\");\r\n        // User storage user = pensionServiceApplicant[msg.sender];\r\n        CTokenInterface cToken = CTokenInterface(_asset);\r\n\t\taddress underlyingAsset = cToken.underlying();\r\n        // IERC20(underlyingAsset).transferFrom(msg.sender, address(this), _amount);\r\n        // emit Transfer(user.userAddress, address(this));\r\n        // address cTokenaddress = user.client.underlyingAsset;\r\n        _supply(_asset, _amount);\r\n        // user.client.depositedAmount = user.client.depositedAmount.add(_amount);\r\n        emit Deposit(address(this), _asset, _amount);\r\n\r\n    }\r\n\r\n\r\n\r\n//     function _enterMarket(address _cTokenaddress) internal {\r\n// \t\taddress[] memory markets = new address[](1);\r\n// \t\tmarkets[0] = _cTokenaddress;\r\n// \t\tuint[] memory results = comptroller.enterMarkets(markets);\r\n// \t\trequire( results[0] == 0, 'comptroller#enterMarkets() failed. see Compound ErrorReporter.sol');\r\n// \t}\r\n\r\n\r\n\r\n\r\n\r\n\r\n    function _supply(address cTokenaddress, uint underlyingAmount) internal {\r\n        require(underlyingAmount > 0, \"Amount Cannot be 0\");\r\n        // _enterMarket(cTokenaddress);\r\n\t\tCTokenInterface cToken = CTokenInterface(cTokenaddress);\r\n\t\taddress underlyingAddress = cToken.underlying();\r\n\t\tIERC20(underlyingAddress).approve(cTokenaddress, underlyingAmount);\r\n\r\n\t\tuint result = cToken.mint(underlyingAmount);\r\n\t\trequire(result == 0, 'cToken#mint() failed. see Compound ErrorReporter.sol');\r\n\t}\r\n\r\n\r\n//     // chainlink keeper function call\r\n    function checkUpkeep(bytes calldata /* checkData */) external view override returns(bool, bytes memory)   {\r\n        \r\n        return (block.timestamp.sub(lastTimeStamp) > upKeepInterval, bytes(\"\"));\r\n        // (block.timestamp.sub(lastTimeStamp) > upKeepInterval);\r\n        \r\n    }\r\n\r\n\r\n\r\n\r\n    function performUpkeep(bytes calldata performData ) external override  {\r\n        // User[] storage users = abi.decode(performData, (User[]));\r\n        for(uint256 i = 0; i < users.length - 1; i++ ) {\r\n            User storage  user = pensionServiceApplicant[users[i].userAddress];\r\n            // if(block.timestamp> 0) {\r\n                require(isRegistered[user.userAddress], \"Address not registered\");\r\n                require(user.client.approvedAmountToSpend > 0, \"Insufficient balance cannot perform upkeep\");\r\n                require(user.client.hasPlan, \"Client has no plan\");\r\n                 CTokenInterface cToken = CTokenInterface(user.client.underlyingAsset);\r\n\r\n                uint amountToDeposit = user.client.amountToSpend;\r\n                address underlyingAsset = cToken.underlying();\r\n                IERC20(underlyingAsset).transferFrom(user.userAddress, address(this),  amountToDeposit);\r\n                uint balance = IERC20(underlyingAsset).balanceOf(address(this));\r\n                require(balance == amountToDeposit, \"Transfer failed\");\r\n                _deposit(user.client.underlyingAsset, balance);\r\n                // address cLink = 0xFAce851a4921ce59e912d19329929CE6da6EB0c7;\r\n                emit Transfer(user.userAddress, user.client.depositedAmount, address(this));\r\n                // _supply(user.client.underlyingAsset, user.client.amountToSpend);\r\n                user.client.depositedAmount = user.client.depositedAmount.add(amountToDeposit);\r\n                user.client.approvedAmountToSpend = user.client.approvedAmountToSpend.sub(user.client.amountToSpend);\r\n                user.client.startTime = block.timestamp;\r\n                user.client.userLastRewardBlock = user.client.userLastRewardBlock.add(block.number);\r\n                ccInterest = ccInterest.mul(block.number).div(1e8);\r\n                lastTimeStamp = block.timestamp;\r\n\r\n                emit Deposit(user.userAddress, address(this), user.client.depositedAmount);\r\n            // }\r\n        }\r\n    }\r\n\r\n\r\n\r\n    function withdraw() public {\r\n        require(isRegistered[msg.sender], \"Caller not registered\");\r\n\r\n        // Point to the User in Storage\r\n        User storage user = pensionServiceApplicant[msg.sender];\r\n        // require(user.client.depositedAmount > 0, \"Insufficient Balance\");\r\n        // require(user.client.hasPlan, \"Caller has no plan\");\r\n\r\n        if(block.timestamp < user.client.lockTime) {\r\n            // require(user.client.depositedAmount > 0, \"insufficient balance\");\r\n            CTokenInterface cToken = CTokenInterface(user.client.underlyingAsset);\r\n            address underlyingAsset = cToken.underlying();\r\n            _redeem(user.client.underlyingAsset, user.client.depositedAmount);\r\n            uint balance = IERC20(underlyingAsset).balanceOf(address(this));\r\n            require(balance == user.client.depositedAmount, 'Balance too low');\r\n            // isRegistered[msg.sender] = false;\r\n            uint amountToSend = user.client.depositedAmount.div(2);\r\n            IERC20(underlyingAsset).transfer(user.userAddress, amountToSend);\r\n            user.client.depositedAmount = 0;\r\n            user.client.userLastRewardBlock = block.number;\r\n            ccInterest = ccInterest.add(block.number).div(1e8);\r\n            emit Withdraw(address(this), msg.sender, amountToSend);\r\n        } else {\r\n            CTokenInterface cToken = CTokenInterface(user.client.underlyingAsset);\r\n            address underlyingAsset = cToken.underlying();\r\n            _redeem(user.client.underlyingAsset, user.client.depositedAmount);\r\n            uint balance = IERC20(underlyingAsset).balanceOf(address(this));\r\n            require(balance == user.client.depositedAmount, 'Balance too low');\r\n            // isRegistered[msg.sender] = false;\r\n            uint amountToSend = user.client.depositedAmount;\r\n            IERC20(underlyingAsset).transfer(user.userAddress, amountToSend);\r\n            user.client.depositedAmount = 0;\r\n            user.client.userLastRewardBlock = block.number;\r\n\r\n            emit Withdraw(address(this), msg.sender, amountToSend);\r\n        }\r\n\r\n//         // require(block.timestamp > user.lockTime, \"Early withdrawal will cost you 50% of your initial deposit\");\r\n\r\n\r\n}\r\n\r\n\r\n    function _redeem(address cTokenaddress, uint tokenAmount) internal {\r\n        require(tokenAmount > 0, 'Account cannot be 0');\r\n\t\tCTokenInterface cToken = CTokenInterface(cTokenaddress);\r\n\t\tuint result = cToken.redeemUnderlying(tokenAmount);\r\n\t\trequire(result == 0, 'cToken#redeem() failed. see Compound ErrorReporter.sol');\r\n\t}\r\n\r\n    // helper function for testing keepers\r\n    function updateTimeDurationOfDeposit() public  {\r\n        User storage user = pensionServiceApplicant[msg.sender];\r\n        require(isRegistered[user.userAddress], \"Caller is not registered\");\r\n        user.client.timeDurationOfdeposit = 0;\r\n        emit Update(user.client.timeDurationOfdeposit);\r\n    } \r\n\r\n    function setPlan(\r\n        address _underlyingAsset, \r\n        string memory _ipfsHashOfUserPensionDetails, \r\n        uint _approvedAmountToSpend, uint _amountToSpend, \r\n        uint _timeDurationOfDeposit, uint _lockTime) \r\n        public {\r\n        require(_approvedAmountToSpend > _amountToSpend, \"Set an amount greater than the recurring amount\");\r\n        require(_amountToSpend > 0, \"approve an amount greater than 0\");\r\n        require(isRegistered[msg.sender], \"Caller has to be Registered\");\r\n        User storage user = pensionServiceApplicant[msg.sender];\r\n        require(user.client.lockTime == 0, \"Caller already has a lock Time Set\");\r\n        user.client.underlyingAsset = _underlyingAsset;\r\n        user.client.lockTime = block.timestamp + _lockTime;\r\n        user.client.timeDurationOfdeposit = block.timestamp.add(_timeDurationOfDeposit);\r\n        user.client.ipfsHashOfUserPensionDetails = _ipfsHashOfUserPensionDetails;\r\n        user.client.approvedAmountToSpend = _approvedAmountToSpend;\r\n        user.client.amountToSpend = _amountToSpend;\r\n        user.client.hasPlan = true;\r\n\r\n        emit Plan(msg.sender, user.client.ipfsHashOfUserPensionDetails, user.client.lockTime);\r\n    }\r\n\r\n\r\n\r\n//     // for Xend\r\n\r\n    function getXendPendingRewards(address _user) public view returns(uint) {\r\n        User storage user = pensionServiceApplicant[_user];\r\n        uint256 accXendRewards = xendFinance.GetMemberXendTokenReward(address(this));\r\n        uint256 userPendingRewards = user.client.depositedAmount.mul(accXendRewards).div(1e8);\r\n\r\n        return userPendingRewards;\r\n    }\r\n\r\n\r\n\r\n    function depositToXendFinance(uint _amount) public  {\r\n        // require(isRegistered[msg.sender], \"Caller not Registered\");\r\n        User storage user = pensionServiceApplicant[msg.sender];\r\n        xendFinance.deposit();\r\n        user.client.depositedAmount = user.client.depositedAmount.add(_amount);\r\n\r\n        emit Deposit(msg.sender, address(xend), user.client.depositedAmount);\r\n        \r\n    }\r\n\r\n\r\n\r\n    function withdrawFromXendFinance() public {\r\n        require(isRegistered[msg.sender], \"Caller not Registered\");\r\n        User storage user = pensionServiceApplicant[msg.sender];\r\n        xendFinance.withdraw(user.client.depositedAmount);\r\n        uint256 xendBalance = xend.balanceOf(address(this));\r\n        require(xendBalance > user.client.depositedAmount, \"Withdrawing more than you deposited\");\r\n        accXendTokens = xendBalance;\r\n        uint256 accXendTokensforUser = user.client.depositedAmount.mul(accXendTokens).div(1e8);\r\n        xend.transfer(msg.sender, accXendTokensforUser);\r\n\r\n    }\r\n\r\n    function getAccruedInterest() public view returns(uint) {\r\n        User storage user = pensionServiceApplicant[msg.sender];\r\n        require(isRegistered[user.userAddress], \"Caller not registered\");\r\n        CTokenInterface ctoken = CTokenInterface(user.client.underlyingAsset);\r\n        uint supplyRatePerBlock = ctoken.supplyRatePerBlock();\r\n        uint accInterest = user.client.depositedAmount.mul(supplyRatePerBlock).div(ccInterest).div(1e8);\r\n        return accInterest;\r\n    }\r\n}",
  "sourcePath": "/mnt/c/Users/chuks/Desktop/Project/beima_project/beima_core/contracts/PensionServiceProvider.sol",
  "compiler": {
    "name": "solc",
    "version": "0.8.0+commit.c7dfd78e.Emscripten.clang"
  },
  "schemaVersion": "3.4.3",
  "updatedAt": "2021-12-02T23:03:05.080Z",
  "devdoc": {
    "kind": "dev",
    "methods": {
      "performUpkeep(bytes)": {
        "params": {
          "performData": "is the data which was passed back from the checkData simulation."
        }
      }
    },
    "version": 1
  },
  "userdoc": {
    "kind": "user",
    "methods": {
      "performUpkeep(bytes)": {
        "notice": "Performs work on the contract. Executed by the keepers, via the registry."
      }
    },
    "version": 1
  }
}