{
  "contractName": "PensionServiceProvider",
  "abi": [
    {
      "inputs": [
        {
          "internalType": "address",
          "name": "_xend",
          "type": "address"
        },
        {
          "internalType": "address",
          "name": "_xendFinanceIndividual_Yearn_V1",
          "type": "address"
        },
        {
          "internalType": "address",
          "name": "_comptroller",
          "type": "address"
        },
        {
          "internalType": "address",
          "name": "_priceOracle",
          "type": "address"
        },
        {
          "internalType": "uint256",
          "name": "_upKeepInterval",
          "type": "uint256"
        }
      ],
      "stateMutability": "nonpayable",
      "type": "constructor"
    },
    {
      "anonymous": false,
      "inputs": [
        {
          "indexed": true,
          "internalType": "address",
          "name": "sender",
          "type": "address"
        },
        {
          "indexed": false,
          "internalType": "address",
          "name": "receiver",
          "type": "address"
        },
        {
          "indexed": true,
          "internalType": "uint256",
          "name": "amountSpent",
          "type": "uint256"
        }
      ],
      "name": "Deposit",
      "type": "event"
    },
    {
      "anonymous": false,
      "inputs": [
        {
          "indexed": false,
          "internalType": "string",
          "name": "",
          "type": "string"
        },
        {
          "indexed": false,
          "internalType": "uint256",
          "name": "",
          "type": "uint256"
        }
      ],
      "name": "MyLog",
      "type": "event"
    },
    {
      "anonymous": false,
      "inputs": [
        {
          "indexed": false,
          "internalType": "address",
          "name": "user",
          "type": "address"
        },
        {
          "indexed": false,
          "internalType": "string",
          "name": "planDetails",
          "type": "string"
        },
        {
          "indexed": false,
          "internalType": "uint256",
          "name": "lockTime",
          "type": "uint256"
        }
      ],
      "name": "Plan",
      "type": "event"
    },
    {
      "anonymous": false,
      "inputs": [
        {
          "indexed": true,
          "internalType": "address",
          "name": "applicant",
          "type": "address"
        },
        {
          "indexed": true,
          "internalType": "string",
          "name": "applicantDetails",
          "type": "string"
        }
      ],
      "name": "Register",
      "type": "event"
    },
    {
      "anonymous": false,
      "inputs": [
        {
          "indexed": true,
          "internalType": "address",
          "name": "sender",
          "type": "address"
        },
        {
          "indexed": false,
          "internalType": "uint256",
          "name": "amount",
          "type": "uint256"
        },
        {
          "indexed": true,
          "internalType": "address",
          "name": "receiver",
          "type": "address"
        }
      ],
      "name": "Transfer",
      "type": "event"
    },
    {
      "anonymous": false,
      "inputs": [
        {
          "indexed": false,
          "internalType": "uint256",
          "name": "timeDuration",
          "type": "uint256"
        }
      ],
      "name": "Update",
      "type": "event"
    },
    {
      "anonymous": false,
      "inputs": [
        {
          "indexed": false,
          "internalType": "address",
          "name": "sender",
          "type": "address"
        },
        {
          "indexed": false,
          "internalType": "bool",
          "name": "upkeep",
          "type": "bool"
        }
      ],
      "name": "Upkeep",
      "type": "event"
    },
    {
      "anonymous": false,
      "inputs": [
        {
          "indexed": false,
          "internalType": "address",
          "name": "from",
          "type": "address"
        },
        {
          "indexed": false,
          "internalType": "address",
          "name": "to",
          "type": "address"
        },
        {
          "indexed": false,
          "internalType": "uint256",
          "name": "amount",
          "type": "uint256"
        }
      ],
      "name": "Withdraw",
      "type": "event"
    },
    {
      "inputs": [],
      "name": "comptroller",
      "outputs": [
        {
          "internalType": "contract ComptrollerInterface",
          "name": "",
          "type": "address"
        }
      ],
      "stateMutability": "view",
      "type": "function",
      "constant": true
    },
    {
      "inputs": [
        {
          "internalType": "address",
          "name": "",
          "type": "address"
        }
      ],
      "name": "isRegistered",
      "outputs": [
        {
          "internalType": "bool",
          "name": "",
          "type": "bool"
        }
      ],
      "stateMutability": "view",
      "type": "function",
      "constant": true
    },
    {
      "inputs": [],
      "name": "lastTimeStamp",
      "outputs": [
        {
          "internalType": "uint256",
          "name": "",
          "type": "uint256"
        }
      ],
      "stateMutability": "view",
      "type": "function",
      "constant": true
    },
    {
      "inputs": [
        {
          "internalType": "address",
          "name": "",
          "type": "address"
        }
      ],
      "name": "pensionServiceApplicant",
      "outputs": [
        {
          "internalType": "uint256",
          "name": "id",
          "type": "uint256"
        },
        {
          "internalType": "address payable",
          "name": "userAddress",
          "type": "address"
        },
        {
          "internalType": "string",
          "name": "userDetails",
          "type": "string"
        },
        {
          "components": [
            {
              "internalType": "address",
              "name": "underlyingAsset",
              "type": "address"
            },
            {
              "internalType": "uint256",
              "name": "depositedAmount",
              "type": "uint256"
            },
            {
              "internalType": "uint256",
              "name": "amountToSpend",
              "type": "uint256"
            },
            {
              "internalType": "uint256",
              "name": "approvedAmountToSpend",
              "type": "uint256"
            },
            {
              "internalType": "uint256",
              "name": "startTime",
              "type": "uint256"
            },
            {
              "internalType": "uint256",
              "name": "timeDurationOfdeposit",
              "type": "uint256"
            },
            {
              "internalType": "uint256",
              "name": "lockTime",
              "type": "uint256"
            },
            {
              "internalType": "string",
              "name": "ipfsHashOfUserPensionDetails",
              "type": "string"
            },
            {
              "internalType": "uint256",
              "name": "userLastRewardBlock",
              "type": "uint256"
            },
            {
              "internalType": "bool",
              "name": "hasPlan",
              "type": "bool"
            }
          ],
          "internalType": "struct PensionServiceProvider.Client",
          "name": "client",
          "type": "tuple"
        }
      ],
      "stateMutability": "view",
      "type": "function",
      "constant": true
    },
    {
      "inputs": [],
      "name": "priceOracle",
      "outputs": [
        {
          "internalType": "contract PriceOracleInterface",
          "name": "",
          "type": "address"
        }
      ],
      "stateMutability": "view",
      "type": "function",
      "constant": true
    },
    {
      "inputs": [],
      "name": "upKeepInterval",
      "outputs": [
        {
          "internalType": "uint256",
          "name": "",
          "type": "uint256"
        }
      ],
      "stateMutability": "view",
      "type": "function",
      "constant": true
    },
    {
      "inputs": [
        {
          "internalType": "uint256",
          "name": "",
          "type": "uint256"
        }
      ],
      "name": "users",
      "outputs": [
        {
          "internalType": "uint256",
          "name": "id",
          "type": "uint256"
        },
        {
          "internalType": "address payable",
          "name": "userAddress",
          "type": "address"
        },
        {
          "internalType": "string",
          "name": "userDetails",
          "type": "string"
        },
        {
          "components": [
            {
              "internalType": "address",
              "name": "underlyingAsset",
              "type": "address"
            },
            {
              "internalType": "uint256",
              "name": "depositedAmount",
              "type": "uint256"
            },
            {
              "internalType": "uint256",
              "name": "amountToSpend",
              "type": "uint256"
            },
            {
              "internalType": "uint256",
              "name": "approvedAmountToSpend",
              "type": "uint256"
            },
            {
              "internalType": "uint256",
              "name": "startTime",
              "type": "uint256"
            },
            {
              "internalType": "uint256",
              "name": "timeDurationOfdeposit",
              "type": "uint256"
            },
            {
              "internalType": "uint256",
              "name": "lockTime",
              "type": "uint256"
            },
            {
              "internalType": "string",
              "name": "ipfsHashOfUserPensionDetails",
              "type": "string"
            },
            {
              "internalType": "uint256",
              "name": "userLastRewardBlock",
              "type": "uint256"
            },
            {
              "internalType": "bool",
              "name": "hasPlan",
              "type": "bool"
            }
          ],
          "internalType": "struct PensionServiceProvider.Client",
          "name": "client",
          "type": "tuple"
        }
      ],
      "stateMutability": "view",
      "type": "function",
      "constant": true
    },
    {
      "inputs": [],
      "name": "xend",
      "outputs": [
        {
          "internalType": "contract IERC20",
          "name": "",
          "type": "address"
        }
      ],
      "stateMutability": "view",
      "type": "function",
      "constant": true
    },
    {
      "inputs": [],
      "name": "xendFinance",
      "outputs": [
        {
          "internalType": "contract XendFinanceInterface",
          "name": "",
          "type": "address"
        }
      ],
      "stateMutability": "view",
      "type": "function",
      "constant": true
    },
    {
      "stateMutability": "payable",
      "type": "receive",
      "payable": true
    },
    {
      "inputs": [
        {
          "internalType": "string",
          "name": "_userDetails",
          "type": "string"
        }
      ],
      "name": "register",
      "outputs": [],
      "stateMutability": "nonpayable",
      "type": "function"
    },
    {
      "inputs": [
        {
          "internalType": "address",
          "name": "_asset",
          "type": "address"
        },
        {
          "internalType": "uint256",
          "name": "_amount",
          "type": "uint256"
        }
      ],
      "name": "deposit",
      "outputs": [],
      "stateMutability": "payable",
      "type": "function",
      "payable": true
    },
    {
      "inputs": [],
      "name": "withdraw",
      "outputs": [],
      "stateMutability": "nonpayable",
      "type": "function"
    },
    {
      "inputs": [
        {
          "internalType": "uint256",
          "name": "amount",
          "type": "uint256"
        },
        {
          "internalType": "bool",
          "name": "redeemType",
          "type": "bool"
        },
        {
          "internalType": "address",
          "name": "_cErc20Contract",
          "type": "address"
        }
      ],
      "name": "redeemCErc20Tokens",
      "outputs": [
        {
          "internalType": "bool",
          "name": "",
          "type": "bool"
        }
      ],
      "stateMutability": "nonpayable",
      "type": "function"
    },
    {
      "inputs": [],
      "name": "updateTimeDurationOfDeposit",
      "outputs": [],
      "stateMutability": "nonpayable",
      "type": "function"
    },
    {
      "inputs": [
        {
          "internalType": "address",
          "name": "_underlyingAsset",
          "type": "address"
        },
        {
          "internalType": "string",
          "name": "_ipfsHashOfUserPensionDetails",
          "type": "string"
        },
        {
          "internalType": "uint256",
          "name": "_approvedAmountToSpend",
          "type": "uint256"
        },
        {
          "internalType": "uint256",
          "name": "_amountToSpend",
          "type": "uint256"
        },
        {
          "internalType": "uint256",
          "name": "_timeDurationOfDeposit",
          "type": "uint256"
        },
        {
          "internalType": "uint256",
          "name": "_lockTime",
          "type": "uint256"
        }
      ],
      "name": "setPlan",
      "outputs": [],
      "stateMutability": "nonpayable",
      "type": "function"
    },
    {
      "inputs": [
        {
          "internalType": "address",
          "name": "_user",
          "type": "address"
        }
      ],
      "name": "getXendPendingRewards",
      "outputs": [
        {
          "internalType": "uint256",
          "name": "",
          "type": "uint256"
        }
      ],
      "stateMutability": "view",
      "type": "function",
      "constant": true
    },
    {
      "inputs": [
        {
          "internalType": "uint256",
          "name": "_amount",
          "type": "uint256"
        }
      ],
      "name": "depositToXendFinance",
      "outputs": [],
      "stateMutability": "nonpayable",
      "type": "function"
    },
    {
      "inputs": [],
      "name": "withdrawFromXendFinance",
      "outputs": [],
      "stateMutability": "nonpayable",
      "type": "function"
    },
    {
      "inputs": [],
      "name": "getAccruedInterest",
      "outputs": [
        {
          "internalType": "uint256",
          "name": "",
          "type": "uint256"
        }
      ],
      "stateMutability": "view",
      "type": "function",
      "constant": true
    }
  ],
  "bytecode": "0x60806040523480156200001157600080fd5b506040516200468a3803806200468a8339818101604052810190620000379190620001ef565b84600760006101000a81548173ffffffffffffffffffffffffffffffffffffffff021916908373ffffffffffffffffffffffffffffffffffffffff160217905550826000806101000a81548173ffffffffffffffffffffffffffffffffffffffff021916908373ffffffffffffffffffffffffffffffffffffffff16021790555081600160006101000a81548173ffffffffffffffffffffffffffffffffffffffff021916908373ffffffffffffffffffffffffffffffffffffffff16021790555083600660006101000a81548173ffffffffffffffffffffffffffffffffffffffff021916908373ffffffffffffffffffffffffffffffffffffffff1602179055506200015d600a6729a2241af62c00006200019360201b62002dde1790919060201c565b6005819055504260088190555080600981905550620001886002620001ab60201b62002df41760201c565b50505050506200034a565b60008183620001a3919062000271565b905092915050565b6001816000016000828254019250508190555050565b600081519050620001d28162000316565b92915050565b600081519050620001e98162000330565b92915050565b600080600080600060a086880312156200020857600080fd5b60006200021888828901620001c1565b95505060206200022b88828901620001c1565b94505060406200023e88828901620001c1565b93505060606200025188828901620001c1565b92505060806200026488828901620001d8565b9150509295509295909350565b60006200027e82620002dd565b91506200028b83620002dd565b9250826200029e576200029d620002e7565b5b828204905092915050565b6000620002b682620002bd565b9050919050565b600073ffffffffffffffffffffffffffffffffffffffff82169050919050565b6000819050919050565b7f4e487b7100000000000000000000000000000000000000000000000000000000600052601260045260246000fd5b6200032181620002a9565b81146200032d57600080fd5b50565b6200033b81620002dd565b81146200034757600080fd5b50565b614330806200035a6000396000f3fe6080604052600436106101185760003560e01c806359098330116100a0578063c742ee0511610064578063c742ee0514610374578063d0ace48e146103b1578063de15f0da146103ee578063f2c298be14610417578063f5dd60651461044057610126565b8063590983301461028c5780635bc9d2bf146102a35780635daa4bfa146102e35780635fe3b5671461030c578063c3c5a5471461033757610126565b80633ccfd60b116100e75780633ccfd60b146101ec5780633f3b3b271461020357806347e7ef241461022e578063564afa3a1461024a57806356dc5d8e1461027557610126565b80631a15687b1461012b5780632630c12f146101565780633245f22814610181578063365b98b2146101ac57610126565b366101265734600381905550005b600080fd5b34801561013757600080fd5b5061014061046b565b60405161014d9190613e59565b60405180910390f35b34801561016257600080fd5b5061016b610471565b6040516101789190613c55565b60405180910390f35b34801561018d57600080fd5b50610196610497565b6040516101a39190613c3a565b60405180910390f35b3480156101b857600080fd5b506101d360048036038101906101ce91906133b3565b6104bd565b6040516101e39493929190613e74565b60405180910390f35b3480156101f857600080fd5b506102016106f9565b005b34801561020f57600080fd5b5061021861099b565b6040516102259190613e59565b60405180910390f35b6102486004803603810190610243919061330d565b6109a1565b005b34801561025657600080fd5b5061025f610d8a565b60405161026c9190613e59565b60405180910390f35b34801561028157600080fd5b5061028a61119b565b005b34801561029857600080fd5b506102a161151a565b005b3480156102af57600080fd5b506102ca60048036038101906102c5919061321a565b611ac5565b6040516102da9493929190613e74565b60405180910390f35b3480156102ef57600080fd5b5061030a600480360381019061030591906133b3565b611cf1565b005b34801561031857600080fd5b506103216120b6565b60405161032e9190613c1f565b60405180910390f35b34801561034357600080fd5b5061035e6004803603810190610359919061321a565b6120da565b60405161036b9190613c04565b60405180910390f35b34801561038057600080fd5b5061039b6004803603810190610396919061321a565b6120fa565b6040516103a89190613e59565b60405180910390f35b3480156103bd57600080fd5b506103d860048036038101906103d39190613405565b612488565b6040516103e59190613c04565b60405180910390f35b3480156103fa57600080fd5b506104156004803603810190610410919061326c565b612601565b005b34801561042357600080fd5b5061043e60048036038101906104399190613372565b6128b4565b005b34801561044c57600080fd5b50610455612db8565b6040516104629190613c70565b60405180910390f35b60095481565b600160009054906101000a900473ffffffffffffffffffffffffffffffffffffffff1681565b600760009054906101000a900473ffffffffffffffffffffffffffffffffffffffff1681565b600c81815481106104cd57600080fd5b90600052602060002090600d02016000915090508060000154908060010160009054906101000a900473ffffffffffffffffffffffffffffffffffffffff169080600201805461051c906141b6565b80601f0160208091040260200160405190810160405280929190818152602001828054610548906141b6565b80156105955780601f1061056a57610100808354040283529160200191610595565b820191906000526020600020905b81548152906001019060200180831161057857829003601f168201915b50505050509080600301604051806101400160405290816000820160009054906101000a900473ffffffffffffffffffffffffffffffffffffffff1673ffffffffffffffffffffffffffffffffffffffff1673ffffffffffffffffffffffffffffffffffffffff16815260200160018201548152602001600282015481526020016003820154815260200160048201548152602001600582015481526020016006820154815260200160078201805461064d906141b6565b80601f0160208091040260200160405190810160405280929190818152602001828054610679906141b6565b80156106c65780601f1061069b576101008083540402835291602001916106c6565b820191906000526020600020905b8154815290600101906020018083116106a957829003601f168201915b50505050508152602001600882015481526020016009820160009054906101000a900460ff161515151581525050905084565b600b60003373ffffffffffffffffffffffffffffffffffffffff1673ffffffffffffffffffffffffffffffffffffffff16815260200190815260200160002060009054906101000a900460ff16610785576040517f08c379a000000000000000000000000000000000000000000000000000000000815260040161077c90613dd9565b60405180910390fd5b6000600a60003373ffffffffffffffffffffffffffffffffffffffff1673ffffffffffffffffffffffffffffffffffffffff168152602001908152602001600020905060008160030160010154905060008260030160000160009054906101000a900473ffffffffffffffffffffffffffffffffffffffff16905060008173ffffffffffffffffffffffffffffffffffffffff16636f307dc36040518163ffffffff1660e01b815260040160206040518083038186803b15801561084857600080fd5b505afa15801561085c573d6000803e3d6000fd5b505050506040513d601f19601f820116820180604052508101906108809190613243565b90508073ffffffffffffffffffffffffffffffffffffffff1663a9059cbb33856040518363ffffffff1660e01b81526004016108bd929190613bdb565b602060405180830381600087803b1580156108d757600080fd5b505af11580156108eb573d6000803e3d6000fd5b505050506040513d601f19601f8201168201806040525081019061090f9190613349565b50600084600301600101819055504384600301600801819055506109546305f5e10061094643600554612e0a90919063ffffffff16565b612dde90919063ffffffff16565b6005819055507f9b1bfa7fa9ee420a16e124f794c35ac9f90472acc99140eb2f6447c714cad8eb30338560405161098d93929190613b66565b60405180910390a150505050565b60085481565b600b60003373ffffffffffffffffffffffffffffffffffffffff1673ffffffffffffffffffffffffffffffffffffffff16815260200190815260200160002060009054906101000a900460ff16610a2d576040517f08c379a0000000000000000000000000000000000000000000000000000000008152600401610a2490613c8b565b60405180910390fd5b6000600a60003373ffffffffffffffffffffffffffffffffffffffff1673ffffffffffffffffffffffffffffffffffffffff1681526020019081526020016000209050600083905060008173ffffffffffffffffffffffffffffffffffffffff16636f307dc36040518163ffffffff1660e01b815260040160206040518083038186803b158015610abd57600080fd5b505afa158015610ad1573d6000803e3d6000fd5b505050506040513d601f19601f82011682018060405250810190610af59190613243565b90508073ffffffffffffffffffffffffffffffffffffffff166323b872dd3330876040518463ffffffff1660e01b8152600401610b3493929190613b66565b602060405180830381600087803b158015610b4e57600080fd5b505af1158015610b62573d6000803e3d6000fd5b505050506040513d601f19601f82011682018060405250810190610b869190613349565b5060008173ffffffffffffffffffffffffffffffffffffffff166370a08231306040518263ffffffff1660e01b8152600401610bc29190613b4b565b60206040518083038186803b158015610bda57600080fd5b505afa158015610bee573d6000803e3d6000fd5b505050506040513d601f19601f82011682018060405250810190610c1291906133dc565b905084811015610c57576040517f08c379a0000000000000000000000000000000000000000000000000000000008152600401610c4e90613cab565b60405180910390fd5b60008460030160000160009054906101000a900473ffffffffffffffffffffffffffffffffffffffff169050610c9d868660030160010154612e0a90919063ffffffff16565b8560030160010181905550610cc985600301600201548660030160030154612e2090919063ffffffff16565b8560030160030181905550428560030160040181905550610cfa438660030160080154612e0a90919063ffffffff16565b8560030160080181905550610d1a43600554612e3690919063ffffffff16565b60058190555042600881905550610d318787612e4c565b50853073ffffffffffffffffffffffffffffffffffffffff167f5548c837ab068cf56a2c2479df0882a4922fd203edb7517321831d95078c5f6285604051610d799190613b4b565b60405180910390a350505050505050565b600080600a60003373ffffffffffffffffffffffffffffffffffffffff1673ffffffffffffffffffffffffffffffffffffffff168152602001908152602001600020604051806080016040529081600082015481526020016001820160009054906101000a900473ffffffffffffffffffffffffffffffffffffffff1673ffffffffffffffffffffffffffffffffffffffff1673ffffffffffffffffffffffffffffffffffffffff168152602001600282018054610e47906141b6565b80601f0160208091040260200160405190810160405280929190818152602001828054610e73906141b6565b8015610ec05780601f10610e9557610100808354040283529160200191610ec0565b820191906000526020600020905b815481529060010190602001808311610ea357829003601f168201915b5050505050815260200160038201604051806101400160405290816000820160009054906101000a900473ffffffffffffffffffffffffffffffffffffffff1673ffffffffffffffffffffffffffffffffffffffff1673ffffffffffffffffffffffffffffffffffffffff168152602001600182015481526020016002820154815260200160038201548152602001600482015481526020016005820154815260200160068201548152602001600782018054610f7c906141b6565b80601f0160208091040260200160405190810160405280929190818152602001828054610fa8906141b6565b8015610ff55780601f10610fca57610100808354040283529160200191610ff5565b820191906000526020600020905b815481529060010190602001808311610fd857829003601f168201915b50505050508152602001600882015481526020016009820160009054906101000a900460ff161515151581525050815250509050600b6000826020015173ffffffffffffffffffffffffffffffffffffffff1673ffffffffffffffffffffffffffffffffffffffff16815260200190815260200160002060009054906101000a900460ff166110b9576040517f08c379a00000000000000000000000000000000000000000000000000000000081526004016110b090613dd9565b60405180910390fd5b6000816060015160000151905060008173ffffffffffffffffffffffffffffffffffffffff1663ae9d70b06040518163ffffffff1660e01b815260040160206040518083038186803b15801561110e57600080fd5b505afa158015611122573d6000803e3d6000fd5b505050506040513d601f19601f8201168201806040525081019061114691906133dc565b9050600061118f6305f5e10061118160055461117386896060015160200151612e3690919063ffffffff16565b612dde90919063ffffffff16565b612dde90919063ffffffff16565b90508094505050505090565b6000600a60003373ffffffffffffffffffffffffffffffffffffffff1673ffffffffffffffffffffffffffffffffffffffff168152602001908152602001600020604051806080016040529081600082015481526020016001820160009054906101000a900473ffffffffffffffffffffffffffffffffffffffff1673ffffffffffffffffffffffffffffffffffffffff1673ffffffffffffffffffffffffffffffffffffffff168152602001600282018054611257906141b6565b80601f0160208091040260200160405190810160405280929190818152602001828054611283906141b6565b80156112d05780601f106112a5576101008083540402835291602001916112d0565b820191906000526020600020905b8154815290600101906020018083116112b357829003601f168201915b5050505050815260200160038201604051806101400160405290816000820160009054906101000a900473ffffffffffffffffffffffffffffffffffffffff1673ffffffffffffffffffffffffffffffffffffffff1673ffffffffffffffffffffffffffffffffffffffff16815260200160018201548152602001600282015481526020016003820154815260200160048201548152602001600582015481526020016006820154815260200160078201805461138c906141b6565b80601f01602080910402602001604051908101604052809291908181526020018280546113b8906141b6565b80156114055780601f106113da57610100808354040283529160200191611405565b820191906000526020600020905b8154815290600101906020018083116113e857829003601f168201915b50505050508152602001600882015481526020016009820160009054906101000a900460ff161515151581525050815250509050600b6000826020015173ffffffffffffffffffffffffffffffffffffffff1673ffffffffffffffffffffffffffffffffffffffff16815260200190815260200160002060009054906101000a900460ff166114c9576040517f08c379a00000000000000000000000000000000000000000000000000000000081526004016114c090613ceb565b60405180910390fd5b6000816060015160a00181815250507f164f7b2ab803097dab5e39f06d2e4f3c3ddc5d4171abbdcc3e76443b8359c7f5816060015160a0015160405161150f9190613e59565b60405180910390a150565b600b60003373ffffffffffffffffffffffffffffffffffffffff1673ffffffffffffffffffffffffffffffffffffffff16815260200190815260200160002060009054906101000a900460ff166115a6576040517f08c379a000000000000000000000000000000000000000000000000000000000815260040161159d90613ccb565b60405180910390fd5b6000600a60003373ffffffffffffffffffffffffffffffffffffffff1673ffffffffffffffffffffffffffffffffffffffff168152602001908152602001600020604051806080016040529081600082015481526020016001820160009054906101000a900473ffffffffffffffffffffffffffffffffffffffff1673ffffffffffffffffffffffffffffffffffffffff1673ffffffffffffffffffffffffffffffffffffffff168152602001600282018054611662906141b6565b80601f016020809104026020016040519081016040528092919081815260200182805461168e906141b6565b80156116db5780601f106116b0576101008083540402835291602001916116db565b820191906000526020600020905b8154815290600101906020018083116116be57829003601f168201915b5050505050815260200160038201604051806101400160405290816000820160009054906101000a900473ffffffffffffffffffffffffffffffffffffffff1673ffffffffffffffffffffffffffffffffffffffff1673ffffffffffffffffffffffffffffffffffffffff168152602001600182015481526020016002820154815260200160038201548152602001600482015481526020016005820154815260200160068201548152602001600782018054611797906141b6565b80601f01602080910402602001604051908101604052809291908181526020018280546117c3906141b6565b80156118105780601f106117e557610100808354040283529160200191611810565b820191906000526020600020905b8154815290600101906020018083116117f357829003601f168201915b50505050508152602001600882015481526020016009820160009054906101000a900460ff161515151581525050815250509050600660009054906101000a900473ffffffffffffffffffffffffffffffffffffffff1673ffffffffffffffffffffffffffffffffffffffff16632e1a7d4d8260600151602001516040518263ffffffff1660e01b81526004016118a79190613e59565b600060405180830381600087803b1580156118c157600080fd5b505af11580156118d5573d6000803e3d6000fd5b505050506000600760009054906101000a900473ffffffffffffffffffffffffffffffffffffffff1673ffffffffffffffffffffffffffffffffffffffff166370a08231306040518263ffffffff1660e01b81526004016119369190613b4b565b60206040518083038186803b15801561194e57600080fd5b505afa158015611962573d6000803e3d6000fd5b505050506040513d601f19601f8201168201806040525081019061198691906133dc565b905081606001516020015181116119d2576040517f08c379a00000000000000000000000000000000000000000000000000000000081526004016119c990613db9565b60405180910390fd5b806004819055506000611a0e6305f5e100611a00600454866060015160200151612e3690919063ffffffff16565b612dde90919063ffffffff16565b9050600760009054906101000a900473ffffffffffffffffffffffffffffffffffffffff1673ffffffffffffffffffffffffffffffffffffffff1663a9059cbb33836040518363ffffffff1660e01b8152600401611a6d929190613bdb565b602060405180830381600087803b158015611a8757600080fd5b505af1158015611a9b573d6000803e3d6000fd5b505050506040513d601f19601f82011682018060405250810190611abf9190613349565b50505050565b600a6020528060005260406000206000915090508060000154908060010160009054906101000a900473ffffffffffffffffffffffffffffffffffffffff1690806002018054611b14906141b6565b80601f0160208091040260200160405190810160405280929190818152602001828054611b40906141b6565b8015611b8d5780601f10611b6257610100808354040283529160200191611b8d565b820191906000526020600020905b815481529060010190602001808311611b7057829003601f168201915b50505050509080600301604051806101400160405290816000820160009054906101000a900473ffffffffffffffffffffffffffffffffffffffff1673ffffffffffffffffffffffffffffffffffffffff1673ffffffffffffffffffffffffffffffffffffffff168152602001600182015481526020016002820154815260200160038201548152602001600482015481526020016005820154815260200160068201548152602001600782018054611c45906141b6565b80601f0160208091040260200160405190810160405280929190818152602001828054611c71906141b6565b8015611cbe5780601f10611c9357610100808354040283529160200191611cbe565b820191906000526020600020905b815481529060010190602001808311611ca157829003601f168201915b50505050508152602001600882015481526020016009820160009054906101000a900460ff161515151581525050905084565b6000600a60003373ffffffffffffffffffffffffffffffffffffffff1673ffffffffffffffffffffffffffffffffffffffff168152602001908152602001600020604051806080016040529081600082015481526020016001820160009054906101000a900473ffffffffffffffffffffffffffffffffffffffff1673ffffffffffffffffffffffffffffffffffffffff1673ffffffffffffffffffffffffffffffffffffffff168152602001600282018054611dad906141b6565b80601f0160208091040260200160405190810160405280929190818152602001828054611dd9906141b6565b8015611e265780601f10611dfb57610100808354040283529160200191611e26565b820191906000526020600020905b815481529060010190602001808311611e0957829003601f168201915b5050505050815260200160038201604051806101400160405290816000820160009054906101000a900473ffffffffffffffffffffffffffffffffffffffff1673ffffffffffffffffffffffffffffffffffffffff1673ffffffffffffffffffffffffffffffffffffffff168152602001600182015481526020016002820154815260200160038201548152602001600482015481526020016005820154815260200160068201548152602001600782018054611ee2906141b6565b80601f0160208091040260200160405190810160405280929190818152602001828054611f0e906141b6565b8015611f5b5780601f10611f3057610100808354040283529160200191611f5b565b820191906000526020600020905b815481529060010190602001808311611f3e57829003601f168201915b50505050508152602001600882015481526020016009820160009054906101000a900460ff161515151581525050815250509050600660009054906101000a900473ffffffffffffffffffffffffffffffffffffffff1673ffffffffffffffffffffffffffffffffffffffff1663d0e30db06040518163ffffffff1660e01b8152600401600060405180830381600087803b158015611ff957600080fd5b505af115801561200d573d6000803e3d6000fd5b5050505061202c82826060015160200151612e0a90919063ffffffff16565b816060015160200181815250508060600151602001513373ffffffffffffffffffffffffffffffffffffffff167f5548c837ab068cf56a2c2479df0882a4922fd203edb7517321831d95078c5f62600760009054906101000a900473ffffffffffffffffffffffffffffffffffffffff166040516120aa9190613b4b565b60405180910390a35050565b60008054906101000a900473ffffffffffffffffffffffffffffffffffffffff1681565b600b6020528060005260406000206000915054906101000a900460ff1681565b600080600a60008473ffffffffffffffffffffffffffffffffffffffff1673ffffffffffffffffffffffffffffffffffffffff168152602001908152602001600020604051806080016040529081600082015481526020016001820160009054906101000a900473ffffffffffffffffffffffffffffffffffffffff1673ffffffffffffffffffffffffffffffffffffffff1673ffffffffffffffffffffffffffffffffffffffff1681526020016002820180546121b7906141b6565b80601f01602080910402602001604051908101604052809291908181526020018280546121e3906141b6565b80156122305780601f1061220557610100808354040283529160200191612230565b820191906000526020600020905b81548152906001019060200180831161221357829003601f168201915b5050505050815260200160038201604051806101400160405290816000820160009054906101000a900473ffffffffffffffffffffffffffffffffffffffff1673ffffffffffffffffffffffffffffffffffffffff1673ffffffffffffffffffffffffffffffffffffffff1681526020016001820154815260200160028201548152602001600382015481526020016004820154815260200160058201548152602001600682015481526020016007820180546122ec906141b6565b80601f0160208091040260200160405190810160405280929190818152602001828054612318906141b6565b80156123655780601f1061233a57610100808354040283529160200191612365565b820191906000526020600020905b81548152906001019060200180831161234857829003601f168201915b50505050508152602001600882015481526020016009820160009054906101000a900460ff1615151515815250508152505090506000600660009054906101000a900473ffffffffffffffffffffffffffffffffffffffff1673ffffffffffffffffffffffffffffffffffffffff1663eec562c3306040518263ffffffff1660e01b81526004016123f69190613b4b565b60206040518083038186803b15801561240e57600080fd5b505afa158015612422573d6000803e3d6000fd5b505050506040513d601f19601f8201168201806040525081019061244691906133dc565b9050600061247b6305f5e10061246d84866060015160200151612e3690919063ffffffff16565b612dde90919063ffffffff16565b9050809350505050919050565b600080829050600060011515851515141561252f578173ffffffffffffffffffffffffffffffffffffffff1663db006a75876040518263ffffffff1660e01b81526004016124d69190613e59565b602060405180830381600087803b1580156124f057600080fd5b505af1158015612504573d6000803e3d6000fd5b505050506040513d601f19601f8201168201806040525081019061252891906133dc565b90506125bd565b8173ffffffffffffffffffffffffffffffffffffffff1663852a12e3876040518263ffffffff1660e01b81526004016125689190613e59565b602060405180830381600087803b15801561258257600080fd5b505af1158015612596573d6000803e3d6000fd5b505050506040513d601f19601f820116820180604052508101906125ba91906133dc565b90505b7f8d1cced004452bd270777a8c670f9f7e7c4fdde56f2db331fe289d39dc2624ad816040516125ec9190613d0b565b60405180910390a16001925050509392505050565b828411612643576040517f08c379a000000000000000000000000000000000000000000000000000000000815260040161263a90613e39565b60405180910390fd5b60008311612686576040517f08c379a000000000000000000000000000000000000000000000000000000000815260040161267d90613e19565b60405180910390fd5b600b60003373ffffffffffffffffffffffffffffffffffffffff1673ffffffffffffffffffffffffffffffffffffffff16815260200190815260200160002060009054906101000a900460ff16612712576040517f08c379a000000000000000000000000000000000000000000000000000000000815260040161270990613df9565b60405180910390fd5b6000600a60003373ffffffffffffffffffffffffffffffffffffffff1673ffffffffffffffffffffffffffffffffffffffff1681526020019081526020016000209050600081600301600601541461279f576040517f08c379a000000000000000000000000000000000000000000000000000000000815260040161279690613d99565b60405180910390fd5b868160030160000160006101000a81548173ffffffffffffffffffffffffffffffffffffffff021916908373ffffffffffffffffffffffffffffffffffffffff1602179055508181600301600601819055506128048342612e0a90919063ffffffff16565b81600301600501819055508581600301600701908051906020019061282a929190613091565b5084816003016003018190555083816003016002018190555060018160030160090160006101000a81548160ff0219169083151502179055507f0a342f2e207c3c328a10158ad0b71a9e64a10e319c5d635be24f8c7e418ea6e4338260030160070183600301600601546040516128a393929190613b9d565b60405180910390a150505050505050565b600b60003373ffffffffffffffffffffffffffffffffffffffff1673ffffffffffffffffffffffffffffffffffffffff16815260200190815260200160002060009054906101000a900460ff1615612941576040517f08c379a000000000000000000000000000000000000000000000000000000000815260040161293890613d79565b60405180910390fd5b6000604051806101400160405280600073ffffffffffffffffffffffffffffffffffffffff1681526020016000815260200160008152602001600081526020014281526020016000815260200160008152602001604051806020016040528060008152508152602001438152602001600015158152509050600060405180608001604052806129d06002613083565b81526020013373ffffffffffffffffffffffffffffffffffffffff16815260200184815260200183815250905080600a60003373ffffffffffffffffffffffffffffffffffffffff1673ffffffffffffffffffffffffffffffffffffffff1681526020019081526020016000206000820151816000015560208201518160010160006101000a81548173ffffffffffffffffffffffffffffffffffffffff021916908373ffffffffffffffffffffffffffffffffffffffff1602179055506040820151816002019080519060200190612aaa929190613091565b5060608201518160030160008201518160000160006101000a81548173ffffffffffffffffffffffffffffffffffffffff021916908373ffffffffffffffffffffffffffffffffffffffff1602179055506020820151816001015560408201518160020155606082015181600301556080820151816004015560a0820151816005015560c0820151816006015560e0820151816007019080519060200190612b53929190613091565b5061010082015181600801556101208201518160090160006101000a81548160ff0219169083151502179055505050905050600c8190806001815401808255809150506001900390600052602060002090600d02016000909190919091506000820151816000015560208201518160010160006101000a81548173ffffffffffffffffffffffffffffffffffffffff021916908373ffffffffffffffffffffffffffffffffffffffff1602179055506040820151816002019080519060200190612c1e929190613091565b5060608201518160030160008201518160000160006101000a81548173ffffffffffffffffffffffffffffffffffffffff021916908373ffffffffffffffffffffffffffffffffffffffff1602179055506020820151816001015560408201518160020155606082015181600301556080820151816004015560a0820151816005015560c0820151816006015560e0820151816007019080519060200190612cc7929190613091565b5061010082015181600801556101208201518160090160006101000a81548160ff021916908315150217905550505050506001600b60003373ffffffffffffffffffffffffffffffffffffffff1673ffffffffffffffffffffffffffffffffffffffff16815260200190815260200160002060006101000a81548160ff021916908315150217905550612d5a6002612df4565b82604051612d689190613b34565b60405180910390203373ffffffffffffffffffffffffffffffffffffffff167f6ba0831d2f62ae5cbf7214bcc1d79c5da1d705f12811efda0beaa840006f874e60405160405180910390a3505050565b600660009054906101000a900473ffffffffffffffffffffffffffffffffffffffff1681565b60008183612dec9190613fcb565b905092915050565b6001816000016000828254019250508190555050565b60008183612e189190613f75565b905092915050565b60008183612e2e9190614056565b905092915050565b60008183612e449190613ffc565b905092915050565b6000808211612e90576040517f08c379a0000000000000000000000000000000000000000000000000000000008152600401612e8790613d59565b60405180910390fd5b600083905060008173ffffffffffffffffffffffffffffffffffffffff16636f307dc36040518163ffffffff1660e01b815260040160206040518083038186803b158015612edd57600080fd5b505afa158015612ef1573d6000803e3d6000fd5b505050506040513d601f19601f82011682018060405250810190612f159190613243565b90508073ffffffffffffffffffffffffffffffffffffffff1663095ea7b386866040518363ffffffff1660e01b8152600401612f52929190613bdb565b602060405180830381600087803b158015612f6c57600080fd5b505af1158015612f80573d6000803e3d6000fd5b505050506040513d601f19601f82011682018060405250810190612fa49190613349565b5060008273ffffffffffffffffffffffffffffffffffffffff1663a0712d68866040518263ffffffff1660e01b8152600401612fe09190613e59565b602060405180830381600087803b158015612ffa57600080fd5b505af115801561300e573d6000803e3d6000fd5b505050506040513d601f19601f8201168201806040525081019061303291906133dc565b905060008114613077576040517f08c379a000000000000000000000000000000000000000000000000000000000815260040161306e90613d39565b60405180910390fd5b80935050505092915050565b600081600001549050919050565b82805461309d906141b6565b90600052602060002090601f0160209004810192826130bf5760008555613106565b82601f106130d857805160ff1916838001178555613106565b82800160010185558215613106579182015b828111156131055782518255916020019190600101906130ea565b5b5090506131139190613117565b5090565b5b80821115613130576000816000905550600101613118565b5090565b600061314761314284613ef8565b613ec7565b90508281526020810184848401111561315f57600080fd5b61316a848285614174565b509392505050565b600081359050613181816142b5565b92915050565b600081519050613196816142b5565b92915050565b6000813590506131ab816142cc565b92915050565b6000815190506131c0816142cc565b92915050565b600082601f8301126131d757600080fd5b81356131e7848260208601613134565b91505092915050565b6000813590506131ff816142e3565b92915050565b600081519050613214816142e3565b92915050565b60006020828403121561322c57600080fd5b600061323a84828501613172565b91505092915050565b60006020828403121561325557600080fd5b600061326384828501613187565b91505092915050565b60008060008060008060c0878903121561328557600080fd5b600061329389828a01613172565b965050602087013567ffffffffffffffff8111156132b057600080fd5b6132bc89828a016131c6565b95505060406132cd89828a016131f0565b94505060606132de89828a016131f0565b93505060806132ef89828a016131f0565b92505060a061330089828a016131f0565b9150509295509295509295565b6000806040838503121561332057600080fd5b600061332e85828601613172565b925050602061333f858286016131f0565b9150509250929050565b60006020828403121561335b57600080fd5b6000613369848285016131b1565b91505092915050565b60006020828403121561338457600080fd5b600082013567ffffffffffffffff81111561339e57600080fd5b6133aa848285016131c6565b91505092915050565b6000602082840312156133c557600080fd5b60006133d3848285016131f0565b91505092915050565b6000602082840312156133ee57600080fd5b60006133fc84828501613205565b91505092915050565b60008060006060848603121561341a57600080fd5b6000613428868287016131f0565b93505060206134398682870161319c565b925050604061344a86828701613172565b9150509250925092565b61345d8161409c565b82525050565b61346c8161408a565b82525050565b61347b8161408a565b82525050565b61348a816140ae565b82525050565b613499816140ae565b82525050565b6134a8816140e4565b82525050565b6134b781614108565b82525050565b6134c68161412c565b82525050565b6134d581614150565b82525050565b60006134e682613f3d565b6134f08185613f48565b9350613500818560208601614183565b613509816142a4565b840191505092915050565b600061351f82613f3d565b6135298185613f59565b9350613539818560208601614183565b613542816142a4565b840191505092915050565b600061355882613f3d565b6135628185613f6a565b9350613572818560208601614183565b80840191505092915050565b6000815461358b816141b6565b6135958186613f59565b945060018216600081146135b057600181146135c2576135f5565b60ff19831686526020860193506135f5565b6135cb85613f28565b60005b838110156135ed578154818901526001820191506020810190506135ce565b808801955050505b50505092915050565b600061360b601883613f59565b91507f43616c6c6572206973206e6f74205265676973746572656400000000000000006000830152602082019050919050565b600061364b600f83613f59565b91507f5472616e73666572206661696c656400000000000000000000000000000000006000830152602082019050919050565b600061368b601583613f59565b91507f43616c6c6572206e6f74205265676973746572656400000000000000000000006000830152602082019050919050565b60006136cb601883613f59565b91507f43616c6c6572206973206e6f74207265676973746572656400000000000000006000830152602082019050919050565b600061370b602483613f59565b91507f49662074686973206973206e6f7420302c2074686572652077617320616e206560008301527f72726f72000000000000000000000000000000000000000000000000000000006020830152604082019050919050565b6000613771603483613f59565b91507f63546f6b656e236d696e742829206661696c65642e2073656520436f6d706f7560008301527f6e64204572726f725265706f727465722e736f6c0000000000000000000000006020830152604082019050919050565b60006137d7601283613f59565b91507f416d6f756e742043616e6e6f74206265203000000000000000000000000000006000830152602082019050919050565b6000613817601d83613f59565b91507f43616c6c6572206164647265737320616c7265616479206578697374730000006000830152602082019050919050565b6000613857602283613f59565b91507f43616c6c657220616c7265616479206861732061206c6f636b2054696d65205360008301527f65740000000000000000000000000000000000000000000000000000000000006020830152604082019050919050565b60006138bd602383613f59565b91507f5769746864726177696e67206d6f7265207468616e20796f75206465706f736960008301527f74656400000000000000000000000000000000000000000000000000000000006020830152604082019050919050565b6000613923601583613f59565b91507f43616c6c6572206e6f74207265676973746572656400000000000000000000006000830152602082019050919050565b6000613963601b83613f59565b91507f43616c6c65722068617320746f206265205265676973746572656400000000006000830152602082019050919050565b60006139a3602083613f59565b91507f617070726f766520616e20616d6f756e742067726561746572207468616e20306000830152602082019050919050565b60006139e3602f83613f59565b91507f53657420616e20616d6f756e742067726561746572207468616e20746865207260008301527f6563757272696e6720616d6f756e7400000000000000000000000000000000006020830152604082019050919050565b600061014083016000830151613a556000860182613463565b506020830151613a686020860182613b16565b506040830151613a7b6040860182613b16565b506060830151613a8e6060860182613b16565b506080830151613aa16080860182613b16565b5060a0830151613ab460a0860182613b16565b5060c0830151613ac760c0860182613b16565b5060e083015184820360e0860152613adf82826134db565b915050610100830151613af6610100860182613b16565b50610120830151613b0b610120860182613481565b508091505092915050565b613b1f816140da565b82525050565b613b2e816140da565b82525050565b6000613b40828461354d565b915081905092915050565b6000602082019050613b606000830184613472565b92915050565b6000606082019050613b7b6000830186613472565b613b886020830185613472565b613b956040830184613b25565b949350505050565b6000606082019050613bb26000830186613472565b8181036020830152613bc4818561357e565b9050613bd36040830184613b25565b949350505050565b6000604082019050613bf06000830185613472565b613bfd6020830184613b25565b9392505050565b6000602082019050613c196000830184613490565b92915050565b6000602082019050613c34600083018461349f565b92915050565b6000602082019050613c4f60008301846134ae565b92915050565b6000602082019050613c6a60008301846134bd565b92915050565b6000602082019050613c8560008301846134cc565b92915050565b60006020820190508181036000830152613ca4816135fe565b9050919050565b60006020820190508181036000830152613cc48161363e565b9050919050565b60006020820190508181036000830152613ce48161367e565b9050919050565b60006020820190508181036000830152613d04816136be565b9050919050565b60006040820190508181036000830152613d24816136fe565b9050613d336020830184613b25565b92915050565b60006020820190508181036000830152613d5281613764565b9050919050565b60006020820190508181036000830152613d72816137ca565b9050919050565b60006020820190508181036000830152613d928161380a565b9050919050565b60006020820190508181036000830152613db28161384a565b9050919050565b60006020820190508181036000830152613dd2816138b0565b9050919050565b60006020820190508181036000830152613df281613916565b9050919050565b60006020820190508181036000830152613e1281613956565b9050919050565b60006020820190508181036000830152613e3281613996565b9050919050565b60006020820190508181036000830152613e52816139d6565b9050919050565b6000602082019050613e6e6000830184613b25565b92915050565b6000608082019050613e896000830187613b25565b613e966020830186613454565b8181036040830152613ea88185613514565b90508181036060830152613ebc8184613a3c565b905095945050505050565b6000604051905081810181811067ffffffffffffffff82111715613eee57613eed614275565b5b8060405250919050565b600067ffffffffffffffff821115613f1357613f12614275565b5b601f19601f8301169050602081019050919050565b60008190508160005260206000209050919050565b600081519050919050565b600082825260208201905092915050565b600082825260208201905092915050565b600081905092915050565b6000613f80826140da565b9150613f8b836140da565b9250827fffffffffffffffffffffffffffffffffffffffffffffffffffffffffffffffff03821115613fc057613fbf6141e8565b5b828201905092915050565b6000613fd6826140da565b9150613fe1836140da565b925082613ff157613ff0614217565b5b828204905092915050565b6000614007826140da565b9150614012836140da565b9250817fffffffffffffffffffffffffffffffffffffffffffffffffffffffffffffffff048311821515161561404b5761404a6141e8565b5b828202905092915050565b6000614061826140da565b915061406c836140da565b92508282101561407f5761407e6141e8565b5b828203905092915050565b6000614095826140ba565b9050919050565b60006140a7826140ba565b9050919050565b60008115159050919050565b600073ffffffffffffffffffffffffffffffffffffffff82169050919050565b6000819050919050565b60006140ef826140f6565b9050919050565b6000614101826140ba565b9050919050565b60006141138261411a565b9050919050565b6000614125826140ba565b9050919050565b60006141378261413e565b9050919050565b6000614149826140ba565b9050919050565b600061415b82614162565b9050919050565b600061416d826140ba565b9050919050565b82818337600083830152505050565b60005b838110156141a1578082015181840152602081019050614186565b838111156141b0576000848401525b50505050565b600060028204905060018216806141ce57607f821691505b602082108114156141e2576141e1614246565b5b50919050565b7f4e487b7100000000000000000000000000000000000000000000000000000000600052601160045260246000fd5b7f4e487b7100000000000000000000000000000000000000000000000000000000600052601260045260246000fd5b7f4e487b7100000000000000000000000000000000000000000000000000000000600052602260045260246000fd5b7f4e487b7100000000000000000000000000000000000000000000000000000000600052604160045260246000fd5b6000601f19601f8301169050919050565b6142be8161408a565b81146142c957600080fd5b50565b6142d5816140ae565b81146142e057600080fd5b50565b6142ec816140da565b81146142f757600080fd5b5056fea26469706673582212205aa2614383fb51a2d4a169d1679c329a7136cbd8c70dcad9ae7a2c135f2a4e4f64736f6c63430008000033",
  "immutableReferences": {},
  "source": "//SPDX-License-Identifier: Unlicense\r\npragma solidity ^0.8.0;\r\n\r\nimport \"@openzeppelin/contracts/utils/math/SafeMath.sol\";\r\nimport \"@openzeppelin/contracts/security/Pausable.sol\";\r\nimport \"@openzeppelin/contracts/security/ReentrancyGuard.sol\";\r\nimport \"@openzeppelin/contracts/access/Ownable.sol\";\r\nimport \"@openzeppelin/contracts/utils/Counters.sol\";\r\nimport '@openzeppelin/contracts/token/ERC20/IERC20.sol';\r\nimport \"@chainlink/contracts/src/v0.8/interfaces/KeeperCompatibleInterface.sol\";\r\nimport './CTokenInterface.sol';\r\nimport './ComptrollerInterface.sol';\r\nimport './PriceOracleInterface.sol';\r\nimport \"./XendFinanceInterface.sol\";\r\n\r\n\r\n// approve the user's underlying asset to be able to use the chainklink keepers\r\n\r\ncontract PensionServiceProvider {\r\n    using SafeMath for uint;\r\n    using Counters for Counters.Counter;\r\n\r\n    // variables\r\n    ComptrollerInterface public comptroller;\r\n\tPriceOracleInterface public priceOracle;\r\n    Counters.Counter private id;\r\n    uint balance;\r\n\r\n    uint accXendTokens;\r\n    uint256 ccInterest;\r\n    XendFinanceInterface public xendFinance;\r\n    IERC20 public xend;\r\n\r\n    uint public lastTimeStamp;\r\n    uint public upKeepInterval;\r\n\r\n\r\n\r\n    \r\n\r\n\r\n\r\n    struct Client {\r\n        address underlyingAsset;\r\n        uint256 depositedAmount;\r\n        uint256 amountToSpend;\r\n        uint256 approvedAmountToSpend;\r\n        uint256 startTime;\r\n        uint256 timeDurationOfdeposit;\r\n        uint256 lockTime;\r\n        string ipfsHashOfUserPensionDetails;\r\n        uint256 userLastRewardBlock;\r\n        bool hasPlan;\r\n    }\r\n\r\n\r\n    // A user Object\r\n    struct User {\r\n        uint256 id;\r\n        address payable userAddress;\r\n        string  userDetails;\r\n        Client client;\r\n\r\n    }\r\n\r\n\r\n\r\n    \r\n\r\n    \r\n\r\n\r\n    event Register(address indexed applicant, string indexed applicantDetails);\r\n    event Withdraw(address from, address to, uint amount);\r\n    event Deposit(address indexed sender, address receiver, uint indexed amountSpent);\r\n    event Upkeep(address sender, bool upkeep);\r\n    event Plan(address user, string planDetails, uint lockTime);\r\n    event Update(uint256 timeDuration);\r\n    event Transfer(address indexed sender, uint amount, address indexed receiver);\r\n    event MyLog(string, uint256);\r\n\r\n    mapping(address => User) public pensionServiceApplicant;\r\n\r\n    // keep track of registered users\r\n    mapping(address => bool) public isRegistered;\r\n\r\n    User[] public users;\r\n\r\n\r\n    constructor(address _xend, address _xendFinanceIndividual_Yearn_V1,  address _comptroller, address _priceOracle, uint _upKeepInterval)  {\r\n        xend = IERC20(_xend);\r\n        comptroller = ComptrollerInterface(_comptroller);\r\n\t\tpriceOracle = PriceOracleInterface(_priceOracle);\r\n        xendFinance = XendFinanceInterface(_xendFinanceIndividual_Yearn_V1);\r\n        ccInterest = uint256(3 ether).div(10); // .3% \r\n        lastTimeStamp = block.timestamp;\r\n        upKeepInterval = _upKeepInterval;\r\n\r\n        id.increment();\r\n        \r\n    }\r\n\r\n\r\n    receive() external payable {\r\n        balance = msg.value;\r\n    }\r\n\r\n    function register(\r\n        string memory _userDetails\r\n        ) \r\n        public  {\r\n        require(!isRegistered[msg.sender], \"Caller address already exists\");\r\n\r\n        Client memory client = Client({\r\n            underlyingAsset: address(0),\r\n            depositedAmount: 0,\r\n            amountToSpend: 0,\r\n            approvedAmountToSpend: 0,\r\n            startTime: block.timestamp,\r\n            timeDurationOfdeposit: 0,\r\n            lockTime: 0,\r\n            ipfsHashOfUserPensionDetails: \"\",\r\n            userLastRewardBlock: block.number,\r\n            hasPlan: false\r\n        });\r\n\r\n        User memory user = User({\r\n            id: id.current(),\r\n            userAddress: payable(msg.sender),\r\n            userDetails: _userDetails,\r\n            client: client\r\n        });\r\n\r\n       \r\n\r\n        pensionServiceApplicant[msg.sender] = user;\r\n        users.push(user);\r\n        isRegistered[msg.sender] = true;\r\n\r\n        id.increment();\r\n\r\n        emit Register(msg.sender, _userDetails);\r\n    }\r\n\r\n\r\n\r\n    function deposit(address _asset ,uint256 _amount) public payable {\r\n        require(isRegistered[msg.sender], \"Caller is not Registered\");\r\n        User storage user = pensionServiceApplicant[msg.sender];\r\n        CTokenInterface cToken = CTokenInterface(_asset);\r\n\t\taddress underlyingAsset = cToken.underlying();\r\n        IERC20(underlyingAsset).transferFrom(msg.sender, address(this), _amount);\r\n        uint balance = IERC20(underlyingAsset).balanceOf(address(this));\r\n        require(balance >= _amount, \"Transfer failed\");\r\n        address cTokenaddress = user.client.underlyingAsset;\r\n        user.client.depositedAmount = user.client.depositedAmount.add(_amount);\r\n        user.client.approvedAmountToSpend = user.client.approvedAmountToSpend.sub(user.client.amountToSpend);\r\n        user.client.startTime = block.timestamp;\r\n        user.client.userLastRewardBlock = user.client.userLastRewardBlock.add(block.number);\r\n        ccInterest = ccInterest.mul(block.number);\r\n        lastTimeStamp = block.timestamp;\r\n        _supply(_asset, _amount);\r\n        // user.client.depositedAmount = user.client.depositedAmount.add(_amount);\r\n        emit Deposit(address(this), underlyingAsset, _amount);\r\n\r\n    }\r\n\r\n\r\n\r\n//     function _enterMarket(address _cTokenaddress) internal {\r\n// \t\taddress[] memory markets = new address[](1);\r\n// \t\tmarkets[0] = _cTokenaddress;\r\n// \t\tuint[] memory results = comptroller.enterMarkets(markets);\r\n// \t\trequire( results[0] == 0, 'comptroller#enterMarkets() failed. see Compound ErrorReporter.sol');\r\n// \t}\r\n\r\n\r\n\r\n\r\n\r\n\r\n    function _supply(address cTokenaddress, uint underlyingAmount) internal returns(uint) {\r\n        require(underlyingAmount > 0, \"Amount Cannot be 0\");\r\n        // _enterMarket(cTokenaddress);\r\n\t\tCTokenInterface cToken = CTokenInterface(cTokenaddress);\r\n\t\taddress underlyingAddress = cToken.underlying();\r\n\t\tIERC20(underlyingAddress).approve(cTokenaddress, underlyingAmount);\r\n\r\n\t\tuint result = cToken.mint(underlyingAmount);\r\n\t\trequire(result == 0, 'cToken#mint() failed. see Compound ErrorReporter.sol');\r\n        return result;\r\n\t}\r\n\r\n\r\n//     // chainlink keeper function call\r\n    // function checkUpkeep(bytes calldata /* checkData */) external view override returns(bool, bytes memory)   {\r\n        \r\n    //     return (block.timestamp.sub(lastTimeStamp) > upKeepInterval, bytes(abi.encode(users)));\r\n    //     // (block.timestamp.sub(lastTimeStamp) > upKeepInterval);\r\n        \r\n    // }\r\n\r\n\r\n\r\n\r\n    // function performUpkeep(bytes calldata performData ) external override  {\r\n    //     // User[] memory usersArray = abi.decode(performData, (User[]));\r\n    //     // for(uint256 i = 0; i < usersArray.length - 1; i++ ) {\r\n    //             User memory  user = pensionServiceApplicant[msg.sender];\r\n    //             require(isRegistered[user.userAddress], \"Address not registered\");\r\n    //             require(user.client.approvedAmountToSpend > 0, \"Insufficient balance cannot perform upkeep\");\r\n    //             require(user.client.hasPlan, \"Client has no plan\");\r\n    //              CTokenInterface cToken = CTokenInterface(user.client.underlyingAsset);\r\n\r\n    //             uint amountToDeposit = user.client.amountToSpend;\r\n    //             address underlyingAsset = cToken.underlying();\r\n    //             user.client.depositedAmount = user.client.depositedAmount.add(amountToDeposit);\r\n    //             IERC20(underlyingAsset).transferFrom(user.userAddress, address(this),  amountToDeposit);\r\n    //             uint balance = IERC20(underlyingAsset).balanceOf(address(this));\r\n    //             require(balance == amountToDeposit, \"Transfer failed\");\r\n    //             _deposit(user.client.underlyingAsset, balance);\r\n    //             // address cLink = 0xFAce851a4921ce59e912d19329929CE6da6EB0c7;\r\n    //             // emit Transfer(user.userAddress, user.client.depositedAmount, address(this));\r\n    //             // _supply(user.client.underlyingAsset, user.client.amountToSpend);\r\n    //             user.client.depositedAmount = user.client.depositedAmount.add(amountToDeposit);\r\n    //             user.client.approvedAmountToSpend = user.client.approvedAmountToSpend.sub(user.client.amountToSpend);\r\n    //             user.client.startTime = block.timestamp;\r\n    //             user.client.userLastRewardBlock = user.client.userLastRewardBlock.add(block.number);\r\n    //             ccInterest = ccInterest.mul(block.number);\r\n    //             lastTimeStamp = block.timestamp;\r\n\r\n    //             emit Deposit(user.userAddress, address(this), user.client.depositedAmount);\r\n    //     // }\r\n            \r\n    //     // emit Update(pensionServiceApplicant[msg.sender].depositedAmount);\r\n\r\n    // }\r\n\r\n\r\n\r\n    function withdraw() public {\r\n        require(isRegistered[msg.sender], \"Caller not registered\");\r\n        User storage user = pensionServiceApplicant[msg.sender];\r\n        uint amountToSend = user.client.depositedAmount;\r\n        CTokenInterface cToken = CTokenInterface(user.client.underlyingAsset);\r\n        address underlyingAsset = cToken.underlying();\r\n        IERC20(underlyingAsset).transfer(msg.sender, amountToSend);\r\n        user.client.depositedAmount = 0;\r\n        user.client.userLastRewardBlock = block.number;\r\n        ccInterest = ccInterest.add(block.number).div(1e8);\r\n        emit Withdraw(address(this), msg.sender, amountToSend);\r\n\r\n\r\n    }\r\n\r\n\r\n    function redeemCErc20Tokens(\r\n        uint256 amount,\r\n        bool redeemType,\r\n        address _cErc20Contract\r\n    ) public returns (bool) {\r\n        // Create a reference to the corresponding cToken contract, like cDAI\r\n        CTokenInterface cToken = CTokenInterface(_cErc20Contract);\r\n\r\n        // `amount` is scaled up, see decimal table here:\r\n        // https://compound.finance/docs#protocol-math\r\n\r\n        uint256 redeemResult;\r\n\r\n        if (redeemType == true) {\r\n            // Retrieve your asset based on a cToken amount\r\n            redeemResult = cToken.redeem(amount);\r\n        } else {\r\n            // Retrieve your asset based on an amount of the asset\r\n            redeemResult = cToken.redeemUnderlying(amount);\r\n        }\r\n\r\n        // Error codes are listed here:\r\n        // https://compound.finance/docs/ctokens#error-codes\r\n        emit MyLog(\"If this is not 0, there was an error\", redeemResult);\r\n\r\n        return true;\r\n    }\r\n\r\n    // helper function for testing keepers\r\n    function updateTimeDurationOfDeposit() public  {\r\n        User memory user = pensionServiceApplicant[msg.sender];\r\n        require(isRegistered[user.userAddress], \"Caller is not registered\");\r\n        user.client.timeDurationOfdeposit = 0;\r\n        emit Update(user.client.timeDurationOfdeposit);\r\n    } \r\n\r\n    function setPlan(\r\n        address _underlyingAsset, \r\n        string memory _ipfsHashOfUserPensionDetails, \r\n        uint _approvedAmountToSpend, \r\n        uint _amountToSpend, \r\n        uint _timeDurationOfDeposit, \r\n        uint _lockTime) \r\n        public {\r\n        require(_approvedAmountToSpend > _amountToSpend, \"Set an amount greater than the recurring amount\");\r\n        require(_amountToSpend > 0, \"approve an amount greater than 0\");\r\n        require(isRegistered[msg.sender], \"Caller has to be Registered\");\r\n        User storage user = pensionServiceApplicant[msg.sender];\r\n        require(user.client.lockTime == 0, \"Caller already has a lock Time Set\");\r\n        user.client.underlyingAsset = _underlyingAsset;\r\n        user.client.lockTime = _lockTime;\r\n        user.client.timeDurationOfdeposit = block.timestamp.add(_timeDurationOfDeposit);\r\n        user.client.ipfsHashOfUserPensionDetails = _ipfsHashOfUserPensionDetails;\r\n        user.client.approvedAmountToSpend = _approvedAmountToSpend;\r\n        user.client.amountToSpend = _amountToSpend;\r\n        user.client.hasPlan = true;\r\n\r\n        emit Plan(msg.sender, user.client.ipfsHashOfUserPensionDetails, user.client.lockTime);\r\n    }\r\n\r\n\r\n\r\n//     // for Xend\r\n\r\n    function getXendPendingRewards(address _user) public view returns(uint) {\r\n        User memory user = pensionServiceApplicant[_user];\r\n        uint256 accXendRewards = xendFinance.GetMemberXendTokenReward(address(this));\r\n        uint256 userPendingRewards = user.client.depositedAmount.mul(accXendRewards).div(1e8);\r\n\r\n        return userPendingRewards;\r\n    }\r\n\r\n\r\n\r\n    function depositToXendFinance(uint _amount) public  {\r\n        // require(isRegistered[msg.sender], \"Caller not Registered\");\r\n        User memory user = pensionServiceApplicant[msg.sender];\r\n        xendFinance.deposit();\r\n        user.client.depositedAmount = user.client.depositedAmount.add(_amount);\r\n\r\n        emit Deposit(msg.sender, address(xend), user.client.depositedAmount);\r\n        \r\n    }\r\n\r\n\r\n\r\n    function withdrawFromXendFinance() public {\r\n        require(isRegistered[msg.sender], \"Caller not Registered\");\r\n        User memory user = pensionServiceApplicant[msg.sender];\r\n        xendFinance.withdraw(user.client.depositedAmount);\r\n        uint256 xendBalance = xend.balanceOf(address(this));\r\n        require(xendBalance > user.client.depositedAmount, \"Withdrawing more than you deposited\");\r\n        accXendTokens = xendBalance;\r\n        uint256 accXendTokensforUser = user.client.depositedAmount.mul(accXendTokens).div(1e8);\r\n        xend.transfer(msg.sender, accXendTokensforUser);\r\n\r\n    }\r\n\r\n    function getAccruedInterest() public view returns(uint) {\r\n        User memory user = pensionServiceApplicant[msg.sender];\r\n        require(isRegistered[user.userAddress], \"Caller not registered\");\r\n        CTokenInterface ctoken = CTokenInterface(user.client.underlyingAsset);\r\n        uint supplyRatePerBlock = ctoken.supplyRatePerBlock();\r\n        uint accInterest = user.client.depositedAmount.mul(supplyRatePerBlock).div(ccInterest).div(1e8);\r\n        return accInterest;\r\n    }\r\n}",
  "sourcePath": "/mnt/c/Users/chuks/Desktop/Project/beima_project/beima_core/contracts/PensionServiceProvider.sol",
  "compiler": {
    "name": "solc",
    "version": "0.8.0+commit.c7dfd78e.Emscripten.clang"
  },
  "schemaVersion": "3.3.4",
  "updatedAt": "2021-12-06T13:55:08.090Z",
  "networkType": "ethereum",
  "devdoc": {
    "kind": "dev",
    "methods": {},
    "version": 1
  },
  "userdoc": {
    "kind": "user",
    "methods": {},
    "version": 1
  }
}