{
  "contractName": "PensionServiceProvider",
  "abi": [
    {
      "inputs": [
        {
          "internalType": "address",
          "name": "_xend",
          "type": "address"
        },
        {
          "internalType": "address",
          "name": "_xendFinanceIndividual_Yearn_V1",
          "type": "address"
        },
        {
          "internalType": "address",
          "name": "_comptroller",
          "type": "address"
        },
        {
          "internalType": "address",
          "name": "_priceOracle",
          "type": "address"
        },
        {
          "internalType": "uint256",
          "name": "_upKeepInterval",
          "type": "uint256"
        }
      ],
      "stateMutability": "nonpayable",
      "type": "constructor"
    },
    {
      "anonymous": false,
      "inputs": [
        {
          "indexed": true,
          "internalType": "address",
          "name": "sender",
          "type": "address"
        },
        {
          "indexed": false,
          "internalType": "address",
          "name": "receiver",
          "type": "address"
        },
        {
          "indexed": true,
          "internalType": "uint256",
          "name": "amountSpent",
          "type": "uint256"
        }
      ],
      "name": "Deposit",
      "type": "event"
    },
    {
      "anonymous": false,
      "inputs": [
        {
          "indexed": false,
          "internalType": "address",
          "name": "user",
          "type": "address"
        },
        {
          "indexed": false,
          "internalType": "string",
          "name": "planDetails",
          "type": "string"
        },
        {
          "indexed": false,
          "internalType": "uint256",
          "name": "lockTime",
          "type": "uint256"
        }
      ],
      "name": "Plan",
      "type": "event"
    },
    {
      "anonymous": false,
      "inputs": [
        {
          "indexed": true,
          "internalType": "address",
          "name": "applicant",
          "type": "address"
        },
        {
          "indexed": true,
          "internalType": "string",
          "name": "applicantDetails",
          "type": "string"
        }
      ],
      "name": "Register",
      "type": "event"
    },
    {
      "anonymous": false,
      "inputs": [
        {
          "indexed": true,
          "internalType": "address",
          "name": "sender",
          "type": "address"
        },
        {
          "indexed": false,
          "internalType": "uint256",
          "name": "amount",
          "type": "uint256"
        },
        {
          "indexed": true,
          "internalType": "address",
          "name": "receiver",
          "type": "address"
        }
      ],
      "name": "Transfer",
      "type": "event"
    },
    {
      "anonymous": false,
      "inputs": [
        {
          "indexed": false,
          "internalType": "uint256",
          "name": "timeDuration",
          "type": "uint256"
        }
      ],
      "name": "Update",
      "type": "event"
    },
    {
      "anonymous": false,
      "inputs": [
        {
          "indexed": false,
          "internalType": "address",
          "name": "sender",
          "type": "address"
        },
        {
          "indexed": false,
          "internalType": "bool",
          "name": "upkeep",
          "type": "bool"
        }
      ],
      "name": "Upkeep",
      "type": "event"
    },
    {
      "anonymous": false,
      "inputs": [
        {
          "indexed": false,
          "internalType": "address",
          "name": "from",
          "type": "address"
        },
        {
          "indexed": false,
          "internalType": "address",
          "name": "to",
          "type": "address"
        },
        {
          "indexed": false,
          "internalType": "uint256",
          "name": "amount",
          "type": "uint256"
        }
      ],
      "name": "Withdraw",
      "type": "event"
    },
    {
      "inputs": [],
      "name": "comptroller",
      "outputs": [
        {
          "internalType": "contract ComptrollerInterface",
          "name": "",
          "type": "address"
        }
      ],
      "stateMutability": "view",
      "type": "function"
    },
    {
      "inputs": [
        {
          "internalType": "address",
          "name": "",
          "type": "address"
        }
      ],
      "name": "isRegistered",
      "outputs": [
        {
          "internalType": "bool",
          "name": "",
          "type": "bool"
        }
      ],
      "stateMutability": "view",
      "type": "function"
    },
    {
      "inputs": [],
      "name": "lastTimeStamp",
      "outputs": [
        {
          "internalType": "uint256",
          "name": "",
          "type": "uint256"
        }
      ],
      "stateMutability": "view",
      "type": "function"
    },
    {
      "inputs": [
        {
          "internalType": "address",
          "name": "",
          "type": "address"
        }
      ],
      "name": "pensionServiceApplicant",
      "outputs": [
        {
          "internalType": "uint256",
          "name": "id",
          "type": "uint256"
        },
        {
          "internalType": "address payable",
          "name": "userAddress",
          "type": "address"
        },
        {
          "internalType": "string",
          "name": "userDetails",
          "type": "string"
        },
        {
          "components": [
            {
              "internalType": "address",
              "name": "underlyingAsset",
              "type": "address"
            },
            {
              "internalType": "uint256",
              "name": "depositedAmount",
              "type": "uint256"
            },
            {
              "internalType": "uint256",
              "name": "amountToSpend",
              "type": "uint256"
            },
            {
              "internalType": "uint256",
              "name": "approvedAmountToSpend",
              "type": "uint256"
            },
            {
              "internalType": "uint256",
              "name": "startTime",
              "type": "uint256"
            },
            {
              "internalType": "uint256",
              "name": "timeDurationOfdeposit",
              "type": "uint256"
            },
            {
              "internalType": "uint256",
              "name": "lockTime",
              "type": "uint256"
            },
            {
              "internalType": "string",
              "name": "ipfsHashOfUserPensionDetails",
              "type": "string"
            },
            {
              "internalType": "uint256",
              "name": "userLastRewardBlock",
              "type": "uint256"
            },
            {
              "internalType": "bool",
              "name": "hasPlan",
              "type": "bool"
            }
          ],
          "internalType": "struct PensionServiceProvider.Client",
          "name": "client",
          "type": "tuple"
        }
      ],
      "stateMutability": "view",
      "type": "function"
    },
    {
      "inputs": [],
      "name": "priceOracle",
      "outputs": [
        {
          "internalType": "contract PriceOracleInterface",
          "name": "",
          "type": "address"
        }
      ],
      "stateMutability": "view",
      "type": "function"
    },
    {
      "inputs": [],
      "name": "upKeepInterval",
      "outputs": [
        {
          "internalType": "uint256",
          "name": "",
          "type": "uint256"
        }
      ],
      "stateMutability": "view",
      "type": "function"
    },
    {
      "inputs": [
        {
          "internalType": "uint256",
          "name": "",
          "type": "uint256"
        }
      ],
      "name": "users",
      "outputs": [
        {
          "internalType": "uint256",
          "name": "id",
          "type": "uint256"
        },
        {
          "internalType": "address payable",
          "name": "userAddress",
          "type": "address"
        },
        {
          "internalType": "string",
          "name": "userDetails",
          "type": "string"
        },
        {
          "components": [
            {
              "internalType": "address",
              "name": "underlyingAsset",
              "type": "address"
            },
            {
              "internalType": "uint256",
              "name": "depositedAmount",
              "type": "uint256"
            },
            {
              "internalType": "uint256",
              "name": "amountToSpend",
              "type": "uint256"
            },
            {
              "internalType": "uint256",
              "name": "approvedAmountToSpend",
              "type": "uint256"
            },
            {
              "internalType": "uint256",
              "name": "startTime",
              "type": "uint256"
            },
            {
              "internalType": "uint256",
              "name": "timeDurationOfdeposit",
              "type": "uint256"
            },
            {
              "internalType": "uint256",
              "name": "lockTime",
              "type": "uint256"
            },
            {
              "internalType": "string",
              "name": "ipfsHashOfUserPensionDetails",
              "type": "string"
            },
            {
              "internalType": "uint256",
              "name": "userLastRewardBlock",
              "type": "uint256"
            },
            {
              "internalType": "bool",
              "name": "hasPlan",
              "type": "bool"
            }
          ],
          "internalType": "struct PensionServiceProvider.Client",
          "name": "client",
          "type": "tuple"
        }
      ],
      "stateMutability": "view",
      "type": "function"
    },
    {
      "inputs": [],
      "name": "xend",
      "outputs": [
        {
          "internalType": "contract IERC20",
          "name": "",
          "type": "address"
        }
      ],
      "stateMutability": "view",
      "type": "function"
    },
    {
      "inputs": [],
      "name": "xendFinance",
      "outputs": [
        {
          "internalType": "contract XendFinanceInterface",
          "name": "",
          "type": "address"
        }
      ],
      "stateMutability": "view",
      "type": "function"
    },
    {
      "inputs": [
        {
          "internalType": "string",
          "name": "_userDetails",
          "type": "string"
        }
      ],
      "name": "register",
      "outputs": [],
      "stateMutability": "nonpayable",
      "type": "function"
    },
    {
      "inputs": [
        {
          "internalType": "bytes",
          "name": "",
          "type": "bytes"
        }
      ],
      "name": "checkUpkeep",
      "outputs": [
        {
          "internalType": "bool",
          "name": "",
          "type": "bool"
        },
        {
          "internalType": "bytes",
          "name": "",
          "type": "bytes"
        }
      ],
      "stateMutability": "view",
      "type": "function"
    },
    {
      "inputs": [
        {
          "internalType": "bytes",
          "name": "performData",
          "type": "bytes"
        }
      ],
      "name": "performUpkeep",
      "outputs": [],
      "stateMutability": "nonpayable",
      "type": "function"
    },
    {
      "inputs": [],
      "name": "withdraw",
      "outputs": [],
      "stateMutability": "nonpayable",
      "type": "function"
    },
    {
      "inputs": [],
      "name": "updateTimeDurationOfDeposit",
      "outputs": [],
      "stateMutability": "nonpayable",
      "type": "function"
    },
    {
      "inputs": [
        {
          "internalType": "address",
          "name": "_underlyingAsset",
          "type": "address"
        },
        {
          "internalType": "string",
          "name": "_ipfsHashOfUserPensionDetails",
          "type": "string"
        },
        {
          "internalType": "uint256",
          "name": "_approvedAmountToSpend",
          "type": "uint256"
        },
        {
          "internalType": "uint256",
          "name": "_amountToSpend",
          "type": "uint256"
        },
        {
          "internalType": "uint256",
          "name": "_timeDurationOfDeposit",
          "type": "uint256"
        },
        {
          "internalType": "uint256",
          "name": "_lockTime",
          "type": "uint256"
        }
      ],
      "name": "setPlan",
      "outputs": [],
      "stateMutability": "nonpayable",
      "type": "function"
    },
    {
      "inputs": [
        {
          "internalType": "address",
          "name": "_user",
          "type": "address"
        }
      ],
      "name": "getXendPendingRewards",
      "outputs": [
        {
          "internalType": "uint256",
          "name": "",
          "type": "uint256"
        }
      ],
      "stateMutability": "view",
      "type": "function"
    },
    {
      "inputs": [
        {
          "internalType": "uint256",
          "name": "_amount",
          "type": "uint256"
        }
      ],
      "name": "depositToXendFinance",
      "outputs": [],
      "stateMutability": "nonpayable",
      "type": "function"
    },
    {
      "inputs": [],
      "name": "withdrawFromXendFinance",
      "outputs": [],
      "stateMutability": "nonpayable",
      "type": "function"
    },
    {
      "inputs": [],
      "name": "getAccruedInterest",
      "outputs": [
        {
          "internalType": "uint256",
          "name": "",
          "type": "uint256"
        }
      ],
      "stateMutability": "view",
      "type": "function"
    }
  ],
  "bytecode": "0x60806040523480156200001157600080fd5b5060405162004d1b38038062004d1b8339818101604052810190620000379190620001ef565b84600660006101000a81548173ffffffffffffffffffffffffffffffffffffffff021916908373ffffffffffffffffffffffffffffffffffffffff160217905550826000806101000a81548173ffffffffffffffffffffffffffffffffffffffff021916908373ffffffffffffffffffffffffffffffffffffffff16021790555081600160006101000a81548173ffffffffffffffffffffffffffffffffffffffff021916908373ffffffffffffffffffffffffffffffffffffffff16021790555083600560006101000a81548173ffffffffffffffffffffffffffffffffffffffff021916908373ffffffffffffffffffffffffffffffffffffffff1602179055506200015d600a6729a2241af62c00006200019360201b620028931790919060201c565b6004819055504260078190555080600881905550620001886002620001ab60201b620028a91760201c565b50505050506200034a565b60008183620001a3919062000271565b905092915050565b6001816000016000828254019250508190555050565b600081519050620001d28162000316565b92915050565b600081519050620001e98162000330565b92915050565b600080600080600060a086880312156200020857600080fd5b60006200021888828901620001c1565b95505060206200022b88828901620001c1565b94505060406200023e88828901620001c1565b93505060606200025188828901620001c1565b92505060806200026488828901620001d8565b9150509295509295909350565b60006200027e82620002dd565b91506200028b83620002dd565b9250826200029e576200029d620002e7565b5b828204905092915050565b6000620002b682620002bd565b9050919050565b600073ffffffffffffffffffffffffffffffffffffffff82169050919050565b6000819050919050565b7f4e487b7100000000000000000000000000000000000000000000000000000000600052601260045260246000fd5b6200032181620002a9565b81146200032d57600080fd5b50565b6200033b81620002dd565b81146200034757600080fd5b50565b6149c1806200035a6000396000f3fe608060405234801561001057600080fd5b50600436106101215760003560e01c806359098330116100ad578063c3c5a54711610071578063c3c5a547146102c7578063c742ee05146102f7578063de15f0da14610327578063f2c298be14610343578063f5dd60651461035f57610121565b8063590983301461021f5780635bc9d2bf146102295780635daa4bfa1461025c5780635fe3b567146102785780636e04ff0d1461029657610121565b80633ccfd60b116100f45780633ccfd60b146101b35780633f3b3b27146101bd5780634585e33b146101db578063564afa3a146101f757806356dc5d8e1461021557610121565b80631a15687b146101265780632630c12f146101445780633245f22814610162578063365b98b214610180575b600080fd5b61012e61037d565b60405161013b9190614302565b60405180910390f35b61014c610383565b604051610159919061408c565b60405180910390f35b61016a6103a9565b6040516101779190614071565b60405180910390f35b61019a60048036038101906101959190613346565b6103cf565b6040516101aa949392919061431d565b60405180910390f35b6101bb61060b565b005b6101c5610cda565b6040516101d29190614302565b60405180910390f35b6101f560048036038101906101f091906132c0565b610ce0565b005b6101ff6114d4565b60405161020c9190614302565b60405180910390f35b61021d6116c8565b005b610227611809565b005b610243600480360381019061023e9190613163565b611b56565b604051610253949392919061431d565b60405180910390f35b61027660048036038101906102719190613346565b611d82565b005b610280611ee8565b60405161028d9190614056565b60405180910390f35b6102b060048036038101906102ab91906132c0565b611f0c565b6040516102be929190614026565b60405180910390f35b6102e160048036038101906102dc9190613163565b611f55565b6040516102ee919061400b565b60405180910390f35b610311600480360381019061030c9190613163565b611f75565b60405161031e9190614302565b60405180910390f35b610341600480360381019061033c91906131b5565b6120a7565b005b61035d60048036038101906103589190613305565b612365565b005b61036761286d565b60405161037491906140a7565b60405180910390f35b60085481565b600160009054906101000a900473ffffffffffffffffffffffffffffffffffffffff1681565b600660009054906101000a900473ffffffffffffffffffffffffffffffffffffffff1681565b600b81815481106103df57600080fd5b90600052602060002090600d02016000915090508060000154908060010160009054906101000a900473ffffffffffffffffffffffffffffffffffffffff169080600201805461042e90614772565b80601f016020809104026020016040519081016040528092919081815260200182805461045a90614772565b80156104a75780601f1061047c576101008083540402835291602001916104a7565b820191906000526020600020905b81548152906001019060200180831161048a57829003601f168201915b50505050509080600301604051806101400160405290816000820160009054906101000a900473ffffffffffffffffffffffffffffffffffffffff1673ffffffffffffffffffffffffffffffffffffffff1673ffffffffffffffffffffffffffffffffffffffff16815260200160018201548152602001600282015481526020016003820154815260200160048201548152602001600582015481526020016006820154815260200160078201805461055f90614772565b80601f016020809104026020016040519081016040528092919081815260200182805461058b90614772565b80156105d85780601f106105ad576101008083540402835291602001916105d8565b820191906000526020600020905b8154815290600101906020018083116105bb57829003601f168201915b50505050508152602001600882015481526020016009820160009054906101000a900460ff161515151581525050905084565b600a60003373ffffffffffffffffffffffffffffffffffffffff1673ffffffffffffffffffffffffffffffffffffffff16815260200190815260200160002060009054906101000a900460ff16610697576040517f08c379a000000000000000000000000000000000000000000000000000000000815260040161068e90614242565b60405180910390fd5b6000600960003373ffffffffffffffffffffffffffffffffffffffff1673ffffffffffffffffffffffffffffffffffffffff16815260200190815260200160002090508060030160060154421015610a045760008160030160000160009054906101000a900473ffffffffffffffffffffffffffffffffffffffff16905060008173ffffffffffffffffffffffffffffffffffffffff16636f307dc36040518163ffffffff1660e01b815260040160206040518083038186803b15801561075d57600080fd5b505afa158015610771573d6000803e3d6000fd5b505050506040513d601f19601f82011682018060405250810190610795919061318c565b90506107cf8360030160000160009054906101000a900473ffffffffffffffffffffffffffffffffffffffff1684600301600101546128bf565b60008173ffffffffffffffffffffffffffffffffffffffff166370a08231306040518263ffffffff1660e01b815260040161080a9190613ed0565b60206040518083038186803b15801561082257600080fd5b505afa158015610836573d6000803e3d6000fd5b505050506040513d601f19601f8201168201806040525081019061085a919061336f565b9050836003016001015481146108a5576040517f08c379a000000000000000000000000000000000000000000000000000000000815260040161089c906140c2565b60405180910390fd5b60006108c26002866003016001015461289390919063ffffffff16565b90508273ffffffffffffffffffffffffffffffffffffffff1663a9059cbb8660010160009054906101000a900473ffffffffffffffffffffffffffffffffffffffff16836040518363ffffffff1660e01b8152600401610923929190613f22565b602060405180830381600087803b15801561093d57600080fd5b505af1158015610951573d6000803e3d6000fd5b505050506040513d601f19601f820116820180604052508101906109759190613297565b50600085600301600101819055504385600301600801819055506109ba6305f5e1006109ac436004546129df90919063ffffffff16565b61289390919063ffffffff16565b6004819055507f9b1bfa7fa9ee420a16e124f794c35ac9f90472acc99140eb2f6447c714cad8eb3033836040516109f393929190613f4b565b60405180910390a150505050610cd7565b60008160030160000160009054906101000a900473ffffffffffffffffffffffffffffffffffffffff16905060008173ffffffffffffffffffffffffffffffffffffffff16636f307dc36040518163ffffffff1660e01b815260040160206040518083038186803b158015610a7857600080fd5b505afa158015610a8c573d6000803e3d6000fd5b505050506040513d601f19601f82011682018060405250810190610ab0919061318c565b9050610aea8360030160000160009054906101000a900473ffffffffffffffffffffffffffffffffffffffff1684600301600101546128bf565b60008173ffffffffffffffffffffffffffffffffffffffff166370a08231306040518263ffffffff1660e01b8152600401610b259190613ed0565b60206040518083038186803b158015610b3d57600080fd5b505afa158015610b51573d6000803e3d6000fd5b505050506040513d601f19601f82011682018060405250810190610b75919061336f565b905083600301600101548114610bc0576040517f08c379a0000000000000000000000000000000000000000000000000000000008152600401610bb7906140c2565b60405180910390fd5b6000846003016001015490508273ffffffffffffffffffffffffffffffffffffffff1663a9059cbb8660010160009054906101000a900473ffffffffffffffffffffffffffffffffffffffff16836040518363ffffffff1660e01b8152600401610c2b929190613f22565b602060405180830381600087803b158015610c4557600080fd5b505af1158015610c59573d6000803e3d6000fd5b505050506040513d601f19601f82011682018060405250810190610c7d9190613297565b50600085600301600101819055504385600301600801819055507f9b1bfa7fa9ee420a16e124f794c35ac9f90472acc99140eb2f6447c714cad8eb303383604051610cca93929190613f4b565b60405180910390a1505050505b50565b60075481565b60008282810190610cf19190613256565b905060005b60018251610d049190614585565b8110156114ce57600060096000848481518110610d4a577f4e487b7100000000000000000000000000000000000000000000000000000000600052603260045260246000fd5b60200260200101516020015173ffffffffffffffffffffffffffffffffffffffff1673ffffffffffffffffffffffffffffffffffffffff168152602001908152602001600020604051806080016040529081600082015481526020016001820160009054906101000a900473ffffffffffffffffffffffffffffffffffffffff1673ffffffffffffffffffffffffffffffffffffffff1673ffffffffffffffffffffffffffffffffffffffff168152602001600282018054610e0b90614772565b80601f0160208091040260200160405190810160405280929190818152602001828054610e3790614772565b8015610e845780601f10610e5957610100808354040283529160200191610e84565b820191906000526020600020905b815481529060010190602001808311610e6757829003601f168201915b5050505050815260200160038201604051806101400160405290816000820160009054906101000a900473ffffffffffffffffffffffffffffffffffffffff1673ffffffffffffffffffffffffffffffffffffffff1673ffffffffffffffffffffffffffffffffffffffff168152602001600182015481526020016002820154815260200160038201548152602001600482015481526020016005820154815260200160068201548152602001600782018054610f4090614772565b80601f0160208091040260200160405190810160405280929190818152602001828054610f6c90614772565b8015610fb95780601f10610f8e57610100808354040283529160200191610fb9565b820191906000526020600020905b815481529060010190602001808311610f9c57829003601f168201915b50505050508152602001600882015481526020016009820160009054906101000a900460ff161515151581525050815250509050600a6000826020015173ffffffffffffffffffffffffffffffffffffffff1673ffffffffffffffffffffffffffffffffffffffff16815260200190815260200160002060009054906101000a900460ff1661107d576040517f08c379a0000000000000000000000000000000000000000000000000000000008152600401611074906142c2565b60405180910390fd5b6000816060015160600151116110c8576040517f08c379a00000000000000000000000000000000000000000000000000000000081526004016110bf906141a2565b60405180910390fd5b80606001516101200151611111576040517f08c379a0000000000000000000000000000000000000000000000000000000008152600401611108906141c2565b60405180910390fd5b600081606001516000015190506000826060015160400151905060008273ffffffffffffffffffffffffffffffffffffffff16636f307dc36040518163ffffffff1660e01b815260040160206040518083038186803b15801561117357600080fd5b505afa158015611187573d6000803e3d6000fd5b505050506040513d601f19601f820116820180604052508101906111ab919061318c565b90508073ffffffffffffffffffffffffffffffffffffffff166323b872dd856020015130856040518463ffffffff1660e01b81526004016111ee93929190613eeb565b602060405180830381600087803b15801561120857600080fd5b505af115801561121c573d6000803e3d6000fd5b505050506040513d601f19601f820116820180604052508101906112409190613297565b5060008173ffffffffffffffffffffffffffffffffffffffff166370a08231306040518263ffffffff1660e01b815260040161127c9190613ed0565b60206040518083038186803b15801561129457600080fd5b505afa1580156112a8573d6000803e3d6000fd5b505050506040513d601f19601f820116820180604052508101906112cc919061336f565b9050828114611310576040517f08c379a0000000000000000000000000000000000000000000000000000000008152600401611307906140e2565b60405180910390fd5b611322856060015160000151826129f5565b3073ffffffffffffffffffffffffffffffffffffffff16856020015173ffffffffffffffffffffffffffffffffffffffff167f138dbc8474f748db86063dcef24cef1495bc73385a946f8d691128085e5ebec287606001516020015160405161138b9190614302565b60405180910390a36113ae838660600151602001516129df90919063ffffffff16565b856060015160200181815250506113de856060015160400151866060015160600151612adb90919063ffffffff16565b85606001516060018181525050428560600151608001818152505061141543866060015161010001516129df90919063ffffffff16565b856060015161010001818152505061144e6305f5e10061144043600454612af190919063ffffffff16565b61289390919063ffffffff16565b60048190555042600781905550846060015160200151856020015173ffffffffffffffffffffffffffffffffffffffff167f5548c837ab068cf56a2c2479df0882a4922fd203edb7517321831d95078c5f62306040516114ae9190613ed0565b60405180910390a3505050505080806114c69061480c565b915050610cf6565b50505050565b600080600960003373ffffffffffffffffffffffffffffffffffffffff1673ffffffffffffffffffffffffffffffffffffffff1681526020019081526020016000209050600a60008260010160009054906101000a900473ffffffffffffffffffffffffffffffffffffffff1673ffffffffffffffffffffffffffffffffffffffff1673ffffffffffffffffffffffffffffffffffffffff16815260200190815260200160002060009054906101000a900460ff166115c8576040517f08c379a00000000000000000000000000000000000000000000000000000000081526004016115bf90614242565b60405180910390fd5b60008160030160000160009054906101000a900473ffffffffffffffffffffffffffffffffffffffff16905060008173ffffffffffffffffffffffffffffffffffffffff1663ae9d70b06040518163ffffffff1660e01b815260040160206040518083038186803b15801561163c57600080fd5b505afa158015611650573d6000803e3d6000fd5b505050506040513d601f19601f82011682018060405250810190611674919061336f565b905060006116bc6305f5e1006116ae6004546116a0868960030160010154612af190919063ffffffff16565b61289390919063ffffffff16565b61289390919063ffffffff16565b90508094505050505090565b6000600960003373ffffffffffffffffffffffffffffffffffffffff1673ffffffffffffffffffffffffffffffffffffffff1681526020019081526020016000209050600a60008260010160009054906101000a900473ffffffffffffffffffffffffffffffffffffffff1673ffffffffffffffffffffffffffffffffffffffff1673ffffffffffffffffffffffffffffffffffffffff16815260200190815260200160002060009054906101000a900460ff166117bb576040517f08c379a00000000000000000000000000000000000000000000000000000000081526004016117b290614122565b60405180910390fd5b600081600301600501819055507f164f7b2ab803097dab5e39f06d2e4f3c3ddc5d4171abbdcc3e76443b8359c7f581600301600501546040516117fe9190614302565b60405180910390a150565b600a60003373ffffffffffffffffffffffffffffffffffffffff1673ffffffffffffffffffffffffffffffffffffffff16815260200190815260200160002060009054906101000a900460ff16611895576040517f08c379a000000000000000000000000000000000000000000000000000000000815260040161188c90614102565b60405180910390fd5b6000600960003373ffffffffffffffffffffffffffffffffffffffff1673ffffffffffffffffffffffffffffffffffffffff1681526020019081526020016000209050600560009054906101000a900473ffffffffffffffffffffffffffffffffffffffff1673ffffffffffffffffffffffffffffffffffffffff16632e1a7d4d82600301600101546040518263ffffffff1660e01b815260040161193a9190614302565b600060405180830381600087803b15801561195457600080fd5b505af1158015611968573d6000803e3d6000fd5b505050506000600660009054906101000a900473ffffffffffffffffffffffffffffffffffffffff1673ffffffffffffffffffffffffffffffffffffffff166370a08231306040518263ffffffff1660e01b81526004016119c99190613ed0565b60206040518083038186803b1580156119e157600080fd5b505afa1580156119f5573d6000803e3d6000fd5b505050506040513d601f19601f82011682018060405250810190611a19919061336f565b905081600301600101548111611a64576040517f08c379a0000000000000000000000000000000000000000000000000000000008152600401611a5b90614202565b60405180910390fd5b806003819055506000611a9f6305f5e100611a916003548660030160010154612af190919063ffffffff16565b61289390919063ffffffff16565b9050600660009054906101000a900473ffffffffffffffffffffffffffffffffffffffff1673ffffffffffffffffffffffffffffffffffffffff1663a9059cbb33836040518363ffffffff1660e01b8152600401611afe929190613fc0565b602060405180830381600087803b158015611b1857600080fd5b505af1158015611b2c573d6000803e3d6000fd5b505050506040513d601f19601f82011682018060405250810190611b509190613297565b50505050565b60096020528060005260406000206000915090508060000154908060010160009054906101000a900473ffffffffffffffffffffffffffffffffffffffff1690806002018054611ba590614772565b80601f0160208091040260200160405190810160405280929190818152602001828054611bd190614772565b8015611c1e5780601f10611bf357610100808354040283529160200191611c1e565b820191906000526020600020905b815481529060010190602001808311611c0157829003601f168201915b50505050509080600301604051806101400160405290816000820160009054906101000a900473ffffffffffffffffffffffffffffffffffffffff1673ffffffffffffffffffffffffffffffffffffffff1673ffffffffffffffffffffffffffffffffffffffff168152602001600182015481526020016002820154815260200160038201548152602001600482015481526020016005820154815260200160068201548152602001600782018054611cd690614772565b80601f0160208091040260200160405190810160405280929190818152602001828054611d0290614772565b8015611d4f5780601f10611d2457610100808354040283529160200191611d4f565b820191906000526020600020905b815481529060010190602001808311611d3257829003601f168201915b50505050508152602001600882015481526020016009820160009054906101000a900460ff161515151581525050905084565b6000600960003373ffffffffffffffffffffffffffffffffffffffff1673ffffffffffffffffffffffffffffffffffffffff1681526020019081526020016000209050600560009054906101000a900473ffffffffffffffffffffffffffffffffffffffff1673ffffffffffffffffffffffffffffffffffffffff1663d0e30db06040518163ffffffff1660e01b8152600401600060405180830381600087803b158015611e2f57600080fd5b505af1158015611e43573d6000803e3d6000fd5b50505050611e618282600301600101546129df90919063ffffffff16565b816003016001018190555080600301600101543373ffffffffffffffffffffffffffffffffffffffff167f5548c837ab068cf56a2c2479df0882a4922fd203edb7517321831d95078c5f62600660009054906101000a900473ffffffffffffffffffffffffffffffffffffffff16604051611edc9190613ed0565b60405180910390a35050565b60008054906101000a900473ffffffffffffffffffffffffffffffffffffffff1681565b60006060600854611f2860075442612adb90919063ffffffff16565b11600b604051602001611f3b9190613fe9565b604051602081830303815290604052915091509250929050565b600a6020528060005260406000206000915054906101000a900460ff1681565b600080600960008473ffffffffffffffffffffffffffffffffffffffff1673ffffffffffffffffffffffffffffffffffffffff16815260200190815260200160002090506000600560009054906101000a900473ffffffffffffffffffffffffffffffffffffffff1673ffffffffffffffffffffffffffffffffffffffff1663eec562c3306040518263ffffffff1660e01b81526004016120169190613ed0565b60206040518083038186803b15801561202e57600080fd5b505afa158015612042573d6000803e3d6000fd5b505050506040513d601f19601f82011682018060405250810190612066919061336f565b9050600061209a6305f5e10061208c848660030160010154612af190919063ffffffff16565b61289390919063ffffffff16565b9050809350505050919050565b8284116120e9576040517f08c379a00000000000000000000000000000000000000000000000000000000081526004016120e0906142e2565b60405180910390fd5b6000831161212c576040517f08c379a000000000000000000000000000000000000000000000000000000000815260040161212390614282565b60405180910390fd5b600a60003373ffffffffffffffffffffffffffffffffffffffff1673ffffffffffffffffffffffffffffffffffffffff16815260200190815260200160002060009054906101000a900460ff166121b8576040517f08c379a00000000000000000000000000000000000000000000000000000000081526004016121af90614262565b60405180910390fd5b6000600960003373ffffffffffffffffffffffffffffffffffffffff1673ffffffffffffffffffffffffffffffffffffffff16815260200190815260200160002090506000816003016006015414612245576040517f08c379a000000000000000000000000000000000000000000000000000000000815260040161223c906141e2565b60405180910390fd5b868160030160000160006101000a81548173ffffffffffffffffffffffffffffffffffffffff021916908373ffffffffffffffffffffffffffffffffffffffff160217905550814261229791906144a4565b81600301600601819055506122b583426129df90919063ffffffff16565b8160030160050181905550858160030160070190805190602001906122db929190612d46565b5084816003016003018190555083816003016002018190555060018160030160090160006101000a81548160ff0219169083151502179055507f0a342f2e207c3c328a10158ad0b71a9e64a10e319c5d635be24f8c7e418ea6e43382600301600701836003016006015460405161235493929190613f82565b60405180910390a150505050505050565b600a60003373ffffffffffffffffffffffffffffffffffffffff1673ffffffffffffffffffffffffffffffffffffffff16815260200190815260200160002060009054906101000a900460ff16156123f2576040517f08c379a00000000000000000000000000000000000000000000000000000000081526004016123e990614182565b60405180910390fd5b6000604051806101400160405280600073ffffffffffffffffffffffffffffffffffffffff1681526020016000815260200160008152602001600081526020014281526020016000815260200160008152602001604051806020016040528060008152508152602001438152602001600015158152509050600060405180608001604052806124816002612b07565b81526020013373ffffffffffffffffffffffffffffffffffffffff16815260200184815260200183815250905080600960003373ffffffffffffffffffffffffffffffffffffffff1673ffffffffffffffffffffffffffffffffffffffff1681526020019081526020016000206000820151816000015560208201518160010160006101000a81548173ffffffffffffffffffffffffffffffffffffffff021916908373ffffffffffffffffffffffffffffffffffffffff160217905550604082015181600201908051906020019061255b929190612d46565b5060608201518160030160008201518160000160006101000a81548173ffffffffffffffffffffffffffffffffffffffff021916908373ffffffffffffffffffffffffffffffffffffffff1602179055506020820151816001015560408201518160020155606082015181600301556080820151816004015560a0820151816005015560c0820151816006015560e0820151816007019080519060200190612604929190612d46565b5061010082015181600801556101208201518160090160006101000a81548160ff0219169083151502179055505050905050600b8190806001815401808255809150506001900390600052602060002090600d02016000909190919091506000820151816000015560208201518160010160006101000a81548173ffffffffffffffffffffffffffffffffffffffff021916908373ffffffffffffffffffffffffffffffffffffffff16021790555060408201518160020190805190602001906126cf929190612d46565b5060608201518160030160008201518160000160006101000a81548173ffffffffffffffffffffffffffffffffffffffff021916908373ffffffffffffffffffffffffffffffffffffffff1602179055506020820151816001015560408201518160020155606082015181600301556080820151816004015560a0820151816005015560c0820151816006015560e0820151816007019080519060200190612778929190612d46565b5061010082015181600801556101208201518160090160006101000a81548160ff021916908315150217905550505050506001600a60003373ffffffffffffffffffffffffffffffffffffffff1673ffffffffffffffffffffffffffffffffffffffff16815260200190815260200160002060006101000a81548160ff02191690831515021790555061280b60026128a9565b806040015160405161281d9190613eb9565b60405180910390203373ffffffffffffffffffffffffffffffffffffffff167f6ba0831d2f62ae5cbf7214bcc1d79c5da1d705f12811efda0beaa840006f874e60405160405180910390a3505050565b600560009054906101000a900473ffffffffffffffffffffffffffffffffffffffff1681565b600081836128a191906144fa565b905092915050565b6001816000016000828254019250508190555050565b60008111612902576040517f08c379a00000000000000000000000000000000000000000000000000000000081526004016128f990614222565b60405180910390fd5b600082905060008173ffffffffffffffffffffffffffffffffffffffff1663852a12e3846040518263ffffffff1660e01b81526004016129429190614302565b602060405180830381600087803b15801561295c57600080fd5b505af1158015612970573d6000803e3d6000fd5b505050506040513d601f19601f82011682018060405250810190612994919061336f565b9050600081146129d9576040517f08c379a00000000000000000000000000000000000000000000000000000000081526004016129d0906142a2565b60405180910390fd5b50505050565b600081836129ed91906144a4565b905092915050565b600082905060008173ffffffffffffffffffffffffffffffffffffffff16636f307dc36040518163ffffffff1660e01b815260040160206040518083038186803b158015612a4257600080fd5b505afa158015612a56573d6000803e3d6000fd5b505050506040513d601f19601f82011682018060405250810190612a7a919061318c565b9050612a868484612b15565b823073ffffffffffffffffffffffffffffffffffffffff167f5548c837ab068cf56a2c2479df0882a4922fd203edb7517321831d95078c5f6286604051612acd9190613ed0565b60405180910390a350505050565b60008183612ae99190614585565b905092915050565b60008183612aff919061452b565b905092915050565b600081600001549050919050565b60008111612b58576040517f08c379a0000000000000000000000000000000000000000000000000000000008152600401612b4f90614162565b60405180910390fd5b600082905060008173ffffffffffffffffffffffffffffffffffffffff16636f307dc36040518163ffffffff1660e01b815260040160206040518083038186803b158015612ba557600080fd5b505afa158015612bb9573d6000803e3d6000fd5b505050506040513d601f19601f82011682018060405250810190612bdd919061318c565b90508073ffffffffffffffffffffffffffffffffffffffff1663095ea7b385856040518363ffffffff1660e01b8152600401612c1a929190613fc0565b602060405180830381600087803b158015612c3457600080fd5b505af1158015612c48573d6000803e3d6000fd5b505050506040513d601f19601f82011682018060405250810190612c6c9190613297565b5060008273ffffffffffffffffffffffffffffffffffffffff1663a0712d68856040518263ffffffff1660e01b8152600401612ca89190614302565b602060405180830381600087803b158015612cc257600080fd5b505af1158015612cd6573d6000803e3d6000fd5b505050506040513d601f19601f82011682018060405250810190612cfa919061336f565b905060008114612d3f576040517f08c379a0000000000000000000000000000000000000000000000000000000008152600401612d3690614142565b60405180910390fd5b5050505050565b828054612d5290614772565b90600052602060002090601f016020900481019282612d745760008555612dbb565b82601f10612d8d57805160ff1916838001178555612dbb565b82800160010185558215612dbb579182015b82811115612dba578251825591602001919060010190612d9f565b5b509050612dc89190612dcc565b5090565b5b80821115612de5576000816000905550600101612dcd565b5090565b6000612dfc612df7846143a1565b614370565b9050808382526020820190508260005b85811015612e3c5781358501612e228882613095565b845260208401935060208301925050600181019050612e0c565b5050509392505050565b6000612e59612e54846143cd565b614370565b905082815260208101848484011115612e7157600080fd5b612e7c848285614730565b509392505050565b600081359050612e938161492f565b92915050565b600081519050612ea88161492f565b92915050565b600081359050612ebd81614946565b92915050565b600082601f830112612ed457600080fd5b8135612ee4848260208601612de9565b91505092915050565b600081359050612efc8161495d565b92915050565b600081519050612f118161495d565b92915050565b60008083601f840112612f2957600080fd5b8235905067ffffffffffffffff811115612f4257600080fd5b602083019150836001820283011115612f5a57600080fd5b9250929050565b600082601f830112612f7257600080fd5b8135612f82848260208601612e46565b91505092915050565b60006101408284031215612f9e57600080fd5b612fa9610140614370565b90506000612fb984828501612e84565b6000830152506020612fcd84828501613139565b6020830152506040612fe184828501613139565b6040830152506060612ff584828501613139565b606083015250608061300984828501613139565b60808301525060a061301d84828501613139565b60a08301525060c061303184828501613139565b60c08301525060e082013567ffffffffffffffff81111561305157600080fd5b61305d84828501612f61565b60e08301525061010061307284828501613139565b6101008301525061012061308884828501612eed565b6101208301525092915050565b6000608082840312156130a757600080fd5b6130b16080614370565b905060006130c184828501613139565b60008301525060206130d584828501612eae565b602083015250604082013567ffffffffffffffff8111156130f557600080fd5b61310184828501612f61565b604083015250606082013567ffffffffffffffff81111561312157600080fd5b61312d84828501612f8b565b60608301525092915050565b60008135905061314881614974565b92915050565b60008151905061315d81614974565b92915050565b60006020828403121561317557600080fd5b600061318384828501612e84565b91505092915050565b60006020828403121561319e57600080fd5b60006131ac84828501612e99565b91505092915050565b60008060008060008060c087890312156131ce57600080fd5b60006131dc89828a01612e84565b965050602087013567ffffffffffffffff8111156131f957600080fd5b61320589828a01612f61565b955050604061321689828a01613139565b945050606061322789828a01613139565b935050608061323889828a01613139565b92505060a061324989828a01613139565b9150509295509295509295565b60006020828403121561326857600080fd5b600082013567ffffffffffffffff81111561328257600080fd5b61328e84828501612ec3565b91505092915050565b6000602082840312156132a957600080fd5b60006132b784828501612f02565b91505092915050565b600080602083850312156132d357600080fd5b600083013567ffffffffffffffff8111156132ed57600080fd5b6132f985828601612f17565b92509250509250929050565b60006020828403121561331757600080fd5b600082013567ffffffffffffffff81111561333157600080fd5b61333d84828501612f61565b91505092915050565b60006020828403121561335857600080fd5b600061336684828501613139565b91505092915050565b60006020828403121561338157600080fd5b600061338f8482850161314e565b91505092915050565b60006133a48383613e1b565b905092915050565b6133b58161466a565b82525050565b6133c481614622565b82525050565b6133d381614622565b82525050565b6133e281614610565b82525050565b6133f181614610565b82525050565b600061340282614427565b61340c8185614455565b93508360208202850161341e856143fd565b8060005b858110156134595784840389528161343a8582613398565b945061344583614448565b925060208a01995050600181019050613422565b50829750879550505050505092915050565b61347481614634565b82525050565b61348381614634565b82525050565b600061349482614432565b61349e8185614466565b93506134ae81856020860161473f565b6134b781614911565b840191505092915050565b6134cb8161467c565b82525050565b6134da816146a0565b82525050565b6134e9816146c4565b82525050565b6134f8816146e8565b82525050565b60006135098261443d565b6135138185614477565b935061352381856020860161473f565b61352c81614911565b840191505092915050565b60006135428261443d565b61354c8185614488565b935061355c81856020860161473f565b61356581614911565b840191505092915050565b600061357b8261443d565b6135858185614499565b935061359581856020860161473f565b80840191505092915050565b600081546135ae81614772565b6135b88186614477565b945060018216600081146135d357600181146135e557613618565b60ff1983168652602086019350613618565b6135ee85614412565b60005b83811015613610578154818901526001820191506020810190506135f1565b808801955050505b50505092915050565b6000815461362e81614772565b6136388186614488565b94506001821660008114613653576001811461366557613698565b60ff1983168652602086019350613698565b61366e85614412565b60005b8381101561369057815481890152600182019150602081019050613671565b808801955050505b50505092915050565b60006136ae600f83614488565b91507f42616c616e636520746f6f206c6f7700000000000000000000000000000000006000830152602082019050919050565b60006136ee600f83614488565b91507f5472616e73666572206661696c656400000000000000000000000000000000006000830152602082019050919050565b600061372e601583614488565b91507f43616c6c6572206e6f74205265676973746572656400000000000000000000006000830152602082019050919050565b600061376e601883614488565b91507f43616c6c6572206973206e6f74207265676973746572656400000000000000006000830152602082019050919050565b60006137ae603483614488565b91507f63546f6b656e236d696e742829206661696c65642e2073656520436f6d706f7560008301527f6e64204572726f725265706f727465722e736f6c0000000000000000000000006020830152604082019050919050565b6000613814601283614488565b91507f416d6f756e742043616e6e6f74206265203000000000000000000000000000006000830152602082019050919050565b6000613854601d83614488565b91507f43616c6c6572206164647265737320616c7265616479206578697374730000006000830152602082019050919050565b6000613894602a83614488565b91507f496e73756666696369656e742062616c616e63652063616e6e6f74207065726660008301527f6f726d2075706b656570000000000000000000000000000000000000000000006020830152604082019050919050565b60006138fa601283614488565b91507f436c69656e7420686173206e6f20706c616e00000000000000000000000000006000830152602082019050919050565b600061393a602283614488565b91507f43616c6c657220616c7265616479206861732061206c6f636b2054696d65205360008301527f65740000000000000000000000000000000000000000000000000000000000006020830152604082019050919050565b60006139a0602383614488565b91507f5769746864726177696e67206d6f7265207468616e20796f75206465706f736960008301527f74656400000000000000000000000000000000000000000000000000000000006020830152604082019050919050565b6000613a06601383614488565b91507f4163636f756e742063616e6e6f742062652030000000000000000000000000006000830152602082019050919050565b6000613a46601583614488565b91507f43616c6c6572206e6f74207265676973746572656400000000000000000000006000830152602082019050919050565b6000613a86601b83614488565b91507f43616c6c65722068617320746f206265205265676973746572656400000000006000830152602082019050919050565b6000613ac6602083614488565b91507f617070726f766520616e20616d6f756e742067726561746572207468616e20306000830152602082019050919050565b6000613b06603683614488565b91507f63546f6b656e2372656465656d2829206661696c65642e2073656520436f6d7060008301527f6f756e64204572726f725265706f727465722e736f6c000000000000000000006020830152604082019050919050565b6000613b6c601683614488565b91507f41646472657373206e6f742072656769737465726564000000000000000000006000830152602082019050919050565b6000613bac602f83614488565b91507f53657420616e20616d6f756e742067726561746572207468616e20746865207260008301527f6563757272696e6720616d6f756e7400000000000000000000000000000000006020830152604082019050919050565b600061014083016000830151613c1e60008601826133d9565b506020830151613c316020860182613e9b565b506040830151613c446040860182613e9b565b506060830151613c576060860182613e9b565b506080830151613c6a6080860182613e9b565b5060a0830151613c7d60a0860182613e9b565b5060c0830151613c9060c0860182613e9b565b5060e083015184820360e0860152613ca882826134fe565b915050610100830151613cbf610100860182613e9b565b50610120830151613cd461012086018261346b565b508091505092915050565b600061014083016000808401549050613cf7816147a4565b613d0460008701826133d9565b5060018401549050613d15816147f2565b613d226020870182613e9b565b5060028401549050613d33816147f2565b613d406040870182613e9b565b5060038401549050613d51816147f2565b613d5e6060870182613e9b565b5060048401549050613d6f816147f2565b613d7c6080870182613e9b565b5060058401549050613d8d816147f2565b613d9a60a0870182613e9b565b5060068401549050613dab816147f2565b613db860c0870182613e9b565b506007840185830360e0870152613dcf83826135a1565b92505060088401549050613de2816147f2565b613df0610100870182613e9b565b5060098401549050613e01816147d8565b613e0f61012087018261346b565b50819250505092915050565b6000608083016000808401549050613e32816147f2565b613e3f6000870182613e9b565b5060018401549050613e50816147be565b613e5d60208701826133bb565b50600284018583036040870152613e7483826135a1565b925050600384018583036060870152613e8d8382613cdf565b925050819250505092915050565b613ea481614660565b82525050565b613eb381614660565b82525050565b6000613ec58284613570565b915081905092915050565b6000602082019050613ee560008301846133e8565b92915050565b6000606082019050613f0060008301866133ac565b613f0d60208301856133e8565b613f1a6040830184613eaa565b949350505050565b6000604082019050613f3760008301856133ac565b613f446020830184613eaa565b9392505050565b6000606082019050613f6060008301866133e8565b613f6d60208301856133e8565b613f7a6040830184613eaa565b949350505050565b6000606082019050613f9760008301866133e8565b8181036020830152613fa98185613621565b9050613fb86040830184613eaa565b949350505050565b6000604082019050613fd560008301856133e8565b613fe26020830184613eaa565b9392505050565b6000602082019050818103600083015261400381846133f7565b905092915050565b6000602082019050614020600083018461347a565b92915050565b600060408201905061403b600083018561347a565b818103602083015261404d8184613489565b90509392505050565b600060208201905061406b60008301846134c2565b92915050565b600060208201905061408660008301846134d1565b92915050565b60006020820190506140a160008301846134e0565b92915050565b60006020820190506140bc60008301846134ef565b92915050565b600060208201905081810360008301526140db816136a1565b9050919050565b600060208201905081810360008301526140fb816136e1565b9050919050565b6000602082019050818103600083015261411b81613721565b9050919050565b6000602082019050818103600083015261413b81613761565b9050919050565b6000602082019050818103600083015261415b816137a1565b9050919050565b6000602082019050818103600083015261417b81613807565b9050919050565b6000602082019050818103600083015261419b81613847565b9050919050565b600060208201905081810360008301526141bb81613887565b9050919050565b600060208201905081810360008301526141db816138ed565b9050919050565b600060208201905081810360008301526141fb8161392d565b9050919050565b6000602082019050818103600083015261421b81613993565b9050919050565b6000602082019050818103600083015261423b816139f9565b9050919050565b6000602082019050818103600083015261425b81613a39565b9050919050565b6000602082019050818103600083015261427b81613a79565b9050919050565b6000602082019050818103600083015261429b81613ab9565b9050919050565b600060208201905081810360008301526142bb81613af9565b9050919050565b600060208201905081810360008301526142db81613b5f565b9050919050565b600060208201905081810360008301526142fb81613b9f565b9050919050565b60006020820190506143176000830184613eaa565b92915050565b60006080820190506143326000830187613eaa565b61433f60208301866133ca565b81810360408301526143518185613537565b905081810360608301526143658184613c05565b905095945050505050565b6000604051905081810181811067ffffffffffffffff82111715614397576143966148e2565b5b8060405250919050565b600067ffffffffffffffff8211156143bc576143bb6148e2565b5b602082029050602081019050919050565b600067ffffffffffffffff8211156143e8576143e76148e2565b5b601f19601f8301169050602081019050919050565b60008190508160005260206000209050919050565b60008190508160005260206000209050919050565b600081549050919050565b600081519050919050565b600081519050919050565b6000600d82019050919050565b600082825260208201905092915050565b600082825260208201905092915050565b600082825260208201905092915050565b600082825260208201905092915050565b600081905092915050565b60006144af82614660565b91506144ba83614660565b9250827fffffffffffffffffffffffffffffffffffffffffffffffffffffffffffffffff038211156144ef576144ee614855565b5b828201905092915050565b600061450582614660565b915061451083614660565b9250826145205761451f614884565b5b828204905092915050565b600061453682614660565b915061454183614660565b9250817fffffffffffffffffffffffffffffffffffffffffffffffffffffffffffffffff048311821515161561457a57614579614855565b5b828202905092915050565b600061459082614660565b915061459b83614660565b9250828210156145ae576145ad614855565b5b828203905092915050565b600073ffffffffffffffffffffffffffffffffffffffff82169050919050565b600073ffffffffffffffffffffffffffffffffffffffff82169050919050565b600060ff82169050919050565b6000819050919050565b600061461b82614640565b9050919050565b600061462d82614640565b9050919050565b60008115159050919050565b600073ffffffffffffffffffffffffffffffffffffffff82169050919050565b6000819050919050565b60006146758261470c565b9050919050565b60006146878261468e565b9050919050565b600061469982614640565b9050919050565b60006146ab826146b2565b9050919050565b60006146bd82614640565b9050919050565b60006146cf826146d6565b9050919050565b60006146e182614640565b9050919050565b60006146f3826146fa565b9050919050565b600061470582614640565b9050919050565b60006147178261471e565b9050919050565b600061472982614640565b9050919050565b82818337600083830152505050565b60005b8381101561475d578082015181840152602081019050614742565b8381111561476c576000848401525b50505050565b6000600282049050600182168061478a57607f821691505b6020821081141561479e5761479d6148b3565b5b50919050565b60006147b76147b283614922565b6145b9565b9050919050565b60006147d16147cc83614922565b6145d9565b9050919050565b60006147eb6147e683614922565b6145f9565b9050919050565b600061480561480083614922565b614606565b9050919050565b600061481782614660565b91507fffffffffffffffffffffffffffffffffffffffffffffffffffffffffffffffff82141561484a57614849614855565b5b600182019050919050565b7f4e487b7100000000000000000000000000000000000000000000000000000000600052601160045260246000fd5b7f4e487b7100000000000000000000000000000000000000000000000000000000600052601260045260246000fd5b7f4e487b7100000000000000000000000000000000000000000000000000000000600052602260045260246000fd5b7f4e487b7100000000000000000000000000000000000000000000000000000000600052604160045260246000fd5b6000601f19601f8301169050919050565b60008160001c9050919050565b61493881614610565b811461494357600080fd5b50565b61494f81614622565b811461495a57600080fd5b50565b61496681614634565b811461497157600080fd5b50565b61497d81614660565b811461498857600080fd5b5056fea2646970667358221220a072f2c18068a80bbf7edbcf76f1587fbcf8aa2d85a3a864d4efa7b40ef0c5b664736f6c63430008000033",
  "immutableReferences": {},
  "source": "//SPDX-License-Identifier: Unlicense\r\npragma solidity ^0.8.0;\r\n\r\nimport \"@openzeppelin/contracts/utils/math/SafeMath.sol\";\r\nimport \"@openzeppelin/contracts/security/Pausable.sol\";\r\nimport \"@openzeppelin/contracts/security/ReentrancyGuard.sol\";\r\nimport \"@openzeppelin/contracts/access/Ownable.sol\";\r\nimport \"@openzeppelin/contracts/utils/Counters.sol\";\r\nimport '@openzeppelin/contracts/token/ERC20/IERC20.sol';\r\nimport \"@chainlink/contracts/src/v0.8/interfaces/KeeperCompatibleInterface.sol\";\r\nimport './CTokenInterface.sol';\r\nimport './ComptrollerInterface.sol';\r\nimport './PriceOracleInterface.sol';\r\nimport \"./XendFinanceInterface.sol\";\r\n\r\n\r\n// approve the user's underlying asset to be able to use the chainklink keepers\r\n\r\ncontract PensionServiceProvider is KeeperCompatibleInterface {\r\n    using SafeMath for uint;\r\n    using Counters for Counters.Counter;\r\n\r\n    // variables\r\n    ComptrollerInterface public comptroller;\r\n\tPriceOracleInterface public priceOracle;\r\n    Counters.Counter private id;\r\n\r\n    uint accXendTokens;\r\n    uint256 ccInterest;\r\n    XendFinanceInterface public xendFinance;\r\n    IERC20 public xend;\r\n\r\n    uint public lastTimeStamp;\r\n    uint public upKeepInterval;\r\n\r\n\r\n\r\n    \r\n\r\n\r\n\r\n    struct Client {\r\n        address underlyingAsset;\r\n        uint256 depositedAmount;\r\n        uint256 amountToSpend;\r\n        uint256 approvedAmountToSpend;\r\n        uint256 startTime;\r\n        uint256 timeDurationOfdeposit;\r\n        uint256 lockTime;\r\n        string ipfsHashOfUserPensionDetails;\r\n        uint256 userLastRewardBlock;\r\n        bool hasPlan;\r\n    }\r\n\r\n\r\n    // A user Object\r\n    struct User {\r\n        uint256 id;\r\n        address payable userAddress;\r\n        string  userDetails;\r\n        Client client;\r\n\r\n    }\r\n\r\n\r\n\r\n    \r\n\r\n    \r\n\r\n\r\n    event Register(address indexed applicant, string indexed applicantDetails);\r\n    event Withdraw(address from, address to, uint amount);\r\n    event Deposit(address indexed sender, address receiver, uint indexed amountSpent);\r\n    event Upkeep(address sender, bool upkeep);\r\n    event Plan(address user, string planDetails, uint lockTime);\r\n    event Update(uint256 timeDuration);\r\n    event Transfer(address indexed sender, uint amount, address indexed receiver);\r\n\r\n    mapping(address => User) public pensionServiceApplicant;\r\n\r\n    // keep track of registered users\r\n    mapping(address => bool) public isRegistered;\r\n\r\n    User[] public users;\r\n\r\n\r\n    constructor(address _xend, address _xendFinanceIndividual_Yearn_V1,  address _comptroller, address _priceOracle, uint _upKeepInterval)  {\r\n        xend = IERC20(_xend);\r\n        comptroller = ComptrollerInterface(_comptroller);\r\n\t\tpriceOracle = PriceOracleInterface(_priceOracle);\r\n        xendFinance = XendFinanceInterface(_xendFinanceIndividual_Yearn_V1);\r\n        ccInterest = uint256(3 ether).div(10); // .3% \r\n        lastTimeStamp = block.timestamp;\r\n        upKeepInterval = _upKeepInterval;\r\n\r\n        id.increment();\r\n        \r\n    }\r\n\r\n    function register(\r\n        string memory _userDetails\r\n        ) \r\n        public  {\r\n        require(!isRegistered[msg.sender], \"Caller address already exists\");\r\n\r\n        Client memory client = Client({\r\n            underlyingAsset: address(0),\r\n            depositedAmount: 0,\r\n            amountToSpend: 0,\r\n            approvedAmountToSpend: 0,\r\n            startTime: block.timestamp,\r\n            timeDurationOfdeposit: 0,\r\n            lockTime: 0,\r\n            ipfsHashOfUserPensionDetails: \"\",\r\n            userLastRewardBlock: block.number,\r\n            hasPlan: false\r\n        });\r\n\r\n        User memory user = User({\r\n            id: id.current(),\r\n            userAddress: payable(msg.sender),\r\n            userDetails: _userDetails,\r\n            client: client\r\n        });\r\n\r\n       \r\n\r\n        pensionServiceApplicant[msg.sender] = user;\r\n        users.push(user);\r\n        isRegistered[msg.sender] = true;\r\n\r\n        id.increment();\r\n\r\n        emit Register(msg.sender, user.userDetails);\r\n    }\r\n\r\n\r\n\r\n    function _deposit(address _asset ,uint256 _amount) internal  {\r\n        // require(isRegistered[msg.sender], \"Caller is not Registered\");\r\n        // User storage user = pensionServiceApplicant[msg.sender];\r\n        CTokenInterface cToken = CTokenInterface(_asset);\r\n\t\taddress underlyingAsset = cToken.underlying();\r\n        // IERC20(underlyingAsset).transferFrom(msg.sender, address(this), _amount);\r\n        // emit Transfer(user.userAddress, address(this));\r\n        // address cTokenaddress = user.client.underlyingAsset;\r\n        _supply(_asset, _amount);\r\n        // user.client.depositedAmount = user.client.depositedAmount.add(_amount);\r\n        emit Deposit(address(this), _asset, _amount);\r\n\r\n    }\r\n\r\n\r\n\r\n//     function _enterMarket(address _cTokenaddress) internal {\r\n// \t\taddress[] memory markets = new address[](1);\r\n// \t\tmarkets[0] = _cTokenaddress;\r\n// \t\tuint[] memory results = comptroller.enterMarkets(markets);\r\n// \t\trequire( results[0] == 0, 'comptroller#enterMarkets() failed. see Compound ErrorReporter.sol');\r\n// \t}\r\n\r\n\r\n\r\n\r\n\r\n\r\n    function _supply(address cTokenaddress, uint underlyingAmount) internal {\r\n        require(underlyingAmount > 0, \"Amount Cannot be 0\");\r\n        // _enterMarket(cTokenaddress);\r\n\t\tCTokenInterface cToken = CTokenInterface(cTokenaddress);\r\n\t\taddress underlyingAddress = cToken.underlying();\r\n\t\tIERC20(underlyingAddress).approve(cTokenaddress, underlyingAmount);\r\n\r\n\t\tuint result = cToken.mint(underlyingAmount);\r\n\t\trequire(result == 0, 'cToken#mint() failed. see Compound ErrorReporter.sol');\r\n\t}\r\n\r\n\r\n//     // chainlink keeper function call\r\n    function checkUpkeep(bytes calldata /* checkData */) external view override returns(bool, bytes memory)   {\r\n        \r\n        return (block.timestamp.sub(lastTimeStamp) > upKeepInterval, bytes(abi.encode(users)));\r\n        // (block.timestamp.sub(lastTimeStamp) > upKeepInterval);\r\n        \r\n    }\r\n\r\n\r\n\r\n\r\n    function performUpkeep(bytes calldata performData ) external override  {\r\n        User[] memory usersArray = abi.decode(performData, (User[]));\r\n        for(uint256 i = 0; i < usersArray.length - 1; i++ ) {\r\n            User memory  user = pensionServiceApplicant[usersArray[i].userAddress];\r\n            // if(block.timestamp> 0) {\r\n                require(isRegistered[user.userAddress], \"Address not registered\");\r\n                require(user.client.approvedAmountToSpend > 0, \"Insufficient balance cannot perform upkeep\");\r\n                require(user.client.hasPlan, \"Client has no plan\");\r\n                 CTokenInterface cToken = CTokenInterface(user.client.underlyingAsset);\r\n\r\n                uint amountToDeposit = user.client.amountToSpend;\r\n                address underlyingAsset = cToken.underlying();\r\n                IERC20(underlyingAsset).transferFrom(user.userAddress, address(this),  amountToDeposit);\r\n                uint balance = IERC20(underlyingAsset).balanceOf(address(this));\r\n                require(balance == amountToDeposit, \"Transfer failed\");\r\n                _deposit(user.client.underlyingAsset, balance);\r\n                // address cLink = 0xFAce851a4921ce59e912d19329929CE6da6EB0c7;\r\n                emit Transfer(user.userAddress, user.client.depositedAmount, address(this));\r\n                // _supply(user.client.underlyingAsset, user.client.amountToSpend);\r\n                user.client.depositedAmount = user.client.depositedAmount.add(amountToDeposit);\r\n                user.client.approvedAmountToSpend = user.client.approvedAmountToSpend.sub(user.client.amountToSpend);\r\n                user.client.startTime = block.timestamp;\r\n                user.client.userLastRewardBlock = user.client.userLastRewardBlock.add(block.number);\r\n                ccInterest = ccInterest.mul(block.number).div(1e8);\r\n                lastTimeStamp = block.timestamp;\r\n\r\n                emit Deposit(user.userAddress, address(this), user.client.depositedAmount);\r\n            // }\r\n        }\r\n    }\r\n\r\n\r\n\r\n    function withdraw() public {\r\n        require(isRegistered[msg.sender], \"Caller not registered\");\r\n\r\n        // Point to the User in Storage\r\n        User storage user = pensionServiceApplicant[msg.sender];\r\n        // require(user.client.depositedAmount > 0, \"Insufficient Balance\");\r\n        // require(user.client.hasPlan, \"Caller has no plan\");\r\n\r\n        if(block.timestamp < user.client.lockTime) {\r\n            // require(user.client.depositedAmount > 0, \"insufficient balance\");\r\n            CTokenInterface cToken = CTokenInterface(user.client.underlyingAsset);\r\n            address underlyingAsset = cToken.underlying();\r\n            _redeem(user.client.underlyingAsset, user.client.depositedAmount);\r\n            uint balance = IERC20(underlyingAsset).balanceOf(address(this));\r\n            require(balance == user.client.depositedAmount, 'Balance too low');\r\n            // isRegistered[msg.sender] = false;\r\n            uint amountToSend = user.client.depositedAmount.div(2);\r\n            IERC20(underlyingAsset).transfer(user.userAddress, amountToSend);\r\n            user.client.depositedAmount = 0;\r\n            user.client.userLastRewardBlock = block.number;\r\n            ccInterest = ccInterest.add(block.number).div(1e8);\r\n            emit Withdraw(address(this), msg.sender, amountToSend);\r\n        } else {\r\n            CTokenInterface cToken = CTokenInterface(user.client.underlyingAsset);\r\n            address underlyingAsset = cToken.underlying();\r\n            _redeem(user.client.underlyingAsset, user.client.depositedAmount);\r\n            uint balance = IERC20(underlyingAsset).balanceOf(address(this));\r\n            require(balance == user.client.depositedAmount, 'Balance too low');\r\n            // isRegistered[msg.sender] = false;\r\n            uint amountToSend = user.client.depositedAmount;\r\n            IERC20(underlyingAsset).transfer(user.userAddress, amountToSend);\r\n            user.client.depositedAmount = 0;\r\n            user.client.userLastRewardBlock = block.number;\r\n\r\n            emit Withdraw(address(this), msg.sender, amountToSend);\r\n        }\r\n\r\n//         // require(block.timestamp > user.lockTime, \"Early withdrawal will cost you 50% of your initial deposit\");\r\n\r\n\r\n}\r\n\r\n\r\n    function _redeem(address cTokenaddress, uint tokenAmount) internal {\r\n        require(tokenAmount > 0, 'Account cannot be 0');\r\n\t\tCTokenInterface cToken = CTokenInterface(cTokenaddress);\r\n\t\tuint result = cToken.redeemUnderlying(tokenAmount);\r\n\t\trequire(result == 0, 'cToken#redeem() failed. see Compound ErrorReporter.sol');\r\n\t}\r\n\r\n    // helper function for testing keepers\r\n    function updateTimeDurationOfDeposit() public  {\r\n        User storage user = pensionServiceApplicant[msg.sender];\r\n        require(isRegistered[user.userAddress], \"Caller is not registered\");\r\n        user.client.timeDurationOfdeposit = 0;\r\n        emit Update(user.client.timeDurationOfdeposit);\r\n    } \r\n\r\n    function setPlan(\r\n        address _underlyingAsset, \r\n        string memory _ipfsHashOfUserPensionDetails, \r\n        uint _approvedAmountToSpend, uint _amountToSpend, \r\n        uint _timeDurationOfDeposit, uint _lockTime) \r\n        public {\r\n        require(_approvedAmountToSpend > _amountToSpend, \"Set an amount greater than the recurring amount\");\r\n        require(_amountToSpend > 0, \"approve an amount greater than 0\");\r\n        require(isRegistered[msg.sender], \"Caller has to be Registered\");\r\n        User storage user = pensionServiceApplicant[msg.sender];\r\n        require(user.client.lockTime == 0, \"Caller already has a lock Time Set\");\r\n        user.client.underlyingAsset = _underlyingAsset;\r\n        user.client.lockTime = block.timestamp + _lockTime;\r\n        user.client.timeDurationOfdeposit = block.timestamp.add(_timeDurationOfDeposit);\r\n        user.client.ipfsHashOfUserPensionDetails = _ipfsHashOfUserPensionDetails;\r\n        user.client.approvedAmountToSpend = _approvedAmountToSpend;\r\n        user.client.amountToSpend = _amountToSpend;\r\n        user.client.hasPlan = true;\r\n\r\n        emit Plan(msg.sender, user.client.ipfsHashOfUserPensionDetails, user.client.lockTime);\r\n    }\r\n\r\n\r\n\r\n//     // for Xend\r\n\r\n    function getXendPendingRewards(address _user) public view returns(uint) {\r\n        User storage user = pensionServiceApplicant[_user];\r\n        uint256 accXendRewards = xendFinance.GetMemberXendTokenReward(address(this));\r\n        uint256 userPendingRewards = user.client.depositedAmount.mul(accXendRewards).div(1e8);\r\n\r\n        return userPendingRewards;\r\n    }\r\n\r\n\r\n\r\n    function depositToXendFinance(uint _amount) public  {\r\n        // require(isRegistered[msg.sender], \"Caller not Registered\");\r\n        User storage user = pensionServiceApplicant[msg.sender];\r\n        xendFinance.deposit();\r\n        user.client.depositedAmount = user.client.depositedAmount.add(_amount);\r\n\r\n        emit Deposit(msg.sender, address(xend), user.client.depositedAmount);\r\n        \r\n    }\r\n\r\n\r\n\r\n    function withdrawFromXendFinance() public {\r\n        require(isRegistered[msg.sender], \"Caller not Registered\");\r\n        User storage user = pensionServiceApplicant[msg.sender];\r\n        xendFinance.withdraw(user.client.depositedAmount);\r\n        uint256 xendBalance = xend.balanceOf(address(this));\r\n        require(xendBalance > user.client.depositedAmount, \"Withdrawing more than you deposited\");\r\n        accXendTokens = xendBalance;\r\n        uint256 accXendTokensforUser = user.client.depositedAmount.mul(accXendTokens).div(1e8);\r\n        xend.transfer(msg.sender, accXendTokensforUser);\r\n\r\n    }\r\n\r\n    function getAccruedInterest() public view returns(uint) {\r\n        User storage user = pensionServiceApplicant[msg.sender];\r\n        require(isRegistered[user.userAddress], \"Caller not registered\");\r\n        CTokenInterface ctoken = CTokenInterface(user.client.underlyingAsset);\r\n        uint supplyRatePerBlock = ctoken.supplyRatePerBlock();\r\n        uint accInterest = user.client.depositedAmount.mul(supplyRatePerBlock).div(ccInterest).div(1e8);\r\n        return accInterest;\r\n    }\r\n}",
  "sourcePath": "/mnt/c/Users/chuks/Desktop/Project/beima_project/beima_core/contracts/PensionServiceProvider.sol",
  "compiler": {
    "name": "solc",
    "version": "0.8.0+commit.c7dfd78e.Emscripten.clang"
  },
  "schemaVersion": "3.4.3",
  "updatedAt": "2021-12-03T06:56:07.297Z",
  "devdoc": {
    "kind": "dev",
    "methods": {
      "performUpkeep(bytes)": {
        "params": {
          "performData": "is the data which was passed back from the checkData simulation."
        }
      }
    },
    "version": 1
  },
  "userdoc": {
    "kind": "user",
    "methods": {
      "performUpkeep(bytes)": {
        "notice": "Performs work on the contract. Executed by the keepers, via the registry."
      }
    },
    "version": 1
  }
}