{
  "contractName": "PensionServiceProvider",
  "abi": [
    {
      "inputs": [
        {
          "internalType": "address",
          "name": "_xend",
          "type": "address"
        },
        {
          "internalType": "address",
          "name": "_xendFinanceIndividual_Yearn_V1",
          "type": "address"
        },
        {
          "internalType": "address",
          "name": "_comptroller",
          "type": "address"
        },
        {
          "internalType": "address",
          "name": "_priceOracle",
          "type": "address"
        }
      ],
      "stateMutability": "nonpayable",
      "type": "constructor"
    },
    {
      "anonymous": false,
      "inputs": [
        {
          "indexed": false,
          "internalType": "address",
          "name": "user",
          "type": "address"
        },
        {
          "indexed": false,
          "internalType": "uint256",
          "name": "amount",
          "type": "uint256"
        }
      ],
      "name": "Deposit",
      "type": "event"
    },
    {
      "anonymous": false,
      "inputs": [
        {
          "indexed": false,
          "internalType": "string",
          "name": "",
          "type": "string"
        },
        {
          "indexed": false,
          "internalType": "uint256",
          "name": "",
          "type": "uint256"
        }
      ],
      "name": "MyLog",
      "type": "event"
    },
    {
      "anonymous": false,
      "inputs": [
        {
          "indexed": true,
          "internalType": "address",
          "name": "previousOwner",
          "type": "address"
        },
        {
          "indexed": true,
          "internalType": "address",
          "name": "newOwner",
          "type": "address"
        }
      ],
      "name": "OwnershipTransferred",
      "type": "event"
    },
    {
      "anonymous": false,
      "inputs": [
        {
          "indexed": false,
          "internalType": "address",
          "name": "account",
          "type": "address"
        }
      ],
      "name": "Paused",
      "type": "event"
    },
    {
      "anonymous": false,
      "inputs": [
        {
          "indexed": false,
          "internalType": "address",
          "name": "applicant",
          "type": "address"
        },
        {
          "indexed": false,
          "internalType": "string",
          "name": "applicantDetails",
          "type": "string"
        },
        {
          "indexed": false,
          "internalType": "uint256",
          "name": "approvedAmountByApplicant",
          "type": "uint256"
        },
        {
          "indexed": false,
          "internalType": "uint256",
          "name": "lockTime",
          "type": "uint256"
        }
      ],
      "name": "Register",
      "type": "event"
    },
    {
      "anonymous": false,
      "inputs": [
        {
          "indexed": false,
          "internalType": "address",
          "name": "account",
          "type": "address"
        }
      ],
      "name": "Unpaused",
      "type": "event"
    },
    {
      "anonymous": false,
      "inputs": [
        {
          "indexed": false,
          "internalType": "address",
          "name": "sender",
          "type": "address"
        },
        {
          "indexed": false,
          "internalType": "bool",
          "name": "upkeep",
          "type": "bool"
        }
      ],
      "name": "Upkeep",
      "type": "event"
    },
    {
      "anonymous": false,
      "inputs": [
        {
          "indexed": false,
          "internalType": "address",
          "name": "from",
          "type": "address"
        },
        {
          "indexed": false,
          "internalType": "address",
          "name": "to",
          "type": "address"
        },
        {
          "indexed": false,
          "internalType": "uint256",
          "name": "amount",
          "type": "uint256"
        }
      ],
      "name": "Withdraw",
      "type": "event"
    },
    {
      "inputs": [],
      "name": "comptroller",
      "outputs": [
        {
          "internalType": "contract ComptrollerInterface",
          "name": "",
          "type": "address"
        }
      ],
      "stateMutability": "view",
      "type": "function"
    },
    {
      "inputs": [
        {
          "internalType": "address",
          "name": "",
          "type": "address"
        }
      ],
      "name": "isRegistered",
      "outputs": [
        {
          "internalType": "bool",
          "name": "",
          "type": "bool"
        }
      ],
      "stateMutability": "view",
      "type": "function"
    },
    {
      "inputs": [],
      "name": "owner",
      "outputs": [
        {
          "internalType": "address",
          "name": "",
          "type": "address"
        }
      ],
      "stateMutability": "view",
      "type": "function"
    },
    {
      "inputs": [],
      "name": "paused",
      "outputs": [
        {
          "internalType": "bool",
          "name": "",
          "type": "bool"
        }
      ],
      "stateMutability": "view",
      "type": "function"
    },
    {
      "inputs": [
        {
          "internalType": "address",
          "name": "",
          "type": "address"
        }
      ],
      "name": "pensionServiceApplicant",
      "outputs": [
        {
          "internalType": "uint256",
          "name": "id",
          "type": "uint256"
        },
        {
          "internalType": "address",
          "name": "underlyingAsset",
          "type": "address"
        },
        {
          "internalType": "address payable",
          "name": "userAddress",
          "type": "address"
        },
        {
          "internalType": "string",
          "name": "userDetails",
          "type": "string"
        },
        {
          "internalType": "uint256",
          "name": "depositedAmount",
          "type": "uint256"
        },
        {
          "internalType": "uint256",
          "name": "amountToSpend",
          "type": "uint256"
        },
        {
          "internalType": "uint256",
          "name": "approvedAmountToSpend",
          "type": "uint256"
        },
        {
          "internalType": "uint256",
          "name": "startTime",
          "type": "uint256"
        },
        {
          "internalType": "uint256",
          "name": "timeDurationOfdeposit",
          "type": "uint256"
        },
        {
          "internalType": "uint256",
          "name": "lockTime",
          "type": "uint256"
        }
      ],
      "stateMutability": "view",
      "type": "function"
    },
    {
      "inputs": [],
      "name": "priceOracle",
      "outputs": [
        {
          "internalType": "contract PriceOracleInterface",
          "name": "",
          "type": "address"
        }
      ],
      "stateMutability": "view",
      "type": "function"
    },
    {
      "inputs": [],
      "name": "renounceOwnership",
      "outputs": [],
      "stateMutability": "nonpayable",
      "type": "function"
    },
    {
      "inputs": [
        {
          "internalType": "address",
          "name": "newOwner",
          "type": "address"
        }
      ],
      "name": "transferOwnership",
      "outputs": [],
      "stateMutability": "nonpayable",
      "type": "function"
    },
    {
      "inputs": [
        {
          "internalType": "uint256",
          "name": "",
          "type": "uint256"
        }
      ],
      "name": "users",
      "outputs": [
        {
          "internalType": "uint256",
          "name": "id",
          "type": "uint256"
        },
        {
          "internalType": "address",
          "name": "underlyingAsset",
          "type": "address"
        },
        {
          "internalType": "address payable",
          "name": "userAddress",
          "type": "address"
        },
        {
          "internalType": "string",
          "name": "userDetails",
          "type": "string"
        },
        {
          "internalType": "uint256",
          "name": "depositedAmount",
          "type": "uint256"
        },
        {
          "internalType": "uint256",
          "name": "amountToSpend",
          "type": "uint256"
        },
        {
          "internalType": "uint256",
          "name": "approvedAmountToSpend",
          "type": "uint256"
        },
        {
          "internalType": "uint256",
          "name": "startTime",
          "type": "uint256"
        },
        {
          "internalType": "uint256",
          "name": "timeDurationOfdeposit",
          "type": "uint256"
        },
        {
          "internalType": "uint256",
          "name": "lockTime",
          "type": "uint256"
        }
      ],
      "stateMutability": "view",
      "type": "function"
    },
    {
      "inputs": [],
      "name": "xend",
      "outputs": [
        {
          "internalType": "contract IERC20",
          "name": "",
          "type": "address"
        }
      ],
      "stateMutability": "view",
      "type": "function"
    },
    {
      "inputs": [],
      "name": "xendFinance",
      "outputs": [
        {
          "internalType": "contract XendFinanceInterface",
          "name": "",
          "type": "address"
        }
      ],
      "stateMutability": "view",
      "type": "function"
    },
    {
      "inputs": [
        {
          "internalType": "address",
          "name": "_underlyingAsset",
          "type": "address"
        },
        {
          "internalType": "string",
          "name": "_userDetails",
          "type": "string"
        },
        {
          "internalType": "uint256",
          "name": "_amountToSpend",
          "type": "uint256"
        },
        {
          "internalType": "uint256",
          "name": "_approvedAmountToSpend",
          "type": "uint256"
        },
        {
          "internalType": "uint256",
          "name": "_timeDurationOfDeposit",
          "type": "uint256"
        }
      ],
      "name": "register",
      "outputs": [],
      "stateMutability": "nonpayable",
      "type": "function"
    },
    {
      "inputs": [
        {
          "internalType": "uint256",
          "name": "_amount",
          "type": "uint256"
        }
      ],
      "name": "deposit",
      "outputs": [],
      "stateMutability": "payable",
      "type": "function"
    },
    {
      "inputs": [
        {
          "internalType": "bytes",
          "name": "",
          "type": "bytes"
        }
      ],
      "name": "checkUpkeep",
      "outputs": [
        {
          "internalType": "bool",
          "name": "upkeep",
          "type": "bool"
        },
        {
          "internalType": "bytes",
          "name": "upKeepData",
          "type": "bytes"
        }
      ],
      "stateMutability": "view",
      "type": "function"
    },
    {
      "inputs": [
        {
          "internalType": "bytes",
          "name": "upKeepData",
          "type": "bytes"
        }
      ],
      "name": "performUpkeep",
      "outputs": [],
      "stateMutability": "nonpayable",
      "type": "function"
    },
    {
      "inputs": [],
      "name": "withdraw",
      "outputs": [],
      "stateMutability": "nonpayable",
      "type": "function"
    },
    {
      "inputs": [],
      "name": "updateTimeDurationOfDeposit",
      "outputs": [],
      "stateMutability": "nonpayable",
      "type": "function"
    },
    {
      "inputs": [
        {
          "internalType": "uint256",
          "name": "_lockTime",
          "type": "uint256"
        }
      ],
      "name": "setLockTime",
      "outputs": [],
      "stateMutability": "nonpayable",
      "type": "function"
    },
    {
      "inputs": [
        {
          "internalType": "address",
          "name": "_user",
          "type": "address"
        }
      ],
      "name": "getXendPendingRewards",
      "outputs": [
        {
          "internalType": "uint256",
          "name": "",
          "type": "uint256"
        }
      ],
      "stateMutability": "view",
      "type": "function"
    },
    {
      "inputs": [
        {
          "internalType": "uint256",
          "name": "_amount",
          "type": "uint256"
        }
      ],
      "name": "depositToXendFinance",
      "outputs": [],
      "stateMutability": "nonpayable",
      "type": "function"
    },
    {
      "inputs": [],
      "name": "withdrawFromXendFinance",
      "outputs": [],
      "stateMutability": "nonpayable",
      "type": "function"
    }
  ],
  "bytecode": "0x60806040523480156200001157600080fd5b506040516200447538038062004475833981810160405281019062000037919062000298565b60008060006101000a81548160ff02191690831515021790555060018081905550620000786200006c6200019d60201b60201c565b620001a560201b60201c565b83600860006101000a81548173ffffffffffffffffffffffffffffffffffffffff021916908373ffffffffffffffffffffffffffffffffffffffff16021790555081600360006101000a81548173ffffffffffffffffffffffffffffffffffffffff021916908373ffffffffffffffffffffffffffffffffffffffff16021790555080600460006101000a81548173ffffffffffffffffffffffffffffffffffffffff021916908373ffffffffffffffffffffffffffffffffffffffff16021790555082600760006101000a81548173ffffffffffffffffffffffffffffffffffffffff021916908373ffffffffffffffffffffffffffffffffffffffff1602179055506200019360056200026b60201b6200245a1760201c565b5050505062000352565b600033905090565b6000600260009054906101000a900473ffffffffffffffffffffffffffffffffffffffff16905081600260006101000a81548173ffffffffffffffffffffffffffffffffffffffff021916908373ffffffffffffffffffffffffffffffffffffffff1602179055508173ffffffffffffffffffffffffffffffffffffffff168173ffffffffffffffffffffffffffffffffffffffff167f8be0079c531659141344cd1fd0a4f28419497f9722a3daafe3b4186f6b6457e060405160405180910390a35050565b6001816000016000828254019250508190555050565b600081519050620002928162000338565b92915050565b60008060008060808587031215620002af57600080fd5b6000620002bf8782880162000281565b9450506020620002d28782880162000281565b9350506040620002e58782880162000281565b9250506060620002f88782880162000281565b91505092959194509250565b6000620003118262000318565b9050919050565b600073ffffffffffffffffffffffffffffffffffffffff82169050919050565b620003438162000304565b81146200034f57600080fd5b50565b61411380620003626000396000f3fe60806040526004361061012a5760003560e01c80635fe3b567116100ab578063ae04d45d1161006f578063ae04d45d146103a7578063b6b55f25146103d0578063c3c5a547146103ec578063c742ee0514610429578063f2fde38b14610466578063f5dd60651461048f5761012a565b80635fe3b567146102d35780636e04ff0d146102fe578063715018a61461033c5780638da5cb5b14610353578063a231bdf81461037e5761012a565b806356dc5d8e116100f257806356dc5d8e1461020b57806359098330146102225780635bc9d2bf146102395780635c975abb1461027f5780635daa4bfa146102aa5761012a565b80632630c12f1461012f5780633245f2281461015a578063365b98b2146101855780633ccfd60b146101cb5780634585e33b146101e2575b600080fd5b34801561013b57600080fd5b506101446104ba565b60405161015191906137e8565b60405180910390f35b34801561016657600080fd5b5061016f6104e0565b60405161017c91906137cd565b60405180910390f35b34801561019157600080fd5b506101ac60048036038101906101a79190612d68565b610506565b6040516101c29a99989796959493929190613abb565b60405180910390f35b3480156101d757600080fd5b506101e0610632565b005b3480156101ee57600080fd5b5061020960048036038101906102049190612ce2565b610d49565b005b34801561021757600080fd5b5061022061114d565b005b34801561022e57600080fd5b5061023761124d565b005b34801561024557600080fd5b50610260600480360381019061025b9190612bd8565b61162e565b6040516102769a99989796959493929190613abb565b60405180910390f35b34801561028b57600080fd5b5061029461174a565b6040516102a19190613767565b60405180910390f35b3480156102b657600080fd5b506102d160048036038101906102cc9190612d68565b611760565b005b3480156102df57600080fd5b506102e86118cd565b6040516102f591906137b2565b60405180910390f35b34801561030a57600080fd5b5061032560048036038101906103209190612ce2565b6118f3565b604051610333929190613782565b60405180910390f35b34801561034857600080fd5b506103516119fd565b005b34801561035f57600080fd5b50610368611a85565b6040516103759190613640565b60405180910390f35b34801561038a57600080fd5b506103a560048036038101906103a09190612c2a565b611aaf565b005b3480156103b357600080fd5b506103ce60048036038101906103c99190612d68565b611f1b565b005b6103ea60048036038101906103e59190612d68565b612049565b005b3480156103f857600080fd5b50610413600480360381019061040e9190612bd8565b6121ed565b6040516104209190613767565b60405180910390f35b34801561043557600080fd5b50610450600480360381019061044b9190612bd8565b61220d565b60405161045d9190613aa0565b60405180910390f35b34801561047257600080fd5b5061048d60048036038101906104889190612bd8565b61233c565b005b34801561049b57600080fd5b506104a4612434565b6040516104b19190613803565b60405180910390f35b600460009054906101000a900473ffffffffffffffffffffffffffffffffffffffff1681565b600860009054906101000a900473ffffffffffffffffffffffffffffffffffffffff1681565b600b818154811061051657600080fd5b90600052602060002090600a02016000915090508060000154908060010160009054906101000a900473ffffffffffffffffffffffffffffffffffffffff16908060020160009054906101000a900473ffffffffffffffffffffffffffffffffffffffff169080600301805461058b90613ede565b80601f01602080910402602001604051908101604052809291908181526020018280546105b790613ede565b80156106045780601f106105d957610100808354040283529160200191610604565b820191906000526020600020905b8154815290600101906020018083116105e757829003601f168201915b505050505090806004015490806005015490806006015490806007015490806008015490806009015490508a565b61063a61174a565b1561067a576040517f08c379a00000000000000000000000000000000000000000000000000000000081526004016106719061391e565b60405180910390fd5b600260015414156106c0576040517f08c379a00000000000000000000000000000000000000000000000000000000081526004016106b790613a5e565b60405180910390fd5b6002600181905550600a60003373ffffffffffffffffffffffffffffffffffffffff1673ffffffffffffffffffffffffffffffffffffffff16815260200190815260200160002060009054906101000a900460ff16610754576040517f08c379a000000000000000000000000000000000000000000000000000000000815260040161074b9061397e565b60405180910390fd5b6000600960003373ffffffffffffffffffffffffffffffffffffffff1673ffffffffffffffffffffffffffffffffffffffff16815260200190815260200160002060040154116107d9576040517f08c379a00000000000000000000000000000000000000000000000000000000081526004016107d0906139fe565b60405180910390fd5b6000600960003373ffffffffffffffffffffffffffffffffffffffff1673ffffffffffffffffffffffffffffffffffffffff16815260200190815260200160002090508060090154421015610abf57600081600401541161086f576040517f08c379a0000000000000000000000000000000000000000000000000000000008152600401610866906139de565b60405180910390fd5b6108a18160010160009054906101000a900473ffffffffffffffffffffffffffffffffffffffff168260040154612470565b6000600a60003373ffffffffffffffffffffffffffffffffffffffff1673ffffffffffffffffffffffffffffffffffffffff16815260200190815260200160002060006101000a81548160ff02191690831515021790555060006109136002836004015461254d90919063ffffffff16565b905060008260010160009054906101000a900473ffffffffffffffffffffffffffffffffffffffff16905060008173ffffffffffffffffffffffffffffffffffffffff16636f307dc36040518163ffffffff1660e01b815260040160206040518083038186803b15801561098657600080fd5b505afa15801561099a573d6000803e3d6000fd5b505050506040513d601f19601f820116820180604052508101906109be9190612c01565b90508073ffffffffffffffffffffffffffffffffffffffff1663a9059cbb8560020160009054906101000a900473ffffffffffffffffffffffffffffffffffffffff16856040518363ffffffff1660e01b8152600401610a1f929190613692565b602060405180830381600087803b158015610a3957600080fd5b505af1158015610a4d573d6000803e3d6000fd5b505050506040513d601f19601f82011682018060405250810190610a719190612cb9565b50600084600401819055507f9b1bfa7fa9ee420a16e124f794c35ac9f90472acc99140eb2f6447c714cad8eb303385604051610aaf939291906136bb565b60405180910390a1505050610d3f565b6000816004015411610b06576040517f08c379a0000000000000000000000000000000000000000000000000000000008152600401610afd906139de565b60405180910390fd5b610b388160010160009054906101000a900473ffffffffffffffffffffffffffffffffffffffff168260040154612470565b6000600a60003373ffffffffffffffffffffffffffffffffffffffff1673ffffffffffffffffffffffffffffffffffffffff16815260200190815260200160002060006101000a81548160ff02191690831515021790555060008160040154905060008260010160009054906101000a900473ffffffffffffffffffffffffffffffffffffffff16905060008173ffffffffffffffffffffffffffffffffffffffff16636f307dc36040518163ffffffff1660e01b815260040160206040518083038186803b158015610c0a57600080fd5b505afa158015610c1e573d6000803e3d6000fd5b505050506040513d601f19601f82011682018060405250810190610c429190612c01565b90508073ffffffffffffffffffffffffffffffffffffffff1663a9059cbb8560020160009054906101000a900473ffffffffffffffffffffffffffffffffffffffff16856040518363ffffffff1660e01b8152600401610ca3929190613692565b602060405180830381600087803b158015610cbd57600080fd5b505af1158015610cd1573d6000803e3d6000fd5b505050506040513d601f19601f82011682018060405250810190610cf59190612cb9565b50600084600401819055507f9b1bfa7fa9ee420a16e124f794c35ac9f90472acc99140eb2f6447c714cad8eb303385604051610d33939291906136bb565b60405180910390a15050505b5060018081905550565b610d5161174a565b15610d91576040517f08c379a0000000000000000000000000000000000000000000000000000000008152600401610d889061391e565b60405180910390fd5b60008282810190610da29190612d27565b9050600060096000836040015173ffffffffffffffffffffffffffffffffffffffff1673ffffffffffffffffffffffffffffffffffffffff16815260200190815260200160002090508060080154610e0782600701544261256390919063ffffffff16565b111561114757600a60008260020160009054906101000a900473ffffffffffffffffffffffffffffffffffffffff1673ffffffffffffffffffffffffffffffffffffffff1673ffffffffffffffffffffffffffffffffffffffff16815260200190815260200160002060009054906101000a900460ff16610ebd576040517f08c379a0000000000000000000000000000000000000000000000000000000008152600401610eb490613a3e565b60405180910390fd5b6000816006015411610f04576040517f08c379a0000000000000000000000000000000000000000000000000000000008152600401610efb906138fe565b60405180910390fd5b6000600a60008360020160009054906101000a900473ffffffffffffffffffffffffffffffffffffffff1673ffffffffffffffffffffffffffffffffffffffff1673ffffffffffffffffffffffffffffffffffffffff16815260200190815260200160002060006101000a81548160ff02191690831515021790555060008160010160009054906101000a900473ffffffffffffffffffffffffffffffffffffffff1690506000826005015490508260010160009054906101000a900473ffffffffffffffffffffffffffffffffffffffff1673ffffffffffffffffffffffffffffffffffffffff166323b872dd8460020160009054906101000a900473ffffffffffffffffffffffffffffffffffffffff1630846040518463ffffffff1660e01b81526004016110379392919061365b565b602060405180830381600087803b15801561105157600080fd5b505af1158015611065573d6000803e3d6000fd5b505050506040513d601f19601f820116820180604052508101906110899190612cb9565b50611098828460050154612579565b6110af81846004015461256390919063ffffffff16565b83600401819055506110d2836005015484600601546127f390919063ffffffff16565b83600601819055504283600701819055507fe1fffcc4923d04b559f4d29a8bfc6cda04eb5b0d3c460751c2402c5c5cc9109c8360020160009054906101000a900473ffffffffffffffffffffffffffffffffffffffff16846005015460405161113c929190613692565b60405180910390a150505b50505050565b6000600960003373ffffffffffffffffffffffffffffffffffffffff1673ffffffffffffffffffffffffffffffffffffffff1681526020019081526020016000209050600a60008260020160009054906101000a900473ffffffffffffffffffffffffffffffffffffffff1673ffffffffffffffffffffffffffffffffffffffff1673ffffffffffffffffffffffffffffffffffffffff16815260200190815260200160002060009054906101000a900460ff16611240576040517f08c379a00000000000000000000000000000000000000000000000000000000081526004016112379061389e565b60405180910390fd5b6000816008018190555050565b61125561174a565b15611295576040517f08c379a000000000000000000000000000000000000000000000000000000000815260040161128c9061391e565b60405180910390fd5b600260015414156112db576040517f08c379a00000000000000000000000000000000000000000000000000000000081526004016112d290613a5e565b60405180910390fd5b6002600181905550600a60003373ffffffffffffffffffffffffffffffffffffffff1673ffffffffffffffffffffffffffffffffffffffff16815260200190815260200160002060009054906101000a900460ff1661136f576040517f08c379a00000000000000000000000000000000000000000000000000000000081526004016113669061387e565b60405180910390fd5b6000600960003373ffffffffffffffffffffffffffffffffffffffff1673ffffffffffffffffffffffffffffffffffffffff1681526020019081526020016000209050600760009054906101000a900473ffffffffffffffffffffffffffffffffffffffff1673ffffffffffffffffffffffffffffffffffffffff16632e1a7d4d82600401546040518263ffffffff1660e01b81526004016114119190613aa0565b600060405180830381600087803b15801561142b57600080fd5b505af115801561143f573d6000803e3d6000fd5b505050506000600860009054906101000a900473ffffffffffffffffffffffffffffffffffffffff1673ffffffffffffffffffffffffffffffffffffffff166370a08231306040518263ffffffff1660e01b81526004016114a09190613640565b60206040518083038186803b1580156114b857600080fd5b505afa1580156114cc573d6000803e3d6000fd5b505050506040513d601f19601f820116820180604052508101906114f09190612d91565b905081600401548111611538576040517f08c379a000000000000000000000000000000000000000000000000000000000815260040161152f9061395e565b60405180910390fd5b8060068190555060006115706305f5e100611562600654866004015461280990919063ffffffff16565b61254d90919063ffffffff16565b9050600860009054906101000a900473ffffffffffffffffffffffffffffffffffffffff1673ffffffffffffffffffffffffffffffffffffffff1663a9059cbb33836040518363ffffffff1660e01b81526004016115cf92919061373e565b602060405180830381600087803b1580156115e957600080fd5b505af11580156115fd573d6000803e3d6000fd5b505050506040513d601f19601f820116820180604052508101906116219190612cb9565b5050505060018081905550565b60096020528060005260406000206000915090508060000154908060010160009054906101000a900473ffffffffffffffffffffffffffffffffffffffff16908060020160009054906101000a900473ffffffffffffffffffffffffffffffffffffffff16908060030180546116a390613ede565b80601f01602080910402602001604051908101604052809291908181526020018280546116cf90613ede565b801561171c5780601f106116f15761010080835404028352916020019161171c565b820191906000526020600020905b8154815290600101906020018083116116ff57829003601f168201915b505050505090806004015490806005015490806006015490806007015490806008015490806009015490508a565b60008060009054906101000a900460ff16905090565b61176861174a565b156117a8576040517f08c379a000000000000000000000000000000000000000000000000000000000815260040161179f9061391e565b60405180910390fd5b6000600960003373ffffffffffffffffffffffffffffffffffffffff1673ffffffffffffffffffffffffffffffffffffffff1681526020019081526020016000209050600760009054906101000a900473ffffffffffffffffffffffffffffffffffffffff1673ffffffffffffffffffffffffffffffffffffffff1663d0e30db06040518163ffffffff1660e01b8152600401600060405180830381600087803b15801561185557600080fd5b505af1158015611869573d6000803e3d6000fd5b5050505061188482826004015461256390919063ffffffff16565b81600401819055507fe1fffcc4923d04b559f4d29a8bfc6cda04eb5b0d3c460751c2402c5c5cc9109c3382600401546040516118c192919061373e565b60405180910390a15050565b600360009054906101000a900473ffffffffffffffffffffffffffffffffffffffff1681565b600060606118ff61174a565b1561193f576040517f08c379a00000000000000000000000000000000000000000000000000000000081526004016119369061391e565b60405180910390fd5b60005b600b805490508110156119f4576000600b828154811061198b577f4e487b7100000000000000000000000000000000000000000000000000000000600052603260045260246000fd5b90600052602060002090600a0201905080600801544211156119e0576000816040516020016119ba9190613a7e565b6040516020818303038152906040529050600060019050808295509550505050506119f6565b5080806119ec90613f5e565b915050611942565b505b9250929050565b611a0561281f565b73ffffffffffffffffffffffffffffffffffffffff16611a23611a85565b73ffffffffffffffffffffffffffffffffffffffff1614611a79576040517f08c379a0000000000000000000000000000000000000000000000000000000008152600401611a70906139be565b60405180910390fd5b611a836000612827565b565b6000600260009054906101000a900473ffffffffffffffffffffffffffffffffffffffff16905090565b611ab761174a565b15611af7576040517f08c379a0000000000000000000000000000000000000000000000000000000008152600401611aee9061391e565b60405180910390fd5b600a60003373ffffffffffffffffffffffffffffffffffffffff1673ffffffffffffffffffffffffffffffffffffffff16815260200190815260200160002060009054906101000a900460ff1615611b84576040517f08c379a0000000000000000000000000000000000000000000000000000000008152600401611b7b906138de565b60405180910390fd5b6000604051806101400160405280611b9c60056128ed565b81526020018773ffffffffffffffffffffffffffffffffffffffff1681526020013373ffffffffffffffffffffffffffffffffffffffff168152602001868152602001600081526020018581526020018481526020014281526020018342611c049190613c1d565b81526020016000815250905080600960003373ffffffffffffffffffffffffffffffffffffffff1673ffffffffffffffffffffffffffffffffffffffff1681526020019081526020016000206000820151816000015560208201518160010160006101000a81548173ffffffffffffffffffffffffffffffffffffffff021916908373ffffffffffffffffffffffffffffffffffffffff16021790555060408201518160020160006101000a81548173ffffffffffffffffffffffffffffffffffffffff021916908373ffffffffffffffffffffffffffffffffffffffff1602179055506060820151816003019080519060200190611d049291906128fb565b506080820151816004015560a0820151816005015560c0820151816006015560e0820151816007015561010082015181600801556101208201518160090155905050600b8190806001815401808255809150506001900390600052602060002090600a02016000909190919091506000820151816000015560208201518160010160006101000a81548173ffffffffffffffffffffffffffffffffffffffff021916908373ffffffffffffffffffffffffffffffffffffffff16021790555060408201518160020160006101000a81548173ffffffffffffffffffffffffffffffffffffffff021916908373ffffffffffffffffffffffffffffffffffffffff1602179055506060820151816003019080519060200190611e269291906128fb565b506080820151816004015560a0820151816005015560c0820151816006015560e082015181600701556101008201518160080155610120820151816009015550506001600a60003373ffffffffffffffffffffffffffffffffffffffff1673ffffffffffffffffffffffffffffffffffffffff16815260200190815260200160002060006101000a81548160ff021916908315150217905550611ec9600561245a565b7fc250e1da9a7004c4db73398b2f2c8cb322f44a17402ea2f24fbbcfd612ee182e3382606001518360a00151846101200151604051611f0b94939291906136f2565b60405180910390a1505050505050565b600a60003373ffffffffffffffffffffffffffffffffffffffff1673ffffffffffffffffffffffffffffffffffffffff16815260200190815260200160002060009054906101000a900460ff16611fa7576040517f08c379a0000000000000000000000000000000000000000000000000000000008152600401611f9e9061399e565b60405180910390fd5b6000600960003373ffffffffffffffffffffffffffffffffffffffff1673ffffffffffffffffffffffffffffffffffffffff16815260200190815260200160002090506000816009015414612031576040517f08c379a00000000000000000000000000000000000000000000000000000000081526004016120289061393e565b60405180910390fd5b814261203d9190613c1d565b81600901819055505050565b61205161174a565b15612091576040517f08c379a00000000000000000000000000000000000000000000000000000000081526004016120889061391e565b60405180910390fd5b600a60003373ffffffffffffffffffffffffffffffffffffffff1673ffffffffffffffffffffffffffffffffffffffff16815260200190815260200160002060009054906101000a900460ff1661211d576040517f08c379a00000000000000000000000000000000000000000000000000000000081526004016121149061383e565b60405180910390fd5b6000600960003373ffffffffffffffffffffffffffffffffffffffff1673ffffffffffffffffffffffffffffffffffffffff168152602001908152602001600020905060008160010160009054906101000a900473ffffffffffffffffffffffffffffffffffffffff1690506121938184612579565b8282600401546121a39190613c1d565b82600401819055507fe1fffcc4923d04b559f4d29a8bfc6cda04eb5b0d3c460751c2402c5c5cc9109c3383600401546040516121e092919061373e565b60405180910390a1505050565b600a6020528060005260406000206000915054906101000a900460ff1681565b600080600960008473ffffffffffffffffffffffffffffffffffffffff1673ffffffffffffffffffffffffffffffffffffffff16815260200190815260200160002090506000600760009054906101000a900473ffffffffffffffffffffffffffffffffffffffff1673ffffffffffffffffffffffffffffffffffffffff1663eec562c3306040518263ffffffff1660e01b81526004016122ae9190613640565b60206040518083038186803b1580156122c657600080fd5b505afa1580156122da573d6000803e3d6000fd5b505050506040513d601f19601f820116820180604052508101906122fe9190612d91565b9050600061232f6305f5e10061232184866004015461280990919063ffffffff16565b61254d90919063ffffffff16565b9050809350505050919050565b61234461281f565b73ffffffffffffffffffffffffffffffffffffffff16612362611a85565b73ffffffffffffffffffffffffffffffffffffffff16146123b8576040517f08c379a00000000000000000000000000000000000000000000000000000000081526004016123af906139be565b60405180910390fd5b600073ffffffffffffffffffffffffffffffffffffffff168173ffffffffffffffffffffffffffffffffffffffff161415612428576040517f08c379a000000000000000000000000000000000000000000000000000000000815260040161241f9061385e565b60405180910390fd5b61243181612827565b50565b600760009054906101000a900473ffffffffffffffffffffffffffffffffffffffff1681565b6001816000016000828254019250508190555050565b600082905060008173ffffffffffffffffffffffffffffffffffffffff1663852a12e3846040518263ffffffff1660e01b81526004016124b09190613aa0565b602060405180830381600087803b1580156124ca57600080fd5b505af11580156124de573d6000803e3d6000fd5b505050506040513d601f19601f820116820180604052508101906125029190612d91565b905060008114612547576040517f08c379a000000000000000000000000000000000000000000000000000000000815260040161253e90613a1e565b60405180910390fd5b50505050565b6000818361255b9190613c73565b905092915050565b600081836125719190613c1d565b905092915050565b600a60003373ffffffffffffffffffffffffffffffffffffffff1673ffffffffffffffffffffffffffffffffffffffff16815260200190815260200160002060009054906101000a900460ff16612605576040517f08c379a00000000000000000000000000000000000000000000000000000000081526004016125fc9061381e565b60405180910390fd5b600082905060008173ffffffffffffffffffffffffffffffffffffffff16636f307dc36040518163ffffffff1660e01b815260040160206040518083038186803b15801561265257600080fd5b505afa158015612666573d6000803e3d6000fd5b505050506040513d601f19601f8201168201806040525081019061268a9190612c01565b90508073ffffffffffffffffffffffffffffffffffffffff1663095ea7b385856040518363ffffffff1660e01b81526004016126c792919061373e565b602060405180830381600087803b1580156126e157600080fd5b505af11580156126f5573d6000803e3d6000fd5b505050506040513d601f19601f820116820180604052508101906127199190612cb9565b5060008273ffffffffffffffffffffffffffffffffffffffff1663a0712d68856040518263ffffffff1660e01b81526004016127559190613aa0565b602060405180830381600087803b15801561276f57600080fd5b505af1158015612783573d6000803e3d6000fd5b505050506040513d601f19601f820116820180604052508101906127a79190612d91565b9050600081146127ec576040517f08c379a00000000000000000000000000000000000000000000000000000000081526004016127e3906138be565b60405180910390fd5b5050505050565b600081836128019190613cfe565b905092915050565b600081836128179190613ca4565b905092915050565b600033905090565b6000600260009054906101000a900473ffffffffffffffffffffffffffffffffffffffff16905081600260006101000a81548173ffffffffffffffffffffffffffffffffffffffff021916908373ffffffffffffffffffffffffffffffffffffffff1602179055508173ffffffffffffffffffffffffffffffffffffffff168173ffffffffffffffffffffffffffffffffffffffff167f8be0079c531659141344cd1fd0a4f28419497f9722a3daafe3b4186f6b6457e060405160405180910390a35050565b600081600001549050919050565b82805461290790613ede565b90600052602060002090601f0160209004810192826129295760008555612970565b82601f1061294257805160ff1916838001178555612970565b82800160010185558215612970579182015b8281111561296f578251825591602001919060010190612954565b5b50905061297d9190612981565b5090565b5b8082111561299a576000816000905550600101612982565b5090565b60006129b16129ac84613b8f565b613b5e565b9050828152602081018484840111156129c957600080fd5b6129d4848285613e9c565b509392505050565b6000813590506129eb81614081565b92915050565b600081519050612a0081614081565b92915050565b600081359050612a1581614098565b92915050565b600081519050612a2a816140af565b92915050565b60008083601f840112612a4257600080fd5b8235905067ffffffffffffffff811115612a5b57600080fd5b602083019150836001820283011115612a7357600080fd5b9250929050565b600082601f830112612a8b57600080fd5b8135612a9b84826020860161299e565b91505092915050565b60006101408284031215612ab757600080fd5b612ac2610140613b5e565b90506000612ad284828501612bae565b6000830152506020612ae6848285016129dc565b6020830152506040612afa84828501612a06565b604083015250606082013567ffffffffffffffff811115612b1a57600080fd5b612b2684828501612a7a565b6060830152506080612b3a84828501612bae565b60808301525060a0612b4e84828501612bae565b60a08301525060c0612b6284828501612bae565b60c08301525060e0612b7684828501612bae565b60e083015250610100612b8b84828501612bae565b61010083015250610120612ba184828501612bae565b6101208301525092915050565b600081359050612bbd816140c6565b92915050565b600081519050612bd2816140c6565b92915050565b600060208284031215612bea57600080fd5b6000612bf8848285016129dc565b91505092915050565b600060208284031215612c1357600080fd5b6000612c21848285016129f1565b91505092915050565b600080600080600060a08688031215612c4257600080fd5b6000612c50888289016129dc565b955050602086013567ffffffffffffffff811115612c6d57600080fd5b612c7988828901612a7a565b9450506040612c8a88828901612bae565b9350506060612c9b88828901612bae565b9250506080612cac88828901612bae565b9150509295509295909350565b600060208284031215612ccb57600080fd5b6000612cd984828501612a1b565b91505092915050565b60008060208385031215612cf557600080fd5b600083013567ffffffffffffffff811115612d0f57600080fd5b612d1b85828601612a30565b92509250509250929050565b600060208284031215612d3957600080fd5b600082013567ffffffffffffffff811115612d5357600080fd5b612d5f84828501612aa4565b91505092915050565b600060208284031215612d7a57600080fd5b6000612d8884828501612bae565b91505092915050565b600060208284031215612da357600080fd5b6000612db184828501612bc3565b91505092915050565b612dc381613dd6565b82525050565b612dd281613d8e565b82525050565b612de181613d8e565b82525050565b612df081613d7c565b82525050565b612dff81613d7c565b82525050565b612e0e81613da0565b82525050565b6000612e1f82613bd4565b612e298185613bea565b9350612e39818560208601613eab565b612e4281614063565b840191505092915050565b612e5681613de8565b82525050565b612e6581613e0c565b82525050565b612e7481613e30565b82525050565b612e8381613e54565b82525050565b6000612e9482613bdf565b612e9e8185613c0c565b9350612eae818560208601613eab565b612eb781614063565b840191505092915050565b60008154612ecf81613ede565b612ed98186613bfb565b94506001821660008114612ef45760018114612f0657612f39565b60ff1983168652602086019350612f39565b612f0f85613bbf565b60005b83811015612f3157815481890152600182019150602081019050612f12565b808801955050505b50505092915050565b6000612f4f601883613c0c565b91507f63616c6c6572206973206e6f74207265676973746572656400000000000000006000830152602082019050919050565b6000612f8f601883613c0c565b91507f43616c6c6572206973206e6f74205265676973746572656400000000000000006000830152602082019050919050565b6000612fcf602683613c0c565b91507f4f776e61626c653a206e6577206f776e657220697320746865207a65726f206160008301527f64647265737300000000000000000000000000000000000000000000000000006020830152604082019050919050565b6000613035601583613c0c565b91507f43616c6c6572206e6f74205265676973746572656400000000000000000000006000830152602082019050919050565b6000613075601883613c0c565b91507f43616c6c6572206973206e6f74207265676973746572656400000000000000006000830152602082019050919050565b60006130b5603483613c0c565b91507f63546f6b656e236d696e742829206661696c65642e2073656520436f6d706f7560008301527f6e64204572726f725265706f727465722e736f6c0000000000000000000000006020830152604082019050919050565b600061311b601d83613c0c565b91507f43616c6c6572206164647265737320616c7265616479206578697374730000006000830152602082019050919050565b600061315b602a83613c0c565b91507f496e73756666696369656e742062616c616e63652063616e6e6f74207065726660008301527f6f726d2075706b656570000000000000000000000000000000000000000000006020830152604082019050919050565b60006131c1601083613c0c565b91507f5061757361626c653a20706175736564000000000000000000000000000000006000830152602082019050919050565b6000613201602283613c0c565b91507f43616c6c657220616c7265616479206861732061206c6f636b2054696d65205360008301527f65740000000000000000000000000000000000000000000000000000000000006020830152604082019050919050565b6000613267602383613c0c565b91507f5769746864726177696e67206d6f7265207468616e20796f75206465706f736960008301527f74656400000000000000000000000000000000000000000000000000000000006020830152604082019050919050565b60006132cd601583613c0c565b91507f43616c6c6572206e6f74207265676973746572656400000000000000000000006000830152602082019050919050565b600061330d601b83613c0c565b91507f43616c6c65722068617320746f206265205265676973746572656400000000006000830152602082019050919050565b600061334d602083613c0c565b91507f4f776e61626c653a2063616c6c6572206973206e6f7420746865206f776e65726000830152602082019050919050565b600061338d601483613c0c565b91507f696e73756666696369656e742062616c616e63650000000000000000000000006000830152602082019050919050565b60006133cd601483613c0c565b91507f496e73756666696369656e742042616c616e63650000000000000000000000006000830152602082019050919050565b600061340d603683613c0c565b91507f63546f6b656e2372656465656d2829206661696c65642e2073656520436f6d7060008301527f6f756e64204572726f725265706f727465722e736f6c000000000000000000006020830152604082019050919050565b6000613473601683613c0c565b91507f41646472657373206e6f742072656769737465726564000000000000000000006000830152602082019050919050565b60006134b3601f83613c0c565b91507f5265656e7472616e637947756172643a207265656e7472616e742063616c6c006000830152602082019050919050565b6000610140830160008084015490506134fe81613f44565b61350b6000870182613622565b506001840154905061351c81613f10565b6135296020870182612de7565b506002840154905061353a81613f2a565b6135476040870182612dc9565b5060038401858303606087015261355e8382612ec2565b9250506004840154905061357181613f44565b61357e6080870182613622565b506005840154905061358f81613f44565b61359c60a0870182613622565b50600684015490506135ad81613f44565b6135ba60c0870182613622565b50600784015490506135cb81613f44565b6135d860e0870182613622565b50600884015490506135e981613f44565b6135f7610100870182613622565b506009840154905061360881613f44565b613616610120870182613622565b50819250505092915050565b61362b81613dcc565b82525050565b61363a81613dcc565b82525050565b60006020820190506136556000830184612df6565b92915050565b60006060820190506136706000830186612dba565b61367d6020830185612df6565b61368a6040830184613631565b949350505050565b60006040820190506136a76000830185612dba565b6136b46020830184613631565b9392505050565b60006060820190506136d06000830186612df6565b6136dd6020830185612df6565b6136ea6040830184613631565b949350505050565b60006080820190506137076000830187612df6565b81810360208301526137198186612e89565b90506137286040830185613631565b6137356060830184613631565b95945050505050565b60006040820190506137536000830185612df6565b6137606020830184613631565b9392505050565b600060208201905061377c6000830184612e05565b92915050565b60006040820190506137976000830185612e05565b81810360208301526137a98184612e14565b90509392505050565b60006020820190506137c76000830184612e4d565b92915050565b60006020820190506137e26000830184612e5c565b92915050565b60006020820190506137fd6000830184612e6b565b92915050565b60006020820190506138186000830184612e7a565b92915050565b6000602082019050818103600083015261383781612f42565b9050919050565b6000602082019050818103600083015261385781612f82565b9050919050565b6000602082019050818103600083015261387781612fc2565b9050919050565b6000602082019050818103600083015261389781613028565b9050919050565b600060208201905081810360008301526138b781613068565b9050919050565b600060208201905081810360008301526138d7816130a8565b9050919050565b600060208201905081810360008301526138f78161310e565b9050919050565b600060208201905081810360008301526139178161314e565b9050919050565b60006020820190508181036000830152613937816131b4565b9050919050565b60006020820190508181036000830152613957816131f4565b9050919050565b600060208201905081810360008301526139778161325a565b9050919050565b60006020820190508181036000830152613997816132c0565b9050919050565b600060208201905081810360008301526139b781613300565b9050919050565b600060208201905081810360008301526139d781613340565b9050919050565b600060208201905081810360008301526139f781613380565b9050919050565b60006020820190508181036000830152613a17816133c0565b9050919050565b60006020820190508181036000830152613a3781613400565b9050919050565b60006020820190508181036000830152613a5781613466565b9050919050565b60006020820190508181036000830152613a77816134a6565b9050919050565b60006020820190508181036000830152613a9881846134e6565b905092915050565b6000602082019050613ab56000830184613631565b92915050565b600061014082019050613ad1600083018d613631565b613ade602083018c612df6565b613aeb604083018b612dd8565b8181036060830152613afd818a612e89565b9050613b0c6080830189613631565b613b1960a0830188613631565b613b2660c0830187613631565b613b3360e0830186613631565b613b41610100830185613631565b613b4f610120830184613631565b9b9a5050505050505050505050565b6000604051905081810181811067ffffffffffffffff82111715613b8557613b84614034565b5b8060405250919050565b600067ffffffffffffffff821115613baa57613ba9614034565b5b601f19601f8301169050602081019050919050565b60008190508160005260206000209050919050565b600081519050919050565b600081519050919050565b600082825260208201905092915050565b600082825260208201905092915050565b600082825260208201905092915050565b6000613c2882613dcc565b9150613c3383613dcc565b9250827fffffffffffffffffffffffffffffffffffffffffffffffffffffffffffffffff03821115613c6857613c67613fa7565b5b828201905092915050565b6000613c7e82613dcc565b9150613c8983613dcc565b925082613c9957613c98613fd6565b5b828204905092915050565b6000613caf82613dcc565b9150613cba83613dcc565b9250817fffffffffffffffffffffffffffffffffffffffffffffffffffffffffffffffff0483118215151615613cf357613cf2613fa7565b5b828202905092915050565b6000613d0982613dcc565b9150613d1483613dcc565b925082821015613d2757613d26613fa7565b5b828203905092915050565b600073ffffffffffffffffffffffffffffffffffffffff82169050919050565b600073ffffffffffffffffffffffffffffffffffffffff82169050919050565b6000819050919050565b6000613d8782613dac565b9050919050565b6000613d9982613dac565b9050919050565b60008115159050919050565b600073ffffffffffffffffffffffffffffffffffffffff82169050919050565b6000819050919050565b6000613de182613e78565b9050919050565b6000613df382613dfa565b9050919050565b6000613e0582613dac565b9050919050565b6000613e1782613e1e565b9050919050565b6000613e2982613dac565b9050919050565b6000613e3b82613e42565b9050919050565b6000613e4d82613dac565b9050919050565b6000613e5f82613e66565b9050919050565b6000613e7182613dac565b9050919050565b6000613e8382613e8a565b9050919050565b6000613e9582613dac565b9050919050565b82818337600083830152505050565b60005b83811015613ec9578082015181840152602081019050613eae565b83811115613ed8576000848401525b50505050565b60006002820490506001821680613ef657607f821691505b60208210811415613f0a57613f09614005565b5b50919050565b6000613f23613f1e83614074565b613d32565b9050919050565b6000613f3d613f3883614074565b613d52565b9050919050565b6000613f57613f5283614074565b613d72565b9050919050565b6000613f6982613dcc565b91507fffffffffffffffffffffffffffffffffffffffffffffffffffffffffffffffff821415613f9c57613f9b613fa7565b5b600182019050919050565b7f4e487b7100000000000000000000000000000000000000000000000000000000600052601160045260246000fd5b7f4e487b7100000000000000000000000000000000000000000000000000000000600052601260045260246000fd5b7f4e487b7100000000000000000000000000000000000000000000000000000000600052602260045260246000fd5b7f4e487b7100000000000000000000000000000000000000000000000000000000600052604160045260246000fd5b6000601f19601f8301169050919050565b60008160001c9050919050565b61408a81613d7c565b811461409557600080fd5b50565b6140a181613d8e565b81146140ac57600080fd5b50565b6140b881613da0565b81146140c357600080fd5b50565b6140cf81613dcc565b81146140da57600080fd5b5056fea26469706673582212208ad24161e952d8033d24db7948ec22c5c1bf9110b5a77f4f06536ffba1c4777064736f6c63430008000033",
  "immutableReferences": {},
  "source": "//SPDX-License-Identifier: Unlicense\r\npragma solidity ^0.8.0;\r\n\r\nimport \"@openzeppelin/contracts/utils/math/SafeMath.sol\";\r\nimport \"@openzeppelin/contracts/security/Pausable.sol\";\r\nimport \"@openzeppelin/contracts/security/ReentrancyGuard.sol\";\r\nimport \"@openzeppelin/contracts/access/Ownable.sol\";\r\nimport \"@openzeppelin/contracts/utils/Counters.sol\";\r\nimport '@openzeppelin/contracts/token/ERC20/IERC20.sol';\r\nimport \"@chainlink/contracts/src/v0.8/interfaces/KeeperCompatibleInterface.sol\";\r\nimport './CTokenInterface.sol';\r\nimport './ComptrollerInterface.sol';\r\nimport './PriceOracleInterface.sol';\r\nimport \"./XendFinanceInterface.sol\";\r\n\r\n\r\n// approve the user's underlying asset to be able to use the chainklink keepers\r\n\r\ncontract PensionServiceProvider is KeeperCompatibleInterface, Pausable, ReentrancyGuard, Ownable {\r\n    using SafeMath for uint;\r\n    using Counters for Counters.Counter;\r\n\r\n    // variables\r\n    ComptrollerInterface public comptroller;\r\n\tPriceOracleInterface public priceOracle;\r\n    Counters.Counter private id;\r\n\r\n    uint accXendTokens;\r\n    XendFinanceInterface public xendFinance;\r\n    IERC20 public xend;\r\n\r\n\r\n    \r\n\r\n\r\n\r\n    // A user Object\r\n    struct User {\r\n        uint256 id;\r\n        address underlyingAsset;\r\n        address payable userAddress;\r\n        string  userDetails;\r\n        uint256 depositedAmount;\r\n        uint256 amountToSpend;\r\n        uint256 approvedAmountToSpend;\r\n        uint256 startTime;\r\n        uint256 timeDurationOfdeposit;\r\n        uint256 lockTime;\r\n    }\r\n\r\n    event Register(address applicant, string applicantDetails, uint approvedAmountByApplicant, uint lockTime);\r\n    event Withdraw(address from, address to, uint amount);\r\n    event Deposit(address user, uint amount);\r\n    event Upkeep(address sender, bool upkeep);\r\n    event MyLog(string, uint256);\r\n\r\n    mapping(address => User) public pensionServiceApplicant;\r\n\r\n    // keep track of registered users\r\n    mapping(address => bool) public isRegistered;\r\n\r\n    User[] public users;\r\n\r\n\r\n    constructor(address _xend, address _xendFinanceIndividual_Yearn_V1,  address _comptroller, address _priceOracle )  {\r\n        xend = IERC20(_xend);\r\n        comptroller = ComptrollerInterface(_comptroller);\r\n\t\tpriceOracle = PriceOracleInterface(_priceOracle);\r\n        xendFinance = XendFinanceInterface(_xendFinanceIndividual_Yearn_V1);\r\n\r\n        id.increment();\r\n        \r\n    }\r\n\r\n    function register(\r\n        address _underlyingAsset,\r\n        string memory _userDetails, \r\n        uint256 _amountToSpend,\r\n        uint256 _approvedAmountToSpend,\r\n        uint256 _timeDurationOfDeposit\r\n        ) \r\n        public whenNotPaused() {\r\n        require(!isRegistered[msg.sender], \"Caller address already exists\");\r\n\r\n        User memory user = User({\r\n            id: id.current(),\r\n            userAddress: payable(msg.sender),\r\n            underlyingAsset: _underlyingAsset,\r\n            userDetails: _userDetails,\r\n            depositedAmount: 0,\r\n            amountToSpend: _amountToSpend,\r\n            approvedAmountToSpend: _approvedAmountToSpend,\r\n            startTime: block.timestamp,\r\n            timeDurationOfdeposit: block.timestamp + _timeDurationOfDeposit,\r\n            lockTime: 0\r\n        });\r\n\r\n        pensionServiceApplicant[msg.sender] = user;\r\n        users.push(user);\r\n        isRegistered[msg.sender] = true;\r\n\r\n        id.increment();\r\n\r\n        emit Register(msg.sender, user.userDetails, user.amountToSpend, user.lockTime);\r\n    }\r\n\r\n\r\n\r\n    function deposit(uint256 _amount) public payable whenNotPaused() {\r\n        require(isRegistered[msg.sender], \"Caller is not Registered\");\r\n        User storage user = pensionServiceApplicant[msg.sender];\r\n        address cTokenaddress = user.underlyingAsset;\r\n        _supply(cTokenaddress, _amount);\r\n        user.depositedAmount = user.depositedAmount + _amount;\r\n        emit Deposit(msg.sender, user.depositedAmount);\r\n\r\n    }\r\n\r\n\r\n\r\n    function _enterMarket(address _cTokenaddress) internal {\r\n\t\taddress[] memory markets = new address[](1);\r\n\t\tmarkets[0] = _cTokenaddress;\r\n\t\tuint[] memory results = comptroller.enterMarkets(markets);\r\n\t\trequire( results[0] == 0, 'comptroller#enterMarkets() failed. see Compound ErrorReporter.sol');\r\n\t}\r\n\r\n\r\n\r\n\r\n\r\n\r\n    function _supply(address cTokenaddress, uint underlyingAmount) internal {\r\n        require(isRegistered[msg.sender], \"caller is not registered\");\r\n        // _enterMarket(cTokenaddress);\r\n\t\tCTokenInterface cToken = CTokenInterface(cTokenaddress);\r\n\t\taddress underlyingAddress = cToken.underlying();\r\n\t\tIERC20(underlyingAddress).approve(cTokenaddress, underlyingAmount);\r\n\r\n\t\tuint result = cToken.mint(underlyingAmount);\r\n\t\trequire(result == 0, 'cToken#mint() failed. see Compound ErrorReporter.sol');\r\n\t}\r\n\r\n\r\n    // chainlink keeper function call\r\n    function checkUpkeep(bytes calldata) external view override whenNotPaused() returns(bool upkeep, bytes memory upKeepData)   {\r\n\r\n        for(uint256 i = 0; i < users.length; i++ ) {\r\n            User storage user = users[i];\r\n            if(block.timestamp > user.timeDurationOfdeposit) {\r\n                bytes memory upKeepData = abi.encode(user);\r\n                bool upKeep = true;\r\n                // performUpkeep(upKeepData);\r\n                // users[i].startTime = block.timestamp;\r\n                return (upKeep, upKeepData);\r\n            }\r\n        }\r\n\r\n    }\r\n\r\n\r\n    // fallback function for chainlink keepers\r\n    // function performUpkeep(bytes calldata upKeepData) external override whenNotPaused()  {\r\n    //     (User memory userData) = abi.decode(upKeepData, (User));\r\n\r\n    //     User storage user = pensionServiceApplicant[userData.userAddress];\r\n    //     if(block.timestamp > user.lockTime) {\r\n    //         // do something with the user\r\n    //         require(isRegistered[user.userAddress], \"Address not registered\");\r\n    //         require(user.depositedAmount > 0, \"Insufficient balance cannot perform upkeep\");\r\n    //         isRegistered[user.userAddress] = false;\r\n    //         CTokenInterface cToken = CTokenInterface(user.underlyingAsset);\r\n\r\n    //         uint amountToSend = user.depositedAmount;\r\n    //         address underlyingAsset = cToken.underlying();\r\n    //         IERC20(underlyingAsset).transfer(user.userAddress, amountToSend);\r\n    //         user.depositedAmount = 0;\r\n\r\n    //         emit Withdraw(address(this), user.userAddress, amountToSend);\r\n            \r\n    //         // busd.transferFrom(payable(user.userAddress), address(this), user.amountToSpend);\r\n    //         // (bool success,) = payable(user.userAddress).transfer(address(this), user.amountToSpend)(\"\");\r\n    //         // require(success, \"Transfer to contract not successful\");\r\n    //         // do something with Xend protocol. or compound finance\r\n\r\n\r\n    //         // user.approvedAmountToSpend = user.approvedAmountToSpend - user.amountToSpend;\r\n    //         // user.depositedAmount = user.depositedAmount + user.amountToSpend;\r\n    //         // user.startTime = block.timestamp;\r\n\r\n    //         // emit Deposit(user.id, user.userDetails, user.lockTime, user.approvedAmountToSpend);\r\n\r\n    //     }\r\n\r\n    // }\r\n\r\n        function performUpkeep(bytes calldata upKeepData) external override whenNotPaused()  {\r\n        (User memory userData) = abi.decode(upKeepData, (User));\r\n\r\n        User storage user = pensionServiceApplicant[userData.userAddress];\r\n        if(block.timestamp.add(user.startTime) > user.timeDurationOfdeposit) {\r\n            // do something with the user\r\n            require(isRegistered[user.userAddress], \"Address not registered\");\r\n            require(user.approvedAmountToSpend > 0, \"Insufficient balance cannot perform upkeep\");\r\n            isRegistered[user.userAddress] = false;\r\n            CTokenInterface cToken = CTokenInterface(user.underlyingAsset);\r\n\r\n            uint amountToDeposit = user.amountToSpend;\r\n            // address cTokenAddress = cToken.underlying();\r\n            IERC20(user.underlyingAsset).transferFrom(user.userAddress, address(this),  amountToDeposit);\r\n            _supply(address(cToken), user.amountToSpend);\r\n            user.depositedAmount = user.depositedAmount.add(amountToDeposit);\r\n            user.approvedAmountToSpend = user.approvedAmountToSpend.sub(user.amountToSpend);\r\n            user.startTime = block.timestamp;\r\n\r\n            emit Deposit(user.userAddress, user.amountToSpend);\r\n\r\n\r\n            // emit Withdraw(address(this), user.userAddress, amountToSend);\r\n            \r\n            // busd.transferFrom(payable(user.userAddress), address(this), user.amountToSpend);\r\n            // (bool success,) = payable(user.userAddress).transfer(address(this), user.amountToSpend)(\"\");\r\n            // require(success, \"Transfer to contract not successful\");\r\n            // do something with Xend protocol. or compound finance\r\n\r\n\r\n            // user.approvedAmountToSpend = user.approvedAmountToSpend - user.amountToSpend;\r\n            // user.depositedAmount = user.depositedAmount + user.amountToSpend;\r\n            // user.startTime = block.timestamp;\r\n\r\n            // emit Deposit(user.id, user.userDetails, user.lockTime, user.approvedAmountToSpend);\r\n\r\n        }\r\n\r\n    }\r\n\r\n\r\n\r\n    function withdraw() public whenNotPaused() nonReentrant() {\r\n        require(isRegistered[msg.sender], \"Caller not registered\");\r\n        require(pensionServiceApplicant[msg.sender].depositedAmount > 0, \"Insufficient Balance\");\r\n\r\n        // Point to the User in Storage\r\n        User storage user = pensionServiceApplicant[msg.sender];\r\n\r\n        if(block.timestamp < user.lockTime) {\r\n            require(user.depositedAmount > 0, \"insufficient balance\");\r\n            _redeem(user.underlyingAsset, user.depositedAmount);\r\n            isRegistered[msg.sender] = false;\r\n            uint amountToSend = user.depositedAmount.div(2);\r\n            CTokenInterface cToken = CTokenInterface(user.underlyingAsset);\r\n            address underlyingAsset = cToken.underlying();\r\n            IERC20(underlyingAsset).transfer(user.userAddress, amountToSend);\r\n            user.depositedAmount = 0;\r\n            emit Withdraw(address(this), msg.sender, amountToSend);\r\n        } else {\r\n            require(user.depositedAmount > 0, \"insufficient balance\");\r\n            _redeem(user.underlyingAsset, user.depositedAmount);\r\n            isRegistered[msg.sender] = false;\r\n            uint amountToSend = user.depositedAmount;\r\n            CTokenInterface cToken = CTokenInterface(user.underlyingAsset);\r\n            address underlyingAsset = cToken.underlying();\r\n            IERC20(underlyingAsset).transfer(user.userAddress, amountToSend);\r\n            user.depositedAmount = 0;\r\n\r\n            emit Withdraw(address(this), msg.sender, amountToSend);\r\n        }\r\n\r\n        // require(block.timestamp > user.lockTime, \"Early withdrawal will cost you 50% of your initial deposit\");\r\n\r\n\r\n    }\r\n\r\n\r\n    function _redeem(address cTokenaddress, uint tokenAmount) internal {\r\n\t\tCTokenInterface cToken = CTokenInterface(cTokenaddress);\r\n\t\tuint result = cToken.redeemUnderlying(tokenAmount);\r\n\t\trequire(result == 0, 'cToken#redeem() failed. see Compound ErrorReporter.sol');\r\n\t}\r\n\r\n    // helper function for testing\r\n    function updateTimeDurationOfDeposit() public  {\r\n        User storage user = pensionServiceApplicant[msg.sender];\r\n        require(isRegistered[user.userAddress], \"Caller is not registered\");\r\n        user.timeDurationOfdeposit = 0;\r\n    } \r\n\r\n    function setLockTime(uint _lockTime) public {\r\n        require(isRegistered[msg.sender], \"Caller has to be Registered\");\r\n        User storage user = pensionServiceApplicant[msg.sender];\r\n        require(user.lockTime == 0, \"Caller already has a lock Time Set\");\r\n        user.lockTime = block.timestamp + _lockTime;\r\n    }\r\n\r\n\r\n\r\n    // for Xend\r\n\r\n    function getXendPendingRewards(address _user) public view returns(uint) {\r\n        User storage user = pensionServiceApplicant[_user];\r\n        uint256 accXendRewards = xendFinance.GetMemberXendTokenReward(address(this));\r\n        uint256 userPendingRewards = user.depositedAmount.mul(accXendRewards).div(1e8);\r\n\r\n        return userPendingRewards;\r\n    }\r\n\r\n\r\n\r\n    function depositToXendFinance(uint _amount) public whenNotPaused() {\r\n        // require(isRegistered[msg.sender], \"Caller not Registered\");\r\n        User storage user = pensionServiceApplicant[msg.sender];\r\n        xendFinance.deposit();\r\n        user.depositedAmount = user.depositedAmount.add(_amount);\r\n\r\n        emit Deposit(msg.sender, user.depositedAmount);\r\n        \r\n    }\r\n\r\n\r\n\r\n    function withdrawFromXendFinance() public whenNotPaused() nonReentrant() {\r\n        require(isRegistered[msg.sender], \"Caller not Registered\");\r\n        User storage user = pensionServiceApplicant[msg.sender];\r\n        xendFinance.withdraw(user.depositedAmount);\r\n        uint256 xendBalance = xend.balanceOf(address(this));\r\n        require(xendBalance > user.depositedAmount, \"Withdrawing more than you deposited\");\r\n        accXendTokens = xendBalance;\r\n        uint256 accXendTokensforUser = user.depositedAmount.mul(accXendTokens).div(1e8);\r\n        xend.transfer(msg.sender, accXendTokensforUser);\r\n\r\n    }\r\n}",
  "sourcePath": "/mnt/c/Users/chuks/Desktop/Project/beima_project/beima_core/contracts/PensionServiceProvider.sol",
  "compiler": {
    "name": "solc",
    "version": "0.8.0+commit.c7dfd78e.Emscripten.clang"
  },
  "schemaVersion": "3.4.3",
  "updatedAt": "2021-11-29T08:46:31.954Z",
  "devdoc": {
    "kind": "dev",
    "methods": {
      "owner()": {
        "details": "Returns the address of the current owner."
      },
      "paused()": {
        "details": "Returns true if the contract is paused, and false otherwise."
      },
      "renounceOwnership()": {
        "details": "Leaves the contract without owner. It will not be possible to call `onlyOwner` functions anymore. Can only be called by the current owner. NOTE: Renouncing ownership will leave the contract without an owner, thereby removing any functionality that is only available to the owner."
      },
      "transferOwnership(address)": {
        "details": "Transfers ownership of the contract to a new account (`newOwner`). Can only be called by the current owner."
      }
    },
    "version": 1
  },
  "userdoc": {
    "kind": "user",
    "methods": {},
    "version": 1
  }
}