{
  "contractName": "PensionServiceProvider",
  "abi": [
    {
      "inputs": [
        {
          "internalType": "address",
          "name": "_xend",
          "type": "address"
        },
        {
          "internalType": "address",
          "name": "_xendFinanceIndividual_Yearn_V1",
          "type": "address"
        },
        {
          "internalType": "address",
          "name": "_comptroller",
          "type": "address"
        },
        {
          "internalType": "address",
          "name": "_priceOracle",
          "type": "address"
        }
      ],
      "stateMutability": "nonpayable",
      "type": "constructor"
    },
    {
      "anonymous": false,
      "inputs": [
        {
          "indexed": false,
          "internalType": "address",
          "name": "user",
          "type": "address"
        },
        {
          "indexed": false,
          "internalType": "uint256",
          "name": "amount",
          "type": "uint256"
        }
      ],
      "name": "Deposit",
      "type": "event"
    },
    {
      "anonymous": false,
      "inputs": [
        {
          "indexed": false,
          "internalType": "string",
          "name": "",
          "type": "string"
        },
        {
          "indexed": false,
          "internalType": "uint256",
          "name": "",
          "type": "uint256"
        }
      ],
      "name": "MyLog",
      "type": "event"
    },
    {
      "anonymous": false,
      "inputs": [
        {
          "indexed": true,
          "internalType": "address",
          "name": "previousOwner",
          "type": "address"
        },
        {
          "indexed": true,
          "internalType": "address",
          "name": "newOwner",
          "type": "address"
        }
      ],
      "name": "OwnershipTransferred",
      "type": "event"
    },
    {
      "anonymous": false,
      "inputs": [
        {
          "indexed": false,
          "internalType": "address",
          "name": "account",
          "type": "address"
        }
      ],
      "name": "Paused",
      "type": "event"
    },
    {
      "anonymous": false,
      "inputs": [
        {
          "indexed": false,
          "internalType": "address",
          "name": "applicant",
          "type": "address"
        },
        {
          "indexed": false,
          "internalType": "string",
          "name": "applicantDetails",
          "type": "string"
        },
        {
          "indexed": false,
          "internalType": "uint256",
          "name": "approvedAmountByApplicant",
          "type": "uint256"
        },
        {
          "indexed": false,
          "internalType": "uint256",
          "name": "lockTime",
          "type": "uint256"
        }
      ],
      "name": "Register",
      "type": "event"
    },
    {
      "anonymous": false,
      "inputs": [
        {
          "indexed": false,
          "internalType": "address",
          "name": "account",
          "type": "address"
        }
      ],
      "name": "Unpaused",
      "type": "event"
    },
    {
      "anonymous": false,
      "inputs": [
        {
          "indexed": false,
          "internalType": "uint256",
          "name": "timeDuration",
          "type": "uint256"
        }
      ],
      "name": "Update",
      "type": "event"
    },
    {
      "anonymous": false,
      "inputs": [
        {
          "indexed": false,
          "internalType": "address",
          "name": "sender",
          "type": "address"
        },
        {
          "indexed": false,
          "internalType": "bool",
          "name": "upkeep",
          "type": "bool"
        }
      ],
      "name": "Upkeep",
      "type": "event"
    },
    {
      "anonymous": false,
      "inputs": [
        {
          "indexed": false,
          "internalType": "address",
          "name": "from",
          "type": "address"
        },
        {
          "indexed": false,
          "internalType": "address",
          "name": "to",
          "type": "address"
        },
        {
          "indexed": false,
          "internalType": "uint256",
          "name": "amount",
          "type": "uint256"
        }
      ],
      "name": "Withdraw",
      "type": "event"
    },
    {
      "inputs": [],
      "name": "comptroller",
      "outputs": [
        {
          "internalType": "contract ComptrollerInterface",
          "name": "",
          "type": "address"
        }
      ],
      "stateMutability": "view",
      "type": "function",
      "constant": true
    },
    {
      "inputs": [
        {
          "internalType": "address",
          "name": "",
          "type": "address"
        }
      ],
      "name": "isRegistered",
      "outputs": [
        {
          "internalType": "bool",
          "name": "",
          "type": "bool"
        }
      ],
      "stateMutability": "view",
      "type": "function",
      "constant": true
    },
    {
      "inputs": [],
      "name": "owner",
      "outputs": [
        {
          "internalType": "address",
          "name": "",
          "type": "address"
        }
      ],
      "stateMutability": "view",
      "type": "function",
      "constant": true
    },
    {
      "inputs": [],
      "name": "paused",
      "outputs": [
        {
          "internalType": "bool",
          "name": "",
          "type": "bool"
        }
      ],
      "stateMutability": "view",
      "type": "function",
      "constant": true
    },
    {
      "inputs": [
        {
          "internalType": "address",
          "name": "",
          "type": "address"
        }
      ],
      "name": "pensionServiceApplicant",
      "outputs": [
        {
          "internalType": "uint256",
          "name": "id",
          "type": "uint256"
        },
        {
          "internalType": "address",
          "name": "underlyingAsset",
          "type": "address"
        },
        {
          "internalType": "address payable",
          "name": "userAddress",
          "type": "address"
        },
        {
          "internalType": "string",
          "name": "userDetails",
          "type": "string"
        },
        {
          "internalType": "uint256",
          "name": "depositedAmount",
          "type": "uint256"
        },
        {
          "internalType": "uint256",
          "name": "amountToSpend",
          "type": "uint256"
        },
        {
          "internalType": "uint256",
          "name": "approvedAmountToSpend",
          "type": "uint256"
        },
        {
          "internalType": "uint256",
          "name": "startTime",
          "type": "uint256"
        },
        {
          "internalType": "uint256",
          "name": "timeDurationOfdeposit",
          "type": "uint256"
        },
        {
          "internalType": "uint256",
          "name": "lockTime",
          "type": "uint256"
        },
        {
          "internalType": "string",
          "name": "ipfsHashOfUserPensionDetails",
          "type": "string"
        },
        {
          "internalType": "uint256",
          "name": "userLastRewardBlock",
          "type": "uint256"
        }
      ],
      "stateMutability": "view",
      "type": "function",
      "constant": true
    },
    {
      "inputs": [],
      "name": "priceOracle",
      "outputs": [
        {
          "internalType": "contract PriceOracleInterface",
          "name": "",
          "type": "address"
        }
      ],
      "stateMutability": "view",
      "type": "function",
      "constant": true
    },
    {
      "inputs": [],
      "name": "renounceOwnership",
      "outputs": [],
      "stateMutability": "nonpayable",
      "type": "function"
    },
    {
      "inputs": [
        {
          "internalType": "address",
          "name": "newOwner",
          "type": "address"
        }
      ],
      "name": "transferOwnership",
      "outputs": [],
      "stateMutability": "nonpayable",
      "type": "function"
    },
    {
      "inputs": [
        {
          "internalType": "uint256",
          "name": "",
          "type": "uint256"
        }
      ],
      "name": "users",
      "outputs": [
        {
          "internalType": "uint256",
          "name": "id",
          "type": "uint256"
        },
        {
          "internalType": "address",
          "name": "underlyingAsset",
          "type": "address"
        },
        {
          "internalType": "address payable",
          "name": "userAddress",
          "type": "address"
        },
        {
          "internalType": "string",
          "name": "userDetails",
          "type": "string"
        },
        {
          "internalType": "uint256",
          "name": "depositedAmount",
          "type": "uint256"
        },
        {
          "internalType": "uint256",
          "name": "amountToSpend",
          "type": "uint256"
        },
        {
          "internalType": "uint256",
          "name": "approvedAmountToSpend",
          "type": "uint256"
        },
        {
          "internalType": "uint256",
          "name": "startTime",
          "type": "uint256"
        },
        {
          "internalType": "uint256",
          "name": "timeDurationOfdeposit",
          "type": "uint256"
        },
        {
          "internalType": "uint256",
          "name": "lockTime",
          "type": "uint256"
        },
        {
          "internalType": "string",
          "name": "ipfsHashOfUserPensionDetails",
          "type": "string"
        },
        {
          "internalType": "uint256",
          "name": "userLastRewardBlock",
          "type": "uint256"
        }
      ],
      "stateMutability": "view",
      "type": "function",
      "constant": true
    },
    {
      "inputs": [],
      "name": "xend",
      "outputs": [
        {
          "internalType": "contract IERC20",
          "name": "",
          "type": "address"
        }
      ],
      "stateMutability": "view",
      "type": "function",
      "constant": true
    },
    {
      "inputs": [],
      "name": "xendFinance",
      "outputs": [
        {
          "internalType": "contract XendFinanceInterface",
          "name": "",
          "type": "address"
        }
      ],
      "stateMutability": "view",
      "type": "function",
      "constant": true
    },
    {
      "inputs": [
        {
          "internalType": "address",
          "name": "_underlyingAsset",
          "type": "address"
        },
        {
          "internalType": "string",
          "name": "_userDetails",
          "type": "string"
        },
        {
          "internalType": "uint256",
          "name": "_amountToSpend",
          "type": "uint256"
        },
        {
          "internalType": "uint256",
          "name": "_approvedAmountToSpend",
          "type": "uint256"
        },
        {
          "internalType": "uint256",
          "name": "_timeDurationOfDeposit",
          "type": "uint256"
        }
      ],
      "name": "register",
      "outputs": [],
      "stateMutability": "nonpayable",
      "type": "function"
    },
    {
      "inputs": [
        {
          "internalType": "uint256",
          "name": "_amount",
          "type": "uint256"
        }
      ],
      "name": "deposit",
      "outputs": [],
      "stateMutability": "payable",
      "type": "function",
      "payable": true
    },
    {
      "inputs": [
        {
          "internalType": "bytes",
          "name": "",
          "type": "bytes"
        }
      ],
      "name": "checkUpkeep",
      "outputs": [
        {
          "internalType": "bool",
          "name": "upkeep",
          "type": "bool"
        },
        {
          "internalType": "bytes",
          "name": "upKeepData",
          "type": "bytes"
        }
      ],
      "stateMutability": "view",
      "type": "function",
      "constant": true
    },
    {
      "inputs": [
        {
          "internalType": "bytes",
          "name": "upKeepData",
          "type": "bytes"
        }
      ],
      "name": "performUpkeep",
      "outputs": [],
      "stateMutability": "nonpayable",
      "type": "function"
    },
    {
      "inputs": [],
      "name": "withdraw",
      "outputs": [],
      "stateMutability": "nonpayable",
      "type": "function"
    },
    {
      "inputs": [],
      "name": "updateTimeDurationOfDeposit",
      "outputs": [],
      "stateMutability": "nonpayable",
      "type": "function"
    },
    {
      "inputs": [
        {
          "internalType": "string",
          "name": "_ipfsHashOfUserPensionDetails",
          "type": "string"
        },
        {
          "internalType": "uint256",
          "name": "_lockTime",
          "type": "uint256"
        }
      ],
      "name": "setLockTime",
      "outputs": [],
      "stateMutability": "nonpayable",
      "type": "function"
    },
    {
      "inputs": [
        {
          "internalType": "address",
          "name": "_user",
          "type": "address"
        }
      ],
      "name": "getXendPendingRewards",
      "outputs": [
        {
          "internalType": "uint256",
          "name": "",
          "type": "uint256"
        }
      ],
      "stateMutability": "view",
      "type": "function",
      "constant": true
    },
    {
      "inputs": [
        {
          "internalType": "uint256",
          "name": "_amount",
          "type": "uint256"
        }
      ],
      "name": "depositToXendFinance",
      "outputs": [],
      "stateMutability": "nonpayable",
      "type": "function"
    },
    {
      "inputs": [],
      "name": "withdrawFromXendFinance",
      "outputs": [],
      "stateMutability": "nonpayable",
      "type": "function"
    },
    {
      "inputs": [],
      "name": "getAccruedInterest",
      "outputs": [
        {
          "internalType": "uint256",
          "name": "",
          "type": "uint256"
        }
      ],
      "stateMutability": "view",
      "type": "function",
      "constant": true
    }
  ],
  "bytecode": "0x60806040523480156200001157600080fd5b5060405162004a8e38038062004a8e8339818101604052810190620000379190620002d9565b60008060006101000a81548160ff02191690831515021790555060018081905550620000786200006c620001c660201b60201c565b620001ce60201b60201c565b83600960006101000a81548173ffffffffffffffffffffffffffffffffffffffff021916908373ffffffffffffffffffffffffffffffffffffffff16021790555081600360006101000a81548173ffffffffffffffffffffffffffffffffffffffff021916908373ffffffffffffffffffffffffffffffffffffffff16021790555080600460006101000a81548173ffffffffffffffffffffffffffffffffffffffff021916908373ffffffffffffffffffffffffffffffffffffffff16021790555082600860006101000a81548173ffffffffffffffffffffffffffffffffffffffff021916908373ffffffffffffffffffffffffffffffffffffffff1602179055506200019f600a6729a2241af62c00006200029460201b620029b71790919060201c565b600781905550620001bc6005620002ac60201b620029cd1760201c565b5050505062000404565b600033905090565b6000600260009054906101000a900473ffffffffffffffffffffffffffffffffffffffff16905081600260006101000a81548173ffffffffffffffffffffffffffffffffffffffff021916908373ffffffffffffffffffffffffffffffffffffffff1602179055508173ffffffffffffffffffffffffffffffffffffffff168173ffffffffffffffffffffffffffffffffffffffff167f8be0079c531659141344cd1fd0a4f28419497f9722a3daafe3b4186f6b6457e060405160405180910390a35050565b60008183620002a4919062000345565b905092915050565b6001816000016000828254019250508190555050565b600081519050620002d381620003ea565b92915050565b60008060008060808587031215620002f057600080fd5b60006200030087828801620002c2565b94505060206200031387828801620002c2565b93505060406200032687828801620002c2565b92505060606200033987828801620002c2565b91505092959194509250565b60006200035282620003b1565b91506200035f83620003b1565b925082620003725762000371620003bb565b5b828204905092915050565b60006200038a8262000391565b9050919050565b600073ffffffffffffffffffffffffffffffffffffffff82169050919050565b6000819050919050565b7f4e487b7100000000000000000000000000000000000000000000000000000000600052601260045260246000fd5b620003f5816200037d565b81146200040157600080fd5b50565b61467a80620004146000396000f3fe6080604052600436106101355760003560e01c80635fe3b567116100ab578063b6b55f251161006f578063b6b55f25146103e1578063c3c5a547146103fd578063c742ee051461043a578063e688a5fa14610477578063f2fde38b146104a0578063f5dd6065146104c957610135565b80635fe3b5671461030d5780636e04ff0d14610338578063715018a6146103765780638da5cb5b1461038d578063a231bdf8146103b857610135565b8063564afa3a116100fd578063564afa3a1461021857806356dc5d8e14610243578063590983301461025a5780635bc9d2bf146102715780635c975abb146102b95780635daa4bfa146102e457610135565b80632630c12f1461013a5780633245f22814610165578063365b98b2146101905780633ccfd60b146101d85780634585e33b146101ef575b600080fd5b34801561014657600080fd5b5061014f6104f4565b60405161015c9190613d4a565b60405180910390f35b34801561017157600080fd5b5061017a61051a565b6040516101879190613d2f565b60405180910390f35b34801561019c57600080fd5b506101b760048036038101906101b291906132d1565b610540565b6040516101cf9c9b9a99989796959493929190613ffd565b60405180910390f35b3480156101e457600080fd5b506101ed610700565b005b3480156101fb57600080fd5b50610216600480360381019061021191906131f7565b610daa565b005b34801561022457600080fd5b5061022d611205565b60405161023a9190613fe2565b60405180910390f35b34801561024f57600080fd5b506102586113f3565b005b34801561026657600080fd5b5061026f61152e565b005b34801561027d57600080fd5b50610298600480360381019061029391906130ed565b61190f565b6040516102b09c9b9a99989796959493929190613ffd565b60405180910390f35b3480156102c557600080fd5b506102ce611abf565b6040516102db9190613cc9565b60405180910390f35b3480156102f057600080fd5b5061030b600480360381019061030691906132d1565b611ad5565b005b34801561031957600080fd5b50610322611c42565b60405161032f9190613d14565b60405180910390f35b34801561034457600080fd5b5061035f600480360381019061035a91906131f7565b611c68565b60405161036d929190613ce4565b60405180910390f35b34801561038257600080fd5b5061038b611d88565b005b34801561039957600080fd5b506103a2611e10565b6040516103af9190613ba2565b60405180910390f35b3480156103c457600080fd5b506103df60048036038101906103da919061313f565b611e3a565b005b6103fb60048036038101906103f691906132d1565b61231a565b005b34801561040957600080fd5b50610424600480360381019061041f91906130ed565b612602565b6040516104319190613cc9565b60405180910390f35b34801561044657600080fd5b50610461600480360381019061045c91906130ed565b612622565b60405161046e9190613fe2565b60405180910390f35b34801561048357600080fd5b5061049e6004803603810190610499919061323c565b612751565b005b3480156104ac57600080fd5b506104c760048036038101906104c291906130ed565b612899565b005b3480156104d557600080fd5b506104de612991565b6040516104eb9190613d65565b60405180910390f35b600460009054906101000a900473ffffffffffffffffffffffffffffffffffffffff1681565b600960009054906101000a900473ffffffffffffffffffffffffffffffffffffffff1681565b600c818154811061055057600080fd5b90600052602060002090600c02016000915090508060000154908060010160009054906101000a900473ffffffffffffffffffffffffffffffffffffffff16908060020160009054906101000a900473ffffffffffffffffffffffffffffffffffffffff16908060030180546105c590614445565b80601f01602080910402602001604051908101604052809291908181526020018280546105f190614445565b801561063e5780601f106106135761010080835404028352916020019161063e565b820191906000526020600020905b81548152906001019060200180831161062157829003601f168201915b50505050509080600401549080600501549080600601549080600701549080600801549080600901549080600a01805461067790614445565b80601f01602080910402602001604051908101604052809291908181526020018280546106a390614445565b80156106f05780601f106106c5576101008083540402835291602001916106f0565b820191906000526020600020905b8154815290600101906020018083116106d357829003601f168201915b50505050509080600b015490508c565b610708611abf565b15610748576040517f08c379a000000000000000000000000000000000000000000000000000000000815260040161073f90613e60565b60405180910390fd5b6002600154141561078e576040517f08c379a000000000000000000000000000000000000000000000000000000000815260040161078590613fa0565b60405180910390fd5b6002600181905550600b60003373ffffffffffffffffffffffffffffffffffffffff1673ffffffffffffffffffffffffffffffffffffffff16815260200190815260200160002060009054906101000a900460ff16610822576040517f08c379a000000000000000000000000000000000000000000000000000000000815260040161081990613ec0565b60405180910390fd5b6000600a60003373ffffffffffffffffffffffffffffffffffffffff1673ffffffffffffffffffffffffffffffffffffffff16815260200190815260200160002060040154116108a7576040517f08c379a000000000000000000000000000000000000000000000000000000000815260040161089e90613f40565b60405180910390fd5b6000600a60003373ffffffffffffffffffffffffffffffffffffffff1673ffffffffffffffffffffffffffffffffffffffff16815260200190815260200160002090508060090154421015610b6f57600081600401541161093d576040517f08c379a000000000000000000000000000000000000000000000000000000000815260040161093490613f20565b60405180910390fd5b61096f8160010160009054906101000a900473ffffffffffffffffffffffffffffffffffffffff1682600401546129e3565b6000610989600283600401546129b790919063ffffffff16565b905060008260010160009054906101000a900473ffffffffffffffffffffffffffffffffffffffff16905060008173ffffffffffffffffffffffffffffffffffffffff16636f307dc36040518163ffffffff1660e01b815260040160206040518083038186803b1580156109fc57600080fd5b505afa158015610a10573d6000803e3d6000fd5b505050506040513d601f19601f82011682018060405250810190610a349190613116565b90508073ffffffffffffffffffffffffffffffffffffffff1663a9059cbb8560020160009054906101000a900473ffffffffffffffffffffffffffffffffffffffff16856040518363ffffffff1660e01b8152600401610a95929190613bf4565b602060405180830381600087803b158015610aaf57600080fd5b505af1158015610ac3573d6000803e3d6000fd5b505050506040513d601f19601f82011682018060405250810190610ae791906131ce565b50600084600401819055504384600b0181905550610b266305f5e100610b1843600754612ac090919063ffffffff16565b6129b790919063ffffffff16565b6007819055507f9b1bfa7fa9ee420a16e124f794c35ac9f90472acc99140eb2f6447c714cad8eb303385604051610b5f93929190613c1d565b60405180910390a1505050610da0565b6000816004015411610bb6576040517f08c379a0000000000000000000000000000000000000000000000000000000008152600401610bad90613f20565b60405180910390fd5b610be88160010160009054906101000a900473ffffffffffffffffffffffffffffffffffffffff1682600401546129e3565b60008160040154905060008260010160009054906101000a900473ffffffffffffffffffffffffffffffffffffffff16905060008173ffffffffffffffffffffffffffffffffffffffff16636f307dc36040518163ffffffff1660e01b815260040160206040518083038186803b158015610c6257600080fd5b505afa158015610c76573d6000803e3d6000fd5b505050506040513d601f19601f82011682018060405250810190610c9a9190613116565b90508073ffffffffffffffffffffffffffffffffffffffff1663a9059cbb8560020160009054906101000a900473ffffffffffffffffffffffffffffffffffffffff16856040518363ffffffff1660e01b8152600401610cfb929190613bf4565b602060405180830381600087803b158015610d1557600080fd5b505af1158015610d29573d6000803e3d6000fd5b505050506040513d601f19601f82011682018060405250810190610d4d91906131ce565b50600084600401819055504384600b01819055507f9b1bfa7fa9ee420a16e124f794c35ac9f90472acc99140eb2f6447c714cad8eb303385604051610d9493929190613c1d565b60405180910390a15050505b5060018081905550565b610db2611abf565b15610df2576040517f08c379a0000000000000000000000000000000000000000000000000000000008152600401610de990613e60565b60405180910390fd5b60008282810190610e039190613290565b90506000600a6000836040015173ffffffffffffffffffffffffffffffffffffffff1673ffffffffffffffffffffffffffffffffffffffff16815260200190815260200160002090508060080154610e68826007015442612ac090919063ffffffff16565b11156111ff57600b60008260020160009054906101000a900473ffffffffffffffffffffffffffffffffffffffff1673ffffffffffffffffffffffffffffffffffffffff1673ffffffffffffffffffffffffffffffffffffffff16815260200190815260200160002060009054906101000a900460ff16610f1e576040517f08c379a0000000000000000000000000000000000000000000000000000000008152600401610f1590613f80565b60405180910390fd5b6000816006015411610f65576040517f08c379a0000000000000000000000000000000000000000000000000000000008152600401610f5c90613e40565b60405180910390fd5b60008160010160009054906101000a900473ffffffffffffffffffffffffffffffffffffffff16905060008260050154905060008273ffffffffffffffffffffffffffffffffffffffff16636f307dc36040518163ffffffff1660e01b815260040160206040518083038186803b158015610fdf57600080fd5b505afa158015610ff3573d6000803e3d6000fd5b505050506040513d601f19601f820116820180604052508101906110179190613116565b90508073ffffffffffffffffffffffffffffffffffffffff166323b872dd8560020160009054906101000a900473ffffffffffffffffffffffffffffffffffffffff1630856040518463ffffffff1660e01b815260040161107a93929190613bbd565b602060405180830381600087803b15801561109457600080fd5b505af11580156110a8573d6000803e3d6000fd5b505050506040513d601f19601f820116820180604052508101906110cc91906131ce565b506110ff8460010160009054906101000a900473ffffffffffffffffffffffffffffffffffffffff168560050154612ad6565b611116828560040154612ac090919063ffffffff16565b846004018190555061113984600501548560060154612cc490919063ffffffff16565b84600601819055504284600701819055506111614385600b0154612ac090919063ffffffff16565b84600b01819055506111946305f5e10061118643600754612cda90919063ffffffff16565b6129b790919063ffffffff16565b6007819055507fe1fffcc4923d04b559f4d29a8bfc6cda04eb5b0d3c460751c2402c5c5cc9109c8460020160009054906101000a900473ffffffffffffffffffffffffffffffffffffffff1685600501546040516111f3929190613bf4565b60405180910390a15050505b50505050565b600080600a60003373ffffffffffffffffffffffffffffffffffffffff1673ffffffffffffffffffffffffffffffffffffffff1681526020019081526020016000209050600b60008260020160009054906101000a900473ffffffffffffffffffffffffffffffffffffffff1673ffffffffffffffffffffffffffffffffffffffff1673ffffffffffffffffffffffffffffffffffffffff16815260200190815260200160002060009054906101000a900460ff166112f9576040517f08c379a00000000000000000000000000000000000000000000000000000000081526004016112f090613ec0565b60405180910390fd5b60008160010160009054906101000a900473ffffffffffffffffffffffffffffffffffffffff16905060008173ffffffffffffffffffffffffffffffffffffffff1663ae9d70b06040518163ffffffff1660e01b815260040160206040518083038186803b15801561136a57600080fd5b505afa15801561137e573d6000803e3d6000fd5b505050506040513d601f19601f820116820180604052508101906113a291906132fa565b905060006113e76305f5e1006113d96007546113cb868960040154612cda90919063ffffffff16565b6129b790919063ffffffff16565b6129b790919063ffffffff16565b90508094505050505090565b6000600a60003373ffffffffffffffffffffffffffffffffffffffff1673ffffffffffffffffffffffffffffffffffffffff1681526020019081526020016000209050600b60008260020160009054906101000a900473ffffffffffffffffffffffffffffffffffffffff1673ffffffffffffffffffffffffffffffffffffffff1673ffffffffffffffffffffffffffffffffffffffff16815260200190815260200160002060009054906101000a900460ff166114e6576040517f08c379a00000000000000000000000000000000000000000000000000000000081526004016114dd90613de0565b60405180910390fd5b600081600801819055507f164f7b2ab803097dab5e39f06d2e4f3c3ddc5d4171abbdcc3e76443b8359c7f581600801546040516115239190613fe2565b60405180910390a150565b611536611abf565b15611576576040517f08c379a000000000000000000000000000000000000000000000000000000000815260040161156d90613e60565b60405180910390fd5b600260015414156115bc576040517f08c379a00000000000000000000000000000000000000000000000000000000081526004016115b390613fa0565b60405180910390fd5b6002600181905550600b60003373ffffffffffffffffffffffffffffffffffffffff1673ffffffffffffffffffffffffffffffffffffffff16815260200190815260200160002060009054906101000a900460ff16611650576040517f08c379a000000000000000000000000000000000000000000000000000000000815260040161164790613dc0565b60405180910390fd5b6000600a60003373ffffffffffffffffffffffffffffffffffffffff1673ffffffffffffffffffffffffffffffffffffffff1681526020019081526020016000209050600860009054906101000a900473ffffffffffffffffffffffffffffffffffffffff1673ffffffffffffffffffffffffffffffffffffffff16632e1a7d4d82600401546040518263ffffffff1660e01b81526004016116f29190613fe2565b600060405180830381600087803b15801561170c57600080fd5b505af1158015611720573d6000803e3d6000fd5b505050506000600960009054906101000a900473ffffffffffffffffffffffffffffffffffffffff1673ffffffffffffffffffffffffffffffffffffffff166370a08231306040518263ffffffff1660e01b81526004016117819190613ba2565b60206040518083038186803b15801561179957600080fd5b505afa1580156117ad573d6000803e3d6000fd5b505050506040513d601f19601f820116820180604052508101906117d191906132fa565b905081600401548111611819576040517f08c379a000000000000000000000000000000000000000000000000000000000815260040161181090613ea0565b60405180910390fd5b8060068190555060006118516305f5e1006118436006548660040154612cda90919063ffffffff16565b6129b790919063ffffffff16565b9050600960009054906101000a900473ffffffffffffffffffffffffffffffffffffffff1673ffffffffffffffffffffffffffffffffffffffff1663a9059cbb33836040518363ffffffff1660e01b81526004016118b0929190613ca0565b602060405180830381600087803b1580156118ca57600080fd5b505af11580156118de573d6000803e3d6000fd5b505050506040513d601f19601f8201168201806040525081019061190291906131ce565b5050505060018081905550565b600a6020528060005260406000206000915090508060000154908060010160009054906101000a900473ffffffffffffffffffffffffffffffffffffffff16908060020160009054906101000a900473ffffffffffffffffffffffffffffffffffffffff169080600301805461198490614445565b80601f01602080910402602001604051908101604052809291908181526020018280546119b090614445565b80156119fd5780601f106119d2576101008083540402835291602001916119fd565b820191906000526020600020905b8154815290600101906020018083116119e057829003601f168201915b50505050509080600401549080600501549080600601549080600701549080600801549080600901549080600a018054611a3690614445565b80601f0160208091040260200160405190810160405280929190818152602001828054611a6290614445565b8015611aaf5780601f10611a8457610100808354040283529160200191611aaf565b820191906000526020600020905b815481529060010190602001808311611a9257829003601f168201915b50505050509080600b015490508c565b60008060009054906101000a900460ff16905090565b611add611abf565b15611b1d576040517f08c379a0000000000000000000000000000000000000000000000000000000008152600401611b1490613e60565b60405180910390fd5b6000600a60003373ffffffffffffffffffffffffffffffffffffffff1673ffffffffffffffffffffffffffffffffffffffff1681526020019081526020016000209050600860009054906101000a900473ffffffffffffffffffffffffffffffffffffffff1673ffffffffffffffffffffffffffffffffffffffff1663d0e30db06040518163ffffffff1660e01b8152600401600060405180830381600087803b158015611bca57600080fd5b505af1158015611bde573d6000803e3d6000fd5b50505050611bf9828260040154612ac090919063ffffffff16565b81600401819055507fe1fffcc4923d04b559f4d29a8bfc6cda04eb5b0d3c460751c2402c5c5cc9109c338260040154604051611c36929190613ca0565b60405180910390a15050565b600360009054906101000a900473ffffffffffffffffffffffffffffffffffffffff1681565b60006060611c74611abf565b15611cb4576040517f08c379a0000000000000000000000000000000000000000000000000000000008152600401611cab90613e60565b60405180910390fd5b60005b600c80549050811015611d7f576000600c8281548110611d00577f4e487b7100000000000000000000000000000000000000000000000000000000600052603260045260246000fd5b90600052602060002090600c020190508060080154611d2c826007015442612ac090919063ffffffff16565b1115611d6b57600081604051602001611d459190613fc0565b604051602081830303815290604052905060006001905080829550955050505050611d81565b508080611d77906144c5565b915050611cb7565b505b9250929050565b611d90612cf0565b73ffffffffffffffffffffffffffffffffffffffff16611dae611e10565b73ffffffffffffffffffffffffffffffffffffffff1614611e04576040517f08c379a0000000000000000000000000000000000000000000000000000000008152600401611dfb90613f00565b60405180910390fd5b611e0e6000612cf8565b565b6000600260009054906101000a900473ffffffffffffffffffffffffffffffffffffffff16905090565b611e42611abf565b15611e82576040517f08c379a0000000000000000000000000000000000000000000000000000000008152600401611e7990613e60565b60405180910390fd5b600b60003373ffffffffffffffffffffffffffffffffffffffff1673ffffffffffffffffffffffffffffffffffffffff16815260200190815260200160002060009054906101000a900460ff1615611f0f576040517f08c379a0000000000000000000000000000000000000000000000000000000008152600401611f0690613e20565b60405180910390fd5b6000604051806101800160405280611f276005612dbe565b81526020018773ffffffffffffffffffffffffffffffffffffffff1681526020013373ffffffffffffffffffffffffffffffffffffffff16815260200186815260200160008152602001858152602001848152602001428152602001611f968442612ac090919063ffffffff16565b81526020016000815260200160405180602001604052806000815250815260200143815250905080600a60003373ffffffffffffffffffffffffffffffffffffffff1673ffffffffffffffffffffffffffffffffffffffff1681526020019081526020016000206000820151816000015560208201518160010160006101000a81548173ffffffffffffffffffffffffffffffffffffffff021916908373ffffffffffffffffffffffffffffffffffffffff16021790555060408201518160020160006101000a81548173ffffffffffffffffffffffffffffffffffffffff021916908373ffffffffffffffffffffffffffffffffffffffff16021790555060608201518160030190805190602001906120b1929190612dcc565b506080820151816004015560a0820151816005015560c0820151816006015560e082015181600701556101008201518160080155610120820151816009015561014082015181600a01908051906020019061210d929190612dcc565b5061016082015181600b0155905050600c8190806001815401808255809150506001900390600052602060002090600c02016000909190919091506000820151816000015560208201518160010160006101000a81548173ffffffffffffffffffffffffffffffffffffffff021916908373ffffffffffffffffffffffffffffffffffffffff16021790555060408201518160020160006101000a81548173ffffffffffffffffffffffffffffffffffffffff021916908373ffffffffffffffffffffffffffffffffffffffff16021790555060608201518160030190805190602001906121fc929190612dcc565b506080820151816004015560a0820151816005015560c0820151816006015560e082015181600701556101008201518160080155610120820151816009015561014082015181600a019080519060200190612258929190612dcc565b5061016082015181600b015550506001600b60003373ffffffffffffffffffffffffffffffffffffffff1673ffffffffffffffffffffffffffffffffffffffff16815260200190815260200160002060006101000a81548160ff0219169083151502179055506122c860056129cd565b7fc250e1da9a7004c4db73398b2f2c8cb322f44a17402ea2f24fbbcfd612ee182e3382606001518360a0015184610120015160405161230a9493929190613c54565b60405180910390a1505050505050565b612322611abf565b15612362576040517f08c379a000000000000000000000000000000000000000000000000000000000815260040161235990613e60565b60405180910390fd5b600b60003373ffffffffffffffffffffffffffffffffffffffff1673ffffffffffffffffffffffffffffffffffffffff16815260200190815260200160002060009054906101000a900460ff166123ee576040517f08c379a00000000000000000000000000000000000000000000000000000000081526004016123e590613d80565b60405180910390fd5b6000600a60003373ffffffffffffffffffffffffffffffffffffffff1673ffffffffffffffffffffffffffffffffffffffff168152602001908152602001600020905060008160010160009054906101000a900473ffffffffffffffffffffffffffffffffffffffff16905060008173ffffffffffffffffffffffffffffffffffffffff16636f307dc36040518163ffffffff1660e01b815260040160206040518083038186803b1580156124a257600080fd5b505afa1580156124b6573d6000803e3d6000fd5b505050506040513d601f19601f820116820180604052508101906124da9190613116565b90508073ffffffffffffffffffffffffffffffffffffffff166323b872dd3330876040518463ffffffff1660e01b815260040161251993929190613c1d565b602060405180830381600087803b15801561253357600080fd5b505af1158015612547573d6000803e3d6000fd5b505050506040513d601f19601f8201168201806040525081019061256b91906131ce565b5060008360010160009054906101000a900473ffffffffffffffffffffffffffffffffffffffff16905061259f8186612ad6565b6125b6858560040154612ac090919063ffffffff16565b84600401819055507fe1fffcc4923d04b559f4d29a8bfc6cda04eb5b0d3c460751c2402c5c5cc9109c3385600401546040516125f3929190613ca0565b60405180910390a15050505050565b600b6020528060005260406000206000915054906101000a900460ff1681565b600080600a60008473ffffffffffffffffffffffffffffffffffffffff1673ffffffffffffffffffffffffffffffffffffffff16815260200190815260200160002090506000600860009054906101000a900473ffffffffffffffffffffffffffffffffffffffff1673ffffffffffffffffffffffffffffffffffffffff1663eec562c3306040518263ffffffff1660e01b81526004016126c39190613ba2565b60206040518083038186803b1580156126db57600080fd5b505afa1580156126ef573d6000803e3d6000fd5b505050506040513d601f19601f8201168201806040525081019061271391906132fa565b905060006127446305f5e100612736848660040154612cda90919063ffffffff16565b6129b790919063ffffffff16565b9050809350505050919050565b600b60003373ffffffffffffffffffffffffffffffffffffffff1673ffffffffffffffffffffffffffffffffffffffff16815260200190815260200160002060009054906101000a900460ff166127dd576040517f08c379a00000000000000000000000000000000000000000000000000000000081526004016127d490613ee0565b60405180910390fd5b6000600a60003373ffffffffffffffffffffffffffffffffffffffff1673ffffffffffffffffffffffffffffffffffffffff16815260200190815260200160002090506000816009015414612867576040517f08c379a000000000000000000000000000000000000000000000000000000000815260040161285e90613e80565b60405180910390fd5b81426128739190614184565b81600901819055508281600a019080519060200190612893929190612dcc565b50505050565b6128a1612cf0565b73ffffffffffffffffffffffffffffffffffffffff166128bf611e10565b73ffffffffffffffffffffffffffffffffffffffff1614612915576040517f08c379a000000000000000000000000000000000000000000000000000000000815260040161290c90613f00565b60405180910390fd5b600073ffffffffffffffffffffffffffffffffffffffff168173ffffffffffffffffffffffffffffffffffffffff161415612985576040517f08c379a000000000000000000000000000000000000000000000000000000000815260040161297c90613da0565b60405180910390fd5b61298e81612cf8565b50565b600860009054906101000a900473ffffffffffffffffffffffffffffffffffffffff1681565b600081836129c591906141da565b905092915050565b6001816000016000828254019250508190555050565b600082905060008173ffffffffffffffffffffffffffffffffffffffff1663852a12e3846040518263ffffffff1660e01b8152600401612a239190613fe2565b602060405180830381600087803b158015612a3d57600080fd5b505af1158015612a51573d6000803e3d6000fd5b505050506040513d601f19601f82011682018060405250810190612a7591906132fa565b905060008114612aba576040517f08c379a0000000000000000000000000000000000000000000000000000000008152600401612ab190613f60565b60405180910390fd5b50505050565b60008183612ace9190614184565b905092915050565b600082905060008173ffffffffffffffffffffffffffffffffffffffff16636f307dc36040518163ffffffff1660e01b815260040160206040518083038186803b158015612b2357600080fd5b505afa158015612b37573d6000803e3d6000fd5b505050506040513d601f19601f82011682018060405250810190612b5b9190613116565b90508073ffffffffffffffffffffffffffffffffffffffff1663095ea7b385856040518363ffffffff1660e01b8152600401612b98929190613ca0565b602060405180830381600087803b158015612bb257600080fd5b505af1158015612bc6573d6000803e3d6000fd5b505050506040513d601f19601f82011682018060405250810190612bea91906131ce565b5060008273ffffffffffffffffffffffffffffffffffffffff1663a0712d68856040518263ffffffff1660e01b8152600401612c269190613fe2565b602060405180830381600087803b158015612c4057600080fd5b505af1158015612c54573d6000803e3d6000fd5b505050506040513d601f19601f82011682018060405250810190612c7891906132fa565b905060008114612cbd576040517f08c379a0000000000000000000000000000000000000000000000000000000008152600401612cb490613e00565b60405180910390fd5b5050505050565b60008183612cd29190614265565b905092915050565b60008183612ce8919061420b565b905092915050565b600033905090565b6000600260009054906101000a900473ffffffffffffffffffffffffffffffffffffffff16905081600260006101000a81548173ffffffffffffffffffffffffffffffffffffffff021916908373ffffffffffffffffffffffffffffffffffffffff1602179055508173ffffffffffffffffffffffffffffffffffffffff168173ffffffffffffffffffffffffffffffffffffffff167f8be0079c531659141344cd1fd0a4f28419497f9722a3daafe3b4186f6b6457e060405160405180910390a35050565b600081600001549050919050565b828054612dd890614445565b90600052602060002090601f016020900481019282612dfa5760008555612e41565b82601f10612e1357805160ff1916838001178555612e41565b82800160010185558215612e41579182015b82811115612e40578251825591602001919060010190612e25565b5b509050612e4e9190612e52565b5090565b5b80821115612e6b576000816000905550600101612e53565b5090565b6000612e82612e7d846140f6565b6140c5565b905082815260208101848484011115612e9a57600080fd5b612ea5848285614403565b509392505050565b600081359050612ebc816145e8565b92915050565b600081519050612ed1816145e8565b92915050565b600081359050612ee6816145ff565b92915050565b600081519050612efb81614616565b92915050565b60008083601f840112612f1357600080fd5b8235905067ffffffffffffffff811115612f2c57600080fd5b602083019150836001820283011115612f4457600080fd5b9250929050565b600082601f830112612f5c57600080fd5b8135612f6c848260208601612e6f565b91505092915050565b60006101808284031215612f8857600080fd5b612f936101806140c5565b90506000612fa3848285016130c3565b6000830152506020612fb784828501612ead565b6020830152506040612fcb84828501612ed7565b604083015250606082013567ffffffffffffffff811115612feb57600080fd5b612ff784828501612f4b565b606083015250608061300b848285016130c3565b60808301525060a061301f848285016130c3565b60a08301525060c0613033848285016130c3565b60c08301525060e0613047848285016130c3565b60e08301525061010061305c848285016130c3565b61010083015250610120613072848285016130c3565b6101208301525061014082013567ffffffffffffffff81111561309457600080fd5b6130a084828501612f4b565b610140830152506101606130b6848285016130c3565b6101608301525092915050565b6000813590506130d28161462d565b92915050565b6000815190506130e78161462d565b92915050565b6000602082840312156130ff57600080fd5b600061310d84828501612ead565b91505092915050565b60006020828403121561312857600080fd5b600061313684828501612ec2565b91505092915050565b600080600080600060a0868803121561315757600080fd5b600061316588828901612ead565b955050602086013567ffffffffffffffff81111561318257600080fd5b61318e88828901612f4b565b945050604061319f888289016130c3565b93505060606131b0888289016130c3565b92505060806131c1888289016130c3565b9150509295509295909350565b6000602082840312156131e057600080fd5b60006131ee84828501612eec565b91505092915050565b6000806020838503121561320a57600080fd5b600083013567ffffffffffffffff81111561322457600080fd5b61323085828601612f01565b92509250509250929050565b6000806040838503121561324f57600080fd5b600083013567ffffffffffffffff81111561326957600080fd5b61327585828601612f4b565b9250506020613286858286016130c3565b9150509250929050565b6000602082840312156132a257600080fd5b600082013567ffffffffffffffff8111156132bc57600080fd5b6132c884828501612f75565b91505092915050565b6000602082840312156132e357600080fd5b60006132f1848285016130c3565b91505092915050565b60006020828403121561330c57600080fd5b600061331a848285016130d8565b91505092915050565b61332c8161433d565b82525050565b61333b816142f5565b82525050565b61334a816142f5565b82525050565b613359816142e3565b82525050565b613368816142e3565b82525050565b61337781614307565b82525050565b60006133888261413b565b6133928185614151565b93506133a2818560208601614412565b6133ab816145ca565b840191505092915050565b6133bf8161434f565b82525050565b6133ce81614373565b82525050565b6133dd81614397565b82525050565b6133ec816143bb565b82525050565b60006133fd82614146565b6134078185614173565b9350613417818560208601614412565b613420816145ca565b840191505092915050565b6000815461343881614445565b6134428186614162565b9450600182166000811461345d576001811461346f576134a2565b60ff19831686526020860193506134a2565b61347885614126565b60005b8381101561349a5781548189015260018201915060208101905061347b565b808801955050505b50505092915050565b60006134b8601883614173565b91507f43616c6c6572206973206e6f74205265676973746572656400000000000000006000830152602082019050919050565b60006134f8602683614173565b91507f4f776e61626c653a206e6577206f776e657220697320746865207a65726f206160008301527f64647265737300000000000000000000000000000000000000000000000000006020830152604082019050919050565b600061355e601583614173565b91507f43616c6c6572206e6f74205265676973746572656400000000000000000000006000830152602082019050919050565b600061359e601883614173565b91507f43616c6c6572206973206e6f74207265676973746572656400000000000000006000830152602082019050919050565b60006135de603483614173565b91507f63546f6b656e236d696e742829206661696c65642e2073656520436f6d706f7560008301527f6e64204572726f725265706f727465722e736f6c0000000000000000000000006020830152604082019050919050565b6000613644601d83614173565b91507f43616c6c6572206164647265737320616c7265616479206578697374730000006000830152602082019050919050565b6000613684602a83614173565b91507f496e73756666696369656e742062616c616e63652063616e6e6f74207065726660008301527f6f726d2075706b656570000000000000000000000000000000000000000000006020830152604082019050919050565b60006136ea601083614173565b91507f5061757361626c653a20706175736564000000000000000000000000000000006000830152602082019050919050565b600061372a602283614173565b91507f43616c6c657220616c7265616479206861732061206c6f636b2054696d65205360008301527f65740000000000000000000000000000000000000000000000000000000000006020830152604082019050919050565b6000613790602383614173565b91507f5769746864726177696e67206d6f7265207468616e20796f75206465706f736960008301527f74656400000000000000000000000000000000000000000000000000000000006020830152604082019050919050565b60006137f6601583614173565b91507f43616c6c6572206e6f74207265676973746572656400000000000000000000006000830152602082019050919050565b6000613836601b83614173565b91507f43616c6c65722068617320746f206265205265676973746572656400000000006000830152602082019050919050565b6000613876602083614173565b91507f4f776e61626c653a2063616c6c6572206973206e6f7420746865206f776e65726000830152602082019050919050565b60006138b6601483614173565b91507f696e73756666696369656e742062616c616e63650000000000000000000000006000830152602082019050919050565b60006138f6601483614173565b91507f496e73756666696369656e742042616c616e63650000000000000000000000006000830152602082019050919050565b6000613936603683614173565b91507f63546f6b656e2372656465656d2829206661696c65642e2073656520436f6d7060008301527f6f756e64204572726f725265706f727465722e736f6c000000000000000000006020830152604082019050919050565b600061399c601683614173565b91507f41646472657373206e6f742072656769737465726564000000000000000000006000830152602082019050919050565b60006139dc601f83614173565b91507f5265656e7472616e637947756172643a207265656e7472616e742063616c6c006000830152602082019050919050565b600061018083016000808401549050613a27816144ab565b613a346000870182613b84565b5060018401549050613a4581614477565b613a526020870182613350565b5060028401549050613a6381614491565b613a706040870182613332565b50600384018583036060870152613a87838261342b565b92505060048401549050613a9a816144ab565b613aa76080870182613b84565b5060058401549050613ab8816144ab565b613ac560a0870182613b84565b5060068401549050613ad6816144ab565b613ae360c0870182613b84565b5060078401549050613af4816144ab565b613b0160e0870182613b84565b5060088401549050613b12816144ab565b613b20610100870182613b84565b5060098401549050613b31816144ab565b613b3f610120870182613b84565b50600a8401858303610140870152613b57838261342b565b925050600b8401549050613b6a816144ab565b613b78610160870182613b84565b50819250505092915050565b613b8d81614333565b82525050565b613b9c81614333565b82525050565b6000602082019050613bb7600083018461335f565b92915050565b6000606082019050613bd26000830186613323565b613bdf602083018561335f565b613bec6040830184613b93565b949350505050565b6000604082019050613c096000830185613323565b613c166020830184613b93565b9392505050565b6000606082019050613c32600083018661335f565b613c3f602083018561335f565b613c4c6040830184613b93565b949350505050565b6000608082019050613c69600083018761335f565b8181036020830152613c7b81866133f2565b9050613c8a6040830185613b93565b613c976060830184613b93565b95945050505050565b6000604082019050613cb5600083018561335f565b613cc26020830184613b93565b9392505050565b6000602082019050613cde600083018461336e565b92915050565b6000604082019050613cf9600083018561336e565b8181036020830152613d0b818461337d565b90509392505050565b6000602082019050613d2960008301846133b6565b92915050565b6000602082019050613d4460008301846133c5565b92915050565b6000602082019050613d5f60008301846133d4565b92915050565b6000602082019050613d7a60008301846133e3565b92915050565b60006020820190508181036000830152613d99816134ab565b9050919050565b60006020820190508181036000830152613db9816134eb565b9050919050565b60006020820190508181036000830152613dd981613551565b9050919050565b60006020820190508181036000830152613df981613591565b9050919050565b60006020820190508181036000830152613e19816135d1565b9050919050565b60006020820190508181036000830152613e3981613637565b9050919050565b60006020820190508181036000830152613e5981613677565b9050919050565b60006020820190508181036000830152613e79816136dd565b9050919050565b60006020820190508181036000830152613e998161371d565b9050919050565b60006020820190508181036000830152613eb981613783565b9050919050565b60006020820190508181036000830152613ed9816137e9565b9050919050565b60006020820190508181036000830152613ef981613829565b9050919050565b60006020820190508181036000830152613f1981613869565b9050919050565b60006020820190508181036000830152613f39816138a9565b9050919050565b60006020820190508181036000830152613f59816138e9565b9050919050565b60006020820190508181036000830152613f7981613929565b9050919050565b60006020820190508181036000830152613f998161398f565b9050919050565b60006020820190508181036000830152613fb9816139cf565b9050919050565b60006020820190508181036000830152613fda8184613a0f565b905092915050565b6000602082019050613ff76000830184613b93565b92915050565b600061018082019050614013600083018f613b93565b614020602083018e61335f565b61402d604083018d613341565b818103606083015261403f818c6133f2565b905061404e608083018b613b93565b61405b60a083018a613b93565b61406860c0830189613b93565b61407560e0830188613b93565b614083610100830187613b93565b614091610120830186613b93565b8181036101408301526140a481856133f2565b90506140b4610160830184613b93565b9d9c50505050505050505050505050565b6000604051905081810181811067ffffffffffffffff821117156140ec576140eb61459b565b5b8060405250919050565b600067ffffffffffffffff8211156141115761411061459b565b5b601f19601f8301169050602081019050919050565b60008190508160005260206000209050919050565b600081519050919050565b600081519050919050565b600082825260208201905092915050565b600082825260208201905092915050565b600082825260208201905092915050565b600061418f82614333565b915061419a83614333565b9250827fffffffffffffffffffffffffffffffffffffffffffffffffffffffffffffffff038211156141cf576141ce61450e565b5b828201905092915050565b60006141e582614333565b91506141f083614333565b925082614200576141ff61453d565b5b828204905092915050565b600061421682614333565b915061422183614333565b9250817fffffffffffffffffffffffffffffffffffffffffffffffffffffffffffffffff048311821515161561425a5761425961450e565b5b828202905092915050565b600061427082614333565b915061427b83614333565b92508282101561428e5761428d61450e565b5b828203905092915050565b600073ffffffffffffffffffffffffffffffffffffffff82169050919050565b600073ffffffffffffffffffffffffffffffffffffffff82169050919050565b6000819050919050565b60006142ee82614313565b9050919050565b600061430082614313565b9050919050565b60008115159050919050565b600073ffffffffffffffffffffffffffffffffffffffff82169050919050565b6000819050919050565b6000614348826143df565b9050919050565b600061435a82614361565b9050919050565b600061436c82614313565b9050919050565b600061437e82614385565b9050919050565b600061439082614313565b9050919050565b60006143a2826143a9565b9050919050565b60006143b482614313565b9050919050565b60006143c6826143cd565b9050919050565b60006143d882614313565b9050919050565b60006143ea826143f1565b9050919050565b60006143fc82614313565b9050919050565b82818337600083830152505050565b60005b83811015614430578082015181840152602081019050614415565b8381111561443f576000848401525b50505050565b6000600282049050600182168061445d57607f821691505b602082108114156144715761447061456c565b5b50919050565b600061448a614485836145db565b614299565b9050919050565b60006144a461449f836145db565b6142b9565b9050919050565b60006144be6144b9836145db565b6142d9565b9050919050565b60006144d082614333565b91507fffffffffffffffffffffffffffffffffffffffffffffffffffffffffffffffff8214156145035761450261450e565b5b600182019050919050565b7f4e487b7100000000000000000000000000000000000000000000000000000000600052601160045260246000fd5b7f4e487b7100000000000000000000000000000000000000000000000000000000600052601260045260246000fd5b7f4e487b7100000000000000000000000000000000000000000000000000000000600052602260045260246000fd5b7f4e487b7100000000000000000000000000000000000000000000000000000000600052604160045260246000fd5b6000601f19601f8301169050919050565b60008160001c9050919050565b6145f1816142e3565b81146145fc57600080fd5b50565b614608816142f5565b811461461357600080fd5b50565b61461f81614307565b811461462a57600080fd5b50565b61463681614333565b811461464157600080fd5b5056fea2646970667358221220ab2c752c0eed289d2dafbf86a3c3660197ea802cb51ea31eff183a4db5012e8a64736f6c63430008000033",
  "immutableReferences": {},
  "source": "//SPDX-License-Identifier: Unlicense\r\npragma solidity ^0.8.0;\r\n\r\nimport \"@openzeppelin/contracts/utils/math/SafeMath.sol\";\r\nimport \"@openzeppelin/contracts/security/Pausable.sol\";\r\nimport \"@openzeppelin/contracts/security/ReentrancyGuard.sol\";\r\nimport \"@openzeppelin/contracts/access/Ownable.sol\";\r\nimport \"@openzeppelin/contracts/utils/Counters.sol\";\r\nimport '@openzeppelin/contracts/token/ERC20/IERC20.sol';\r\nimport \"@chainlink/contracts/src/v0.8/interfaces/KeeperCompatibleInterface.sol\";\r\nimport './CTokenInterface.sol';\r\nimport './ComptrollerInterface.sol';\r\nimport './PriceOracleInterface.sol';\r\nimport \"./XendFinanceInterface.sol\";\r\n\r\n\r\n// approve the user's underlying asset to be able to use the chainklink keepers\r\n\r\ncontract PensionServiceProvider is KeeperCompatibleInterface, Pausable, ReentrancyGuard, Ownable {\r\n    using SafeMath for uint;\r\n    using Counters for Counters.Counter;\r\n\r\n    // variables\r\n    ComptrollerInterface public comptroller;\r\n\tPriceOracleInterface public priceOracle;\r\n    Counters.Counter private id;\r\n\r\n    uint accXendTokens;\r\n    uint256 ccInterest;\r\n    XendFinanceInterface public xendFinance;\r\n    IERC20 public xend;\r\n\r\n\r\n    \r\n\r\n\r\n\r\n    // A user Object\r\n    struct User {\r\n        uint256 id;\r\n        address underlyingAsset;\r\n        address payable userAddress;\r\n        string  userDetails;\r\n        uint256 depositedAmount;\r\n        uint256 amountToSpend;\r\n        uint256 approvedAmountToSpend;\r\n        uint256 startTime;\r\n        uint256 timeDurationOfdeposit;\r\n        uint256 lockTime;\r\n        string ipfsHashOfUserPensionDetails;\r\n        uint256 userLastRewardBlock;\r\n    }\r\n\r\n    \r\n\r\n\r\n    event Register(address applicant, string applicantDetails, uint approvedAmountByApplicant, uint lockTime);\r\n    event Withdraw(address from, address to, uint amount);\r\n    event Deposit(address user, uint amount);\r\n    event Upkeep(address sender, bool upkeep);\r\n    event MyLog(string, uint256);\r\n    event Update(uint256 timeDuration);\r\n\r\n    mapping(address => User) public pensionServiceApplicant;\r\n\r\n    // keep track of registered users\r\n    mapping(address => bool) public isRegistered;\r\n\r\n    User[] public users;\r\n\r\n\r\n    constructor(address _xend, address _xendFinanceIndividual_Yearn_V1,  address _comptroller, address _priceOracle )  {\r\n        xend = IERC20(_xend);\r\n        comptroller = ComptrollerInterface(_comptroller);\r\n\t\tpriceOracle = PriceOracleInterface(_priceOracle);\r\n        xendFinance = XendFinanceInterface(_xendFinanceIndividual_Yearn_V1);\r\n        ccInterest = uint256(3 ether).div(10); // .3% \r\n\r\n        id.increment();\r\n        \r\n    }\r\n\r\n    function register(\r\n        address _underlyingAsset,\r\n        string memory _userDetails, \r\n        uint256 _amountToSpend,\r\n        uint256 _approvedAmountToSpend,\r\n        uint256 _timeDurationOfDeposit\r\n        ) \r\n        public whenNotPaused() {\r\n        require(!isRegistered[msg.sender], \"Caller address already exists\");\r\n\r\n        User memory user = User({\r\n            id: id.current(),\r\n            userAddress: payable(msg.sender),\r\n            underlyingAsset: _underlyingAsset,\r\n            userDetails: _userDetails,\r\n            depositedAmount: 0,\r\n            amountToSpend: _amountToSpend,\r\n            approvedAmountToSpend: _approvedAmountToSpend,\r\n            startTime: block.timestamp,\r\n            timeDurationOfdeposit: block.timestamp.add(_timeDurationOfDeposit),\r\n            lockTime: 0,\r\n            ipfsHashOfUserPensionDetails: \"\",\r\n            userLastRewardBlock: block.number\r\n        });\r\n\r\n        pensionServiceApplicant[msg.sender] = user;\r\n        users.push(user);\r\n        isRegistered[msg.sender] = true;\r\n\r\n        id.increment();\r\n\r\n        emit Register(msg.sender, user.userDetails, user.amountToSpend, user.lockTime);\r\n    }\r\n\r\n\r\n\r\n    function deposit(uint256 _amount) public payable whenNotPaused() {\r\n        require(isRegistered[msg.sender], \"Caller is not Registered\");\r\n        User storage user = pensionServiceApplicant[msg.sender];\r\n        CTokenInterface cToken = CTokenInterface(user.underlyingAsset);\r\n\t\taddress underlyingAsset = cToken.underlying();\r\n        IERC20(underlyingAsset).transferFrom(msg.sender, address(this), _amount);\r\n        address cTokenaddress = user.underlyingAsset;\r\n        _supply(cTokenaddress, _amount);\r\n        user.depositedAmount = user.depositedAmount.add(_amount);\r\n        emit Deposit(msg.sender, user.depositedAmount);\r\n\r\n    }\r\n\r\n\r\n\r\n    function _enterMarket(address _cTokenaddress) internal {\r\n\t\taddress[] memory markets = new address[](1);\r\n\t\tmarkets[0] = _cTokenaddress;\r\n\t\tuint[] memory results = comptroller.enterMarkets(markets);\r\n\t\trequire( results[0] == 0, 'comptroller#enterMarkets() failed. see Compound ErrorReporter.sol');\r\n\t}\r\n\r\n\r\n\r\n\r\n\r\n\r\n    function _supply(address cTokenaddress, uint underlyingAmount) internal {\r\n        // require(isRegistered[msg.sender], \"caller is not registered\");\r\n        // _enterMarket(cTokenaddress);\r\n\t\tCTokenInterface cToken = CTokenInterface(cTokenaddress);\r\n\t\taddress underlyingAddress = cToken.underlying();\r\n\t\tIERC20(underlyingAddress).approve(cTokenaddress, underlyingAmount);\r\n\r\n\t\tuint result = cToken.mint(underlyingAmount);\r\n\t\trequire(result == 0, 'cToken#mint() failed. see Compound ErrorReporter.sol');\r\n\t}\r\n\r\n\r\n    // chainlink keeper function call\r\n    function checkUpkeep(bytes calldata) external view override whenNotPaused() returns(bool upkeep, bytes memory upKeepData)   {\r\n\r\n        for(uint256 i = 0; i < users.length; i++ ) {\r\n            User storage user = users[i];\r\n            if(block.timestamp.add(user.startTime) > user.timeDurationOfdeposit) {\r\n                bytes memory Data = abi.encode(user);\r\n                bool upKeep = true;\r\n                // performUpkeep(upKeepData);\r\n                // users[i].startTime = block.timestamp;\r\n                return (upKeep, Data);\r\n            }\r\n        }\r\n\r\n    }\r\n\r\n\r\n    // fallback function for chainlink keepers\r\n    // function performUpkeep(bytes calldata upKeepData) external override whenNotPaused()  {\r\n    //     (User memory userData) = abi.decode(upKeepData, (User));\r\n\r\n    //     User storage user = pensionServiceApplicant[userData.userAddress];\r\n    //     if(block.timestamp > user.lockTime) {\r\n    //         // do something with the user\r\n    //         require(isRegistered[user.userAddress], \"Address not registered\");\r\n    //         require(user.depositedAmount > 0, \"Insufficient balance cannot perform upkeep\");\r\n    //         isRegistered[user.userAddress] = false;\r\n    //         CTokenInterface cToken = CTokenInterface(user.underlyingAsset);\r\n\r\n    //         uint amountToSend = user.depositedAmount;\r\n    //         address underlyingAsset = cToken.underlying();\r\n    //         IERC20(underlyingAsset).transfer(user.userAddress, amountToSend);\r\n    //         user.depositedAmount = 0;\r\n\r\n    //         emit Withdraw(address(this), user.userAddress, amountToSend);\r\n            \r\n    //         // busd.transferFrom(payable(user.userAddress), address(this), user.amountToSpend);\r\n    //         // (bool success,) = payable(user.userAddress).transfer(address(this), user.amountToSpend)(\"\");\r\n    //         // require(success, \"Transfer to contract not successful\");\r\n    //         // do something with Xend protocol. or compound finance\r\n\r\n\r\n    //         // user.approvedAmountToSpend = user.approvedAmountToSpend - user.amountToSpend;\r\n    //         // user.depositedAmount = user.depositedAmount + user.amountToSpend;\r\n    //         // user.startTime = block.timestamp;\r\n\r\n    //         // emit Deposit(user.id, user.userDetails, user.lockTime, user.approvedAmountToSpend);\r\n\r\n    //     }\r\n\r\n    // }\r\n\r\n        function performUpkeep(bytes calldata upKeepData) external override whenNotPaused()  {\r\n        (User memory userData) = abi.decode(upKeepData, (User));\r\n\r\n        User storage user = pensionServiceApplicant[userData.userAddress];\r\n        if(block.timestamp.add(user.startTime) > user.timeDurationOfdeposit) {\r\n            // do something with the user's funds\r\n            require(isRegistered[user.userAddress], \"Address not registered\");\r\n            require(user.approvedAmountToSpend > 0, \"Insufficient balance cannot perform upkeep\");\r\n            // isRegistered[user.userAddress] = false;\r\n            CTokenInterface cToken = CTokenInterface(user.underlyingAsset);\r\n\r\n            uint amountToDeposit = user.amountToSpend;\r\n            address underlyingAsset = cToken.underlying();\r\n            IERC20(underlyingAsset).transferFrom(user.userAddress, address(this),  amountToDeposit);\r\n            // address cLink = 0xFAce851a4921ce59e912d19329929CE6da6EB0c7;\r\n            _supply(user.underlyingAsset, user.amountToSpend);\r\n            user.depositedAmount = user.depositedAmount.add(amountToDeposit);\r\n            user.approvedAmountToSpend = user.approvedAmountToSpend.sub(user.amountToSpend);\r\n            user.startTime = block.timestamp;\r\n            user.userLastRewardBlock = user.userLastRewardBlock.add(block.number);\r\n            ccInterest = ccInterest.mul(block.number).div(1e8);\r\n\r\n            emit Deposit(user.userAddress, user.amountToSpend);\r\n\r\n\r\n            // emit Withdraw(address(this), user.userAddress, amountToSend);\r\n            \r\n            // busd.transferFrom(payable(user.userAddress), address(this), user.amountToSpend);\r\n            // (bool success,) = payable(user.userAddress).transfer(address(this), user.amountToSpend)(\"\");\r\n            // require(success, \"Transfer to contract not successful\");\r\n            // do something with Xend protocol. or compound finance\r\n\r\n\r\n            // user.approvedAmountToSpend = user.approvedAmountToSpend - user.amountToSpend;\r\n            // user.depositedAmount = user.depositedAmount + user.amountToSpend;\r\n            // user.startTime = block.timestamp;\r\n\r\n            // emit Deposit(user.id, user.userDetails, user.lockTime, user.approvedAmountToSpend);\r\n\r\n        }\r\n\r\n    }\r\n\r\n\r\n\r\n    function withdraw() public whenNotPaused() nonReentrant() {\r\n        require(isRegistered[msg.sender], \"Caller not registered\");\r\n        require(pensionServiceApplicant[msg.sender].depositedAmount > 0, \"Insufficient Balance\");\r\n\r\n        // Point to the User in Storage\r\n        User storage user = pensionServiceApplicant[msg.sender];\r\n\r\n        if(block.timestamp < user.lockTime) {\r\n            require(user.depositedAmount > 0, \"insufficient balance\");\r\n            _redeem(user.underlyingAsset, user.depositedAmount);\r\n            // isRegistered[msg.sender] = false;\r\n            uint amountToSend = user.depositedAmount.div(2);\r\n            CTokenInterface cToken = CTokenInterface(user.underlyingAsset);\r\n            address underlyingAsset = cToken.underlying();\r\n            IERC20(underlyingAsset).transfer(user.userAddress, amountToSend);\r\n            user.depositedAmount = 0;\r\n            user.userLastRewardBlock = block.number;\r\n            ccInterest = ccInterest.add(block.number).div(1e8);\r\n            emit Withdraw(address(this), msg.sender, amountToSend);\r\n        } else {\r\n            require(user.depositedAmount > 0, \"insufficient balance\");\r\n            _redeem(user.underlyingAsset, user.depositedAmount);\r\n            // isRegistered[msg.sender] = false;\r\n            uint amountToSend = user.depositedAmount;\r\n            CTokenInterface cToken = CTokenInterface(user.underlyingAsset);\r\n            address underlyingAsset = cToken.underlying();\r\n            IERC20(underlyingAsset).transfer(user.userAddress, amountToSend);\r\n            user.depositedAmount = 0;\r\n            user.userLastRewardBlock = block.number;\r\n\r\n            emit Withdraw(address(this), msg.sender, amountToSend);\r\n        }\r\n\r\n        // require(block.timestamp > user.lockTime, \"Early withdrawal will cost you 50% of your initial deposit\");\r\n\r\n\r\n    }\r\n\r\n\r\n    function _redeem(address cTokenaddress, uint tokenAmount) internal {\r\n\t\tCTokenInterface cToken = CTokenInterface(cTokenaddress);\r\n\t\tuint result = cToken.redeemUnderlying(tokenAmount);\r\n\t\trequire(result == 0, 'cToken#redeem() failed. see Compound ErrorReporter.sol');\r\n\t}\r\n\r\n    // helper function for testing keepers\r\n    function updateTimeDurationOfDeposit() public  {\r\n        User storage user = pensionServiceApplicant[msg.sender];\r\n        require(isRegistered[user.userAddress], \"Caller is not registered\");\r\n        user.timeDurationOfdeposit = 0;\r\n        emit Update(user.timeDurationOfdeposit);\r\n    } \r\n\r\n    function setLockTime(string memory _ipfsHashOfUserPensionDetails, uint _lockTime) public {\r\n        require(isRegistered[msg.sender], \"Caller has to be Registered\");\r\n        User storage user = pensionServiceApplicant[msg.sender];\r\n        require(user.lockTime == 0, \"Caller already has a lock Time Set\");\r\n        user.lockTime = block.timestamp + _lockTime;\r\n        user.ipfsHashOfUserPensionDetails = _ipfsHashOfUserPensionDetails;\r\n    }\r\n\r\n\r\n\r\n    // for Xend\r\n\r\n    function getXendPendingRewards(address _user) public view returns(uint) {\r\n        User storage user = pensionServiceApplicant[_user];\r\n        uint256 accXendRewards = xendFinance.GetMemberXendTokenReward(address(this));\r\n        uint256 userPendingRewards = user.depositedAmount.mul(accXendRewards).div(1e8);\r\n\r\n        return userPendingRewards;\r\n    }\r\n\r\n\r\n\r\n    function depositToXendFinance(uint _amount) public whenNotPaused() {\r\n        // require(isRegistered[msg.sender], \"Caller not Registered\");\r\n        User storage user = pensionServiceApplicant[msg.sender];\r\n        xendFinance.deposit();\r\n        user.depositedAmount = user.depositedAmount.add(_amount);\r\n\r\n        emit Deposit(msg.sender, user.depositedAmount);\r\n        \r\n    }\r\n\r\n\r\n\r\n    function withdrawFromXendFinance() public whenNotPaused() nonReentrant() {\r\n        require(isRegistered[msg.sender], \"Caller not Registered\");\r\n        User storage user = pensionServiceApplicant[msg.sender];\r\n        xendFinance.withdraw(user.depositedAmount);\r\n        uint256 xendBalance = xend.balanceOf(address(this));\r\n        require(xendBalance > user.depositedAmount, \"Withdrawing more than you deposited\");\r\n        accXendTokens = xendBalance;\r\n        uint256 accXendTokensforUser = user.depositedAmount.mul(accXendTokens).div(1e8);\r\n        xend.transfer(msg.sender, accXendTokensforUser);\r\n\r\n    }\r\n\r\n    function getAccruedInterest() public view returns(uint) {\r\n        User storage user = pensionServiceApplicant[msg.sender];\r\n        require(isRegistered[user.userAddress], \"Caller not registered\");\r\n        CTokenInterface ctoken = CTokenInterface(user.underlyingAsset);\r\n        uint supplyRatePerBlock = ctoken.supplyRatePerBlock();\r\n        uint accInterest = user.depositedAmount.mul(supplyRatePerBlock).div(ccInterest).div(1e8);\r\n        return accInterest;\r\n    }\r\n}",
  "sourcePath": "/mnt/c/Users/chuks/Desktop/Project/beima_project/beima_core/contracts/PensionServiceProvider.sol",
  "compiler": {
    "name": "solc",
    "version": "0.8.0+commit.c7dfd78e.Emscripten.clang"
  },
  "schemaVersion": "3.4.3",
  "updatedAt": "2021-11-30T15:13:42.571Z",
  "networkType": "ethereum",
  "devdoc": {
    "kind": "dev",
    "methods": {
      "owner()": {
        "details": "Returns the address of the current owner."
      },
      "paused()": {
        "details": "Returns true if the contract is paused, and false otherwise."
      },
      "renounceOwnership()": {
        "details": "Leaves the contract without owner. It will not be possible to call `onlyOwner` functions anymore. Can only be called by the current owner. NOTE: Renouncing ownership will leave the contract without an owner, thereby removing any functionality that is only available to the owner."
      },
      "transferOwnership(address)": {
        "details": "Transfers ownership of the contract to a new account (`newOwner`). Can only be called by the current owner."
      }
    },
    "version": 1
  },
  "userdoc": {
    "kind": "user",
    "methods": {},
    "version": 1
  }
}