{
  "contractName": "PensionServiceProvider",
  "abi": [
    {
      "inputs": [
        {
          "internalType": "address",
          "name": "_stableCoin",
          "type": "address"
        },
        {
          "internalType": "address",
          "name": "_comptroller",
          "type": "address"
        },
        {
          "internalType": "address",
          "name": "_priceOracle",
          "type": "address"
        }
      ],
      "stateMutability": "nonpayable",
      "type": "constructor"
    },
    {
      "anonymous": false,
      "inputs": [
        {
          "indexed": false,
          "internalType": "address",
          "name": "user",
          "type": "address"
        },
        {
          "indexed": false,
          "internalType": "uint256",
          "name": "amount",
          "type": "uint256"
        }
      ],
      "name": "Deposit",
      "type": "event"
    },
    {
      "anonymous": false,
      "inputs": [
        {
          "indexed": false,
          "internalType": "string",
          "name": "",
          "type": "string"
        },
        {
          "indexed": false,
          "internalType": "uint256",
          "name": "",
          "type": "uint256"
        }
      ],
      "name": "MyLog",
      "type": "event"
    },
    {
      "anonymous": false,
      "inputs": [
        {
          "indexed": false,
          "internalType": "address",
          "name": "applicant",
          "type": "address"
        },
        {
          "indexed": false,
          "internalType": "string",
          "name": "applicantDetails",
          "type": "string"
        },
        {
          "indexed": false,
          "internalType": "uint256",
          "name": "approvedAmountByApplicant",
          "type": "uint256"
        },
        {
          "indexed": false,
          "internalType": "uint256",
          "name": "lockTime",
          "type": "uint256"
        }
      ],
      "name": "Register",
      "type": "event"
    },
    {
      "anonymous": false,
      "inputs": [
        {
          "indexed": false,
          "internalType": "address",
          "name": "sender",
          "type": "address"
        },
        {
          "indexed": false,
          "internalType": "bool",
          "name": "upkeep",
          "type": "bool"
        }
      ],
      "name": "Upkeep",
      "type": "event"
    },
    {
      "anonymous": false,
      "inputs": [
        {
          "indexed": false,
          "internalType": "address",
          "name": "from",
          "type": "address"
        },
        {
          "indexed": false,
          "internalType": "address",
          "name": "to",
          "type": "address"
        },
        {
          "indexed": false,
          "internalType": "uint256",
          "name": "amount",
          "type": "uint256"
        }
      ],
      "name": "Withdraw",
      "type": "event"
    },
    {
      "inputs": [],
      "name": "busd",
      "outputs": [
        {
          "internalType": "contract IERC20",
          "name": "",
          "type": "address"
        }
      ],
      "stateMutability": "view",
      "type": "function",
      "constant": true
    },
    {
      "inputs": [],
      "name": "comptroller",
      "outputs": [
        {
          "internalType": "contract ComptrollerInterface",
          "name": "",
          "type": "address"
        }
      ],
      "stateMutability": "view",
      "type": "function",
      "constant": true
    },
    {
      "inputs": [
        {
          "internalType": "address",
          "name": "",
          "type": "address"
        }
      ],
      "name": "isRegistered",
      "outputs": [
        {
          "internalType": "bool",
          "name": "",
          "type": "bool"
        }
      ],
      "stateMutability": "view",
      "type": "function",
      "constant": true
    },
    {
      "inputs": [
        {
          "internalType": "address",
          "name": "",
          "type": "address"
        }
      ],
      "name": "pensionServiceApplicant",
      "outputs": [
        {
          "internalType": "uint256",
          "name": "id",
          "type": "uint256"
        },
        {
          "internalType": "address",
          "name": "underlyingAsset",
          "type": "address"
        },
        {
          "internalType": "address payable",
          "name": "userAddress",
          "type": "address"
        },
        {
          "internalType": "string",
          "name": "userDetails",
          "type": "string"
        },
        {
          "internalType": "uint256",
          "name": "depositedAmount",
          "type": "uint256"
        },
        {
          "internalType": "uint256",
          "name": "amountToSpend",
          "type": "uint256"
        },
        {
          "internalType": "uint256",
          "name": "approvedAmountToSpend",
          "type": "uint256"
        },
        {
          "internalType": "uint256",
          "name": "startTime",
          "type": "uint256"
        },
        {
          "internalType": "uint256",
          "name": "timeDurationOfdeposit",
          "type": "uint256"
        },
        {
          "internalType": "uint256",
          "name": "lockTime",
          "type": "uint256"
        }
      ],
      "stateMutability": "view",
      "type": "function",
      "constant": true
    },
    {
      "inputs": [],
      "name": "priceOracle",
      "outputs": [
        {
          "internalType": "contract PriceOracleInterface",
          "name": "",
          "type": "address"
        }
      ],
      "stateMutability": "view",
      "type": "function",
      "constant": true
    },
    {
      "inputs": [
        {
          "internalType": "uint256",
          "name": "",
          "type": "uint256"
        }
      ],
      "name": "users",
      "outputs": [
        {
          "internalType": "uint256",
          "name": "id",
          "type": "uint256"
        },
        {
          "internalType": "address",
          "name": "underlyingAsset",
          "type": "address"
        },
        {
          "internalType": "address payable",
          "name": "userAddress",
          "type": "address"
        },
        {
          "internalType": "string",
          "name": "userDetails",
          "type": "string"
        },
        {
          "internalType": "uint256",
          "name": "depositedAmount",
          "type": "uint256"
        },
        {
          "internalType": "uint256",
          "name": "amountToSpend",
          "type": "uint256"
        },
        {
          "internalType": "uint256",
          "name": "approvedAmountToSpend",
          "type": "uint256"
        },
        {
          "internalType": "uint256",
          "name": "startTime",
          "type": "uint256"
        },
        {
          "internalType": "uint256",
          "name": "timeDurationOfdeposit",
          "type": "uint256"
        },
        {
          "internalType": "uint256",
          "name": "lockTime",
          "type": "uint256"
        }
      ],
      "stateMutability": "view",
      "type": "function",
      "constant": true
    },
    {
      "inputs": [
        {
          "internalType": "uint256",
          "name": "_id",
          "type": "uint256"
        },
        {
          "internalType": "address",
          "name": "_underlyingAsset",
          "type": "address"
        },
        {
          "internalType": "string",
          "name": "_userDetails",
          "type": "string"
        },
        {
          "internalType": "uint256",
          "name": "_amountToSpend",
          "type": "uint256"
        },
        {
          "internalType": "uint256",
          "name": "_approvedAmountToSpend",
          "type": "uint256"
        },
        {
          "internalType": "uint256",
          "name": "_timeDurationOfDeposit",
          "type": "uint256"
        }
      ],
      "name": "register",
      "outputs": [],
      "stateMutability": "nonpayable",
      "type": "function"
    },
    {
      "inputs": [
        {
          "internalType": "uint256",
          "name": "_amount",
          "type": "uint256"
        }
      ],
      "name": "deposit",
      "outputs": [],
      "stateMutability": "payable",
      "type": "function",
      "payable": true
    },
    {
      "inputs": [
        {
          "internalType": "bytes",
          "name": "",
          "type": "bytes"
        }
      ],
      "name": "checkUpkeep",
      "outputs": [
        {
          "internalType": "bool",
          "name": "upkeep",
          "type": "bool"
        },
        {
          "internalType": "bytes",
          "name": "upKeepData",
          "type": "bytes"
        }
      ],
      "stateMutability": "view",
      "type": "function",
      "constant": true
    },
    {
      "inputs": [
        {
          "internalType": "bytes",
          "name": "upKeepData",
          "type": "bytes"
        }
      ],
      "name": "performUpkeep",
      "outputs": [],
      "stateMutability": "nonpayable",
      "type": "function"
    },
    {
      "inputs": [],
      "name": "withdraw",
      "outputs": [],
      "stateMutability": "nonpayable",
      "type": "function"
    },
    {
      "inputs": [],
      "name": "updateTimeDurationOfDeposit",
      "outputs": [],
      "stateMutability": "nonpayable",
      "type": "function"
    },
    {
      "inputs": [
        {
          "internalType": "uint256",
          "name": "_lockTime",
          "type": "uint256"
        }
      ],
      "name": "setLockTime",
      "outputs": [],
      "stateMutability": "nonpayable",
      "type": "function"
    }
  ],
  "bytecode": "0x60806040523480156200001157600080fd5b506040516200305b3803806200305b833981810160405281019062000037919062000119565b82600260006101000a81548173ffffffffffffffffffffffffffffffffffffffff021916908373ffffffffffffffffffffffffffffffffffffffff160217905550816000806101000a81548173ffffffffffffffffffffffffffffffffffffffff021916908373ffffffffffffffffffffffffffffffffffffffff16021790555080600160006101000a81548173ffffffffffffffffffffffffffffffffffffffff021916908373ffffffffffffffffffffffffffffffffffffffff160217905550505050620001bd565b6000815190506200011381620001a3565b92915050565b6000806000606084860312156200012f57600080fd5b60006200013f8682870162000102565b9350506020620001528682870162000102565b9250506040620001658682870162000102565b9150509250925092565b60006200017c8262000183565b9050919050565b600073ffffffffffffffffffffffffffffffffffffffff82169050919050565b620001ae816200016f565b8114620001ba57600080fd5b50565b612e8e80620001cd6000396000f3fe6080604052600436106100c25760003560e01c80635bc9d2bf1161007f578063ae04d45d11610059578063ae04d45d14610269578063b6b55f2514610292578063c11572db146102ae578063c3c5a547146102d7576100c2565b80635bc9d2bf146101ba5780635fe3b567146102005780636e04ff0d1461022b576100c2565b80632630c12f146100c7578063365b98b2146100f25780633ca5b234146101385780633ccfd60b146101635780634585e33b1461017a57806356dc5d8e146101a3575b600080fd5b3480156100d357600080fd5b506100dc610314565b6040516100e99190612730565b60405180910390f35b3480156100fe57600080fd5b5061011960048036038101906101149190611e85565b61033a565b60405161012f9a999897969594939291906128e8565b60405180910390f35b34801561014457600080fd5b5061014d610466565b60405161015a9190612715565b60405180910390f35b34801561016f57600080fd5b5061017861048c565b005b34801561018657600080fd5b506101a1600480360381019061019c9190611dff565b610b06565b005b3480156101af57600080fd5b506101b8610eb8565b005b3480156101c657600080fd5b506101e160048036038101906101dc9190611d84565b610f08565b6040516101f79a999897969594939291906128e8565b60405180910390f35b34801561020c57600080fd5b50610215611024565b60405161022291906126fa565b60405180910390f35b34801561023757600080fd5b50610252600480360381019061024d9190611dff565b611048565b6040516102609291906126ca565b60405180910390f35b34801561027557600080fd5b50610290600480360381019061028b9190611e85565b61110a565b005b6102ac60048036038101906102a79190611e85565b611238565b005b3480156102ba57600080fd5b506102d560048036038101906102d09190611ed7565b611308565b005b3480156102e357600080fd5b506102fe60048036038101906102f99190611d84565b61171a565b60405161030b91906126af565b60405180910390f35b600160009054906101000a900473ffffffffffffffffffffffffffffffffffffffff1681565b6005818154811061034a57600080fd5b90600052602060002090600a02016000915090508060000154908060010160009054906101000a900473ffffffffffffffffffffffffffffffffffffffff16908060020160009054906101000a900473ffffffffffffffffffffffffffffffffffffffff16908060030180546103bf90612c59565b80601f01602080910402602001604051908101604052809291908181526020018280546103eb90612c59565b80156104385780601f1061040d57610100808354040283529160200191610438565b820191906000526020600020905b81548152906001019060200180831161041b57829003601f168201915b505050505090806004015490806005015490806006015490806007015490806008015490806009015490508a565b600260009054906101000a900473ffffffffffffffffffffffffffffffffffffffff1681565b600460003373ffffffffffffffffffffffffffffffffffffffff1673ffffffffffffffffffffffffffffffffffffffff16815260200190815260200160002060009054906101000a900460ff16610518576040517f08c379a000000000000000000000000000000000000000000000000000000000815260040161050f906127eb565b60405180910390fd5b6000600360003373ffffffffffffffffffffffffffffffffffffffff1673ffffffffffffffffffffffffffffffffffffffff168152602001908152602001600020600401541161059d576040517f08c379a00000000000000000000000000000000000000000000000000000000081526004016105949061284b565b60405180910390fd5b6000600360003373ffffffffffffffffffffffffffffffffffffffff1673ffffffffffffffffffffffffffffffffffffffff16815260200190815260200160002090508060090154421015610883576000816004015411610633576040517f08c379a000000000000000000000000000000000000000000000000000000000815260040161062a9061282b565b60405180910390fd5b6106658160010160009054906101000a900473ffffffffffffffffffffffffffffffffffffffff16826004015461173a565b6000600460003373ffffffffffffffffffffffffffffffffffffffff1673ffffffffffffffffffffffffffffffffffffffff16815260200190815260200160002060006101000a81548160ff02191690831515021790555060006106d76002836004015461181790919063ffffffff16565b905060008260010160009054906101000a900473ffffffffffffffffffffffffffffffffffffffff16905060008173ffffffffffffffffffffffffffffffffffffffff16636f307dc36040518163ffffffff1660e01b815260040160206040518083038186803b15801561074a57600080fd5b505afa15801561075e573d6000803e3d6000fd5b505050506040513d601f19601f820116820180604052508101906107829190611dad565b90508073ffffffffffffffffffffffffffffffffffffffff1663a9059cbb8560020160009054906101000a900473ffffffffffffffffffffffffffffffffffffffff16856040518363ffffffff1660e01b81526004016107e39291906125a3565b602060405180830381600087803b1580156107fd57600080fd5b505af1158015610811573d6000803e3d6000fd5b505050506040513d601f19601f820116820180604052508101906108359190611dd6565b50600084600401819055507f9b1bfa7fa9ee420a16e124f794c35ac9f90472acc99140eb2f6447c714cad8eb30338560405161087393929190612603565b60405180910390a1505050610b03565b60008160040154116108ca576040517f08c379a00000000000000000000000000000000000000000000000000000000081526004016108c19061282b565b60405180910390fd5b6108fc8160010160009054906101000a900473ffffffffffffffffffffffffffffffffffffffff16826004015461173a565b6000600460003373ffffffffffffffffffffffffffffffffffffffff1673ffffffffffffffffffffffffffffffffffffffff16815260200190815260200160002060006101000a81548160ff02191690831515021790555060008160040154905060008260010160009054906101000a900473ffffffffffffffffffffffffffffffffffffffff16905060008173ffffffffffffffffffffffffffffffffffffffff16636f307dc36040518163ffffffff1660e01b815260040160206040518083038186803b1580156109ce57600080fd5b505afa1580156109e2573d6000803e3d6000fd5b505050506040513d601f19601f82011682018060405250810190610a069190611dad565b90508073ffffffffffffffffffffffffffffffffffffffff1663a9059cbb8560020160009054906101000a900473ffffffffffffffffffffffffffffffffffffffff16856040518363ffffffff1660e01b8152600401610a679291906125a3565b602060405180830381600087803b158015610a8157600080fd5b505af1158015610a95573d6000803e3d6000fd5b505050506040513d601f19601f82011682018060405250810190610ab99190611dd6565b50600084600401819055507f9b1bfa7fa9ee420a16e124f794c35ac9f90472acc99140eb2f6447c714cad8eb303385604051610af793929190612603565b60405180910390a15050505b50565b60008282810190610b179190611e44565b9050600060036000836040015173ffffffffffffffffffffffffffffffffffffffff1673ffffffffffffffffffffffffffffffffffffffff16815260200190815260200160002090508060090154421115610eb257600460008260020160009054906101000a900473ffffffffffffffffffffffffffffffffffffffff1673ffffffffffffffffffffffffffffffffffffffff1673ffffffffffffffffffffffffffffffffffffffff16815260200190815260200160002060009054906101000a900460ff16610c1c576040517f08c379a0000000000000000000000000000000000000000000000000000000008152600401610c139061288b565b60405180910390fd5b6000816004015411610c63576040517f08c379a0000000000000000000000000000000000000000000000000000000008152600401610c5a906127ab565b60405180910390fd5b6000600460008360020160009054906101000a900473ffffffffffffffffffffffffffffffffffffffff1673ffffffffffffffffffffffffffffffffffffffff1673ffffffffffffffffffffffffffffffffffffffff16815260200190815260200160002060006101000a81548160ff02191690831515021790555060008160010160009054906101000a900473ffffffffffffffffffffffffffffffffffffffff16905060008260040154905060008273ffffffffffffffffffffffffffffffffffffffff16636f307dc36040518163ffffffff1660e01b815260040160206040518083038186803b158015610d5957600080fd5b505afa158015610d6d573d6000803e3d6000fd5b505050506040513d601f19601f82011682018060405250810190610d919190611dad565b90508073ffffffffffffffffffffffffffffffffffffffff1663a9059cbb8560020160009054906101000a900473ffffffffffffffffffffffffffffffffffffffff16846040518363ffffffff1660e01b8152600401610df29291906125a3565b602060405180830381600087803b158015610e0c57600080fd5b505af1158015610e20573d6000803e3d6000fd5b505050506040513d601f19601f82011682018060405250810190610e449190611dd6565b50600084600401819055507f9b1bfa7fa9ee420a16e124f794c35ac9f90472acc99140eb2f6447c714cad8eb308560020160009054906101000a900473ffffffffffffffffffffffffffffffffffffffff1684604051610ea6939291906125cc565b60405180910390a15050505b50505050565b6000600360003373ffffffffffffffffffffffffffffffffffffffff1673ffffffffffffffffffffffffffffffffffffffff16815260200190815260200160002090506000816009018190555050565b60036020528060005260406000206000915090508060000154908060010160009054906101000a900473ffffffffffffffffffffffffffffffffffffffff16908060020160009054906101000a900473ffffffffffffffffffffffffffffffffffffffff1690806003018054610f7d90612c59565b80601f0160208091040260200160405190810160405280929190818152602001828054610fa990612c59565b8015610ff65780601f10610fcb57610100808354040283529160200191610ff6565b820191906000526020600020905b815481529060010190602001808311610fd957829003601f168201915b505050505090806004015490806005015490806006015490806007015490806008015490806009015490508a565b60008054906101000a900473ffffffffffffffffffffffffffffffffffffffff1681565b6000606060005b60058054905081101561110157600060058281548110611098577f4e487b7100000000000000000000000000000000000000000000000000000000600052603260045260246000fd5b90600052602060002090600a0201905080600901544211156110ed576000816040516020016110c791906128ab565b604051602081830303815290604052905060006001905080829550955050505050611103565b5080806110f990612cd9565b91505061104f565b505b9250929050565b600460003373ffffffffffffffffffffffffffffffffffffffff1673ffffffffffffffffffffffffffffffffffffffff16815260200190815260200160002060009054906101000a900460ff16611196576040517f08c379a000000000000000000000000000000000000000000000000000000000815260040161118d9061280b565b60405180910390fd5b6000600360003373ffffffffffffffffffffffffffffffffffffffff1673ffffffffffffffffffffffffffffffffffffffff16815260200190815260200160002090506000816009015414611220576040517f08c379a0000000000000000000000000000000000000000000000000000000008152600401611217906127cb565b60405180910390fd5b814261122c9190612a4a565b81600901819055505050565b6000600360003373ffffffffffffffffffffffffffffffffffffffff1673ffffffffffffffffffffffffffffffffffffffff168152602001908152602001600020905060008160010160009054906101000a900473ffffffffffffffffffffffffffffffffffffffff1690506112ae818461182d565b8282600401546112be9190612a4a565b82600401819055507fe1fffcc4923d04b559f4d29a8bfc6cda04eb5b0d3c460751c2402c5c5cc9109c3383600401546040516112fb929190612686565b60405180910390a1505050565b600460003373ffffffffffffffffffffffffffffffffffffffff1673ffffffffffffffffffffffffffffffffffffffff16815260200190815260200160002060009054906101000a900460ff1615611395576040517f08c379a000000000000000000000000000000000000000000000000000000000815260040161138c9061278b565b60405180910390fd5b60006040518061014001604052808881526020018773ffffffffffffffffffffffffffffffffffffffff1681526020013373ffffffffffffffffffffffffffffffffffffffff16815260200186815260200160008152602001858152602001848152602001428152602001834261140c9190612a4a565b81526020016000815250905080600360003373ffffffffffffffffffffffffffffffffffffffff1673ffffffffffffffffffffffffffffffffffffffff1681526020019081526020016000206000820151816000015560208201518160010160006101000a81548173ffffffffffffffffffffffffffffffffffffffff021916908373ffffffffffffffffffffffffffffffffffffffff16021790555060408201518160020160006101000a81548173ffffffffffffffffffffffffffffffffffffffff021916908373ffffffffffffffffffffffffffffffffffffffff160217905550606082015181600301908051906020019061150c929190611aa7565b506080820151816004015560a0820151816005015560c0820151816006015560e082015181600701556101008201518160080155610120820151816009015590505060058190806001815401808255809150506001900390600052602060002090600a02016000909190919091506000820151816000015560208201518160010160006101000a81548173ffffffffffffffffffffffffffffffffffffffff021916908373ffffffffffffffffffffffffffffffffffffffff16021790555060408201518160020160006101000a81548173ffffffffffffffffffffffffffffffffffffffff021916908373ffffffffffffffffffffffffffffffffffffffff160217905550606082015181600301908051906020019061162e929190611aa7565b506080820151816004015560a0820151816005015560c0820151816006015560e082015181600701556101008201518160080155610120820151816009015550506001600460003373ffffffffffffffffffffffffffffffffffffffff1673ffffffffffffffffffffffffffffffffffffffff16815260200190815260200160002060006101000a81548160ff0219169083151502179055507fc250e1da9a7004c4db73398b2f2c8cb322f44a17402ea2f24fbbcfd612ee182e3382606001518360c00151846101200151604051611709949392919061263a565b60405180910390a150505050505050565b60046020528060005260406000206000915054906101000a900460ff1681565b600082905060008173ffffffffffffffffffffffffffffffffffffffff1663852a12e3846040518263ffffffff1660e01b815260040161177a91906128cd565b602060405180830381600087803b15801561179457600080fd5b505af11580156117a8573d6000803e3d6000fd5b505050506040513d601f19601f820116820180604052508101906117cc9190611eae565b905060008114611811576040517f08c379a00000000000000000000000000000000000000000000000000000000081526004016118089061286b565b60405180910390fd5b50505050565b600081836118259190612aa0565b905092915050565b600460003373ffffffffffffffffffffffffffffffffffffffff1673ffffffffffffffffffffffffffffffffffffffff16815260200190815260200160002060009054906101000a900460ff166118b9576040517f08c379a00000000000000000000000000000000000000000000000000000000081526004016118b09061274b565b60405180910390fd5b600082905060008173ffffffffffffffffffffffffffffffffffffffff16636f307dc36040518163ffffffff1660e01b815260040160206040518083038186803b15801561190657600080fd5b505afa15801561191a573d6000803e3d6000fd5b505050506040513d601f19601f8201168201806040525081019061193e9190611dad565b90508073ffffffffffffffffffffffffffffffffffffffff1663095ea7b385856040518363ffffffff1660e01b815260040161197b929190612686565b602060405180830381600087803b15801561199557600080fd5b505af11580156119a9573d6000803e3d6000fd5b505050506040513d601f19601f820116820180604052508101906119cd9190611dd6565b5060008273ffffffffffffffffffffffffffffffffffffffff1663a0712d68856040518263ffffffff1660e01b8152600401611a0991906128cd565b602060405180830381600087803b158015611a2357600080fd5b505af1158015611a37573d6000803e3d6000fd5b505050506040513d601f19601f82011682018060405250810190611a5b9190611eae565b905060008114611aa0576040517f08c379a0000000000000000000000000000000000000000000000000000000008152600401611a979061276b565b60405180910390fd5b5050505050565b828054611ab390612c59565b90600052602060002090601f016020900481019282611ad55760008555611b1c565b82601f10611aee57805160ff1916838001178555611b1c565b82800160010185558215611b1c579182015b82811115611b1b578251825591602001919060010190611b00565b5b509050611b299190611b2d565b5090565b5b80821115611b46576000816000905550600101611b2e565b5090565b6000611b5d611b58846129bc565b61298b565b905082815260208101848484011115611b7557600080fd5b611b80848285612c17565b509392505050565b600081359050611b9781612dfc565b92915050565b600081519050611bac81612dfc565b92915050565b600081359050611bc181612e13565b92915050565b600081519050611bd681612e2a565b92915050565b60008083601f840112611bee57600080fd5b8235905067ffffffffffffffff811115611c0757600080fd5b602083019150836001820283011115611c1f57600080fd5b9250929050565b600082601f830112611c3757600080fd5b8135611c47848260208601611b4a565b91505092915050565b60006101408284031215611c6357600080fd5b611c6e61014061298b565b90506000611c7e84828501611d5a565b6000830152506020611c9284828501611b88565b6020830152506040611ca684828501611bb2565b604083015250606082013567ffffffffffffffff811115611cc657600080fd5b611cd284828501611c26565b6060830152506080611ce684828501611d5a565b60808301525060a0611cfa84828501611d5a565b60a08301525060c0611d0e84828501611d5a565b60c08301525060e0611d2284828501611d5a565b60e083015250610100611d3784828501611d5a565b61010083015250610120611d4d84828501611d5a565b6101208301525092915050565b600081359050611d6981612e41565b92915050565b600081519050611d7e81612e41565b92915050565b600060208284031215611d9657600080fd5b6000611da484828501611b88565b91505092915050565b600060208284031215611dbf57600080fd5b6000611dcd84828501611b9d565b91505092915050565b600060208284031215611de857600080fd5b6000611df684828501611bc7565b91505092915050565b60008060208385031215611e1257600080fd5b600083013567ffffffffffffffff811115611e2c57600080fd5b611e3885828601611bdc565b92509250509250929050565b600060208284031215611e5657600080fd5b600082013567ffffffffffffffff811115611e7057600080fd5b611e7c84828501611c50565b91505092915050565b600060208284031215611e9757600080fd5b6000611ea584828501611d5a565b91505092915050565b600060208284031215611ec057600080fd5b6000611ece84828501611d6f565b91505092915050565b60008060008060008060c08789031215611ef057600080fd5b6000611efe89828a01611d5a565b9650506020611f0f89828a01611b88565b955050604087013567ffffffffffffffff811115611f2c57600080fd5b611f3889828a01611c26565b9450506060611f4989828a01611d5a565b9350506080611f5a89828a01611d5a565b92505060a0611f6b89828a01611d5a565b9150509295509295509295565b611f8181612b75565b82525050565b611f9081612b2d565b82525050565b611f9f81612b2d565b82525050565b611fae81612b1b565b82525050565b611fbd81612b1b565b82525050565b611fcc81612b3f565b82525050565b6000611fdd82612a01565b611fe78185612a17565b9350611ff7818560208601612c26565b61200081612dde565b840191505092915050565b61201481612b87565b82525050565b61202381612bab565b82525050565b61203281612bcf565b82525050565b600061204382612a0c565b61204d8185612a39565b935061205d818560208601612c26565b61206681612dde565b840191505092915050565b6000815461207e81612c59565b6120888186612a28565b945060018216600081146120a357600181146120b5576120e8565b60ff19831686526020860193506120e8565b6120be856129ec565b60005b838110156120e0578154818901526001820191506020810190506120c1565b808801955050505b50505092915050565b60006120fe601883612a39565b91507f63616c6c6572206973206e6f74207265676973746572656400000000000000006000830152602082019050919050565b600061213e603483612a39565b91507f63546f6b656e236d696e742829206661696c65642e2073656520436f6d706f7560008301527f6e64204572726f725265706f727465722e736f6c0000000000000000000000006020830152604082019050919050565b60006121a4601d83612a39565b91507f43616c6c6572206164647265737320616c7265616479206578697374730000006000830152602082019050919050565b60006121e4602a83612a39565b91507f496e73756666696369656e742062616c616e63652063616e6e6f74207065726660008301527f6f726d2075706b656570000000000000000000000000000000000000000000006020830152604082019050919050565b600061224a602283612a39565b91507f43616c6c657220616c7265616479206861732061206c6f636b2054696d65205360008301527f65740000000000000000000000000000000000000000000000000000000000006020830152604082019050919050565b60006122b0601583612a39565b91507f43616c6c6572206e6f74207265676973746572656400000000000000000000006000830152602082019050919050565b60006122f0601b83612a39565b91507f43616c6c65722068617320746f206265205265676973746572656400000000006000830152602082019050919050565b6000612330601483612a39565b91507f696e73756666696369656e742062616c616e63650000000000000000000000006000830152602082019050919050565b6000612370601483612a39565b91507f496e73756666696369656e742042616c616e63650000000000000000000000006000830152602082019050919050565b60006123b0603683612a39565b91507f63546f6b656e2372656465656d2829206661696c65642e2073656520436f6d7060008301527f6f756e64204572726f725265706f727465722e736f6c000000000000000000006020830152604082019050919050565b6000612416601683612a39565b91507f41646472657373206e6f742072656769737465726564000000000000000000006000830152602082019050919050565b60006101408301600080840154905061246181612cbf565b61246e6000870182612585565b506001840154905061247f81612c8b565b61248c6020870182611fa5565b506002840154905061249d81612ca5565b6124aa6040870182611f87565b506003840185830360608701526124c18382612071565b925050600484015490506124d481612cbf565b6124e16080870182612585565b50600584015490506124f281612cbf565b6124ff60a0870182612585565b506006840154905061251081612cbf565b61251d60c0870182612585565b506007840154905061252e81612cbf565b61253b60e0870182612585565b506008840154905061254c81612cbf565b61255a610100870182612585565b506009840154905061256b81612cbf565b612579610120870182612585565b50819250505092915050565b61258e81612b6b565b82525050565b61259d81612b6b565b82525050565b60006040820190506125b86000830185611f78565b6125c56020830184612594565b9392505050565b60006060820190506125e16000830186611fb4565b6125ee6020830185611f78565b6125fb6040830184612594565b949350505050565b60006060820190506126186000830186611fb4565b6126256020830185611fb4565b6126326040830184612594565b949350505050565b600060808201905061264f6000830187611fb4565b81810360208301526126618186612038565b90506126706040830185612594565b61267d6060830184612594565b95945050505050565b600060408201905061269b6000830185611fb4565b6126a86020830184612594565b9392505050565b60006020820190506126c46000830184611fc3565b92915050565b60006040820190506126df6000830185611fc3565b81810360208301526126f18184611fd2565b90509392505050565b600060208201905061270f600083018461200b565b92915050565b600060208201905061272a600083018461201a565b92915050565b60006020820190506127456000830184612029565b92915050565b60006020820190508181036000830152612764816120f1565b9050919050565b6000602082019050818103600083015261278481612131565b9050919050565b600060208201905081810360008301526127a481612197565b9050919050565b600060208201905081810360008301526127c4816121d7565b9050919050565b600060208201905081810360008301526127e48161223d565b9050919050565b60006020820190508181036000830152612804816122a3565b9050919050565b60006020820190508181036000830152612824816122e3565b9050919050565b6000602082019050818103600083015261284481612323565b9050919050565b6000602082019050818103600083015261286481612363565b9050919050565b60006020820190508181036000830152612884816123a3565b9050919050565b600060208201905081810360008301526128a481612409565b9050919050565b600060208201905081810360008301526128c58184612449565b905092915050565b60006020820190506128e26000830184612594565b92915050565b6000610140820190506128fe600083018d612594565b61290b602083018c611fb4565b612918604083018b611f96565b818103606083015261292a818a612038565b90506129396080830189612594565b61294660a0830188612594565b61295360c0830187612594565b61296060e0830186612594565b61296e610100830185612594565b61297c610120830184612594565b9b9a5050505050505050505050565b6000604051905081810181811067ffffffffffffffff821117156129b2576129b1612daf565b5b8060405250919050565b600067ffffffffffffffff8211156129d7576129d6612daf565b5b601f19601f8301169050602081019050919050565b60008190508160005260206000209050919050565b600081519050919050565b600081519050919050565b600082825260208201905092915050565b600082825260208201905092915050565b600082825260208201905092915050565b6000612a5582612b6b565b9150612a6083612b6b565b9250827fffffffffffffffffffffffffffffffffffffffffffffffffffffffffffffffff03821115612a9557612a94612d22565b5b828201905092915050565b6000612aab82612b6b565b9150612ab683612b6b565b925082612ac657612ac5612d51565b5b828204905092915050565b600073ffffffffffffffffffffffffffffffffffffffff82169050919050565b600073ffffffffffffffffffffffffffffffffffffffff82169050919050565b6000819050919050565b6000612b2682612b4b565b9050919050565b6000612b3882612b4b565b9050919050565b60008115159050919050565b600073ffffffffffffffffffffffffffffffffffffffff82169050919050565b6000819050919050565b6000612b8082612bf3565b9050919050565b6000612b9282612b99565b9050919050565b6000612ba482612b4b565b9050919050565b6000612bb682612bbd565b9050919050565b6000612bc882612b4b565b9050919050565b6000612bda82612be1565b9050919050565b6000612bec82612b4b565b9050919050565b6000612bfe82612c05565b9050919050565b6000612c1082612b4b565b9050919050565b82818337600083830152505050565b60005b83811015612c44578082015181840152602081019050612c29565b83811115612c53576000848401525b50505050565b60006002820490506001821680612c7157607f821691505b60208210811415612c8557612c84612d80565b5b50919050565b6000612c9e612c9983612def565b612ad1565b9050919050565b6000612cb8612cb383612def565b612af1565b9050919050565b6000612cd2612ccd83612def565b612b11565b9050919050565b6000612ce482612b6b565b91507fffffffffffffffffffffffffffffffffffffffffffffffffffffffffffffffff821415612d1757612d16612d22565b5b600182019050919050565b7f4e487b7100000000000000000000000000000000000000000000000000000000600052601160045260246000fd5b7f4e487b7100000000000000000000000000000000000000000000000000000000600052601260045260246000fd5b7f4e487b7100000000000000000000000000000000000000000000000000000000600052602260045260246000fd5b7f4e487b7100000000000000000000000000000000000000000000000000000000600052604160045260246000fd5b6000601f19601f8301169050919050565b60008160001c9050919050565b612e0581612b1b565b8114612e1057600080fd5b50565b612e1c81612b2d565b8114612e2757600080fd5b50565b612e3381612b3f565b8114612e3e57600080fd5b50565b612e4a81612b6b565b8114612e5557600080fd5b5056fea2646970667358221220110c28e35e4ef0d51ca70846ece895f4fcf6120ab64d9c1b94f2fc7c6a8af18c64736f6c63430008000033",
  "immutableReferences": {},
  "source": "//SPDX-License-Identifier: Unlicense\r\npragma solidity ^0.8.0;\r\n\r\nimport \"@openzeppelin/contracts/utils/math/SafeMath.sol\";\r\nimport '@openzeppelin/contracts/token/ERC20/IERC20.sol';\r\nimport \"@chainlink/contracts/src/v0.8/interfaces/KeeperCompatibleInterface.sol\";\r\nimport './CTokenInterface.sol';\r\nimport './ComptrollerInterface.sol';\r\nimport './PriceOracleInterface.sol';\r\n\r\n\r\n// import \"./XendFinanceIndividual_Yearn_V1.sol\";\r\n\r\n\r\n\r\n\r\ncontract PensionServiceProvider is KeeperCompatibleInterface {\r\n    using SafeMath for uint;\r\n    ComptrollerInterface public comptroller;\r\n\tPriceOracleInterface public priceOracle;\r\n    // XendFinanceIndividual_Yearn_V1 public xendFinance;\r\n\r\n\r\n    IERC20 public busd;\r\n    // bool upKeep;\r\n\r\n\r\n\r\n    // A user Object\r\n    struct User {\r\n        uint256 id;\r\n        address underlyingAsset;\r\n        address payable userAddress;\r\n        string  userDetails;\r\n        uint256 depositedAmount;\r\n        uint256 amountToSpend;\r\n        uint256 approvedAmountToSpend;\r\n        uint256 startTime;\r\n        uint256 timeDurationOfdeposit;\r\n        uint256 lockTime;\r\n    }\r\n\r\n    event Register(address applicant, string applicantDetails, uint approvedAmountByApplicant, uint lockTime);\r\n    event Withdraw(address from, address to, uint amount);\r\n    event Deposit(address user, uint amount);\r\n    event Upkeep(address sender, bool upkeep);\r\n    event MyLog(string, uint256);\r\n\r\n    mapping(address => User) public pensionServiceApplicant;\r\n\r\n    // keep track of registered users\r\n    mapping(address => bool) public isRegistered;\r\n\r\n    User[] public users;\r\n\r\n\r\n    constructor(address _stableCoin, address _comptroller, address _priceOracle )  {\r\n        busd = IERC20(_stableCoin);\r\n        // xendFinance = XendFinanceIndividual_Yearn_V1(_xendFinanceAddress);\r\n        comptroller = ComptrollerInterface(_comptroller);\r\n\t\tpriceOracle = PriceOracleInterface(_priceOracle);\r\n        \r\n    }\r\n\r\n    function register(\r\n        uint256 _id, \r\n        address _underlyingAsset,\r\n        string memory _userDetails, \r\n        uint256 _amountToSpend,\r\n        uint256 _approvedAmountToSpend,  \r\n        uint256 _timeDurationOfDeposit\r\n        ) \r\n        public {\r\n        require(!isRegistered[msg.sender], \"Caller address already exists\");\r\n\r\n        User memory user = User({\r\n            id: _id,\r\n            userAddress: payable(msg.sender),\r\n            underlyingAsset: _underlyingAsset,\r\n            userDetails: _userDetails,\r\n            depositedAmount: 0,\r\n            amountToSpend: _amountToSpend,\r\n            approvedAmountToSpend: _approvedAmountToSpend,\r\n            startTime: block.timestamp,\r\n            timeDurationOfdeposit: block.timestamp + _timeDurationOfDeposit,\r\n            lockTime: 0\r\n        });\r\n\r\n        pensionServiceApplicant[msg.sender] = user;\r\n        users.push(user);\r\n        isRegistered[msg.sender] = true;\r\n\r\n        emit Register(msg.sender, user.userDetails, user.approvedAmountToSpend, user.lockTime);\r\n    }\r\n\r\n\r\n\r\n    function deposit(uint256 _amount) public payable {\r\n        User storage user = pensionServiceApplicant[msg.sender];\r\n        address cTokenaddress = user.underlyingAsset;\r\n        _supply(cTokenaddress, _amount);\r\n        user.depositedAmount = user.depositedAmount + _amount;\r\n        emit Deposit(msg.sender, user.depositedAmount);\r\n\r\n    }\r\n\r\n\r\n\r\n    function _enterMarket(address _cTokenaddress) internal {\r\n\t\taddress[] memory markets = new address[](1);\r\n\t\tmarkets[0] = _cTokenaddress;\r\n\t\tuint[] memory results = comptroller.enterMarkets(markets);\r\n\t\trequire( results[0] == 0, 'comptroller#enterMarkets() failed. see Compound ErrorReporter.sol');\r\n\t}\r\n\r\n\r\n    // function supplyErc20ToCompound(\r\n    //     address _erc20Contract,\r\n    //     address _cErc20Contract,\r\n    //     uint256 _numTokensToSupply\r\n    // ) public returns (uint) {\r\n    //     // Create a reference to the underlying asset contract, like DAI.\r\n    //     IERC20 underlying = IERC20(_erc20Contract);\r\n\r\n    //     // Create a reference to the corresponding cToken contract, like cDAI\r\n    //     CTokenInterface cToken = CTokenInterface(_cErc20Contract);\r\n\r\n    //     // Amount of current exchange rate from cToken to underlying\r\n    //     // uint256 exchangeRateMantissa = cToken.exchangeRateCurrent();\r\n    //     // emit MyLog(\"Exchange Rate (scaled up): \", exchangeRateMantissa);\r\n\r\n    //     // Amount added to you supply balance this block\r\n    //     // uint256 supplyRateMantissa = cToken.supplyRatePerBlock();\r\n    //     // emit MyLog(\"Supply Rate: (scaled up)\", supplyRateMantissa);\r\n\r\n    //     // Approve transfer on the ERC20 contract\r\n    //     underlying.approve(_cErc20Contract, _numTokensToSupply);\r\n\r\n    //     // Mint cTokens\r\n    //     uint mintResult = cToken.mint(_numTokensToSupply);\r\n    //     return mintResult;\r\n    // }\r\n\r\n\r\n\r\n    function _supply(address cTokenaddress, uint underlyingAmount) internal {\r\n        require(isRegistered[msg.sender], \"caller is not registered\");\r\n        // _enterMarket(cTokenaddress);\r\n\t\tCTokenInterface cToken = CTokenInterface(cTokenaddress);\r\n\t\taddress underlyingAddress = cToken.underlying();\r\n\t\tIERC20(underlyingAddress).approve(cTokenaddress, underlyingAmount);\r\n\r\n\t\tuint result = cToken.mint(underlyingAmount);\r\n\t\trequire(result == 0, 'cToken#mint() failed. see Compound ErrorReporter.sol');\r\n\t}\r\n\r\n\r\n    // chainlink keeper function call\r\n    function checkUpkeep(bytes calldata) external view override returns(bool upkeep, bytes memory upKeepData)   {\r\n\r\n        for(uint256 i = 0; i < users.length; i++ ) {\r\n            User storage user = users[i];\r\n            if(block.timestamp > user.lockTime) {\r\n                bytes memory upKeepData = abi.encode(user);\r\n                bool upKeep = true;\r\n                // performUpkeep(upKeepData);\r\n                // users[i].startTime = block.timestamp;\r\n                return (upKeep, upKeepData);\r\n            }\r\n        }\r\n        // upKeep = true; \r\n        // upKeepData = \"0x\";\r\n        // emit Upkeep(msg.sender, upKeep);\r\n\r\n    }\r\n\r\n\r\n    // fallback function for chainlink keepers\r\n    function performUpkeep(bytes calldata upKeepData) external override  {\r\n        (User memory userData) = abi.decode(upKeepData, (User));\r\n\r\n        User storage user = pensionServiceApplicant[userData.userAddress];\r\n        if(block.timestamp > user.lockTime) {\r\n            // do something with the user\r\n            require(isRegistered[user.userAddress], \"Address not registered\");\r\n            require(user.depositedAmount > 0, \"Insufficient balance cannot perform upkeep\");\r\n            isRegistered[user.userAddress] = false;\r\n            CTokenInterface cToken = CTokenInterface(user.underlyingAsset);\r\n\r\n            uint amountToSend = user.depositedAmount;\r\n            address underlyingAsset = cToken.underlying();\r\n            IERC20(underlyingAsset).transfer(user.userAddress, amountToSend);\r\n            user.depositedAmount = 0;\r\n\r\n            emit Withdraw(address(this), user.userAddress, amountToSend);\r\n            \r\n            // busd.transferFrom(payable(user.userAddress), address(this), user.amountToSpend);\r\n            // (bool success,) = payable(user.userAddress).transfer(address(this), user.amountToSpend)(\"\");\r\n            // require(success, \"Transfer to contract not successful\");\r\n            // do something with Xend protocol. or compound finance\r\n\r\n\r\n            // user.approvedAmountToSpend = user.approvedAmountToSpend - user.amountToSpend;\r\n            // user.depositedAmount = user.depositedAmount + user.amountToSpend;\r\n            // user.startTime = block.timestamp;\r\n\r\n            // emit Deposit(user.id, user.userDetails, user.lockTime, user.approvedAmountToSpend);\r\n\r\n        }\r\n\r\n    }\r\n\r\n\r\n\r\n    function withdraw() public {\r\n        require(isRegistered[msg.sender], \"Caller not registered\");\r\n        require(pensionServiceApplicant[msg.sender].depositedAmount > 0, \"Insufficient Balance\");\r\n\r\n        // Point to the User in Storage\r\n        User storage user = pensionServiceApplicant[msg.sender];\r\n\r\n        if(block.timestamp < user.lockTime) {\r\n            require(user.depositedAmount > 0, \"insufficient balance\");\r\n            _redeem(user.underlyingAsset, user.depositedAmount);\r\n            isRegistered[msg.sender] = false;\r\n            uint amountToSend = user.depositedAmount.div(2);\r\n            CTokenInterface cToken = CTokenInterface(user.underlyingAsset);\r\n            address underlyingAsset = cToken.underlying();\r\n            IERC20(underlyingAsset).transfer(user.userAddress, amountToSend);\r\n            user.depositedAmount = 0;\r\n            emit Withdraw(address(this), msg.sender, amountToSend);\r\n        } else {\r\n            require(user.depositedAmount > 0, \"insufficient balance\");\r\n            _redeem(user.underlyingAsset, user.depositedAmount);\r\n            isRegistered[msg.sender] = false;\r\n            uint amountToSend = user.depositedAmount;\r\n            CTokenInterface cToken = CTokenInterface(user.underlyingAsset);\r\n            address underlyingAsset = cToken.underlying();\r\n            IERC20(underlyingAsset).transfer(user.userAddress, amountToSend);\r\n            user.depositedAmount = 0;\r\n\r\n            emit Withdraw(address(this), msg.sender, amountToSend);\r\n        }\r\n\r\n        // require(block.timestamp > user.lockTime, \"Early withdrawal will cost you 50% of your initial deposit\");\r\n\r\n\r\n    }\r\n\r\n\r\n    function _redeem(address cTokenaddress, uint tokenAmount) internal {\r\n\t\tCTokenInterface cToken = CTokenInterface(cTokenaddress);\r\n\t\tuint result = cToken.redeemUnderlying(tokenAmount);\r\n\t\trequire(result == 0, 'cToken#redeem() failed. see Compound ErrorReporter.sol');\r\n\t}\r\n\r\n    function updateTimeDurationOfDeposit() public {\r\n        User storage user = pensionServiceApplicant[msg.sender];\r\n        user.lockTime = 0;\r\n    } \r\n\r\n    function setLockTime(uint _lockTime) public {\r\n        require(isRegistered[msg.sender], \"Caller has to be Registered\");\r\n        User storage user = pensionServiceApplicant[msg.sender];\r\n        require(user.lockTime == 0, \"Caller already has a lock Time Set\");\r\n        user.lockTime = block.timestamp + _lockTime;\r\n    }\r\n}",
  "sourcePath": "/mnt/c/Users/chuks/Desktop/Project/beima_project/contracts/PensionServiceProvider.sol",
  "compiler": {
    "name": "solc",
    "version": "0.8.0+commit.c7dfd78e.Emscripten.clang"
  },
  "schemaVersion": "3.4.0",
  "updatedAt": "2021-11-23T17:44:41.629Z",
  "networkType": "ethereum",
  "devdoc": {
    "kind": "dev",
    "methods": {},
    "version": 1
  },
  "userdoc": {
    "kind": "user",
    "methods": {},
    "version": 1
  }
}